{
  "abi": [
    {
      "inputs": [
        {
          "internalType": "uint256[4]",
          "name": "amounts",
          "type": "uint256[4]"
        },
        {
          "internalType": "bool",
          "name": "",
          "type": "bool"
        }
      ],
      "name": "calc_token_amount",
      "outputs": [
        {
          "internalType": "uint256",
          "name": "",
          "type": "uint256"
        }
      ],
      "stateMutability": "view",
      "type": "function"
    },
    {
      "inputs": [],
      "name": "get_virtual_price",
      "outputs": [
        {
          "internalType": "uint256",
          "name": "",
          "type": "uint256"
        }
      ],
      "stateMutability": "view",
      "type": "function"
    },
    {
      "inputs": [
        {
          "internalType": "uint256",
          "name": "price",
          "type": "uint256"
        }
      ],
      "name": "set_withdraw_price",
      "outputs": [],
      "stateMutability": "nonpayable",
      "type": "function"
    },
    {
      "inputs": [],
      "name": "sharePrice",
      "outputs": [
        {
          "internalType": "uint256",
          "name": "",
          "type": "uint256"
        }
      ],
      "stateMutability": "view",
      "type": "function"
    }
  ],
  "evm": {
    "bytecode": {
      "linkReferences": {},
      "object": "6080604052670de0b6b3a764000060005534801561001c57600080fd5b5061014f8061002c6000396000f3fe608060405234801561001057600080fd5b506004361061004c5760003560e01c80633142dc36146100515780638726972914610070578063bb7b8b801461008a578063cf701ff714610092575b600080fd5b61006e6004803603602081101561006757600080fd5b50356100e6565b005b6100786100eb565b60408051918252519081900360200190f35b6100786100f1565b610078600480360360a08110156100a857600080fd5b8101908080608001906004806020026040519081016040528092919082600460200280828437600092019190915250919450505035151590506100f7565b600055565b60005481565b60005490565b600080546060840151670de0b6b3a7640000028161011157fe5b04939250505056fea2646970667358221220029b9816876c554761f6119315810ed1bc7590b7f0088cbfab7702b7e9b5327d64736f6c634300060a0033",
      "opcodes": "PUSH1 0x80 PUSH1 0x40 MSTORE PUSH8 0xDE0B6B3A7640000 PUSH1 0x0 SSTORE CALLVALUE DUP1 ISZERO PUSH2 0x1C JUMPI PUSH1 0x0 DUP1 REVERT JUMPDEST POP PUSH2 0x14F DUP1 PUSH2 0x2C PUSH1 0x0 CODECOPY PUSH1 0x0 RETURN INVALID PUSH1 0x80 PUSH1 0x40 MSTORE CALLVALUE DUP1 ISZERO PUSH2 0x10 JUMPI PUSH1 0x0 DUP1 REVERT JUMPDEST POP PUSH1 0x4 CALLDATASIZE LT PUSH2 0x4C JUMPI PUSH1 0x0 CALLDATALOAD PUSH1 0xE0 SHR DUP1 PUSH4 0x3142DC36 EQ PUSH2 0x51 JUMPI DUP1 PUSH4 0x87269729 EQ PUSH2 0x70 JUMPI DUP1 PUSH4 0xBB7B8B80 EQ PUSH2 0x8A JUMPI DUP1 PUSH4 0xCF701FF7 EQ PUSH2 0x92 JUMPI JUMPDEST PUSH1 0x0 DUP1 REVERT JUMPDEST PUSH2 0x6E PUSH1 0x4 DUP1 CALLDATASIZE SUB PUSH1 0x20 DUP2 LT ISZERO PUSH2 0x67 JUMPI PUSH1 0x0 DUP1 REVERT JUMPDEST POP CALLDATALOAD PUSH2 0xE6 JUMP JUMPDEST STOP JUMPDEST PUSH2 0x78 PUSH2 0xEB JUMP JUMPDEST PUSH1 0x40 DUP1 MLOAD SWAP2 DUP3 MSTORE MLOAD SWAP1 DUP2 SWAP1 SUB PUSH1 0x20 ADD SWAP1 RETURN JUMPDEST PUSH2 0x78 PUSH2 0xF1 JUMP JUMPDEST PUSH2 0x78 PUSH1 0x4 DUP1 CALLDATASIZE SUB PUSH1 0xA0 DUP2 LT ISZERO PUSH2 0xA8 JUMPI PUSH1 0x0 DUP1 REVERT JUMPDEST DUP2 ADD SWAP1 DUP1 DUP1 PUSH1 0x80 ADD SWAP1 PUSH1 0x4 DUP1 PUSH1 0x20 MUL PUSH1 0x40 MLOAD SWAP1 DUP2 ADD PUSH1 0x40 MSTORE DUP1 SWAP3 SWAP2 SWAP1 DUP3 PUSH1 0x4 PUSH1 0x20 MUL DUP1 DUP3 DUP5 CALLDATACOPY PUSH1 0x0 SWAP3 ADD SWAP2 SWAP1 SWAP2 MSTORE POP SWAP2 SWAP5 POP POP POP CALLDATALOAD ISZERO ISZERO SWAP1 POP PUSH2 0xF7 JUMP JUMPDEST PUSH1 0x0 SSTORE JUMP JUMPDEST PUSH1 0x0 SLOAD DUP2 JUMP JUMPDEST PUSH1 0x0 SLOAD SWAP1 JUMP JUMPDEST PUSH1 0x0 DUP1 SLOAD PUSH1 0x60 DUP5 ADD MLOAD PUSH8 0xDE0B6B3A7640000 MUL DUP2 PUSH2 0x111 JUMPI INVALID JUMPDEST DIV SWAP4 SWAP3 POP POP POP JUMP INVALID LOG2 PUSH5 0x6970667358 0x22 SLT KECCAK256 MUL SWAP12 SWAP9 AND DUP8 PUSH13 0x554761F6119315810ED1BC7590 0xB7 CREATE ADDMOD DUP13 0xBF 0xAB PUSH24 0x2B7E9B5327D64736F6C634300060A003300000000000000 "
    }
  }
}