{
  "abi": [
    {
      "inputs": [],
      "stateMutability": "nonpayable",
      "type": "constructor"
    },
    {
      "anonymous": false,
      "inputs": [
        {
          "indexed": false,
          "internalType": "address",
          "name": "currentOwner",
          "type": "address"
        },
        {
          "indexed": false,
          "internalType": "address",
          "name": "pendingOwner",
          "type": "address"
        }
      ],
      "name": "NewPendingOwner",
      "type": "event"
    },
    {
      "anonymous": false,
      "inputs": [
        {
          "indexed": true,
          "internalType": "address",
          "name": "previousOwner",
          "type": "address"
        },
        {
          "indexed": true,
          "internalType": "address",
          "name": "newOwner",
          "type": "address"
        }
      ],
      "name": "ProxyOwnershipTransferred",
      "type": "event"
    },
    {
      "anonymous": false,
      "inputs": [
        {
          "indexed": true,
          "internalType": "address",
          "name": "implementation",
          "type": "address"
        }
      ],
      "name": "Upgraded",
      "type": "event"
    },
    {
      "stateMutability": "payable",
      "type": "fallback"
    },
    {
      "inputs": [],
      "name": "claimProxyOwnership",
      "outputs": [],
      "stateMutability": "nonpayable",
      "type": "function"
    },
    {
      "inputs": [],
      "name": "implementation",
      "outputs": [
        {
          "internalType": "address",
          "name": "impl",
          "type": "address"
        }
      ],
      "stateMutability": "view",
      "type": "function"
    },
    {
      "inputs": [],
      "name": "pendingProxyOwner",
      "outputs": [
        {
          "internalType": "address",
          "name": "pendingOwner",
          "type": "address"
        }
      ],
      "stateMutability": "view",
      "type": "function"
    },
    {
      "inputs": [],
      "name": "proxyOwner",
      "outputs": [
        {
          "internalType": "address",
          "name": "owner",
          "type": "address"
        }
      ],
      "stateMutability": "view",
      "type": "function"
    },
    {
      "inputs": [
        {
          "internalType": "address",
          "name": "newOwner",
          "type": "address"
        }
      ],
      "name": "transferProxyOwnership",
      "outputs": [],
      "stateMutability": "nonpayable",
      "type": "function"
    },
    {
      "inputs": [
        {
          "internalType": "address",
          "name": "implementation",
          "type": "address"
        }
      ],
      "name": "upgradeTo",
      "outputs": [],
      "stateMutability": "nonpayable",
      "type": "function"
    },
    {
      "stateMutability": "payable",
      "type": "receive"
    }
  ],
  "evm": {
    "bytecode": {
      "linkReferences": {},
      "object": "608060405234801561001057600080fd5b50610023336001600160e01b0361002816565b61004c565b7f6279e8199720cf3557ecd8b58d667c8edc486bd1cf3ad59ea9ebdfcae0d0dfac55565b61062d8061005b6000396000f3fe6080604052600436106100695760003560e01c80635c60da1b116100435780635c60da1b146101135780639965b3d614610128578063f1739cae1461013d57610078565b8063025313a2146100805780630add8140146100be5780633659cfe6146100d357610078565b366100785761007661017d565b005b61007661017d565b34801561008c57600080fd5b506100956101c2565b6040805173ffffffffffffffffffffffffffffffffffffffff9092168252519081900360200190f35b3480156100ca57600080fd5b506100956101e7565b3480156100df57600080fd5b50610076600480360360208110156100f657600080fd5b503573ffffffffffffffffffffffffffffffffffffffff1661020c565b34801561011f57600080fd5b50610095610340565b34801561013457600080fd5b50610076610365565b34801561014957600080fd5b506100766004803603602081101561016057600080fd5b503573ffffffffffffffffffffffffffffffffffffffff1661048a565b6040517f6e41e0fbe643dfdb6043698bf865aada82dc46b953f754a3468eaa272a362dc790363d82373d3d368385545af43d6000833e8080156101be573d83f35b3d83fd5b7f6279e8199720cf3557ecd8b58d667c8edc486bd1cf3ad59ea9ebdfcae0d0dfac5490565b7f8ddbac328deee8d986ec3a7b933a196f96986cb4ee030d86cc56431c728b83f45490565b6102146101c2565b73ffffffffffffffffffffffffffffffffffffffff163373ffffffffffffffffffffffffffffffffffffffff16146102ad57604080517f08c379a000000000000000000000000000000000000000000000000000000000815260206004820152601060248201527f6f6e6c792050726f7879204f776e657200000000000000000000000000000000604482015290519081900360640190fd5b7f6e41e0fbe643dfdb6043698bf865aada82dc46b953f754a3468eaa272a362dc780549073ffffffffffffffffffffffffffffffffffffffff80831690841614156102f757600080fd5b82815560405173ffffffffffffffffffffffffffffffffffffffff8416907fbc7cd75a20ee27fd9adebab32041f755214dbc6bffa90cc0225b39da2e5c2d3b90600090a2505050565b7f6e41e0fbe643dfdb6043698bf865aada82dc46b953f754a3468eaa272a362dc75490565b61036d6101e7565b73ffffffffffffffffffffffffffffffffffffffff163373ffffffffffffffffffffffffffffffffffffffff161461040657604080517f08c379a000000000000000000000000000000000000000000000000000000000815260206004820152601860248201527f6f6e6c792070656e64696e672050726f7879204f776e65720000000000000000604482015290519081900360640190fd5b61040e6101e7565b73ffffffffffffffffffffffffffffffffffffffff1661042c6101c2565b73ffffffffffffffffffffffffffffffffffffffff167f5a3e66efaa1e445ebd894728a69d6959842ea1e97bd79b892797106e270efcd960405160405180910390a361047e6104796101e7565b6105af565b61048860006105d3565b565b6104926101c2565b73ffffffffffffffffffffffffffffffffffffffff163373ffffffffffffffffffffffffffffffffffffffff161461052b57604080517f08c379a000000000000000000000000000000000000000000000000000000000815260206004820152601060248201527f6f6e6c792050726f7879204f776e657200000000000000000000000000000000604482015290519081900360640190fd5b73ffffffffffffffffffffffffffffffffffffffff811661054b57600080fd5b610554816105d3565b7fb3d55174552271a4f1aaf36b72f50381e892171636b3fb5447fe00e995e7a37b61057d6101c2565b6040805173ffffffffffffffffffffffffffffffffffffffff928316815291841660208301528051918290030190a150565b7f6279e8199720cf3557ecd8b58d667c8edc486bd1cf3ad59ea9ebdfcae0d0dfac55565b7f8ddbac328deee8d986ec3a7b933a196f96986cb4ee030d86cc56431c728b83f45556fea26469706673582212206acd099dfc34ccee396084df959d0fdd422a2c554ac50708d35a07f9a50e18bd64736f6c634300060a0033",
      "opcodes": "PUSH1 0x80 PUSH1 0x40 MSTORE CALLVALUE DUP1 ISZERO PUSH2 0x10 JUMPI PUSH1 0x0 DUP1 REVERT JUMPDEST POP PUSH2 0x23 CALLER PUSH1 0x1 PUSH1 0x1 PUSH1 0xE0 SHL SUB PUSH2 0x28 AND JUMP JUMPDEST PUSH2 0x4C JUMP JUMPDEST PUSH32 0x6279E8199720CF3557ECD8B58D667C8EDC486BD1CF3AD59EA9EBDFCAE0D0DFAC SSTORE JUMP JUMPDEST PUSH2 0x62D DUP1 PUSH2 0x5B PUSH1 0x0 CODECOPY PUSH1 0x0 RETURN INVALID PUSH1 0x80 PUSH1 0x40 MSTORE PUSH1 0x4 CALLDATASIZE LT PUSH2 0x69 JUMPI PUSH1 0x0 CALLDATALOAD PUSH1 0xE0 SHR DUP1 PUSH4 0x5C60DA1B GT PUSH2 0x43 JUMPI DUP1 PUSH4 0x5C60DA1B EQ PUSH2 0x113 JUMPI DUP1 PUSH4 0x9965B3D6 EQ PUSH2 0x128 JUMPI DUP1 PUSH4 0xF1739CAE EQ PUSH2 0x13D JUMPI PUSH2 0x78 JUMP JUMPDEST DUP1 PUSH4 0x25313A2 EQ PUSH2 0x80 JUMPI DUP1 PUSH4 0xADD8140 EQ PUSH2 0xBE JUMPI DUP1 PUSH4 0x3659CFE6 EQ PUSH2 0xD3 JUMPI PUSH2 0x78 JUMP JUMPDEST CALLDATASIZE PUSH2 0x78 JUMPI PUSH2 0x76 PUSH2 0x17D JUMP JUMPDEST STOP JUMPDEST PUSH2 0x76 PUSH2 0x17D JUMP JUMPDEST CALLVALUE DUP1 ISZERO PUSH2 0x8C JUMPI PUSH1 0x0 DUP1 REVERT JUMPDEST POP PUSH2 0x95 PUSH2 0x1C2 JUMP JUMPDEST PUSH1 0x40 DUP1 MLOAD PUSH20 0xFFFFFFFFFFFFFFFFFFFFFFFFFFFFFFFFFFFFFFFF SWAP1 SWAP3 AND DUP3 MSTORE MLOAD SWAP1 DUP2 SWAP1 SUB PUSH1 0x20 ADD SWAP1 RETURN JUMPDEST CALLVALUE DUP1 ISZERO PUSH2 0xCA JUMPI PUSH1 0x0 DUP1 REVERT JUMPDEST POP PUSH2 0x95 PUSH2 0x1E7 JUMP JUMPDEST CALLVALUE DUP1 ISZERO PUSH2 0xDF JUMPI PUSH1 0x0 DUP1 REVERT JUMPDEST POP PUSH2 0x76 PUSH1 0x4 DUP1 CALLDATASIZE SUB PUSH1 0x20 DUP2 LT ISZERO PUSH2 0xF6 JUMPI PUSH1 0x0 DUP1 REVERT JUMPDEST POP CALLDATALOAD PUSH20 0xFFFFFFFFFFFFFFFFFFFFFFFFFFFFFFFFFFFFFFFF AND PUSH2 0x20C JUMP JUMPDEST CALLVALUE DUP1 ISZERO PUSH2 0x11F JUMPI PUSH1 0x0 DUP1 REVERT JUMPDEST POP PUSH2 0x95 PUSH2 0x340 JUMP JUMPDEST CALLVALUE DUP1 ISZERO PUSH2 0x134 JUMPI PUSH1 0x0 DUP1 REVERT JUMPDEST POP PUSH2 0x76 PUSH2 0x365 JUMP JUMPDEST CALLVALUE DUP1 ISZERO PUSH2 0x149 JUMPI PUSH1 0x0 DUP1 REVERT JUMPDEST POP PUSH2 0x76 PUSH1 0x4 DUP1 CALLDATASIZE SUB PUSH1 0x20 DUP2 LT ISZERO PUSH2 0x160 JUMPI PUSH1 0x0 DUP1 REVERT JUMPDEST POP CALLDATALOAD PUSH20 0xFFFFFFFFFFFFFFFFFFFFFFFFFFFFFFFFFFFFFFFF AND PUSH2 0x48A JUMP JUMPDEST PUSH1 0x40 MLOAD PUSH32 0x6E41E0FBE643DFDB6043698BF865AADA82DC46B953F754A3468EAA272A362DC7 SWAP1 CALLDATASIZE RETURNDATASIZE DUP3 CALLDATACOPY RETURNDATASIZE RETURNDATASIZE CALLDATASIZE DUP4 DUP6 SLOAD GAS DELEGATECALL RETURNDATASIZE PUSH1 0x0 DUP4 RETURNDATACOPY DUP1 DUP1 ISZERO PUSH2 0x1BE JUMPI RETURNDATASIZE DUP4 RETURN JUMPDEST RETURNDATASIZE DUP4 REVERT JUMPDEST PUSH32 0x6279E8199720CF3557ECD8B58D667C8EDC486BD1CF3AD59EA9EBDFCAE0D0DFAC SLOAD SWAP1 JUMP JUMPDEST PUSH32 0x8DDBAC328DEEE8D986EC3A7B933A196F96986CB4EE030D86CC56431C728B83F4 SLOAD SWAP1 JUMP JUMPDEST PUSH2 0x214 PUSH2 0x1C2 JUMP JUMPDEST PUSH20 0xFFFFFFFFFFFFFFFFFFFFFFFFFFFFFFFFFFFFFFFF AND CALLER PUSH20 0xFFFFFFFFFFFFFFFFFFFFFFFFFFFFFFFFFFFFFFFF AND EQ PUSH2 0x2AD JUMPI PUSH1 0x40 DUP1 MLOAD PUSH32 0x8C379A000000000000000000000000000000000000000000000000000000000 DUP2 MSTORE PUSH1 0x20 PUSH1 0x4 DUP3 ADD MSTORE PUSH1 0x10 PUSH1 0x24 DUP3 ADD MSTORE PUSH32 0x6F6E6C792050726F7879204F776E657200000000000000000000000000000000 PUSH1 0x44 DUP3 ADD MSTORE SWAP1 MLOAD SWAP1 DUP2 SWAP1 SUB PUSH1 0x64 ADD SWAP1 REVERT JUMPDEST PUSH32 0x6E41E0FBE643DFDB6043698BF865AADA82DC46B953F754A3468EAA272A362DC7 DUP1 SLOAD SWAP1 PUSH20 0xFFFFFFFFFFFFFFFFFFFFFFFFFFFFFFFFFFFFFFFF DUP1 DUP4 AND SWAP1 DUP5 AND EQ ISZERO PUSH2 0x2F7 JUMPI PUSH1 0x0 DUP1 REVERT JUMPDEST DUP3 DUP2 SSTORE PUSH1 0x40 MLOAD PUSH20 0xFFFFFFFFFFFFFFFFFFFFFFFFFFFFFFFFFFFFFFFF DUP5 AND SWAP1 PUSH32 0xBC7CD75A20EE27FD9ADEBAB32041F755214DBC6BFFA90CC0225B39DA2E5C2D3B SWAP1 PUSH1 0x0 SWAP1 LOG2 POP POP POP JUMP JUMPDEST PUSH32 0x6E41E0FBE643DFDB6043698BF865AADA82DC46B953F754A3468EAA272A362DC7 SLOAD SWAP1 JUMP JUMPDEST PUSH2 0x36D PUSH2 0x1E7 JUMP JUMPDEST PUSH20 0xFFFFFFFFFFFFFFFFFFFFFFFFFFFFFFFFFFFFFFFF AND CALLER PUSH20 0xFFFFFFFFFFFFFFFFFFFFFFFFFFFFFFFFFFFFFFFF AND EQ PUSH2 0x406 JUMPI PUSH1 0x40 DUP1 MLOAD PUSH32 0x8C379A000000000000000000000000000000000000000000000000000000000 DUP2 MSTORE PUSH1 0x20 PUSH1 0x4 DUP3 ADD MSTORE PUSH1 0x18 PUSH1 0x24 DUP3 ADD MSTORE PUSH32 0x6F6E6C792070656E64696E672050726F7879204F776E65720000000000000000 PUSH1 0x44 DUP3 ADD MSTORE SWAP1 MLOAD SWAP1 DUP2 SWAP1 SUB PUSH1 0x64 ADD SWAP1 REVERT JUMPDEST PUSH2 0x40E PUSH2 0x1E7 JUMP JUMPDEST PUSH20 0xFFFFFFFFFFFFFFFFFFFFFFFFFFFFFFFFFFFFFFFF AND PUSH2 0x42C PUSH2 0x1C2 JUMP JUMPDEST PUSH20 0xFFFFFFFFFFFFFFFFFFFFFFFFFFFFFFFFFFFFFFFF AND PUSH32 0x5A3E66EFAA1E445EBD894728A69D6959842EA1E97BD79B892797106E270EFCD9 PUSH1 0x40 MLOAD PUSH1 0x40 MLOAD DUP1 SWAP2 SUB SWAP1 LOG3 PUSH2 0x47E PUSH2 0x479 PUSH2 0x1E7 JUMP JUMPDEST PUSH2 0x5AF JUMP JUMPDEST PUSH2 0x488 PUSH1 0x0 PUSH2 0x5D3 JUMP JUMPDEST JUMP JUMPDEST PUSH2 0x492 PUSH2 0x1C2 JUMP JUMPDEST PUSH20 0xFFFFFFFFFFFFFFFFFFFFFFFFFFFFFFFFFFFFFFFF AND CALLER PUSH20 0xFFFFFFFFFFFFFFFFFFFFFFFFFFFFFFFFFFFFFFFF AND EQ PUSH2 0x52B JUMPI PUSH1 0x40 DUP1 MLOAD PUSH32 0x8C379A000000000000000000000000000000000000000000000000000000000 DUP2 MSTORE PUSH1 0x20 PUSH1 0x4 DUP3 ADD MSTORE PUSH1 0x10 PUSH1 0x24 DUP3 ADD MSTORE PUSH32 0x6F6E6C792050726F7879204F776E657200000000000000000000000000000000 PUSH1 0x44 DUP3 ADD MSTORE SWAP1 MLOAD SWAP1 DUP2 SWAP1 SUB PUSH1 0x64 ADD SWAP1 REVERT JUMPDEST PUSH20 0xFFFFFFFFFFFFFFFFFFFFFFFFFFFFFFFFFFFFFFFF DUP2 AND PUSH2 0x54B JUMPI PUSH1 0x0 DUP1 REVERT JUMPDEST PUSH2 0x554 DUP2 PUSH2 0x5D3 JUMP JUMPDEST PUSH32 0xB3D55174552271A4F1AAF36B72F50381E892171636B3FB5447FE00E995E7A37B PUSH2 0x57D PUSH2 0x1C2 JUMP JUMPDEST PUSH1 0x40 DUP1 MLOAD PUSH20 0xFFFFFFFFFFFFFFFFFFFFFFFFFFFFFFFFFFFFFFFF SWAP3 DUP4 AND DUP2 MSTORE SWAP2 DUP5 AND PUSH1 0x20 DUP4 ADD MSTORE DUP1 MLOAD SWAP2 DUP3 SWAP1 SUB ADD SWAP1 LOG1 POP JUMP JUMPDEST PUSH32 0x6279E8199720CF3557ECD8B58D667C8EDC486BD1CF3AD59EA9EBDFCAE0D0DFAC SSTORE JUMP JUMPDEST PUSH32 0x8DDBAC328DEEE8D986EC3A7B933A196F96986CB4EE030D86CC56431C728B83F4 SSTORE JUMP INVALID LOG2 PUSH5 0x6970667358 0x22 SLT KECCAK256 PUSH11 0xCD099DFC34CCEE396084DF SWAP6 SWAP14 0xF 0xDD TIMESTAMP 0x2A 0x2C SSTORE 0x4A 0xC5 SMOD ADDMOD 0xD3 GAS SMOD 0xF9 0xA5 0xE XOR 0xBD PUSH5 0x736F6C6343 STOP MOD EXP STOP CALLER "
    }
  }
}