{
  "abi": [
    {
      "inputs": [],
      "stateMutability": "nonpayable",
      "type": "constructor"
    },
    {
      "anonymous": false,
      "inputs": [
        {
          "indexed": false,
          "internalType": "address",
          "name": "currentOwner",
          "type": "address"
        },
        {
          "indexed": false,
          "internalType": "address",
          "name": "pendingOwner",
          "type": "address"
        }
      ],
      "name": "NewPendingOwner",
      "type": "event"
    },
    {
      "anonymous": false,
      "inputs": [
        {
          "indexed": true,
          "internalType": "address",
          "name": "previousOwner",
          "type": "address"
        },
        {
          "indexed": true,
          "internalType": "address",
          "name": "newOwner",
          "type": "address"
        }
      ],
      "name": "ProxyOwnershipTransferred",
      "type": "event"
    },
    {
      "anonymous": false,
      "inputs": [
        {
          "indexed": true,
          "internalType": "address",
          "name": "implementation",
          "type": "address"
        }
      ],
      "name": "Upgraded",
      "type": "event"
    },
    {
      "stateMutability": "payable",
      "type": "fallback"
    },
    {
      "inputs": [],
      "name": "claimProxyOwnership",
      "outputs": [],
      "stateMutability": "nonpayable",
      "type": "function"
    },
    {
      "inputs": [],
      "name": "expiration",
      "outputs": [
        {
          "internalType": "uint256",
          "name": "_expiration",
          "type": "uint256"
        }
      ],
      "stateMutability": "view",
      "type": "function"
    },
    {
      "inputs": [],
      "name": "implementation",
      "outputs": [
        {
          "internalType": "address",
          "name": "impl",
          "type": "address"
        }
      ],
      "stateMutability": "view",
      "type": "function"
    },
    {
      "inputs": [],
      "name": "pendingProxyOwner",
      "outputs": [
        {
          "internalType": "address",
          "name": "pendingOwner",
          "type": "address"
        }
      ],
      "stateMutability": "view",
      "type": "function"
    },
    {
      "inputs": [],
      "name": "proxyOwner",
      "outputs": [
        {
          "internalType": "address",
          "name": "owner",
          "type": "address"
        }
      ],
      "stateMutability": "view",
      "type": "function"
    },
    {
      "inputs": [
        {
          "internalType": "uint256",
          "name": "newExpirationTime",
          "type": "uint256"
        }
      ],
      "name": "setExpiration",
      "outputs": [],
      "stateMutability": "nonpayable",
      "type": "function"
    },
    {
      "inputs": [
        {
          "internalType": "address",
          "name": "newOwner",
          "type": "address"
        }
      ],
      "name": "transferProxyOwnership",
      "outputs": [],
      "stateMutability": "nonpayable",
      "type": "function"
    },
    {
      "inputs": [
        {
          "internalType": "address",
          "name": "implementation",
          "type": "address"
        }
      ],
      "name": "upgradeTo",
      "outputs": [],
      "stateMutability": "nonpayable",
      "type": "function"
    },
    {
      "stateMutability": "payable",
      "type": "receive"
    }
  ],
  "evm": {
    "bytecode": {
      "linkReferences": {},
      "object": "608060405234801561001057600080fd5b50610023336001600160e01b0361005116565b610035336001600160e01b0361005116565b61004c62a37a0042016001600160e01b0361006316565b610118565b600080516020610bcd83398151915255565b6100746001600160e01b0361010516565b6001600160a01b0316336001600160a01b0316146100cc576040805162461bcd60e51b815260206004820152601060248201526f37b7363c90283937bc3c9027bbb732b960811b604482015290519081900360640190fd5b604080517f7472757374746f6b656e2e65787069726174696f6e0000000000000000000000815290519081900360150190206000190155565b600080516020610bcd8339815191525490565b610aa6806101276000396000f3fe60806040526004361061007f5760003560e01c8063515a20ba1161004e578063515a20ba146101505780635c60da1b1461017a5780639965b3d61461018f578063f1739cae146101a45761008e565b8063025313a2146100965780630add8140146100d45780633659cfe6146100e95780634665096d146101295761008e565b3661008e5761008c6101e4565b005b61008c6101e4565b3480156100a257600080fd5b506100ab610229565b6040805173ffffffffffffffffffffffffffffffffffffffff9092168252519081900360200190f35b3480156100e057600080fd5b506100ab61024e565b3480156100f557600080fd5b5061008c6004803603602081101561010c57600080fd5b503573ffffffffffffffffffffffffffffffffffffffff16610273565b34801561013557600080fd5b5061013e610395565b60408051918252519081900360200190f35b34801561015c57600080fd5b5061008c6004803603602081101561017357600080fd5b50356103ed565b34801561018657600080fd5b506100ab610564565b34801561019b57600080fd5b5061008c610589565b3480156101b057600080fd5b5061008c600480360360208110156101c757600080fd5b503573ffffffffffffffffffffffffffffffffffffffff166106ae565b6040517f6e41e0fbe643dfdb6043698bf865aada82dc46b953f754a3468eaa272a362dc790363d82373d3d368385545af43d6000833e808015610225573d83f35b3d83fd5b7f6279e8199720cf3557ecd8b58d667c8edc486bd1cf3ad59ea9ebdfcae0d0dfac5490565b7f8ddbac328deee8d986ec3a7b933a196f96986cb4ee030d86cc56431c728b83f45490565b61027b610229565b73ffffffffffffffffffffffffffffffffffffffff163373ffffffffffffffffffffffffffffffffffffffff161461031457604080517f08c379a000000000000000000000000000000000000000000000000000000000815260206004820152601060248201527f6f6e6c792050726f7879204f776e657200000000000000000000000000000000604482015290519081900360640190fd5b61031c610395565b421061038957604080517f08c379a000000000000000000000000000000000000000000000000000000000815260206004820152601560248201527f61667465722065787069726174696f6e20646174650000000000000000000000604482015290519081900360640190fd5b610392816107d3565b50565b604080517f7472757374746f6b656e2e65787069726174696f6e0000000000000000000000815290519081900360150190207fffffffffffffffffffffffffffffffffffffffffffffffffffffffffffffffff015490565b6103f5610229565b73ffffffffffffffffffffffffffffffffffffffff163373ffffffffffffffffffffffffffffffffffffffff161461048e57604080517f08c379a000000000000000000000000000000000000000000000000000000000815260206004820152601060248201527f6f6e6c792050726f7879204f776e657200000000000000000000000000000000604482015290519081900360640190fd5b610496610395565b421061050357604080517f08c379a000000000000000000000000000000000000000000000000000000000815260206004820152601560248201527f61667465722065787069726174696f6e2074696d650000000000000000000000604482015290519081900360640190fd5b80421061055b576040517f08c379a0000000000000000000000000000000000000000000000000000000008152600401808060200182810382526029815260200180610a486029913960400191505060405180910390fd5b61039281610907565b7f6e41e0fbe643dfdb6043698bf865aada82dc46b953f754a3468eaa272a362dc75490565b61059161024e565b73ffffffffffffffffffffffffffffffffffffffff163373ffffffffffffffffffffffffffffffffffffffff161461062a57604080517f08c379a000000000000000000000000000000000000000000000000000000000815260206004820152601860248201527f6f6e6c792070656e64696e672050726f7879204f776e65720000000000000000604482015290519081900360640190fd5b61063261024e565b73ffffffffffffffffffffffffffffffffffffffff16610650610229565b73ffffffffffffffffffffffffffffffffffffffff167f5a3e66efaa1e445ebd894728a69d6959842ea1e97bd79b892797106e270efcd960405160405180910390a36106a261069d61024e565b6109ff565b6106ac6000610a23565b565b6106b6610229565b73ffffffffffffffffffffffffffffffffffffffff163373ffffffffffffffffffffffffffffffffffffffff161461074f57604080517f08c379a000000000000000000000000000000000000000000000000000000000815260206004820152601060248201527f6f6e6c792050726f7879204f776e657200000000000000000000000000000000604482015290519081900360640190fd5b73ffffffffffffffffffffffffffffffffffffffff811661076f57600080fd5b61077881610a23565b7fb3d55174552271a4f1aaf36b72f50381e892171636b3fb5447fe00e995e7a37b6107a1610229565b6040805173ffffffffffffffffffffffffffffffffffffffff928316815291841660208301528051918290030190a150565b6107db610229565b73ffffffffffffffffffffffffffffffffffffffff163373ffffffffffffffffffffffffffffffffffffffff161461087457604080517f08c379a000000000000000000000000000000000000000000000000000000000815260206004820152601060248201527f6f6e6c792050726f7879204f776e657200000000000000000000000000000000604482015290519081900360640190fd5b7f6e41e0fbe643dfdb6043698bf865aada82dc46b953f754a3468eaa272a362dc780549073ffffffffffffffffffffffffffffffffffffffff80831690841614156108be57600080fd5b82815560405173ffffffffffffffffffffffffffffffffffffffff8416907fbc7cd75a20ee27fd9adebab32041f755214dbc6bffa90cc0225b39da2e5c2d3b90600090a2505050565b61090f610229565b73ffffffffffffffffffffffffffffffffffffffff163373ffffffffffffffffffffffffffffffffffffffff16146109a857604080517f08c379a000000000000000000000000000000000000000000000000000000000815260206004820152601060248201527f6f6e6c792050726f7879204f776e657200000000000000000000000000000000604482015290519081900360640190fd5b604080517f7472757374746f6b656e2e65787069726174696f6e0000000000000000000000815290519081900360150190207fffffffffffffffffffffffffffffffffffffffffffffffffffffffffffffffff0155565b7f6279e8199720cf3557ecd8b58d667c8edc486bd1cf3ad59ea9ebdfcae0d0dfac55565b7f8ddbac328deee8d986ec3a7b933a196f96986cb4ee030d86cc56431c728b83f45556fe6e65772065787069726174696f6e2074696d65206d75737420626520696e2074686520667574757265a2646970667358221220f9243161d148b5c0d2ab89a0dcec37c784e8aeef2b819431e6882a5b097437b964736f6c634300060a00336279e8199720cf3557ecd8b58d667c8edc486bd1cf3ad59ea9ebdfcae0d0dfac",
      "opcodes": "PUSH1 0x80 PUSH1 0x40 MSTORE CALLVALUE DUP1 ISZERO PUSH2 0x10 JUMPI PUSH1 0x0 DUP1 REVERT JUMPDEST POP PUSH2 0x23 CALLER PUSH1 0x1 PUSH1 0x1 PUSH1 0xE0 SHL SUB PUSH2 0x51 AND JUMP JUMPDEST PUSH2 0x35 CALLER PUSH1 0x1 PUSH1 0x1 PUSH1 0xE0 SHL SUB PUSH2 0x51 AND JUMP JUMPDEST PUSH2 0x4C PUSH3 0xA37A00 TIMESTAMP ADD PUSH1 0x1 PUSH1 0x1 PUSH1 0xE0 SHL SUB PUSH2 0x63 AND JUMP JUMPDEST PUSH2 0x118 JUMP JUMPDEST PUSH1 0x0 DUP1 MLOAD PUSH1 0x20 PUSH2 0xBCD DUP4 CODECOPY DUP2 MLOAD SWAP2 MSTORE SSTORE JUMP JUMPDEST PUSH2 0x74 PUSH1 0x1 PUSH1 0x1 PUSH1 0xE0 SHL SUB PUSH2 0x105 AND JUMP JUMPDEST PUSH1 0x1 PUSH1 0x1 PUSH1 0xA0 SHL SUB AND CALLER PUSH1 0x1 PUSH1 0x1 PUSH1 0xA0 SHL SUB AND EQ PUSH2 0xCC JUMPI PUSH1 0x40 DUP1 MLOAD PUSH3 0x461BCD PUSH1 0xE5 SHL DUP2 MSTORE PUSH1 0x20 PUSH1 0x4 DUP3 ADD MSTORE PUSH1 0x10 PUSH1 0x24 DUP3 ADD MSTORE PUSH16 0x37B7363C90283937BC3C9027BBB732B9 PUSH1 0x81 SHL PUSH1 0x44 DUP3 ADD MSTORE SWAP1 MLOAD SWAP1 DUP2 SWAP1 SUB PUSH1 0x64 ADD SWAP1 REVERT JUMPDEST PUSH1 0x40 DUP1 MLOAD PUSH32 0x7472757374746F6B656E2E65787069726174696F6E0000000000000000000000 DUP2 MSTORE SWAP1 MLOAD SWAP1 DUP2 SWAP1 SUB PUSH1 0x15 ADD SWAP1 KECCAK256 PUSH1 0x0 NOT ADD SSTORE JUMP JUMPDEST PUSH1 0x0 DUP1 MLOAD PUSH1 0x20 PUSH2 0xBCD DUP4 CODECOPY DUP2 MLOAD SWAP2 MSTORE SLOAD SWAP1 JUMP JUMPDEST PUSH2 0xAA6 DUP1 PUSH2 0x127 PUSH1 0x0 CODECOPY PUSH1 0x0 RETURN INVALID PUSH1 0x80 PUSH1 0x40 MSTORE PUSH1 0x4 CALLDATASIZE LT PUSH2 0x7F JUMPI PUSH1 0x0 CALLDATALOAD PUSH1 0xE0 SHR DUP1 PUSH4 0x515A20BA GT PUSH2 0x4E JUMPI DUP1 PUSH4 0x515A20BA EQ PUSH2 0x150 JUMPI DUP1 PUSH4 0x5C60DA1B EQ PUSH2 0x17A JUMPI DUP1 PUSH4 0x9965B3D6 EQ PUSH2 0x18F JUMPI DUP1 PUSH4 0xF1739CAE EQ PUSH2 0x1A4 JUMPI PUSH2 0x8E JUMP JUMPDEST DUP1 PUSH4 0x25313A2 EQ PUSH2 0x96 JUMPI DUP1 PUSH4 0xADD8140 EQ PUSH2 0xD4 JUMPI DUP1 PUSH4 0x3659CFE6 EQ PUSH2 0xE9 JUMPI DUP1 PUSH4 0x4665096D EQ PUSH2 0x129 JUMPI PUSH2 0x8E JUMP JUMPDEST CALLDATASIZE PUSH2 0x8E JUMPI PUSH2 0x8C PUSH2 0x1E4 JUMP JUMPDEST STOP JUMPDEST PUSH2 0x8C PUSH2 0x1E4 JUMP JUMPDEST CALLVALUE DUP1 ISZERO PUSH2 0xA2 JUMPI PUSH1 0x0 DUP1 REVERT JUMPDEST POP PUSH2 0xAB PUSH2 0x229 JUMP JUMPDEST PUSH1 0x40 DUP1 MLOAD PUSH20 0xFFFFFFFFFFFFFFFFFFFFFFFFFFFFFFFFFFFFFFFF SWAP1 SWAP3 AND DUP3 MSTORE MLOAD SWAP1 DUP2 SWAP1 SUB PUSH1 0x20 ADD SWAP1 RETURN JUMPDEST CALLVALUE DUP1 ISZERO PUSH2 0xE0 JUMPI PUSH1 0x0 DUP1 REVERT JUMPDEST POP PUSH2 0xAB PUSH2 0x24E JUMP JUMPDEST CALLVALUE DUP1 ISZERO PUSH2 0xF5 JUMPI PUSH1 0x0 DUP1 REVERT JUMPDEST POP PUSH2 0x8C PUSH1 0x4 DUP1 CALLDATASIZE SUB PUSH1 0x20 DUP2 LT ISZERO PUSH2 0x10C JUMPI PUSH1 0x0 DUP1 REVERT JUMPDEST POP CALLDATALOAD PUSH20 0xFFFFFFFFFFFFFFFFFFFFFFFFFFFFFFFFFFFFFFFF AND PUSH2 0x273 JUMP JUMPDEST CALLVALUE DUP1 ISZERO PUSH2 0x135 JUMPI PUSH1 0x0 DUP1 REVERT JUMPDEST POP PUSH2 0x13E PUSH2 0x395 JUMP JUMPDEST PUSH1 0x40 DUP1 MLOAD SWAP2 DUP3 MSTORE MLOAD SWAP1 DUP2 SWAP1 SUB PUSH1 0x20 ADD SWAP1 RETURN JUMPDEST CALLVALUE DUP1 ISZERO PUSH2 0x15C JUMPI PUSH1 0x0 DUP1 REVERT JUMPDEST POP PUSH2 0x8C PUSH1 0x4 DUP1 CALLDATASIZE SUB PUSH1 0x20 DUP2 LT ISZERO PUSH2 0x173 JUMPI PUSH1 0x0 DUP1 REVERT JUMPDEST POP CALLDATALOAD PUSH2 0x3ED JUMP JUMPDEST CALLVALUE DUP1 ISZERO PUSH2 0x186 JUMPI PUSH1 0x0 DUP1 REVERT JUMPDEST POP PUSH2 0xAB PUSH2 0x564 JUMP JUMPDEST CALLVALUE DUP1 ISZERO PUSH2 0x19B JUMPI PUSH1 0x0 DUP1 REVERT JUMPDEST POP PUSH2 0x8C PUSH2 0x589 JUMP JUMPDEST CALLVALUE DUP1 ISZERO PUSH2 0x1B0 JUMPI PUSH1 0x0 DUP1 REVERT JUMPDEST POP PUSH2 0x8C PUSH1 0x4 DUP1 CALLDATASIZE SUB PUSH1 0x20 DUP2 LT ISZERO PUSH2 0x1C7 JUMPI PUSH1 0x0 DUP1 REVERT JUMPDEST POP CALLDATALOAD PUSH20 0xFFFFFFFFFFFFFFFFFFFFFFFFFFFFFFFFFFFFFFFF AND PUSH2 0x6AE JUMP JUMPDEST PUSH1 0x40 MLOAD PUSH32 0x6E41E0FBE643DFDB6043698BF865AADA82DC46B953F754A3468EAA272A362DC7 SWAP1 CALLDATASIZE RETURNDATASIZE DUP3 CALLDATACOPY RETURNDATASIZE RETURNDATASIZE CALLDATASIZE DUP4 DUP6 SLOAD GAS DELEGATECALL RETURNDATASIZE PUSH1 0x0 DUP4 RETURNDATACOPY DUP1 DUP1 ISZERO PUSH2 0x225 JUMPI RETURNDATASIZE DUP4 RETURN JUMPDEST RETURNDATASIZE DUP4 REVERT JUMPDEST PUSH32 0x6279E8199720CF3557ECD8B58D667C8EDC486BD1CF3AD59EA9EBDFCAE0D0DFAC SLOAD SWAP1 JUMP JUMPDEST PUSH32 0x8DDBAC328DEEE8D986EC3A7B933A196F96986CB4EE030D86CC56431C728B83F4 SLOAD SWAP1 JUMP JUMPDEST PUSH2 0x27B PUSH2 0x229 JUMP JUMPDEST PUSH20 0xFFFFFFFFFFFFFFFFFFFFFFFFFFFFFFFFFFFFFFFF AND CALLER PUSH20 0xFFFFFFFFFFFFFFFFFFFFFFFFFFFFFFFFFFFFFFFF AND EQ PUSH2 0x314 JUMPI PUSH1 0x40 DUP1 MLOAD PUSH32 0x8C379A000000000000000000000000000000000000000000000000000000000 DUP2 MSTORE PUSH1 0x20 PUSH1 0x4 DUP3 ADD MSTORE PUSH1 0x10 PUSH1 0x24 DUP3 ADD MSTORE PUSH32 0x6F6E6C792050726F7879204F776E657200000000000000000000000000000000 PUSH1 0x44 DUP3 ADD MSTORE SWAP1 MLOAD SWAP1 DUP2 SWAP1 SUB PUSH1 0x64 ADD SWAP1 REVERT JUMPDEST PUSH2 0x31C PUSH2 0x395 JUMP JUMPDEST TIMESTAMP LT PUSH2 0x389 JUMPI PUSH1 0x40 DUP1 MLOAD PUSH32 0x8C379A000000000000000000000000000000000000000000000000000000000 DUP2 MSTORE PUSH1 0x20 PUSH1 0x4 DUP3 ADD MSTORE PUSH1 0x15 PUSH1 0x24 DUP3 ADD MSTORE PUSH32 0x61667465722065787069726174696F6E20646174650000000000000000000000 PUSH1 0x44 DUP3 ADD MSTORE SWAP1 MLOAD SWAP1 DUP2 SWAP1 SUB PUSH1 0x64 ADD SWAP1 REVERT JUMPDEST PUSH2 0x392 DUP2 PUSH2 0x7D3 JUMP JUMPDEST POP JUMP JUMPDEST PUSH1 0x40 DUP1 MLOAD PUSH32 0x7472757374746F6B656E2E65787069726174696F6E0000000000000000000000 DUP2 MSTORE SWAP1 MLOAD SWAP1 DUP2 SWAP1 SUB PUSH1 0x15 ADD SWAP1 KECCAK256 PUSH32 0xFFFFFFFFFFFFFFFFFFFFFFFFFFFFFFFFFFFFFFFFFFFFFFFFFFFFFFFFFFFFFFFF ADD SLOAD SWAP1 JUMP JUMPDEST PUSH2 0x3F5 PUSH2 0x229 JUMP JUMPDEST PUSH20 0xFFFFFFFFFFFFFFFFFFFFFFFFFFFFFFFFFFFFFFFF AND CALLER PUSH20 0xFFFFFFFFFFFFFFFFFFFFFFFFFFFFFFFFFFFFFFFF AND EQ PUSH2 0x48E JUMPI PUSH1 0x40 DUP1 MLOAD PUSH32 0x8C379A000000000000000000000000000000000000000000000000000000000 DUP2 MSTORE PUSH1 0x20 PUSH1 0x4 DUP3 ADD MSTORE PUSH1 0x10 PUSH1 0x24 DUP3 ADD MSTORE PUSH32 0x6F6E6C792050726F7879204F776E657200000000000000000000000000000000 PUSH1 0x44 DUP3 ADD MSTORE SWAP1 MLOAD SWAP1 DUP2 SWAP1 SUB PUSH1 0x64 ADD SWAP1 REVERT JUMPDEST PUSH2 0x496 PUSH2 0x395 JUMP JUMPDEST TIMESTAMP LT PUSH2 0x503 JUMPI PUSH1 0x40 DUP1 MLOAD PUSH32 0x8C379A000000000000000000000000000000000000000000000000000000000 DUP2 MSTORE PUSH1 0x20 PUSH1 0x4 DUP3 ADD MSTORE PUSH1 0x15 PUSH1 0x24 DUP3 ADD MSTORE PUSH32 0x61667465722065787069726174696F6E2074696D650000000000000000000000 PUSH1 0x44 DUP3 ADD MSTORE SWAP1 MLOAD SWAP1 DUP2 SWAP1 SUB PUSH1 0x64 ADD SWAP1 REVERT JUMPDEST DUP1 TIMESTAMP LT PUSH2 0x55B JUMPI PUSH1 0x40 MLOAD PUSH32 0x8C379A000000000000000000000000000000000000000000000000000000000 DUP2 MSTORE PUSH1 0x4 ADD DUP1 DUP1 PUSH1 0x20 ADD DUP3 DUP2 SUB DUP3 MSTORE PUSH1 0x29 DUP2 MSTORE PUSH1 0x20 ADD DUP1 PUSH2 0xA48 PUSH1 0x29 SWAP2 CODECOPY PUSH1 0x40 ADD SWAP2 POP POP PUSH1 0x40 MLOAD DUP1 SWAP2 SUB SWAP1 REVERT JUMPDEST PUSH2 0x392 DUP2 PUSH2 0x907 JUMP JUMPDEST PUSH32 0x6E41E0FBE643DFDB6043698BF865AADA82DC46B953F754A3468EAA272A362DC7 SLOAD SWAP1 JUMP JUMPDEST PUSH2 0x591 PUSH2 0x24E JUMP JUMPDEST PUSH20 0xFFFFFFFFFFFFFFFFFFFFFFFFFFFFFFFFFFFFFFFF AND CALLER PUSH20 0xFFFFFFFFFFFFFFFFFFFFFFFFFFFFFFFFFFFFFFFF AND EQ PUSH2 0x62A JUMPI PUSH1 0x40 DUP1 MLOAD PUSH32 0x8C379A000000000000000000000000000000000000000000000000000000000 DUP2 MSTORE PUSH1 0x20 PUSH1 0x4 DUP3 ADD MSTORE PUSH1 0x18 PUSH1 0x24 DUP3 ADD MSTORE PUSH32 0x6F6E6C792070656E64696E672050726F7879204F776E65720000000000000000 PUSH1 0x44 DUP3 ADD MSTORE SWAP1 MLOAD SWAP1 DUP2 SWAP1 SUB PUSH1 0x64 ADD SWAP1 REVERT JUMPDEST PUSH2 0x632 PUSH2 0x24E JUMP JUMPDEST PUSH20 0xFFFFFFFFFFFFFFFFFFFFFFFFFFFFFFFFFFFFFFFF AND PUSH2 0x650 PUSH2 0x229 JUMP JUMPDEST PUSH20 0xFFFFFFFFFFFFFFFFFFFFFFFFFFFFFFFFFFFFFFFF AND PUSH32 0x5A3E66EFAA1E445EBD894728A69D6959842EA1E97BD79B892797106E270EFCD9 PUSH1 0x40 MLOAD PUSH1 0x40 MLOAD DUP1 SWAP2 SUB SWAP1 LOG3 PUSH2 0x6A2 PUSH2 0x69D PUSH2 0x24E JUMP JUMPDEST PUSH2 0x9FF JUMP JUMPDEST PUSH2 0x6AC PUSH1 0x0 PUSH2 0xA23 JUMP JUMPDEST JUMP JUMPDEST PUSH2 0x6B6 PUSH2 0x229 JUMP JUMPDEST PUSH20 0xFFFFFFFFFFFFFFFFFFFFFFFFFFFFFFFFFFFFFFFF AND CALLER PUSH20 0xFFFFFFFFFFFFFFFFFFFFFFFFFFFFFFFFFFFFFFFF AND EQ PUSH2 0x74F JUMPI PUSH1 0x40 DUP1 MLOAD PUSH32 0x8C379A000000000000000000000000000000000000000000000000000000000 DUP2 MSTORE PUSH1 0x20 PUSH1 0x4 DUP3 ADD MSTORE PUSH1 0x10 PUSH1 0x24 DUP3 ADD MSTORE PUSH32 0x6F6E6C792050726F7879204F776E657200000000000000000000000000000000 PUSH1 0x44 DUP3 ADD MSTORE SWAP1 MLOAD SWAP1 DUP2 SWAP1 SUB PUSH1 0x64 ADD SWAP1 REVERT JUMPDEST PUSH20 0xFFFFFFFFFFFFFFFFFFFFFFFFFFFFFFFFFFFFFFFF DUP2 AND PUSH2 0x76F JUMPI PUSH1 0x0 DUP1 REVERT JUMPDEST PUSH2 0x778 DUP2 PUSH2 0xA23 JUMP JUMPDEST PUSH32 0xB3D55174552271A4F1AAF36B72F50381E892171636B3FB5447FE00E995E7A37B PUSH2 0x7A1 PUSH2 0x229 JUMP JUMPDEST PUSH1 0x40 DUP1 MLOAD PUSH20 0xFFFFFFFFFFFFFFFFFFFFFFFFFFFFFFFFFFFFFFFF SWAP3 DUP4 AND DUP2 MSTORE SWAP2 DUP5 AND PUSH1 0x20 DUP4 ADD MSTORE DUP1 MLOAD SWAP2 DUP3 SWAP1 SUB ADD SWAP1 LOG1 POP JUMP JUMPDEST PUSH2 0x7DB PUSH2 0x229 JUMP JUMPDEST PUSH20 0xFFFFFFFFFFFFFFFFFFFFFFFFFFFFFFFFFFFFFFFF AND CALLER PUSH20 0xFFFFFFFFFFFFFFFFFFFFFFFFFFFFFFFFFFFFFFFF AND EQ PUSH2 0x874 JUMPI PUSH1 0x40 DUP1 MLOAD PUSH32 0x8C379A000000000000000000000000000000000000000000000000000000000 DUP2 MSTORE PUSH1 0x20 PUSH1 0x4 DUP3 ADD MSTORE PUSH1 0x10 PUSH1 0x24 DUP3 ADD MSTORE PUSH32 0x6F6E6C792050726F7879204F776E657200000000000000000000000000000000 PUSH1 0x44 DUP3 ADD MSTORE SWAP1 MLOAD SWAP1 DUP2 SWAP1 SUB PUSH1 0x64 ADD SWAP1 REVERT JUMPDEST PUSH32 0x6E41E0FBE643DFDB6043698BF865AADA82DC46B953F754A3468EAA272A362DC7 DUP1 SLOAD SWAP1 PUSH20 0xFFFFFFFFFFFFFFFFFFFFFFFFFFFFFFFFFFFFFFFF DUP1 DUP4 AND SWAP1 DUP5 AND EQ ISZERO PUSH2 0x8BE JUMPI PUSH1 0x0 DUP1 REVERT JUMPDEST DUP3 DUP2 SSTORE PUSH1 0x40 MLOAD PUSH20 0xFFFFFFFFFFFFFFFFFFFFFFFFFFFFFFFFFFFFFFFF DUP5 AND SWAP1 PUSH32 0xBC7CD75A20EE27FD9ADEBAB32041F755214DBC6BFFA90CC0225B39DA2E5C2D3B SWAP1 PUSH1 0x0 SWAP1 LOG2 POP POP POP JUMP JUMPDEST PUSH2 0x90F PUSH2 0x229 JUMP JUMPDEST PUSH20 0xFFFFFFFFFFFFFFFFFFFFFFFFFFFFFFFFFFFFFFFF AND CALLER PUSH20 0xFFFFFFFFFFFFFFFFFFFFFFFFFFFFFFFFFFFFFFFF AND EQ PUSH2 0x9A8 JUMPI PUSH1 0x40 DUP1 MLOAD PUSH32 0x8C379A000000000000000000000000000000000000000000000000000000000 DUP2 MSTORE PUSH1 0x20 PUSH1 0x4 DUP3 ADD MSTORE PUSH1 0x10 PUSH1 0x24 DUP3 ADD MSTORE PUSH32 0x6F6E6C792050726F7879204F776E657200000000000000000000000000000000 PUSH1 0x44 DUP3 ADD MSTORE SWAP1 MLOAD SWAP1 DUP2 SWAP1 SUB PUSH1 0x64 ADD SWAP1 REVERT JUMPDEST PUSH1 0x40 DUP1 MLOAD PUSH32 0x7472757374746F6B656E2E65787069726174696F6E0000000000000000000000 DUP2 MSTORE SWAP1 MLOAD SWAP1 DUP2 SWAP1 SUB PUSH1 0x15 ADD SWAP1 KECCAK256 PUSH32 0xFFFFFFFFFFFFFFFFFFFFFFFFFFFFFFFFFFFFFFFFFFFFFFFFFFFFFFFFFFFFFFFF ADD SSTORE JUMP JUMPDEST PUSH32 0x6279E8199720CF3557ECD8B58D667C8EDC486BD1CF3AD59EA9EBDFCAE0D0DFAC SSTORE JUMP JUMPDEST PUSH32 0x8DDBAC328DEEE8D986EC3A7B933A196F96986CB4EE030D86CC56431C728B83F4 SSTORE JUMP INVALID PUSH15 0x65772065787069726174696F6E2074 PUSH10 0x6D65206D757374206265 KECCAK256 PUSH10 0x6E207468652066757475 PUSH19 0x65A2646970667358221220F9243161D148B5C0 0xD2 0xAB DUP10 LOG0 0xDC 0xEC CALLDATACOPY 0xC7 DUP5 0xE8 0xAE 0xEF 0x2B DUP2 SWAP5 BALANCE 0xE6 DUP9 0x2A JUMPDEST MULMOD PUSH21 0x37B964736F6C634300060A00336279E8199720CF35 JUMPI 0xEC 0xD8 0xB5 DUP14 PUSH7 0x7C8EDC486BD1CF GASPRICE 0xD5 SWAP15 0xA9 0xEB 0xDF 0xCA 0xE0 0xD0 0xDF 0xAC "
    }
  }
}