{
  "abi": [
    {
      "anonymous": false,
      "inputs": [
        {
          "indexed": false,
          "internalType": "bool",
          "name": "status",
          "type": "bool"
        }
      ],
      "name": "AllMintsPaused",
      "type": "event"
    },
    {
      "anonymous": false,
      "inputs": [
        {
          "indexed": false,
          "internalType": "address",
          "name": "burner",
          "type": "address"
        },
        {
          "indexed": false,
          "internalType": "bool",
          "name": "canBurn",
          "type": "bool"
        }
      ],
      "name": "CanBurn",
      "type": "event"
    },
    {
      "anonymous": false,
      "inputs": [
        {
          "indexed": false,
          "internalType": "address",
          "name": "_newFastPause",
          "type": "address"
        }
      ],
      "name": "FastPauseSet",
      "type": "event"
    },
    {
      "anonymous": false,
      "inputs": [
        {
          "indexed": true,
          "internalType": "address",
          "name": "to",
          "type": "address"
        },
        {
          "indexed": true,
          "internalType": "uint256",
          "name": "value",
          "type": "uint256"
        },
        {
          "indexed": false,
          "internalType": "uint256",
          "name": "opIndex",
          "type": "uint256"
        },
        {
          "indexed": false,
          "internalType": "address",
          "name": "mintKey",
          "type": "address"
        }
      ],
      "name": "FinalizeMint",
      "type": "event"
    },
    {
      "anonymous": false,
      "inputs": [
        {
          "indexed": true,
          "internalType": "address",
          "name": "to",
          "type": "address"
        },
        {
          "indexed": true,
          "internalType": "uint256",
          "name": "value",
          "type": "uint256"
        },
        {
          "indexed": true,
          "internalType": "address",
          "name": "mintKey",
          "type": "address"
        }
      ],
      "name": "InstantMint",
      "type": "event"
    },
    {
      "anonymous": false,
      "inputs": [],
      "name": "InstantPoolRefilled",
      "type": "event"
    },
    {
      "anonymous": false,
      "inputs": [
        {
          "indexed": false,
          "internalType": "address",
          "name": "approver",
          "type": "address"
        },
        {
          "indexed": false,
          "internalType": "uint256",
          "name": "opIndex",
          "type": "uint256"
        }
      ],
      "name": "MintApproved",
      "type": "event"
    },
    {
      "anonymous": false,
      "inputs": [
        {
          "indexed": false,
          "internalType": "uint256",
          "name": "instant",
          "type": "uint256"
        },
        {
          "indexed": false,
          "internalType": "uint256",
          "name": "ratified",
          "type": "uint256"
        },
        {
          "indexed": false,
          "internalType": "uint256",
          "name": "multiSig",
          "type": "uint256"
        }
      ],
      "name": "MintLimitsChanged",
      "type": "event"
    },
    {
      "anonymous": false,
      "inputs": [
        {
          "indexed": false,
          "internalType": "uint256",
          "name": "opIndex",
          "type": "uint256"
        },
        {
          "indexed": false,
          "internalType": "bool",
          "name": "status",
          "type": "bool"
        }
      ],
      "name": "MintPaused",
      "type": "event"
    },
    {
      "anonymous": false,
      "inputs": [
        {
          "indexed": true,
          "internalType": "uint256",
          "name": "opIndex",
          "type": "uint256"
        },
        {
          "indexed": true,
          "internalType": "address",
          "name": "ratifier",
          "type": "address"
        }
      ],
      "name": "MintRatified",
      "type": "event"
    },
    {
      "anonymous": false,
      "inputs": [
        {
          "indexed": false,
          "internalType": "uint256",
          "name": "instant",
          "type": "uint256"
        },
        {
          "indexed": false,
          "internalType": "uint256",
          "name": "ratified",
          "type": "uint256"
        },
        {
          "indexed": false,
          "internalType": "uint256",
          "name": "multiSig",
          "type": "uint256"
        }
      ],
      "name": "MintThresholdChanged",
      "type": "event"
    },
    {
      "anonymous": false,
      "inputs": [],
      "name": "MultiSigPoolRefilled",
      "type": "event"
    },
    {
      "anonymous": false,
      "inputs": [
        {
          "indexed": true,
          "internalType": "address",
          "name": "currentOwner",
          "type": "address"
        },
        {
          "indexed": true,
          "internalType": "address",
          "name": "pendingOwner",
          "type": "address"
        }
      ],
      "name": "NewOwnerPending",
      "type": "event"
    },
    {
      "anonymous": false,
      "inputs": [
        {
          "indexed": true,
          "internalType": "address",
          "name": "previousOwner",
          "type": "address"
        },
        {
          "indexed": true,
          "internalType": "address",
          "name": "newOwner",
          "type": "address"
        }
      ],
      "name": "OwnershipTransferred",
      "type": "event"
    },
    {
      "anonymous": false,
      "inputs": [],
      "name": "RatifyPoolRefilled",
      "type": "event"
    },
    {
      "anonymous": false,
      "inputs": [
        {
          "indexed": true,
          "internalType": "address",
          "name": "to",
          "type": "address"
        },
        {
          "indexed": true,
          "internalType": "uint256",
          "name": "value",
          "type": "uint256"
        },
        {
          "indexed": false,
          "internalType": "uint256",
          "name": "opIndex",
          "type": "uint256"
        },
        {
          "indexed": false,
          "internalType": "address",
          "name": "mintKey",
          "type": "address"
        }
      ],
      "name": "RequestMint",
      "type": "event"
    },
    {
      "anonymous": false,
      "inputs": [
        {
          "indexed": true,
          "internalType": "address",
          "name": "other",
          "type": "address"
        }
      ],
      "name": "RequestReclaimContract",
      "type": "event"
    },
    {
      "anonymous": false,
      "inputs": [
        {
          "indexed": false,
          "internalType": "uint256",
          "name": "opIndex",
          "type": "uint256"
        }
      ],
      "name": "RevokeMint",
      "type": "event"
    },
    {
      "anonymous": false,
      "inputs": [
        {
          "indexed": true,
          "internalType": "address",
          "name": "registry",
          "type": "address"
        }
      ],
      "name": "SetRegistry",
      "type": "event"
    },
    {
      "anonymous": false,
      "inputs": [
        {
          "indexed": false,
          "internalType": "contract ITrueCurrency",
          "name": "newContract",
          "type": "address"
        }
      ],
      "name": "SetToken",
      "type": "event"
    },
    {
      "anonymous": false,
      "inputs": [
        {
          "indexed": true,
          "internalType": "address",
          "name": "child",
          "type": "address"
        },
        {
          "indexed": true,
          "internalType": "address",
          "name": "newOwner",
          "type": "address"
        }
      ],
      "name": "TransferChild",
      "type": "event"
    },
    {
      "anonymous": false,
      "inputs": [
        {
          "indexed": true,
          "internalType": "address",
          "name": "previousMintKey",
          "type": "address"
        },
        {
          "indexed": true,
          "internalType": "address",
          "name": "newMintKey",
          "type": "address"
        }
      ],
      "name": "TransferMintKey",
      "type": "event"
    },
    {
      "inputs": [],
      "name": "IS_MINT_PAUSER",
      "outputs": [
        {
          "internalType": "bytes32",
          "name": "",
          "type": "bytes32"
        }
      ],
      "stateMutability": "view",
      "type": "function"
    },
    {
      "inputs": [],
      "name": "IS_MINT_RATIFIER",
      "outputs": [
        {
          "internalType": "bytes32",
          "name": "",
          "type": "bytes32"
        }
      ],
      "stateMutability": "view",
      "type": "function"
    },
    {
      "inputs": [],
      "name": "IS_REDEMPTION_ADMIN",
      "outputs": [
        {
          "internalType": "bytes32",
          "name": "",
          "type": "bytes32"
        }
      ],
      "stateMutability": "view",
      "type": "function"
    },
    {
      "inputs": [],
      "name": "MULTISIG_MINT_SIGS",
      "outputs": [
        {
          "internalType": "uint8",
          "name": "",
          "type": "uint8"
        }
      ],
      "stateMutability": "view",
      "type": "function"
    },
    {
      "inputs": [],
      "name": "PAUSED_IMPLEMENTATION",
      "outputs": [
        {
          "internalType": "address",
          "name": "",
          "type": "address"
        }
      ],
      "stateMutability": "view",
      "type": "function"
    },
    {
      "inputs": [],
      "name": "RATIFY_MINT_SIGS",
      "outputs": [
        {
          "internalType": "uint8",
          "name": "",
          "type": "uint8"
        }
      ],
      "stateMutability": "view",
      "type": "function"
    },
    {
      "inputs": [
        {
          "internalType": "uint256",
          "name": "_index",
          "type": "uint256"
        }
      ],
      "name": "canFinalize",
      "outputs": [
        {
          "internalType": "bool",
          "name": "",
          "type": "bool"
        }
      ],
      "stateMutability": "view",
      "type": "function"
    },
    {
      "inputs": [],
      "name": "claimOwnership",
      "outputs": [],
      "stateMutability": "nonpayable",
      "type": "function"
    },
    {
      "inputs": [],
      "name": "claimTrueCurrencyProxyOwnership",
      "outputs": [],
      "stateMutability": "nonpayable",
      "type": "function"
    },
    {
      "inputs": [
        {
          "internalType": "uint256",
          "name": "_index",
          "type": "uint256"
        }
      ],
      "name": "finalizeMint",
      "outputs": [],
      "stateMutability": "nonpayable",
      "type": "function"
    },
    {
      "inputs": [],
      "name": "gasRefunder",
      "outputs": [
        {
          "internalType": "address",
          "name": "",
          "type": "address"
        }
      ],
      "stateMutability": "view",
      "type": "function"
    },
    {
      "inputs": [
        {
          "internalType": "uint256",
          "name": "_numberOfApproval",
          "type": "uint256"
        },
        {
          "internalType": "uint256",
          "name": "_value",
          "type": "uint256"
        }
      ],
      "name": "hasEnoughApproval",
      "outputs": [
        {
          "internalType": "bool",
          "name": "",
          "type": "bool"
        }
      ],
      "stateMutability": "view",
      "type": "function"
    },
    {
      "inputs": [],
      "name": "initialize",
      "outputs": [],
      "stateMutability": "nonpayable",
      "type": "function"
    },
    {
      "inputs": [
        {
          "internalType": "contract ITrueCurrency",
          "name": "_token",
          "type": "address"
        },
        {
          "internalType": "contract IRegistry",
          "name": "_registry",
          "type": "address"
        }
      ],
      "name": "initializeWithParams",
      "outputs": [],
      "stateMutability": "nonpayable",
      "type": "function"
    },
    {
      "inputs": [],
      "name": "initialized",
      "outputs": [
        {
          "internalType": "bool",
          "name": "",
          "type": "bool"
        }
      ],
      "stateMutability": "view",
      "type": "function"
    },
    {
      "inputs": [
        {
          "internalType": "address",
          "name": "_to",
          "type": "address"
        },
        {
          "internalType": "uint256",
          "name": "_value",
          "type": "uint256"
        }
      ],
      "name": "instantMint",
      "outputs": [],
      "stateMutability": "nonpayable",
      "type": "function"
    },
    {
      "inputs": [],
      "name": "instantMintLimit",
      "outputs": [
        {
          "internalType": "uint256",
          "name": "",
          "type": "uint256"
        }
      ],
      "stateMutability": "view",
      "type": "function"
    },
    {
      "inputs": [],
      "name": "instantMintPool",
      "outputs": [
        {
          "internalType": "uint256",
          "name": "",
          "type": "uint256"
        }
      ],
      "stateMutability": "view",
      "type": "function"
    },
    {
      "inputs": [],
      "name": "instantMintThreshold",
      "outputs": [
        {
          "internalType": "uint256",
          "name": "",
          "type": "uint256"
        }
      ],
      "stateMutability": "view",
      "type": "function"
    },
    {
      "inputs": [],
      "name": "invalidateAllPendingMints",
      "outputs": [],
      "stateMutability": "nonpayable",
      "type": "function"
    },
    {
      "inputs": [
        {
          "internalType": "address",
          "name": "_other",
          "type": "address"
        }
      ],
      "name": "issueClaimOwnership",
      "outputs": [],
      "stateMutability": "nonpayable",
      "type": "function"
    },
    {
      "inputs": [],
      "name": "mintKey",
      "outputs": [
        {
          "internalType": "address",
          "name": "",
          "type": "address"
        }
      ],
      "stateMutability": "view",
      "type": "function"
    },
    {
      "inputs": [],
      "name": "mintOperationCount",
      "outputs": [
        {
          "internalType": "uint256",
          "name": "",
          "type": "uint256"
        }
      ],
      "stateMutability": "view",
      "type": "function"
    },
    {
      "inputs": [
        {
          "internalType": "uint256",
          "name": "",
          "type": "uint256"
        }
      ],
      "name": "mintOperations",
      "outputs": [
        {
          "internalType": "address",
          "name": "to",
          "type": "address"
        },
        {
          "internalType": "uint256",
          "name": "value",
          "type": "uint256"
        },
        {
          "internalType": "uint256",
          "name": "requestedBlock",
          "type": "uint256"
        },
        {
          "internalType": "uint256",
          "name": "numberOfApproval",
          "type": "uint256"
        },
        {
          "internalType": "bool",
          "name": "paused",
          "type": "bool"
        }
      ],
      "stateMutability": "view",
      "type": "function"
    },
    {
      "inputs": [],
      "name": "mintPaused",
      "outputs": [
        {
          "internalType": "bool",
          "name": "",
          "type": "bool"
        }
      ],
      "stateMutability": "view",
      "type": "function"
    },
    {
      "inputs": [],
      "name": "mintReqInvalidBeforeThisBlock",
      "outputs": [
        {
          "internalType": "uint256",
          "name": "",
          "type": "uint256"
        }
      ],
      "stateMutability": "view",
      "type": "function"
    },
    {
      "inputs": [],
      "name": "multiSigMintLimit",
      "outputs": [
        {
          "internalType": "uint256",
          "name": "",
          "type": "uint256"
        }
      ],
      "stateMutability": "view",
      "type": "function"
    },
    {
      "inputs": [],
      "name": "multiSigMintPool",
      "outputs": [
        {
          "internalType": "uint256",
          "name": "",
          "type": "uint256"
        }
      ],
      "stateMutability": "view",
      "type": "function"
    },
    {
      "inputs": [],
      "name": "multiSigMintThreshold",
      "outputs": [
        {
          "internalType": "uint256",
          "name": "",
          "type": "uint256"
        }
      ],
      "stateMutability": "view",
      "type": "function"
    },
    {
      "inputs": [],
      "name": "owner",
      "outputs": [
        {
          "internalType": "address payable",
          "name": "",
          "type": "address"
        }
      ],
      "stateMutability": "view",
      "type": "function"
    },
    {
      "inputs": [
        {
          "internalType": "uint256",
          "name": "_opIndex",
          "type": "uint256"
        }
      ],
      "name": "pauseMint",
      "outputs": [],
      "stateMutability": "nonpayable",
      "type": "function"
    },
    {
      "inputs": [],
      "name": "pauseMints",
      "outputs": [],
      "stateMutability": "nonpayable",
      "type": "function"
    },
    {
      "inputs": [],
      "name": "pauseToken",
      "outputs": [],
      "stateMutability": "nonpayable",
      "type": "function"
    },
    {
      "inputs": [],
      "name": "pendingOwner",
      "outputs": [
        {
          "internalType": "address payable",
          "name": "",
          "type": "address"
        }
      ],
      "stateMutability": "view",
      "type": "function"
    },
    {
      "inputs": [],
      "name": "ratifiedMintLimit",
      "outputs": [
        {
          "internalType": "uint256",
          "name": "",
          "type": "uint256"
        }
      ],
      "stateMutability": "view",
      "type": "function"
    },
    {
      "inputs": [],
      "name": "ratifiedMintPool",
      "outputs": [
        {
          "internalType": "uint256",
          "name": "",
          "type": "uint256"
        }
      ],
      "stateMutability": "view",
      "type": "function"
    },
    {
      "inputs": [],
      "name": "ratifiedMintThreshold",
      "outputs": [
        {
          "internalType": "uint256",
          "name": "",
          "type": "uint256"
        }
      ],
      "stateMutability": "view",
      "type": "function"
    },
    {
      "inputs": [
        {
          "internalType": "uint256",
          "name": "",
          "type": "uint256"
        }
      ],
      "name": "ratifiedPoolRefillApprovals",
      "outputs": [
        {
          "internalType": "address",
          "name": "",
          "type": "address"
        }
      ],
      "stateMutability": "view",
      "type": "function"
    },
    {
      "inputs": [
        {
          "internalType": "uint256",
          "name": "_index",
          "type": "uint256"
        },
        {
          "internalType": "address",
          "name": "_to",
          "type": "address"
        },
        {
          "internalType": "uint256",
          "name": "_value",
          "type": "uint256"
        }
      ],
      "name": "ratifyMint",
      "outputs": [],
      "stateMutability": "nonpayable",
      "type": "function"
    },
    {
      "inputs": [
        {
          "internalType": "address payable",
          "name": "_to",
          "type": "address"
        }
      ],
      "name": "reclaimEther",
      "outputs": [],
      "stateMutability": "nonpayable",
      "type": "function"
    },
    {
      "inputs": [
        {
          "internalType": "contract IERC20",
          "name": "_token",
          "type": "address"
        },
        {
          "internalType": "address",
          "name": "_to",
          "type": "address"
        }
      ],
      "name": "reclaimToken",
      "outputs": [],
      "stateMutability": "nonpayable",
      "type": "function"
    },
    {
      "inputs": [],
      "name": "refillInstantMintPool",
      "outputs": [],
      "stateMutability": "nonpayable",
      "type": "function"
    },
    {
      "inputs": [],
      "name": "refillMultiSigMintPool",
      "outputs": [],
      "stateMutability": "nonpayable",
      "type": "function"
    },
    {
      "inputs": [],
      "name": "refillRatifiedMintPool",
      "outputs": [],
      "stateMutability": "nonpayable",
      "type": "function"
    },
    {
      "inputs": [
        {
          "internalType": "contract IHook",
          "name": "hookContract",
          "type": "address"
        }
      ],
      "name": "refundGasWithHook",
      "outputs": [],
      "stateMutability": "nonpayable",
      "type": "function"
    },
    {
      "inputs": [],
      "name": "registry",
      "outputs": [
        {
          "internalType": "contract IRegistry",
          "name": "",
          "type": "address"
        }
      ],
      "stateMutability": "view",
      "type": "function"
    },
    {
      "inputs": [],
      "name": "registryAdmin",
      "outputs": [
        {
          "internalType": "address",
          "name": "",
          "type": "address"
        }
      ],
      "stateMutability": "view",
      "type": "function"
    },
    {
      "inputs": [
        {
          "internalType": "address",
          "name": "_to",
          "type": "address"
        },
        {
          "internalType": "uint256",
          "name": "_value",
          "type": "uint256"
        }
      ],
      "name": "requestMint",
      "outputs": [],
      "stateMutability": "nonpayable",
      "type": "function"
    },
    {
      "inputs": [],
      "name": "requestReclaimEther",
      "outputs": [],
      "stateMutability": "nonpayable",
      "type": "function"
    },
    {
      "inputs": [
        {
          "internalType": "contract IERC20",
          "name": "_token",
          "type": "address"
        }
      ],
      "name": "requestReclaimToken",
      "outputs": [],
      "stateMutability": "nonpayable",
      "type": "function"
    },
    {
      "inputs": [
        {
          "internalType": "uint256",
          "name": "_index",
          "type": "uint256"
        }
      ],
      "name": "revokeMint",
      "outputs": [],
      "stateMutability": "nonpayable",
      "type": "function"
    },
    {
      "inputs": [
        {
          "internalType": "address",
          "name": "account",
          "type": "address"
        },
        {
          "internalType": "bool",
          "name": "isBlacklisted",
          "type": "bool"
        }
      ],
      "name": "setBlacklisted",
      "outputs": [],
      "stateMutability": "nonpayable",
      "type": "function"
    },
    {
      "inputs": [
        {
          "internalType": "uint256",
          "name": "_min",
          "type": "uint256"
        },
        {
          "internalType": "uint256",
          "name": "_max",
          "type": "uint256"
        }
      ],
      "name": "setBurnBounds",
      "outputs": [],
      "stateMutability": "nonpayable",
      "type": "function"
    },
    {
      "inputs": [
        {
          "internalType": "address",
          "name": "burner",
          "type": "address"
        },
        {
          "internalType": "bool",
          "name": "canBurn",
          "type": "bool"
        }
      ],
      "name": "setCanBurn",
      "outputs": [],
      "stateMutability": "nonpayable",
      "type": "function"
    },
    {
      "inputs": [
        {
          "internalType": "address",
          "name": "refunder",
          "type": "address"
        }
      ],
      "name": "setGasRefunder",
      "outputs": [],
      "stateMutability": "nonpayable",
      "type": "function"
    },
    {
      "inputs": [
        {
          "internalType": "uint256",
          "name": "_instant",
          "type": "uint256"
        },
        {
          "internalType": "uint256",
          "name": "_ratified",
          "type": "uint256"
        },
        {
          "internalType": "uint256",
          "name": "_multiSig",
          "type": "uint256"
        }
      ],
      "name": "setMintLimits",
      "outputs": [],
      "stateMutability": "nonpayable",
      "type": "function"
    },
    {
      "inputs": [
        {
          "internalType": "uint256",
          "name": "_instant",
          "type": "uint256"
        },
        {
          "internalType": "uint256",
          "name": "_ratified",
          "type": "uint256"
        },
        {
          "internalType": "uint256",
          "name": "_multiSig",
          "type": "uint256"
        }
      ],
      "name": "setMintThresholds",
      "outputs": [],
      "stateMutability": "nonpayable",
      "type": "function"
    },
    {
      "inputs": [
        {
          "internalType": "contract IRegistry",
          "name": "_registry",
          "type": "address"
        }
      ],
      "name": "setRegistry",
      "outputs": [],
      "stateMutability": "nonpayable",
      "type": "function"
    },
    {
      "inputs": [
        {
          "internalType": "address",
          "name": "admin",
          "type": "address"
        }
      ],
      "name": "setRegistryAdmin",
      "outputs": [],
      "stateMutability": "nonpayable",
      "type": "function"
    },
    {
      "inputs": [
        {
          "internalType": "contract ITrueCurrency",
          "name": "_newContract",
          "type": "address"
        }
      ],
      "name": "setToken",
      "outputs": [],
      "stateMutability": "nonpayable",
      "type": "function"
    },
    {
      "inputs": [],
      "name": "token",
      "outputs": [
        {
          "internalType": "contract ITrueCurrency",
          "name": "",
          "type": "address"
        }
      ],
      "stateMutability": "view",
      "type": "function"
    },
    {
      "inputs": [
        {
          "internalType": "contract IHasOwner",
          "name": "_child",
          "type": "address"
        },
        {
          "internalType": "address",
          "name": "_newOwner",
          "type": "address"
        }
      ],
      "name": "transferChild",
      "outputs": [],
      "stateMutability": "nonpayable",
      "type": "function"
    },
    {
      "inputs": [
        {
          "internalType": "address",
          "name": "_newMintKey",
          "type": "address"
        }
      ],
      "name": "transferMintKey",
      "outputs": [],
      "stateMutability": "nonpayable",
      "type": "function"
    },
    {
      "inputs": [
        {
          "internalType": "address payable",
          "name": "newOwner",
          "type": "address"
        }
      ],
      "name": "transferOwnership",
      "outputs": [],
      "stateMutability": "nonpayable",
      "type": "function"
    },
    {
      "inputs": [
        {
          "internalType": "address",
          "name": "_newOwner",
          "type": "address"
        }
      ],
      "name": "transferTrueCurrencyProxyOwnership",
      "outputs": [],
      "stateMutability": "nonpayable",
      "type": "function"
    },
    {
      "inputs": [
        {
          "internalType": "uint256",
          "name": "_opIndex",
          "type": "uint256"
        }
      ],
      "name": "unpauseMint",
      "outputs": [],
      "stateMutability": "nonpayable",
      "type": "function"
    },
    {
      "inputs": [],
      "name": "unpauseMints",
      "outputs": [],
      "stateMutability": "nonpayable",
      "type": "function"
    },
    {
      "inputs": [
        {
          "internalType": "address",
          "name": "_implementation",
          "type": "address"
        }
      ],
      "name": "upgradeTrueCurrencyProxyImplTo",
      "outputs": [],
      "stateMutability": "nonpayable",
      "type": "function"
    }
  ],
  "evm": {
    "bytecode": {
      "linkReferences": {},
      "object": "608060405234801561001057600080fd5b50613fd6806100206000396000f3fe608060405234801561001057600080fd5b506004361061043c5760003560e01c80638129fc1c11610235578063cee6f28211610135578063ec38e855116100c8578063f3a2796311610097578063f966f1911161007c578063f966f19114610a7d578063fc0c546a14610a85578063fc46221d14610a8d5761043c565b8063f3a2796314610a6d578063f3e2aa8314610a755761043c565b8063ec38e855146109e3578063ed62b4d614610a37578063f11db77f14610a3f578063f2fde38b14610a475761043c565b8063dc9da8cb11610104578063dc9da8cb146109ae578063e30c3978146109b6578063e4e2bfe4146109be578063e653aab5146109db5761043c565b8063cee6f28214610942578063d01dd6d214610970578063d0d2d1101461099e578063d5fe955f146109a65761043c565b8063a22cba6e116101c8578063ab15f72311610197578063c37e21551161017c578063c37e21551461090c578063cc7e492e14610914578063cd0f7a451461091c5761043c565b8063ab15f723146108d6578063ae11ea9b146108de5761043c565b8063a22cba6e14610865578063a415965c14610882578063a6aa43791461088a578063a91ee0dc146108b05761043c565b806389d9b0591161020457806389d9b059146108125780638da5cb5b1461081a5780638e3af93f146108225780639a6a30a41461083f5761043c565b80638129fc1c146107ae578063819b411c146107b657806387fb79be146107dc57806388ee39cc146107e45761043c565b806339069d8c1161034057806372df02a7116102d357806379ca5d4c116102a25780637e4831d3116102875780637e4831d31461075b5780637ef7ce921461076357806380749656146107805761043c565b806379ca5d4c1461072d5780637b103999146107535761043c565b806372df02a7146106c857806374c16b23146106f157806376f2a59a146106f9578063789083e6146107255761043c565b8063520060501161030f578063520060501461065c5780635e5ae1fe1461067f57806369ebf34e146106875780636c38d4e4146106ab5761043c565b806339069d8c146105df5780633cb5bc74146106055780634e71e0c81461062e5780634fe5d431146106365761043c565b806329dea3a1116103d35780632e70bd4f116103a257806331a02bce1161038757806331a02bce1461058e57806331bac434146105ba57806334437b16146105d75761043c565b80632e70bd4f1461057e5780633134fe9c146105865761043c565b806329dea3a1146105435780632bbdb18a1461054b5780632c3496271461056e5780632c9ebb5d146105765761043c565b806315d338381161040f57806315d33838146104dd5780631d42953a146104f75780631d4e135b146104ff5780631e38cdb21461051d5761043c565b80630581345e146104415780630e536ff414610469578063144fa6d71461049b578063158ef93e146104c1575b600080fd5b6104676004803603602081101561045757600080fd5b50356001600160a01b0316610a95565b005b6104676004803603606081101561047f57600080fd5b508035906001600160a01b036020820135169060400135610b50565b610467600480360360208110156104b157600080fd5b50356001600160a01b0316610f93565b6104c961105e565b604080519115158252519081900360200190f35b6104e561107f565b60408051918252519081900360200190f35b6104e56110a3565b6105076110c7565b6040805160ff9092168252519081900360200190f35b6104676004803603602081101561053357600080fd5b50356001600160a01b03166110cc565b6104e56111ad565b6104c96004803603604081101561056157600080fd5b50803590602001356111b3565b61046761122c565b6104e5611318565b6104e561131e565b6104e5611324565b610467600480360360408110156105a457600080fd5b506001600160a01b03813516906020013561132a565b610467600480360360208110156105d057600080fd5b50356115c9565b6104e56116b8565b610467600480360360208110156105f557600080fd5b50356001600160a01b03166116be565b6104676004803603606081101561061b57600080fd5b5080359060208101359060400135611757565b610467611856565b6104676004803603602081101561064c57600080fd5b50356001600160a01b03166118e9565b6104676004803603604081101561067257600080fd5b50803590602001356119af565b610467611a7b565b61068f611ae0565b604080516001600160a01b039092168252519081900360200190f35b610467600480360360208110156106c157600080fd5b5035611aef565b610467600480360360608110156106de57600080fd5b5080359060208101359060400135611c9c565b61068f611d68565b6104676004803603604081101561070f57600080fd5b506001600160a01b038135169060200135611d77565b6104e5611fbf565b6104676004803603602081101561074357600080fd5b50356001600160a01b0316611fc5565b61068f612094565b6104c96120a3565b6104676004803603602081101561077957600080fd5b50356120ac565b6104676004803603604081101561079657600080fd5b506001600160a01b03813516906020013515156121dd565b610467612321565b610467600480360360208110156107cc57600080fd5b50356001600160a01b03166123fc565b6104e5612495565b610467600480360360408110156107fa57600080fd5b506001600160a01b038135811691602001351661249b565b610467612622565b61068f6128b4565b6104676004803603602081101561083857600080fd5b50356128c3565b6104676004803603602081101561085557600080fd5b50356001600160a01b0316612b1d565b61068f6004803603602081101561087b57600080fd5b5035612bb5565b610467612bd2565b610467600480360360208110156108a057600080fd5b50356001600160a01b0316612c62565b610467600480360360208110156108c657600080fd5b50356001600160a01b0316612dba565b610467612e81565b610467600480360360408110156108f457600080fd5b506001600160a01b0381358116916020013516612fff565b6104e561310a565b610467613110565b6104676004803603602081101561093257600080fd5b50356001600160a01b0316613289565b6104676004803603604081101561095857600080fd5b506001600160a01b03813581169160200135166133b7565b6104676004803603604081101561098657600080fd5b506001600160a01b03813516906020013515156136d0565b6104e56137b3565b61068f6137b9565b6104676137c8565b61068f613877565b6104c9600480360360208110156109d457600080fd5b5035613886565b6104e5613a13565b610a00600480360360208110156109f957600080fd5b5035613a19565b604080516001600160a01b039096168652602086019490945284840192909252606084015215156080830152519081900360a00190f35b610507613a64565b61068f613a69565b61046760048036036020811015610a5d57600080fd5b50356001600160a01b0316613a81565b610467613b4e565b610467613c0b565b6104e5613cd2565b61068f613cf6565b6104e5613d05565b6000546001600160a01b03163314610af4576040805162461bcd60e51b815260206004820152600a60248201527f6f6e6c79204f776e657200000000000000000000000000000000000000000000604482015290519081900360640190fd5b6000819050806001600160a01b0316634e71e0c86040518163ffffffff1660e01b8152600401600060405180830381600087803b158015610b3457600080fd5b505af1158015610b48573d6000803e3d6000fd5b505050505050565b6000546001600160a01b03163314610bba57600d5460ff1615610bba576040805162461bcd60e51b815260206004820152601160248201527f6d696e74696e6720697320706175736564000000000000000000000000000000604482015290519081900360640190fd5b601254604080517f7338c25c0000000000000000000000000000000000000000000000000000000081523360048201527f6973545553444d696e7452617469666965720000000000000000000000000000602482015290516001600160a01b0390921691637338c25c91604480820192602092909190829003018186803b158015610c4457600080fd5b505afa158015610c58573d6000803e3d6000fd5b505050506040513d6020811015610c6e57600080fd5b505180610c8557506000546001600160a01b031633145b610cd6576040805162461bcd60e51b815260206004820152601960248201527f6d757374206265207261746966696572206f72206f776e657200000000000000604482015290519081900360640190fd5b610cde613f3a565b60108481548110610ceb57fe5b60009182526020918290206040805160a081018252600690930290910180546001600160a01b03908116808552600183015495850195909552600282015492840192909252600381015460608401526004015460ff1615156080830152909250841614610d9f576040805162461bcd60e51b815260206004820152601960248201527f746f206164647265737320646f6573206e6f74206d6174636800000000000000604482015290519081900360640190fd5b81816020015114610df7576040805162461bcd60e51b815260206004820152601560248201527f616d6f756e7420646f6573206e6f74206d617463680000000000000000000000604482015290519081900360640190fd5b60108481548110610e0457fe5b600091825260208083203384526005600690930201919091019052604090205460ff1615610e79576040805162461bcd60e51b815260206004820152601060248201527f616c726561647920617070726f76656400000000000000000000000000000000604482015290519081900360640190fd5b600160108581548110610e8857fe5b6000918252602080832033845260069290920290910160050190526040902080547fffffffffffffffffffffffffffffffffffffffffffffffffffffffffffffff001691151591909117905560108054610f099160019187908110610ee957fe5b906000526020600020906006020160030154613d0b90919063ffffffff16565b60108581548110610f1657fe5b60009182526020822060036006909202010191909155604051339186917f86cc1a29a55449d1229bb301da3d61fcd5490843635df9a79e5a4df4724773d29190a3610f7f60108581548110610f6757fe5b906000526020600020906006020160030154836111b3565b15610f8d57610f8d846128c3565b50505050565b6000546001600160a01b03163314610ff2576040805162461bcd60e51b815260206004820152600a60248201527f6f6e6c79204f776e657200000000000000000000000000000000000000000000604482015290519081900360640190fd5b601180546001600160a01b0383167fffffffffffffffffffffffff0000000000000000000000000000000000000000909116811790915560408051918252517fefc1fd16ea80a922086ee4e995739d59b025c1bcea6d1f67855747480c83214b9181900360200190a150565b60015474010000000000000000000000000000000000000000900460ff1681565b7f6973545553444d696e745061757365727300000000000000000000000000000081565b7f6973545553444d696e745261746966696572000000000000000000000000000081565b600181565b6000546001600160a01b0316331461112b576040805162461bcd60e51b815260206004820152600a60248201527f6f6e6c79204f776e657200000000000000000000000000000000000000000000604482015290519081900360640190fd5b601154604080517ff1739cae0000000000000000000000000000000000000000000000000000000081526001600160a01b0384811660048301529151919092169163f1739cae91602480830192600092919082900301818387803b15801561119257600080fd5b505af11580156111a6573d6000803e3d6000fd5b5050505050565b60035481565b600060095482111580156111c957506003548211155b156111de57600183106111de57506001611226565b600a5482111580156111f257506004548211155b15611207576003831061120757506001611226565b6000546001600160a01b031633141561122257506001611226565b5060005b92915050565b6000546001600160a01b0316331461128b576040805162461bcd60e51b815260206004820152600a60248201527f6f6e6c79204f776e657200000000000000000000000000000000000000000000604482015290519081900360640190fd5b601154604080517f3659cfe6000000000000000000000000000000000000000000000000000000008152733c8984dce8f68fcdeeeafd9e0eca3598562ed291600482015290516001600160a01b0390921691633659cfe69160248082019260009290919082900301818387803b15801561130457600080fd5b505af1158015610f8d573d6000803e3d6000fd5b60045481565b60105490565b60095481565b6000546001600160a01b0316331461139457600d5460ff1615611394576040805162461bcd60e51b815260206004820152601160248201527f6d696e74696e6720697320706175736564000000000000000000000000000000604482015290519081900360640190fd5b600f546001600160a01b03163314806113b757506000546001600160a01b031633145b611408576040805162461bcd60e51b815260206004820152601860248201527f6d757374206265206d696e744b6579206f72206f776e65720000000000000000604482015290519081900360640190fd5b611410613f3a565b506040805160a0810182526001600160a01b038416808252602080830185905243838501526000606084018190526080840152601054845190815233918101919091528351929385937f883eab2a74c029007e37f3f118fa7713d39b756c0b7c932a0269fcb995a4724c9281900390910190a36010805460018101825560009190915281517f1b6847dc741a1b0cd08d278845f9d819d87b734759afb55fe2de5cb82a9ae672600690920291820180547fffffffffffffffffffffffff0000000000000000000000000000000000000000166001600160a01b0390921691909117905560208201517f1b6847dc741a1b0cd08d278845f9d819d87b734759afb55fe2de5cb82a9ae67382015560408201517f1b6847dc741a1b0cd08d278845f9d819d87b734759afb55fe2de5cb82a9ae67482015560608201517f1b6847dc741a1b0cd08d278845f9d819d87b734759afb55fe2de5cb82a9ae6758201556080909101517f1b6847dc741a1b0cd08d278845f9d819d87b734759afb55fe2de5cb82a9ae67690910180547fffffffffffffffffffffffffffffffffffffffffffffffffffffffffffffff00169115159190911790555050565b6000546001600160a01b03163314611628576040805162461bcd60e51b815260206004820152600a60248201527f6f6e6c79204f776e657200000000000000000000000000000000000000000000604482015290519081900360640190fd5b60006010828154811061163757fe5b6000918252602080832060069290920290910160040180547fffffffffffffffffffffffffffffffffffffffffffffffffffffffffffffff001693151593909317909255604080518481529283019190915280517fbe7295ef37ca984ec35808d259aa03f272c2d747c6ce6a47b6e90862afccc5769281900390910190a150565b60075481565b6000546001600160a01b0316331461171d576040805162461bcd60e51b815260206004820152600a60248201527f6f6e6c79204f776e657200000000000000000000000000000000000000000000604482015290519081900360640190fd5b601380547fffffffffffffffffffffffff0000000000000000000000000000000000000000166001600160a01b0392909216919091179055565b6000546001600160a01b031633146117b6576040805162461bcd60e51b815260206004820152600a60248201527f6f6e6c79204f776e657200000000000000000000000000000000000000000000604482015290519081900360640190fd5b8183111580156117c65750808211155b6117cf57600080fd5b60058390556008548310156117e5576005546008555b60068290556009548210156117fb576006546009555b6007819055600a5481101561181157600754600a555b604080518481526020810184905280820183905290517fa88ec94782bac5c3e5f7d8e8f27b39f3f9d53da3fc2824db137086185cf2117d9181900360600190a1505050565b6001546001600160a01b0316331461186d57600080fd5b600154600080546040516001600160a01b0393841693909116917f8be0079c531659141344cd1fd0a4f28419497f9722a3daafe3b4186f6b6457e091a360018054600080547fffffffffffffffffffffffff00000000000000000000000000000000000000009081166001600160a01b03841617909155169055565b6000546001600160a01b03163314611948576040805162461bcd60e51b815260206004820152600a60248201527f6f6e6c79204f776e657200000000000000000000000000000000000000000000604482015290519081900360640190fd5b601154604080517f3659cfe60000000000000000000000000000000000000000000000000000000081526001600160a01b03848116600483015291519190921691633659cfe691602480830192600092919082900301818387803b15801561119257600080fd5b6000546001600160a01b03163314611a0e576040805162461bcd60e51b815260206004820152600a60248201527f6f6e6c79204f776e657200000000000000000000000000000000000000000000604482015290519081900360640190fd5b601154604080517f52006050000000000000000000000000000000000000000000000000000000008152600481018590526024810184905290516001600160a01b039092169163520060509160448082019260009290919082900301818387803b158015610b3457600080fd5b6000546001600160a01b03163314611ada576040805162461bcd60e51b815260206004820152600a60248201527f6f6e6c79204f776e657200000000000000000000000000000000000000000000604482015290519081900360640190fd5b43600e55565b600f546001600160a01b031681565b601254604080517f7338c25c0000000000000000000000000000000000000000000000000000000081523360048201527f6973545553444d696e7450617573657273000000000000000000000000000000602482015290516001600160a01b0390921691637338c25c91604480820192602092909190829003018186803b158015611b7957600080fd5b505afa158015611b8d573d6000803e3d6000fd5b505050506040513d6020811015611ba357600080fd5b505180611bba57506000546001600160a01b031633145b611c0b576040805162461bcd60e51b815260206004820152601760248201527f6d75737420626520706175736572206f72206f776e6572000000000000000000604482015290519081900360640190fd5b600160108281548110611c1a57fe5b60009182526020918290206006919091020160040180547fffffffffffffffffffffffffffffffffffffffffffffffffffffffffffffff0016921515929092179091556040805183815260019281019290925280517fbe7295ef37ca984ec35808d259aa03f272c2d747c6ce6a47b6e90862afccc5769281900390910190a150565b6000546001600160a01b03163314611cfb576040805162461bcd60e51b815260206004820152600a60248201527f6f6e6c79204f776e657200000000000000000000000000000000000000000000604482015290519081900360640190fd5b818311158015611d0b5750808211155b611d1457600080fd5b600283905560038290556004819055604080518481526020810184905280820183905290517fba6a9f8d54021af0fab65e388ad81cc3dfb17207bed50a5e9a30f7adabb534d19181900360600190a1505050565b6013546001600160a01b031681565b6000546001600160a01b03163314611de157600d5460ff1615611de1576040805162461bcd60e51b815260206004820152601160248201527f6d696e74696e6720697320706175736564000000000000000000000000000000604482015290519081900360640190fd5b600f546001600160a01b0316331480611e0457506000546001600160a01b031633145b611e55576040805162461bcd60e51b815260206004820152601860248201527f6d757374206265206d696e744b6579206f72206f776e65720000000000000000604482015290519081900360640190fd5b600254811115611eac576040805162461bcd60e51b815260206004820152601f60248201527f6f7665722074686520696e7374616e74206d696e74207468726573686f6c6400604482015290519081900360640190fd5b600854811115611f03576040805162461bcd60e51b815260206004820152601860248201527f696e7374616e74206d696e7420706f6f6c206973206472790000000000000000604482015290519081900360640190fd5b600854611f16908263ffffffff613d6c16565b600855604051339082906001600160a01b038516907fec755a4feb8086d62e216ca919461349221df54bf9ca83300b7a2bf8e5807dfc90600090a4601154604080517f40c10f190000000000000000000000000000000000000000000000000000000081526001600160a01b03858116600483015260248201859052915191909216916340c10f1991604480830192600092919082900301818387803b158015610b3457600080fd5b60025481565b6000546001600160a01b03163314612024576040805162461bcd60e51b815260206004820152600a60248201527f6f6e6c79204f776e657200000000000000000000000000000000000000000000604482015290519081900360640190fd5b60115460008054604080517f88ee39cc0000000000000000000000000000000000000000000000000000000081526001600160a01b0386811660048301529283166024820152905191909316926388ee39cc92604480830193919282900301818387803b15801561119257600080fd5b6012546001600160a01b031681565b600d5460ff1681565b600f546001600160a01b03163314806120cf57506000546001600160a01b031633145b612120576040805162461bcd60e51b815260206004820152601860248201527f6d757374206265206d696e744b6579206f72206f776e65720000000000000000604482015290519081900360640190fd5b6010818154811061212d57fe5b60009182526020808320600690920290910180547fffffffffffffffffffffffff000000000000000000000000000000000000000016815560018101839055600281018390556003810192909255600490910180547fffffffffffffffffffffffffffffffffffffffffffffffffffffffffffffff001690556040805183815290517fccec691f17b1a3d2b56ac2c39074c2930ba803fc46191a49259706621eac3f8f929181900390910190a150565b6013546001600160a01b031633148061220057506000546001600160a01b031633145b612251576040805162461bcd60e51b815260206004820152601f60248201527f6d7573742062652072656769737472792061646d696e206f72206f776e657200604482015290519081900360640190fd5b601154604080517f807496560000000000000000000000000000000000000000000000000000000081526001600160a01b038581166004830152841515602483015291519190921691638074965691604480830192600092919082900301818387803b1580156122c057600080fd5b505af11580156122d4573d6000803e3d6000fd5b5050604080516001600160a01b0386168152841515602082015281517ff038153e9bf050a90fa20eac4c02e084876a20e74c6a5139601f5b68937c54bc9450908190039091019150a15050565b60015474010000000000000000000000000000000000000000900460ff1615612391576040805162461bcd60e51b815260206004820152601360248201527f616c726561647920696e697469616c697a656400000000000000000000000000604482015290519081900360640190fd5b600080547fffffffffffffffffffffffff00000000000000000000000000000000000000001633179055600180547fffffffffffffffffffffff00ffffffffffffffffffffffffffffffffffffffff1674010000000000000000000000000000000000000000179055565b6000546001600160a01b0316331461245b576040805162461bcd60e51b815260206004820152600a60248201527f6f6e6c79204f776e657200000000000000000000000000000000000000000000604482015290519081900360640190fd5b601480547fffffffffffffffffffffffff0000000000000000000000000000000000000000166001600160a01b0392909216919091179055565b60085481565b6000546001600160a01b031633146124fa576040805162461bcd60e51b815260206004820152600a60248201527f6f6e6c79204f776e657200000000000000000000000000000000000000000000604482015290519081900360640190fd5b604080517f70a0823100000000000000000000000000000000000000000000000000000000815230600482015290516000916001600160a01b038516916370a0823191602480820192602092909190829003018186803b15801561255d57600080fd5b505afa158015612571573d6000803e3d6000fd5b505050506040513d602081101561258757600080fd5b5051604080517fa9059cbb0000000000000000000000000000000000000000000000000000000081526001600160a01b0385811660048301526024820184905291519293509085169163a9059cbb916044808201926020929091908290030181600087803b1580156125f857600080fd5b505af115801561260c573d6000803e3d6000fd5b505050506040513d60208110156111a657600080fd5b601254604080517f7338c25c0000000000000000000000000000000000000000000000000000000081523360048201527f6973545553444d696e7452617469666965720000000000000000000000000000602482015290516001600160a01b0390921691637338c25c91604480820192602092909190829003018186803b1580156126ac57600080fd5b505afa1580156126c0573d6000803e3d6000fd5b505050506040513d60208110156126d657600080fd5b5051806126ed57506000546001600160a01b031633145b61273e576040805162461bcd60e51b815260206004820152601960248201527f6d757374206265207261746966696572206f72206f776e657200000000000000604482015290519081900360640190fd5b6000546001600160a01b0316331461284a57612758613f74565b604080518082019182905290600b9060029082845b81546001600160a01b0316815260019091019060200180831161276d57505050505090508060006002811061279e57fe5b60200201516001600160a01b0316336001600160a01b0316141580156127d1575060208101516001600160a01b03163314155b6127da57600080fd5b80516001600160a01b031661282c5733600b60005b0180547fffffffffffffffffffffffff0000000000000000000000000000000000000000166001600160a01b0392909216919091179055506128b2565b60208101516001600160a01b03166128485733600b60016127ef565b505b612856600b6000613f92565b61287f612870600954600654613d6c90919063ffffffff16565b600a549063ffffffff613d6c16565b600a556006546009556040517f102a997ac4d17915071d5422bc77b9e807c57305cefef394daf2468abacb26c290600090a15b565b6000546001600160a01b031681565b6000546001600160a01b0316331461292d57600d5460ff161561292d576040805162461bcd60e51b815260206004820152601160248201527f6d696e74696e6720697320706175736564000000000000000000000000000000604482015290519081900360640190fd5b612935613f3a565b6010828154811061294257fe5b600091825260208083206040805160a081018252600690940290910180546001600160a01b0390811680865260018301549486018590526002830154938601939093526003820154606086015260049091015460ff16151560808501529354929450929091339116146129ca576129b884613886565b6129c157600080fd5b6129ca81613dae565b601084815481106129d757fe5b60009182526020822060069091020180547fffffffffffffffffffffffff0000000000000000000000000000000000000000168155600181018290556002810182905560038101829055600490810180547fffffffffffffffffffffffffffffffffffffffffffffffffffffffffffffff00169055601154604080517f40c10f190000000000000000000000000000000000000000000000000000000081526001600160a01b038781169482019490945260248101869052905191909216926340c10f19926044808201939182900301818387803b158015612ab857600080fd5b505af1158015612acc573d6000803e3d6000fd5b50506040805187815233602082015281518594506001600160a01b03871693507f9a0dcee498442c144388e9d1dd09acdf74ffc3bce9cb52841186c1d8ac032154929181900390910190a350505050565b6000546001600160a01b03163314612b7c576040805162461bcd60e51b815260206004820152600a60248201527f6f6e6c79204f776e657200000000000000000000000000000000000000000000604482015290519081900360640190fd5b6040516001600160a01b038216904780156108fc02916000818181858888f19350505050158015612bb1573d6000803e3d6000fd5b5050565b600b8160028110612bc257fe5b01546001600160a01b0316905081565b6000546001600160a01b03163314612c31576040805162461bcd60e51b815260206004820152600a60248201527f6f6e6c79204f776e657200000000000000000000000000000000000000000000604482015290519081900360640190fd5b600754600a556040517ff887efb579b3283f395871614f44a2fd3021ddf59e72a91195f5da936ebaa06d90600090a1565b6014546001600160a01b0316331480612c8557506000546001600160a01b031633145b612cd6576040805162461bcd60e51b815260206004820152601d60248201527f6d7573742062652067617320726566756e646572206f72206f776e6572000000604482015290519081900360640190fd5b60005a9050816001600160a01b0316637f5a7c7b6040518163ffffffff1660e01b8152600401600060405180830381600087803b158015612d1657600080fd5b505af1158015612d2a573d6000803e3d6000fd5b505050506000612d415a839063ffffffff613d6c16565b6011549091506001600160a01b03166317c931bd612d67836161a863ffffffff613dfc16565b6040518263ffffffff1660e01b815260040180828152602001915050600060405180830381600087803b158015612d9d57600080fd5b505af1158015612db1573d6000803e3d6000fd5b50505050505050565b6000546001600160a01b03163314612e19576040805162461bcd60e51b815260206004820152600a60248201527f6f6e6c79204f776e657200000000000000000000000000000000000000000000604482015290519081900360640190fd5b601280547fffffffffffffffffffffffff0000000000000000000000000000000000000000166001600160a01b0383811691909117918290556040519116907f278c70ced5f3e0e5eeb385b5ff9cb735748ba00a625147e66065ed48fc1562cd90600090a250565b601254604080517f7338c25c0000000000000000000000000000000000000000000000000000000081523360048201527f6973545553444d696e7450617573657273000000000000000000000000000000602482015290516001600160a01b0390921691637338c25c91604480820192602092909190829003018186803b158015612f0b57600080fd5b505afa158015612f1f573d6000803e3d6000fd5b505050506040513d6020811015612f3557600080fd5b505180612f4c57506000546001600160a01b031633145b612f9d576040805162461bcd60e51b815260206004820152601760248201527f6d75737420626520706175736572206f72206f776e6572000000000000000000604482015290519081900360640190fd5b600d80547fffffffffffffffffffffffffffffffffffffffffffffffffffffffffffffff0016600190811790915560408051918252517f6cb4a816be468261438a85abae2d59de6bc19b06d3a76e2f3acfd656d85a2ee99181900360200190a1565b6000546001600160a01b0316331461305e576040805162461bcd60e51b815260206004820152600a60248201527f6f6e6c79204f776e657200000000000000000000000000000000000000000000604482015290519081900360640190fd5b816001600160a01b031663f2fde38b826040518263ffffffff1660e01b815260040180826001600160a01b03166001600160a01b03168152602001915050600060405180830381600087803b1580156130b657600080fd5b505af11580156130ca573d6000803e3d6000fd5b50506040516001600160a01b038085169350851691507f425a9ef6e4130595de2345fa70aebbdf0431120d720b65c46f16c69ec2bfbf6990600090a35050565b600a5481565b601254604080517f7338c25c0000000000000000000000000000000000000000000000000000000081523360048201527f6973545553444d696e7452617469666965720000000000000000000000000000602482015290516001600160a01b0390921691637338c25c91604480820192602092909190829003018186803b15801561319a57600080fd5b505afa1580156131ae573d6000803e3d6000fd5b505050506040513d60208110156131c457600080fd5b5051806131db57506000546001600160a01b031633145b61322c576040805162461bcd60e51b815260206004820152601960248201527f6d757374206265207261746966696572206f72206f776e657200000000000000604482015290519081900360640190fd5b613255613246600854600554613d6c90919063ffffffff16565b6009549063ffffffff613d6c16565b6009556005546008556040517ffebce9a3dbc55fe4e42cabd1229670f5e1ed4cbf008685f75392a050ab9561fd90600090a1565b6000546001600160a01b031633146132e8576040805162461bcd60e51b815260206004820152600a60248201527f6f6e6c79204f776e657200000000000000000000000000000000000000000000604482015290519081900360640190fd5b6001600160a01b038116613343576040805162461bcd60e51b815260206004820152601a60248201527f6e6577206d696e74206b65792063616e6e6f7420626520307830000000000000604482015290519081900360640190fd5b600f546040516001600160a01b038084169216907ffbd0b5e594e818883d41b4de49805781c984d030597177b02c741cafe04bf21b90600090a3600f80547fffffffffffffffffffffffff0000000000000000000000000000000000000000166001600160a01b0392909216919091179055565b60015474010000000000000000000000000000000000000000900460ff1615613427576040805162461bcd60e51b815260206004820152601360248201527f616c726561647920696e697469616c697a656400000000000000000000000000604482015290519081900360640190fd5b600080547fffffffffffffffffffffffff00000000000000000000000000000000000000009081163317909155600180547fffffffffffffffffffffff00ffffffffffffffffffffffffffffffffffffffff1674010000000000000000000000000000000000000000179055601180546001600160a01b03851692168217905560408051918252517fefc1fd16ea80a922086ee4e995739d59b025c1bcea6d1f67855747480c83214b9181900360200190a1601280547fffffffffffffffffffffffff0000000000000000000000000000000000000000166001600160a01b0383169081179091556040517f278c70ced5f3e0e5eeb385b5ff9cb735748ba00a625147e66065ed48fc1562cd90600090a2600054601480546001600160a01b039092167fffffffffffffffffffffffff000000000000000000000000000000000000000092831681179091556013805490921617905569d3c21bcecceda100000060028190556a084595161401484a00000060038190556a52b7d2dcc80cd2e4000000600481905560058390556006829055600781905560088390556009829055600a819055604080518481526020810184905280820183905290517fba6a9f8d54021af0fab65e388ad81cc3dfb17207bed50a5e9a30f7adabb534d1916060908290030190a1604080518481526020810184905280820183905290517fa88ec94782bac5c3e5f7d8e8f27b39f3f9d53da3fc2824db137086185cf2117d9181900360600190a16040517ffebce9a3dbc55fe4e42cabd1229670f5e1ed4cbf008685f75392a050ab9561fd90600090a16040517f102a997ac4d17915071d5422bc77b9e807c57305cefef394daf2468abacb26c290600090a16040517ff887efb579b3283f395871614f44a2fd3021ddf59e72a91195f5da936ebaa06d90600090a15050505050565b6013546001600160a01b03163314806136f357506000546001600160a01b031633145b613744576040805162461bcd60e51b815260206004820152601f60248201527f6d7573742062652072656769737472792061646d696e206f72206f776e657200604482015290519081900360640190fd5b601154604080517fd01dd6d20000000000000000000000000000000000000000000000000000000081526001600160a01b03858116600483015284151560248301529151919092169163d01dd6d291604480830192600092919082900301818387803b158015610b3457600080fd5b600e5481565b6014546001600160a01b031681565b6000546001600160a01b03163314613827576040805162461bcd60e51b815260206004820152600a60248201527f6f6e6c79204f776e657200000000000000000000000000000000000000000000604482015290519081900360640190fd5b601160009054906101000a90046001600160a01b03166001600160a01b0316639965b3d66040518163ffffffff1660e01b8152600401600060405180830381600087803b15801561130457600080fd5b6001546001600160a01b031681565b6000613890613f3a565b6010838154811061389d57fe5b60009182526020918290206040805160a081018252600690930290910180546001600160a01b0316835260018101549383019390935260028301549082018190526003830154606083015260049092015460ff1615156080820152600e5490925010613950576040805162461bcd60e51b815260206004820152601460248201527f74686973206d696e7420697320696e76616c6964000000000000000000000000604482015290519081900360640190fd5b8060800151156139a7576040805162461bcd60e51b815260206004820152601360248201527f74686973206d696e742069732070617573656400000000000000000000000000604482015290519081900360640190fd5b6139b9816060015182602001516111b3565b613a0a576040805162461bcd60e51b815260206004820152601460248201527f6e6f7420656e6f75676820617070726f76616c73000000000000000000000000604482015290519081900360640190fd5b50600192915050565b60065481565b60108181548110613a2657fe5b6000918252602090912060069091020180546001820154600283015460038401546004909401546001600160a01b0390931694509092909160ff1685565b600381565b733c8984dce8f68fcdeeeafd9e0eca3598562ed29181565b6000546001600160a01b03163314613ae0576040805162461bcd60e51b815260206004820152600a60248201527f6f6e6c79204f776e657200000000000000000000000000000000000000000000604482015290519081900360640190fd5b600180547fffffffffffffffffffffffff0000000000000000000000000000000000000000166001600160a01b03838116919091179182905560008054604051938316939216917fec070b46448fede8b4a9a9f8d7919141b5e1c729397eccb0c59af2d6d9fc2d6c9190a350565b6000546001600160a01b03163314613bad576040805162461bcd60e51b815260206004820152600a60248201527f6f6e6c79204f776e657200000000000000000000000000000000000000000000604482015290519081900360640190fd5b600d80547fffffffffffffffffffffffffffffffffffffffffffffffffffffffffffffff00169055604080516000815290517f6cb4a816be468261438a85abae2d59de6bc19b06d3a76e2f3acfd656d85a2ee99181900360200190a1565b6000546001600160a01b03163314613c6a576040805162461bcd60e51b815260206004820152600a60248201527f6f6e6c79204f776e657200000000000000000000000000000000000000000000604482015290519081900360640190fd5b60115460008054604080517f9a6a30a40000000000000000000000000000000000000000000000000000000081526001600160a01b03928316600482015290519190931692639a6a30a492602480830193919282900301818387803b15801561130457600080fd5b7f697354555344526564656d7074696f6e41646d696e000000000000000000000081565b6011546001600160a01b031681565b60055481565b600082820183811015613d65576040805162461bcd60e51b815260206004820152601b60248201527f536166654d6174683a206164646974696f6e206f766572666c6f770000000000604482015290519081900360640190fd5b9392505050565b6000613d6583836040518060400160405280601e81526020017f536166654d6174683a207375627472616374696f6e206f766572666c6f770000815250613e3e565b6009548111158015613dc257506003548111155b15613de257600954613dda908263ffffffff613d6c16565b600955613df9565b600a54613df5908263ffffffff613d6c16565b600a555b50565b6000613d6583836040518060400160405280601a81526020017f536166654d6174683a206469766973696f6e206279207a65726f000000000000815250613ed5565b60008184841115613ecd5760405162461bcd60e51b81526004018080602001828103825283818151815260200191508051906020019080838360005b83811015613e92578181015183820152602001613e7a565b50505050905090810190601f168015613ebf5780820380516001836020036101000a031916815260200191505b509250505060405180910390fd5b505050900390565b60008183613f245760405162461bcd60e51b8152602060048201818152835160248401528351909283926044909101919085019080838360008315613e92578181015183820152602001613e7a565b506000838581613f3057fe5b0495945050505050565b6040518060a0016040528060006001600160a01b031681526020016000815260200160008152602001600081526020016000151581525090565b60405180604001604052806002906020820280368337509192915050565b50600081556001016000905556fea2646970667358221220d4d8a620b2a119ed51d5e364b2ae68586b06bb8c641f3df13c803cef03358cc564736f6c634300060a0033",
      "opcodes": "PUSH1 0x80 PUSH1 0x40 MSTORE CALLVALUE DUP1 ISZERO PUSH2 0x10 JUMPI PUSH1 0x0 DUP1 REVERT JUMPDEST POP PUSH2 0x3FD6 DUP1 PUSH2 0x20 PUSH1 0x0 CODECOPY PUSH1 0x0 RETURN INVALID PUSH1 0x80 PUSH1 0x40 MSTORE CALLVALUE DUP1 ISZERO PUSH2 0x10 JUMPI PUSH1 0x0 DUP1 REVERT JUMPDEST POP PUSH1 0x4 CALLDATASIZE LT PUSH2 0x43C JUMPI PUSH1 0x0 CALLDATALOAD PUSH1 0xE0 SHR DUP1 PUSH4 0x8129FC1C GT PUSH2 0x235 JUMPI DUP1 PUSH4 0xCEE6F282 GT PUSH2 0x135 JUMPI DUP1 PUSH4 0xEC38E855 GT PUSH2 0xC8 JUMPI DUP1 PUSH4 0xF3A27963 GT PUSH2 0x97 JUMPI DUP1 PUSH4 0xF966F191 GT PUSH2 0x7C JUMPI DUP1 PUSH4 0xF966F191 EQ PUSH2 0xA7D JUMPI DUP1 PUSH4 0xFC0C546A EQ PUSH2 0xA85 JUMPI DUP1 PUSH4 0xFC46221D EQ PUSH2 0xA8D JUMPI PUSH2 0x43C JUMP JUMPDEST DUP1 PUSH4 0xF3A27963 EQ PUSH2 0xA6D JUMPI DUP1 PUSH4 0xF3E2AA83 EQ PUSH2 0xA75 JUMPI PUSH2 0x43C JUMP JUMPDEST DUP1 PUSH4 0xEC38E855 EQ PUSH2 0x9E3 JUMPI DUP1 PUSH4 0xED62B4D6 EQ PUSH2 0xA37 JUMPI DUP1 PUSH4 0xF11DB77F EQ PUSH2 0xA3F JUMPI DUP1 PUSH4 0xF2FDE38B EQ PUSH2 0xA47 JUMPI PUSH2 0x43C JUMP JUMPDEST DUP1 PUSH4 0xDC9DA8CB GT PUSH2 0x104 JUMPI DUP1 PUSH4 0xDC9DA8CB EQ PUSH2 0x9AE JUMPI DUP1 PUSH4 0xE30C3978 EQ PUSH2 0x9B6 JUMPI DUP1 PUSH4 0xE4E2BFE4 EQ PUSH2 0x9BE JUMPI DUP1 PUSH4 0xE653AAB5 EQ PUSH2 0x9DB JUMPI PUSH2 0x43C JUMP JUMPDEST DUP1 PUSH4 0xCEE6F282 EQ PUSH2 0x942 JUMPI DUP1 PUSH4 0xD01DD6D2 EQ PUSH2 0x970 JUMPI DUP1 PUSH4 0xD0D2D110 EQ PUSH2 0x99E JUMPI DUP1 PUSH4 0xD5FE955F EQ PUSH2 0x9A6 JUMPI PUSH2 0x43C JUMP JUMPDEST DUP1 PUSH4 0xA22CBA6E GT PUSH2 0x1C8 JUMPI DUP1 PUSH4 0xAB15F723 GT PUSH2 0x197 JUMPI DUP1 PUSH4 0xC37E2155 GT PUSH2 0x17C JUMPI DUP1 PUSH4 0xC37E2155 EQ PUSH2 0x90C JUMPI DUP1 PUSH4 0xCC7E492E EQ PUSH2 0x914 JUMPI DUP1 PUSH4 0xCD0F7A45 EQ PUSH2 0x91C JUMPI PUSH2 0x43C JUMP JUMPDEST DUP1 PUSH4 0xAB15F723 EQ PUSH2 0x8D6 JUMPI DUP1 PUSH4 0xAE11EA9B EQ PUSH2 0x8DE JUMPI PUSH2 0x43C JUMP JUMPDEST DUP1 PUSH4 0xA22CBA6E EQ PUSH2 0x865 JUMPI DUP1 PUSH4 0xA415965C EQ PUSH2 0x882 JUMPI DUP1 PUSH4 0xA6AA4379 EQ PUSH2 0x88A JUMPI DUP1 PUSH4 0xA91EE0DC EQ PUSH2 0x8B0 JUMPI PUSH2 0x43C JUMP JUMPDEST DUP1 PUSH4 0x89D9B059 GT PUSH2 0x204 JUMPI DUP1 PUSH4 0x89D9B059 EQ PUSH2 0x812 JUMPI DUP1 PUSH4 0x8DA5CB5B EQ PUSH2 0x81A JUMPI DUP1 PUSH4 0x8E3AF93F EQ PUSH2 0x822 JUMPI DUP1 PUSH4 0x9A6A30A4 EQ PUSH2 0x83F JUMPI PUSH2 0x43C JUMP JUMPDEST DUP1 PUSH4 0x8129FC1C EQ PUSH2 0x7AE JUMPI DUP1 PUSH4 0x819B411C EQ PUSH2 0x7B6 JUMPI DUP1 PUSH4 0x87FB79BE EQ PUSH2 0x7DC JUMPI DUP1 PUSH4 0x88EE39CC EQ PUSH2 0x7E4 JUMPI PUSH2 0x43C JUMP JUMPDEST DUP1 PUSH4 0x39069D8C GT PUSH2 0x340 JUMPI DUP1 PUSH4 0x72DF02A7 GT PUSH2 0x2D3 JUMPI DUP1 PUSH4 0x79CA5D4C GT PUSH2 0x2A2 JUMPI DUP1 PUSH4 0x7E4831D3 GT PUSH2 0x287 JUMPI DUP1 PUSH4 0x7E4831D3 EQ PUSH2 0x75B JUMPI DUP1 PUSH4 0x7EF7CE92 EQ PUSH2 0x763 JUMPI DUP1 PUSH4 0x80749656 EQ PUSH2 0x780 JUMPI PUSH2 0x43C JUMP JUMPDEST DUP1 PUSH4 0x79CA5D4C EQ PUSH2 0x72D JUMPI DUP1 PUSH4 0x7B103999 EQ PUSH2 0x753 JUMPI PUSH2 0x43C JUMP JUMPDEST DUP1 PUSH4 0x72DF02A7 EQ PUSH2 0x6C8 JUMPI DUP1 PUSH4 0x74C16B23 EQ PUSH2 0x6F1 JUMPI DUP1 PUSH4 0x76F2A59A EQ PUSH2 0x6F9 JUMPI DUP1 PUSH4 0x789083E6 EQ PUSH2 0x725 JUMPI PUSH2 0x43C JUMP JUMPDEST DUP1 PUSH4 0x52006050 GT PUSH2 0x30F JUMPI DUP1 PUSH4 0x52006050 EQ PUSH2 0x65C JUMPI DUP1 PUSH4 0x5E5AE1FE EQ PUSH2 0x67F JUMPI DUP1 PUSH4 0x69EBF34E EQ PUSH2 0x687 JUMPI DUP1 PUSH4 0x6C38D4E4 EQ PUSH2 0x6AB JUMPI PUSH2 0x43C JUMP JUMPDEST DUP1 PUSH4 0x39069D8C EQ PUSH2 0x5DF JUMPI DUP1 PUSH4 0x3CB5BC74 EQ PUSH2 0x605 JUMPI DUP1 PUSH4 0x4E71E0C8 EQ PUSH2 0x62E JUMPI DUP1 PUSH4 0x4FE5D431 EQ PUSH2 0x636 JUMPI PUSH2 0x43C JUMP JUMPDEST DUP1 PUSH4 0x29DEA3A1 GT PUSH2 0x3D3 JUMPI DUP1 PUSH4 0x2E70BD4F GT PUSH2 0x3A2 JUMPI DUP1 PUSH4 0x31A02BCE GT PUSH2 0x387 JUMPI DUP1 PUSH4 0x31A02BCE EQ PUSH2 0x58E JUMPI DUP1 PUSH4 0x31BAC434 EQ PUSH2 0x5BA JUMPI DUP1 PUSH4 0x34437B16 EQ PUSH2 0x5D7 JUMPI PUSH2 0x43C JUMP JUMPDEST DUP1 PUSH4 0x2E70BD4F EQ PUSH2 0x57E JUMPI DUP1 PUSH4 0x3134FE9C EQ PUSH2 0x586 JUMPI PUSH2 0x43C JUMP JUMPDEST DUP1 PUSH4 0x29DEA3A1 EQ PUSH2 0x543 JUMPI DUP1 PUSH4 0x2BBDB18A EQ PUSH2 0x54B JUMPI DUP1 PUSH4 0x2C349627 EQ PUSH2 0x56E JUMPI DUP1 PUSH4 0x2C9EBB5D EQ PUSH2 0x576 JUMPI PUSH2 0x43C JUMP JUMPDEST DUP1 PUSH4 0x15D33838 GT PUSH2 0x40F JUMPI DUP1 PUSH4 0x15D33838 EQ PUSH2 0x4DD JUMPI DUP1 PUSH4 0x1D42953A EQ PUSH2 0x4F7 JUMPI DUP1 PUSH4 0x1D4E135B EQ PUSH2 0x4FF JUMPI DUP1 PUSH4 0x1E38CDB2 EQ PUSH2 0x51D JUMPI PUSH2 0x43C JUMP JUMPDEST DUP1 PUSH4 0x581345E EQ PUSH2 0x441 JUMPI DUP1 PUSH4 0xE536FF4 EQ PUSH2 0x469 JUMPI DUP1 PUSH4 0x144FA6D7 EQ PUSH2 0x49B JUMPI DUP1 PUSH4 0x158EF93E EQ PUSH2 0x4C1 JUMPI JUMPDEST PUSH1 0x0 DUP1 REVERT JUMPDEST PUSH2 0x467 PUSH1 0x4 DUP1 CALLDATASIZE SUB PUSH1 0x20 DUP2 LT ISZERO PUSH2 0x457 JUMPI PUSH1 0x0 DUP1 REVERT JUMPDEST POP CALLDATALOAD PUSH1 0x1 PUSH1 0x1 PUSH1 0xA0 SHL SUB AND PUSH2 0xA95 JUMP JUMPDEST STOP JUMPDEST PUSH2 0x467 PUSH1 0x4 DUP1 CALLDATASIZE SUB PUSH1 0x60 DUP2 LT ISZERO PUSH2 0x47F JUMPI PUSH1 0x0 DUP1 REVERT JUMPDEST POP DUP1 CALLDATALOAD SWAP1 PUSH1 0x1 PUSH1 0x1 PUSH1 0xA0 SHL SUB PUSH1 0x20 DUP3 ADD CALLDATALOAD AND SWAP1 PUSH1 0x40 ADD CALLDATALOAD PUSH2 0xB50 JUMP JUMPDEST PUSH2 0x467 PUSH1 0x4 DUP1 CALLDATASIZE SUB PUSH1 0x20 DUP2 LT ISZERO PUSH2 0x4B1 JUMPI PUSH1 0x0 DUP1 REVERT JUMPDEST POP CALLDATALOAD PUSH1 0x1 PUSH1 0x1 PUSH1 0xA0 SHL SUB AND PUSH2 0xF93 JUMP JUMPDEST PUSH2 0x4C9 PUSH2 0x105E JUMP JUMPDEST PUSH1 0x40 DUP1 MLOAD SWAP2 ISZERO ISZERO DUP3 MSTORE MLOAD SWAP1 DUP2 SWAP1 SUB PUSH1 0x20 ADD SWAP1 RETURN JUMPDEST PUSH2 0x4E5 PUSH2 0x107F JUMP JUMPDEST PUSH1 0x40 DUP1 MLOAD SWAP2 DUP3 MSTORE MLOAD SWAP1 DUP2 SWAP1 SUB PUSH1 0x20 ADD SWAP1 RETURN JUMPDEST PUSH2 0x4E5 PUSH2 0x10A3 JUMP JUMPDEST PUSH2 0x507 PUSH2 0x10C7 JUMP JUMPDEST PUSH1 0x40 DUP1 MLOAD PUSH1 0xFF SWAP1 SWAP3 AND DUP3 MSTORE MLOAD SWAP1 DUP2 SWAP1 SUB PUSH1 0x20 ADD SWAP1 RETURN JUMPDEST PUSH2 0x467 PUSH1 0x4 DUP1 CALLDATASIZE SUB PUSH1 0x20 DUP2 LT ISZERO PUSH2 0x533 JUMPI PUSH1 0x0 DUP1 REVERT JUMPDEST POP CALLDATALOAD PUSH1 0x1 PUSH1 0x1 PUSH1 0xA0 SHL SUB AND PUSH2 0x10CC JUMP JUMPDEST PUSH2 0x4E5 PUSH2 0x11AD JUMP JUMPDEST PUSH2 0x4C9 PUSH1 0x4 DUP1 CALLDATASIZE SUB PUSH1 0x40 DUP2 LT ISZERO PUSH2 0x561 JUMPI PUSH1 0x0 DUP1 REVERT JUMPDEST POP DUP1 CALLDATALOAD SWAP1 PUSH1 0x20 ADD CALLDATALOAD PUSH2 0x11B3 JUMP JUMPDEST PUSH2 0x467 PUSH2 0x122C JUMP JUMPDEST PUSH2 0x4E5 PUSH2 0x1318 JUMP JUMPDEST PUSH2 0x4E5 PUSH2 0x131E JUMP JUMPDEST PUSH2 0x4E5 PUSH2 0x1324 JUMP JUMPDEST PUSH2 0x467 PUSH1 0x4 DUP1 CALLDATASIZE SUB PUSH1 0x40 DUP2 LT ISZERO PUSH2 0x5A4 JUMPI PUSH1 0x0 DUP1 REVERT JUMPDEST POP PUSH1 0x1 PUSH1 0x1 PUSH1 0xA0 SHL SUB DUP2 CALLDATALOAD AND SWAP1 PUSH1 0x20 ADD CALLDATALOAD PUSH2 0x132A JUMP JUMPDEST PUSH2 0x467 PUSH1 0x4 DUP1 CALLDATASIZE SUB PUSH1 0x20 DUP2 LT ISZERO PUSH2 0x5D0 JUMPI PUSH1 0x0 DUP1 REVERT JUMPDEST POP CALLDATALOAD PUSH2 0x15C9 JUMP JUMPDEST PUSH2 0x4E5 PUSH2 0x16B8 JUMP JUMPDEST PUSH2 0x467 PUSH1 0x4 DUP1 CALLDATASIZE SUB PUSH1 0x20 DUP2 LT ISZERO PUSH2 0x5F5 JUMPI PUSH1 0x0 DUP1 REVERT JUMPDEST POP CALLDATALOAD PUSH1 0x1 PUSH1 0x1 PUSH1 0xA0 SHL SUB AND PUSH2 0x16BE JUMP JUMPDEST PUSH2 0x467 PUSH1 0x4 DUP1 CALLDATASIZE SUB PUSH1 0x60 DUP2 LT ISZERO PUSH2 0x61B JUMPI PUSH1 0x0 DUP1 REVERT JUMPDEST POP DUP1 CALLDATALOAD SWAP1 PUSH1 0x20 DUP2 ADD CALLDATALOAD SWAP1 PUSH1 0x40 ADD CALLDATALOAD PUSH2 0x1757 JUMP JUMPDEST PUSH2 0x467 PUSH2 0x1856 JUMP JUMPDEST PUSH2 0x467 PUSH1 0x4 DUP1 CALLDATASIZE SUB PUSH1 0x20 DUP2 LT ISZERO PUSH2 0x64C JUMPI PUSH1 0x0 DUP1 REVERT JUMPDEST POP CALLDATALOAD PUSH1 0x1 PUSH1 0x1 PUSH1 0xA0 SHL SUB AND PUSH2 0x18E9 JUMP JUMPDEST PUSH2 0x467 PUSH1 0x4 DUP1 CALLDATASIZE SUB PUSH1 0x40 DUP2 LT ISZERO PUSH2 0x672 JUMPI PUSH1 0x0 DUP1 REVERT JUMPDEST POP DUP1 CALLDATALOAD SWAP1 PUSH1 0x20 ADD CALLDATALOAD PUSH2 0x19AF JUMP JUMPDEST PUSH2 0x467 PUSH2 0x1A7B JUMP JUMPDEST PUSH2 0x68F PUSH2 0x1AE0 JUMP JUMPDEST PUSH1 0x40 DUP1 MLOAD PUSH1 0x1 PUSH1 0x1 PUSH1 0xA0 SHL SUB SWAP1 SWAP3 AND DUP3 MSTORE MLOAD SWAP1 DUP2 SWAP1 SUB PUSH1 0x20 ADD SWAP1 RETURN JUMPDEST PUSH2 0x467 PUSH1 0x4 DUP1 CALLDATASIZE SUB PUSH1 0x20 DUP2 LT ISZERO PUSH2 0x6C1 JUMPI PUSH1 0x0 DUP1 REVERT JUMPDEST POP CALLDATALOAD PUSH2 0x1AEF JUMP JUMPDEST PUSH2 0x467 PUSH1 0x4 DUP1 CALLDATASIZE SUB PUSH1 0x60 DUP2 LT ISZERO PUSH2 0x6DE JUMPI PUSH1 0x0 DUP1 REVERT JUMPDEST POP DUP1 CALLDATALOAD SWAP1 PUSH1 0x20 DUP2 ADD CALLDATALOAD SWAP1 PUSH1 0x40 ADD CALLDATALOAD PUSH2 0x1C9C JUMP JUMPDEST PUSH2 0x68F PUSH2 0x1D68 JUMP JUMPDEST PUSH2 0x467 PUSH1 0x4 DUP1 CALLDATASIZE SUB PUSH1 0x40 DUP2 LT ISZERO PUSH2 0x70F JUMPI PUSH1 0x0 DUP1 REVERT JUMPDEST POP PUSH1 0x1 PUSH1 0x1 PUSH1 0xA0 SHL SUB DUP2 CALLDATALOAD AND SWAP1 PUSH1 0x20 ADD CALLDATALOAD PUSH2 0x1D77 JUMP JUMPDEST PUSH2 0x4E5 PUSH2 0x1FBF JUMP JUMPDEST PUSH2 0x467 PUSH1 0x4 DUP1 CALLDATASIZE SUB PUSH1 0x20 DUP2 LT ISZERO PUSH2 0x743 JUMPI PUSH1 0x0 DUP1 REVERT JUMPDEST POP CALLDATALOAD PUSH1 0x1 PUSH1 0x1 PUSH1 0xA0 SHL SUB AND PUSH2 0x1FC5 JUMP JUMPDEST PUSH2 0x68F PUSH2 0x2094 JUMP JUMPDEST PUSH2 0x4C9 PUSH2 0x20A3 JUMP JUMPDEST PUSH2 0x467 PUSH1 0x4 DUP1 CALLDATASIZE SUB PUSH1 0x20 DUP2 LT ISZERO PUSH2 0x779 JUMPI PUSH1 0x0 DUP1 REVERT JUMPDEST POP CALLDATALOAD PUSH2 0x20AC JUMP JUMPDEST PUSH2 0x467 PUSH1 0x4 DUP1 CALLDATASIZE SUB PUSH1 0x40 DUP2 LT ISZERO PUSH2 0x796 JUMPI PUSH1 0x0 DUP1 REVERT JUMPDEST POP PUSH1 0x1 PUSH1 0x1 PUSH1 0xA0 SHL SUB DUP2 CALLDATALOAD AND SWAP1 PUSH1 0x20 ADD CALLDATALOAD ISZERO ISZERO PUSH2 0x21DD JUMP JUMPDEST PUSH2 0x467 PUSH2 0x2321 JUMP JUMPDEST PUSH2 0x467 PUSH1 0x4 DUP1 CALLDATASIZE SUB PUSH1 0x20 DUP2 LT ISZERO PUSH2 0x7CC JUMPI PUSH1 0x0 DUP1 REVERT JUMPDEST POP CALLDATALOAD PUSH1 0x1 PUSH1 0x1 PUSH1 0xA0 SHL SUB AND PUSH2 0x23FC JUMP JUMPDEST PUSH2 0x4E5 PUSH2 0x2495 JUMP JUMPDEST PUSH2 0x467 PUSH1 0x4 DUP1 CALLDATASIZE SUB PUSH1 0x40 DUP2 LT ISZERO PUSH2 0x7FA JUMPI PUSH1 0x0 DUP1 REVERT JUMPDEST POP PUSH1 0x1 PUSH1 0x1 PUSH1 0xA0 SHL SUB DUP2 CALLDATALOAD DUP2 AND SWAP2 PUSH1 0x20 ADD CALLDATALOAD AND PUSH2 0x249B JUMP JUMPDEST PUSH2 0x467 PUSH2 0x2622 JUMP JUMPDEST PUSH2 0x68F PUSH2 0x28B4 JUMP JUMPDEST PUSH2 0x467 PUSH1 0x4 DUP1 CALLDATASIZE SUB PUSH1 0x20 DUP2 LT ISZERO PUSH2 0x838 JUMPI PUSH1 0x0 DUP1 REVERT JUMPDEST POP CALLDATALOAD PUSH2 0x28C3 JUMP JUMPDEST PUSH2 0x467 PUSH1 0x4 DUP1 CALLDATASIZE SUB PUSH1 0x20 DUP2 LT ISZERO PUSH2 0x855 JUMPI PUSH1 0x0 DUP1 REVERT JUMPDEST POP CALLDATALOAD PUSH1 0x1 PUSH1 0x1 PUSH1 0xA0 SHL SUB AND PUSH2 0x2B1D JUMP JUMPDEST PUSH2 0x68F PUSH1 0x4 DUP1 CALLDATASIZE SUB PUSH1 0x20 DUP2 LT ISZERO PUSH2 0x87B JUMPI PUSH1 0x0 DUP1 REVERT JUMPDEST POP CALLDATALOAD PUSH2 0x2BB5 JUMP JUMPDEST PUSH2 0x467 PUSH2 0x2BD2 JUMP JUMPDEST PUSH2 0x467 PUSH1 0x4 DUP1 CALLDATASIZE SUB PUSH1 0x20 DUP2 LT ISZERO PUSH2 0x8A0 JUMPI PUSH1 0x0 DUP1 REVERT JUMPDEST POP CALLDATALOAD PUSH1 0x1 PUSH1 0x1 PUSH1 0xA0 SHL SUB AND PUSH2 0x2C62 JUMP JUMPDEST PUSH2 0x467 PUSH1 0x4 DUP1 CALLDATASIZE SUB PUSH1 0x20 DUP2 LT ISZERO PUSH2 0x8C6 JUMPI PUSH1 0x0 DUP1 REVERT JUMPDEST POP CALLDATALOAD PUSH1 0x1 PUSH1 0x1 PUSH1 0xA0 SHL SUB AND PUSH2 0x2DBA JUMP JUMPDEST PUSH2 0x467 PUSH2 0x2E81 JUMP JUMPDEST PUSH2 0x467 PUSH1 0x4 DUP1 CALLDATASIZE SUB PUSH1 0x40 DUP2 LT ISZERO PUSH2 0x8F4 JUMPI PUSH1 0x0 DUP1 REVERT JUMPDEST POP PUSH1 0x1 PUSH1 0x1 PUSH1 0xA0 SHL SUB DUP2 CALLDATALOAD DUP2 AND SWAP2 PUSH1 0x20 ADD CALLDATALOAD AND PUSH2 0x2FFF JUMP JUMPDEST PUSH2 0x4E5 PUSH2 0x310A JUMP JUMPDEST PUSH2 0x467 PUSH2 0x3110 JUMP JUMPDEST PUSH2 0x467 PUSH1 0x4 DUP1 CALLDATASIZE SUB PUSH1 0x20 DUP2 LT ISZERO PUSH2 0x932 JUMPI PUSH1 0x0 DUP1 REVERT JUMPDEST POP CALLDATALOAD PUSH1 0x1 PUSH1 0x1 PUSH1 0xA0 SHL SUB AND PUSH2 0x3289 JUMP JUMPDEST PUSH2 0x467 PUSH1 0x4 DUP1 CALLDATASIZE SUB PUSH1 0x40 DUP2 LT ISZERO PUSH2 0x958 JUMPI PUSH1 0x0 DUP1 REVERT JUMPDEST POP PUSH1 0x1 PUSH1 0x1 PUSH1 0xA0 SHL SUB DUP2 CALLDATALOAD DUP2 AND SWAP2 PUSH1 0x20 ADD CALLDATALOAD AND PUSH2 0x33B7 JUMP JUMPDEST PUSH2 0x467 PUSH1 0x4 DUP1 CALLDATASIZE SUB PUSH1 0x40 DUP2 LT ISZERO PUSH2 0x986 JUMPI PUSH1 0x0 DUP1 REVERT JUMPDEST POP PUSH1 0x1 PUSH1 0x1 PUSH1 0xA0 SHL SUB DUP2 CALLDATALOAD AND SWAP1 PUSH1 0x20 ADD CALLDATALOAD ISZERO ISZERO PUSH2 0x36D0 JUMP JUMPDEST PUSH2 0x4E5 PUSH2 0x37B3 JUMP JUMPDEST PUSH2 0x68F PUSH2 0x37B9 JUMP JUMPDEST PUSH2 0x467 PUSH2 0x37C8 JUMP JUMPDEST PUSH2 0x68F PUSH2 0x3877 JUMP JUMPDEST PUSH2 0x4C9 PUSH1 0x4 DUP1 CALLDATASIZE SUB PUSH1 0x20 DUP2 LT ISZERO PUSH2 0x9D4 JUMPI PUSH1 0x0 DUP1 REVERT JUMPDEST POP CALLDATALOAD PUSH2 0x3886 JUMP JUMPDEST PUSH2 0x4E5 PUSH2 0x3A13 JUMP JUMPDEST PUSH2 0xA00 PUSH1 0x4 DUP1 CALLDATASIZE SUB PUSH1 0x20 DUP2 LT ISZERO PUSH2 0x9F9 JUMPI PUSH1 0x0 DUP1 REVERT JUMPDEST POP CALLDATALOAD PUSH2 0x3A19 JUMP JUMPDEST PUSH1 0x40 DUP1 MLOAD PUSH1 0x1 PUSH1 0x1 PUSH1 0xA0 SHL SUB SWAP1 SWAP7 AND DUP7 MSTORE PUSH1 0x20 DUP7 ADD SWAP5 SWAP1 SWAP5 MSTORE DUP5 DUP5 ADD SWAP3 SWAP1 SWAP3 MSTORE PUSH1 0x60 DUP5 ADD MSTORE ISZERO ISZERO PUSH1 0x80 DUP4 ADD MSTORE MLOAD SWAP1 DUP2 SWAP1 SUB PUSH1 0xA0 ADD SWAP1 RETURN JUMPDEST PUSH2 0x507 PUSH2 0x3A64 JUMP JUMPDEST PUSH2 0x68F PUSH2 0x3A69 JUMP JUMPDEST PUSH2 0x467 PUSH1 0x4 DUP1 CALLDATASIZE SUB PUSH1 0x20 DUP2 LT ISZERO PUSH2 0xA5D JUMPI PUSH1 0x0 DUP1 REVERT JUMPDEST POP CALLDATALOAD PUSH1 0x1 PUSH1 0x1 PUSH1 0xA0 SHL SUB AND PUSH2 0x3A81 JUMP JUMPDEST PUSH2 0x467 PUSH2 0x3B4E JUMP JUMPDEST PUSH2 0x467 PUSH2 0x3C0B JUMP JUMPDEST PUSH2 0x4E5 PUSH2 0x3CD2 JUMP JUMPDEST PUSH2 0x68F PUSH2 0x3CF6 JUMP JUMPDEST PUSH2 0x4E5 PUSH2 0x3D05 JUMP JUMPDEST PUSH1 0x0 SLOAD PUSH1 0x1 PUSH1 0x1 PUSH1 0xA0 SHL SUB AND CALLER EQ PUSH2 0xAF4 JUMPI PUSH1 0x40 DUP1 MLOAD PUSH3 0x461BCD PUSH1 0xE5 SHL DUP2 MSTORE PUSH1 0x20 PUSH1 0x4 DUP3 ADD MSTORE PUSH1 0xA PUSH1 0x24 DUP3 ADD MSTORE PUSH32 0x6F6E6C79204F776E657200000000000000000000000000000000000000000000 PUSH1 0x44 DUP3 ADD MSTORE SWAP1 MLOAD SWAP1 DUP2 SWAP1 SUB PUSH1 0x64 ADD SWAP1 REVERT JUMPDEST PUSH1 0x0 DUP2 SWAP1 POP DUP1 PUSH1 0x1 PUSH1 0x1 PUSH1 0xA0 SHL SUB AND PUSH4 0x4E71E0C8 PUSH1 0x40 MLOAD DUP2 PUSH4 0xFFFFFFFF AND PUSH1 0xE0 SHL DUP2 MSTORE PUSH1 0x4 ADD PUSH1 0x0 PUSH1 0x40 MLOAD DUP1 DUP4 SUB DUP2 PUSH1 0x0 DUP8 DUP1 EXTCODESIZE ISZERO DUP1 ISZERO PUSH2 0xB34 JUMPI PUSH1 0x0 DUP1 REVERT JUMPDEST POP GAS CALL ISZERO DUP1 ISZERO PUSH2 0xB48 JUMPI RETURNDATASIZE PUSH1 0x0 DUP1 RETURNDATACOPY RETURNDATASIZE PUSH1 0x0 REVERT JUMPDEST POP POP POP POP POP POP JUMP JUMPDEST PUSH1 0x0 SLOAD PUSH1 0x1 PUSH1 0x1 PUSH1 0xA0 SHL SUB AND CALLER EQ PUSH2 0xBBA JUMPI PUSH1 0xD SLOAD PUSH1 0xFF AND ISZERO PUSH2 0xBBA JUMPI PUSH1 0x40 DUP1 MLOAD PUSH3 0x461BCD PUSH1 0xE5 SHL DUP2 MSTORE PUSH1 0x20 PUSH1 0x4 DUP3 ADD MSTORE PUSH1 0x11 PUSH1 0x24 DUP3 ADD MSTORE PUSH32 0x6D696E74696E6720697320706175736564000000000000000000000000000000 PUSH1 0x44 DUP3 ADD MSTORE SWAP1 MLOAD SWAP1 DUP2 SWAP1 SUB PUSH1 0x64 ADD SWAP1 REVERT JUMPDEST PUSH1 0x12 SLOAD PUSH1 0x40 DUP1 MLOAD PUSH32 0x7338C25C00000000000000000000000000000000000000000000000000000000 DUP2 MSTORE CALLER PUSH1 0x4 DUP3 ADD MSTORE PUSH32 0x6973545553444D696E7452617469666965720000000000000000000000000000 PUSH1 0x24 DUP3 ADD MSTORE SWAP1 MLOAD PUSH1 0x1 PUSH1 0x1 PUSH1 0xA0 SHL SUB SWAP1 SWAP3 AND SWAP2 PUSH4 0x7338C25C SWAP2 PUSH1 0x44 DUP1 DUP3 ADD SWAP3 PUSH1 0x20 SWAP3 SWAP1 SWAP2 SWAP1 DUP3 SWAP1 SUB ADD DUP2 DUP7 DUP1 EXTCODESIZE ISZERO DUP1 ISZERO PUSH2 0xC44 JUMPI PUSH1 0x0 DUP1 REVERT JUMPDEST POP GAS STATICCALL ISZERO DUP1 ISZERO PUSH2 0xC58 JUMPI RETURNDATASIZE PUSH1 0x0 DUP1 RETURNDATACOPY RETURNDATASIZE PUSH1 0x0 REVERT JUMPDEST POP POP POP POP PUSH1 0x40 MLOAD RETURNDATASIZE PUSH1 0x20 DUP2 LT ISZERO PUSH2 0xC6E JUMPI PUSH1 0x0 DUP1 REVERT JUMPDEST POP MLOAD DUP1 PUSH2 0xC85 JUMPI POP PUSH1 0x0 SLOAD PUSH1 0x1 PUSH1 0x1 PUSH1 0xA0 SHL SUB AND CALLER EQ JUMPDEST PUSH2 0xCD6 JUMPI PUSH1 0x40 DUP1 MLOAD PUSH3 0x461BCD PUSH1 0xE5 SHL DUP2 MSTORE PUSH1 0x20 PUSH1 0x4 DUP3 ADD MSTORE PUSH1 0x19 PUSH1 0x24 DUP3 ADD MSTORE PUSH32 0x6D757374206265207261746966696572206F72206F776E657200000000000000 PUSH1 0x44 DUP3 ADD MSTORE SWAP1 MLOAD SWAP1 DUP2 SWAP1 SUB PUSH1 0x64 ADD SWAP1 REVERT JUMPDEST PUSH2 0xCDE PUSH2 0x3F3A JUMP JUMPDEST PUSH1 0x10 DUP5 DUP2 SLOAD DUP2 LT PUSH2 0xCEB JUMPI INVALID JUMPDEST PUSH1 0x0 SWAP2 DUP3 MSTORE PUSH1 0x20 SWAP2 DUP3 SWAP1 KECCAK256 PUSH1 0x40 DUP1 MLOAD PUSH1 0xA0 DUP2 ADD DUP3 MSTORE PUSH1 0x6 SWAP1 SWAP4 MUL SWAP1 SWAP2 ADD DUP1 SLOAD PUSH1 0x1 PUSH1 0x1 PUSH1 0xA0 SHL SUB SWAP1 DUP2 AND DUP1 DUP6 MSTORE PUSH1 0x1 DUP4 ADD SLOAD SWAP6 DUP6 ADD SWAP6 SWAP1 SWAP6 MSTORE PUSH1 0x2 DUP3 ADD SLOAD SWAP3 DUP5 ADD SWAP3 SWAP1 SWAP3 MSTORE PUSH1 0x3 DUP2 ADD SLOAD PUSH1 0x60 DUP5 ADD MSTORE PUSH1 0x4 ADD SLOAD PUSH1 0xFF AND ISZERO ISZERO PUSH1 0x80 DUP4 ADD MSTORE SWAP1 SWAP3 POP DUP5 AND EQ PUSH2 0xD9F JUMPI PUSH1 0x40 DUP1 MLOAD PUSH3 0x461BCD PUSH1 0xE5 SHL DUP2 MSTORE PUSH1 0x20 PUSH1 0x4 DUP3 ADD MSTORE PUSH1 0x19 PUSH1 0x24 DUP3 ADD MSTORE PUSH32 0x746F206164647265737320646F6573206E6F74206D6174636800000000000000 PUSH1 0x44 DUP3 ADD MSTORE SWAP1 MLOAD SWAP1 DUP2 SWAP1 SUB PUSH1 0x64 ADD SWAP1 REVERT JUMPDEST DUP2 DUP2 PUSH1 0x20 ADD MLOAD EQ PUSH2 0xDF7 JUMPI PUSH1 0x40 DUP1 MLOAD PUSH3 0x461BCD PUSH1 0xE5 SHL DUP2 MSTORE PUSH1 0x20 PUSH1 0x4 DUP3 ADD MSTORE PUSH1 0x15 PUSH1 0x24 DUP3 ADD MSTORE PUSH32 0x616D6F756E7420646F6573206E6F74206D617463680000000000000000000000 PUSH1 0x44 DUP3 ADD MSTORE SWAP1 MLOAD SWAP1 DUP2 SWAP1 SUB PUSH1 0x64 ADD SWAP1 REVERT JUMPDEST PUSH1 0x10 DUP5 DUP2 SLOAD DUP2 LT PUSH2 0xE04 JUMPI INVALID JUMPDEST PUSH1 0x0 SWAP2 DUP3 MSTORE PUSH1 0x20 DUP1 DUP4 KECCAK256 CALLER DUP5 MSTORE PUSH1 0x5 PUSH1 0x6 SWAP1 SWAP4 MUL ADD SWAP2 SWAP1 SWAP2 ADD SWAP1 MSTORE PUSH1 0x40 SWAP1 KECCAK256 SLOAD PUSH1 0xFF AND ISZERO PUSH2 0xE79 JUMPI PUSH1 0x40 DUP1 MLOAD PUSH3 0x461BCD PUSH1 0xE5 SHL DUP2 MSTORE PUSH1 0x20 PUSH1 0x4 DUP3 ADD MSTORE PUSH1 0x10 PUSH1 0x24 DUP3 ADD MSTORE PUSH32 0x616C726561647920617070726F76656400000000000000000000000000000000 PUSH1 0x44 DUP3 ADD MSTORE SWAP1 MLOAD SWAP1 DUP2 SWAP1 SUB PUSH1 0x64 ADD SWAP1 REVERT JUMPDEST PUSH1 0x1 PUSH1 0x10 DUP6 DUP2 SLOAD DUP2 LT PUSH2 0xE88 JUMPI INVALID JUMPDEST PUSH1 0x0 SWAP2 DUP3 MSTORE PUSH1 0x20 DUP1 DUP4 KECCAK256 CALLER DUP5 MSTORE PUSH1 0x6 SWAP3 SWAP1 SWAP3 MUL SWAP1 SWAP2 ADD PUSH1 0x5 ADD SWAP1 MSTORE PUSH1 0x40 SWAP1 KECCAK256 DUP1 SLOAD PUSH32 0xFFFFFFFFFFFFFFFFFFFFFFFFFFFFFFFFFFFFFFFFFFFFFFFFFFFFFFFFFFFFFF00 AND SWAP2 ISZERO ISZERO SWAP2 SWAP1 SWAP2 OR SWAP1 SSTORE PUSH1 0x10 DUP1 SLOAD PUSH2 0xF09 SWAP2 PUSH1 0x1 SWAP2 DUP8 SWAP1 DUP2 LT PUSH2 0xEE9 JUMPI INVALID JUMPDEST SWAP1 PUSH1 0x0 MSTORE PUSH1 0x20 PUSH1 0x0 KECCAK256 SWAP1 PUSH1 0x6 MUL ADD PUSH1 0x3 ADD SLOAD PUSH2 0x3D0B SWAP1 SWAP2 SWAP1 PUSH4 0xFFFFFFFF AND JUMP JUMPDEST PUSH1 0x10 DUP6 DUP2 SLOAD DUP2 LT PUSH2 0xF16 JUMPI INVALID JUMPDEST PUSH1 0x0 SWAP2 DUP3 MSTORE PUSH1 0x20 DUP3 KECCAK256 PUSH1 0x3 PUSH1 0x6 SWAP1 SWAP3 MUL ADD ADD SWAP2 SWAP1 SWAP2 SSTORE PUSH1 0x40 MLOAD CALLER SWAP2 DUP7 SWAP2 PUSH32 0x86CC1A29A55449D1229BB301DA3D61FCD5490843635DF9A79E5A4DF4724773D2 SWAP2 SWAP1 LOG3 PUSH2 0xF7F PUSH1 0x10 DUP6 DUP2 SLOAD DUP2 LT PUSH2 0xF67 JUMPI INVALID JUMPDEST SWAP1 PUSH1 0x0 MSTORE PUSH1 0x20 PUSH1 0x0 KECCAK256 SWAP1 PUSH1 0x6 MUL ADD PUSH1 0x3 ADD SLOAD DUP4 PUSH2 0x11B3 JUMP JUMPDEST ISZERO PUSH2 0xF8D JUMPI PUSH2 0xF8D DUP5 PUSH2 0x28C3 JUMP JUMPDEST POP POP POP POP JUMP JUMPDEST PUSH1 0x0 SLOAD PUSH1 0x1 PUSH1 0x1 PUSH1 0xA0 SHL SUB AND CALLER EQ PUSH2 0xFF2 JUMPI PUSH1 0x40 DUP1 MLOAD PUSH3 0x461BCD PUSH1 0xE5 SHL DUP2 MSTORE PUSH1 0x20 PUSH1 0x4 DUP3 ADD MSTORE PUSH1 0xA PUSH1 0x24 DUP3 ADD MSTORE PUSH32 0x6F6E6C79204F776E657200000000000000000000000000000000000000000000 PUSH1 0x44 DUP3 ADD MSTORE SWAP1 MLOAD SWAP1 DUP2 SWAP1 SUB PUSH1 0x64 ADD SWAP1 REVERT JUMPDEST PUSH1 0x11 DUP1 SLOAD PUSH1 0x1 PUSH1 0x1 PUSH1 0xA0 SHL SUB DUP4 AND PUSH32 0xFFFFFFFFFFFFFFFFFFFFFFFF0000000000000000000000000000000000000000 SWAP1 SWAP2 AND DUP2 OR SWAP1 SWAP2 SSTORE PUSH1 0x40 DUP1 MLOAD SWAP2 DUP3 MSTORE MLOAD PUSH32 0xEFC1FD16EA80A922086EE4E995739D59B025C1BCEA6D1F67855747480C83214B SWAP2 DUP2 SWAP1 SUB PUSH1 0x20 ADD SWAP1 LOG1 POP JUMP JUMPDEST PUSH1 0x1 SLOAD PUSH21 0x10000000000000000000000000000000000000000 SWAP1 DIV PUSH1 0xFF AND DUP2 JUMP JUMPDEST PUSH32 0x6973545553444D696E7450617573657273000000000000000000000000000000 DUP2 JUMP JUMPDEST PUSH32 0x6973545553444D696E7452617469666965720000000000000000000000000000 DUP2 JUMP JUMPDEST PUSH1 0x1 DUP2 JUMP JUMPDEST PUSH1 0x0 SLOAD PUSH1 0x1 PUSH1 0x1 PUSH1 0xA0 SHL SUB AND CALLER EQ PUSH2 0x112B JUMPI PUSH1 0x40 DUP1 MLOAD PUSH3 0x461BCD PUSH1 0xE5 SHL DUP2 MSTORE PUSH1 0x20 PUSH1 0x4 DUP3 ADD MSTORE PUSH1 0xA PUSH1 0x24 DUP3 ADD MSTORE PUSH32 0x6F6E6C79204F776E657200000000000000000000000000000000000000000000 PUSH1 0x44 DUP3 ADD MSTORE SWAP1 MLOAD SWAP1 DUP2 SWAP1 SUB PUSH1 0x64 ADD SWAP1 REVERT JUMPDEST PUSH1 0x11 SLOAD PUSH1 0x40 DUP1 MLOAD PUSH32 0xF1739CAE00000000000000000000000000000000000000000000000000000000 DUP2 MSTORE PUSH1 0x1 PUSH1 0x1 PUSH1 0xA0 SHL SUB DUP5 DUP2 AND PUSH1 0x4 DUP4 ADD MSTORE SWAP2 MLOAD SWAP2 SWAP1 SWAP3 AND SWAP2 PUSH4 0xF1739CAE SWAP2 PUSH1 0x24 DUP1 DUP4 ADD SWAP3 PUSH1 0x0 SWAP3 SWAP2 SWAP1 DUP3 SWAP1 SUB ADD DUP2 DUP4 DUP8 DUP1 EXTCODESIZE ISZERO DUP1 ISZERO PUSH2 0x1192 JUMPI PUSH1 0x0 DUP1 REVERT JUMPDEST POP GAS CALL ISZERO DUP1 ISZERO PUSH2 0x11A6 JUMPI RETURNDATASIZE PUSH1 0x0 DUP1 RETURNDATACOPY RETURNDATASIZE PUSH1 0x0 REVERT JUMPDEST POP POP POP POP POP JUMP JUMPDEST PUSH1 0x3 SLOAD DUP2 JUMP JUMPDEST PUSH1 0x0 PUSH1 0x9 SLOAD DUP3 GT ISZERO DUP1 ISZERO PUSH2 0x11C9 JUMPI POP PUSH1 0x3 SLOAD DUP3 GT ISZERO JUMPDEST ISZERO PUSH2 0x11DE JUMPI PUSH1 0x1 DUP4 LT PUSH2 0x11DE JUMPI POP PUSH1 0x1 PUSH2 0x1226 JUMP JUMPDEST PUSH1 0xA SLOAD DUP3 GT ISZERO DUP1 ISZERO PUSH2 0x11F2 JUMPI POP PUSH1 0x4 SLOAD DUP3 GT ISZERO JUMPDEST ISZERO PUSH2 0x1207 JUMPI PUSH1 0x3 DUP4 LT PUSH2 0x1207 JUMPI POP PUSH1 0x1 PUSH2 0x1226 JUMP JUMPDEST PUSH1 0x0 SLOAD PUSH1 0x1 PUSH1 0x1 PUSH1 0xA0 SHL SUB AND CALLER EQ ISZERO PUSH2 0x1222 JUMPI POP PUSH1 0x1 PUSH2 0x1226 JUMP JUMPDEST POP PUSH1 0x0 JUMPDEST SWAP3 SWAP2 POP POP JUMP JUMPDEST PUSH1 0x0 SLOAD PUSH1 0x1 PUSH1 0x1 PUSH1 0xA0 SHL SUB AND CALLER EQ PUSH2 0x128B JUMPI PUSH1 0x40 DUP1 MLOAD PUSH3 0x461BCD PUSH1 0xE5 SHL DUP2 MSTORE PUSH1 0x20 PUSH1 0x4 DUP3 ADD MSTORE PUSH1 0xA PUSH1 0x24 DUP3 ADD MSTORE PUSH32 0x6F6E6C79204F776E657200000000000000000000000000000000000000000000 PUSH1 0x44 DUP3 ADD MSTORE SWAP1 MLOAD SWAP1 DUP2 SWAP1 SUB PUSH1 0x64 ADD SWAP1 REVERT JUMPDEST PUSH1 0x11 SLOAD PUSH1 0x40 DUP1 MLOAD PUSH32 0x3659CFE600000000000000000000000000000000000000000000000000000000 DUP2 MSTORE PUSH20 0x3C8984DCE8F68FCDEEEAFD9E0ECA3598562ED291 PUSH1 0x4 DUP3 ADD MSTORE SWAP1 MLOAD PUSH1 0x1 PUSH1 0x1 PUSH1 0xA0 SHL SUB SWAP1 SWAP3 AND SWAP2 PUSH4 0x3659CFE6 SWAP2 PUSH1 0x24 DUP1 DUP3 ADD SWAP3 PUSH1 0x0 SWAP3 SWAP1 SWAP2 SWAP1 DUP3 SWAP1 SUB ADD DUP2 DUP4 DUP8 DUP1 EXTCODESIZE ISZERO DUP1 ISZERO PUSH2 0x1304 JUMPI PUSH1 0x0 DUP1 REVERT JUMPDEST POP GAS CALL ISZERO DUP1 ISZERO PUSH2 0xF8D JUMPI RETURNDATASIZE PUSH1 0x0 DUP1 RETURNDATACOPY RETURNDATASIZE PUSH1 0x0 REVERT JUMPDEST PUSH1 0x4 SLOAD DUP2 JUMP JUMPDEST PUSH1 0x10 SLOAD SWAP1 JUMP JUMPDEST PUSH1 0x9 SLOAD DUP2 JUMP JUMPDEST PUSH1 0x0 SLOAD PUSH1 0x1 PUSH1 0x1 PUSH1 0xA0 SHL SUB AND CALLER EQ PUSH2 0x1394 JUMPI PUSH1 0xD SLOAD PUSH1 0xFF AND ISZERO PUSH2 0x1394 JUMPI PUSH1 0x40 DUP1 MLOAD PUSH3 0x461BCD PUSH1 0xE5 SHL DUP2 MSTORE PUSH1 0x20 PUSH1 0x4 DUP3 ADD MSTORE PUSH1 0x11 PUSH1 0x24 DUP3 ADD MSTORE PUSH32 0x6D696E74696E6720697320706175736564000000000000000000000000000000 PUSH1 0x44 DUP3 ADD MSTORE SWAP1 MLOAD SWAP1 DUP2 SWAP1 SUB PUSH1 0x64 ADD SWAP1 REVERT JUMPDEST PUSH1 0xF SLOAD PUSH1 0x1 PUSH1 0x1 PUSH1 0xA0 SHL SUB AND CALLER EQ DUP1 PUSH2 0x13B7 JUMPI POP PUSH1 0x0 SLOAD PUSH1 0x1 PUSH1 0x1 PUSH1 0xA0 SHL SUB AND CALLER EQ JUMPDEST PUSH2 0x1408 JUMPI PUSH1 0x40 DUP1 MLOAD PUSH3 0x461BCD PUSH1 0xE5 SHL DUP2 MSTORE PUSH1 0x20 PUSH1 0x4 DUP3 ADD MSTORE PUSH1 0x18 PUSH1 0x24 DUP3 ADD MSTORE PUSH32 0x6D757374206265206D696E744B6579206F72206F776E65720000000000000000 PUSH1 0x44 DUP3 ADD MSTORE SWAP1 MLOAD SWAP1 DUP2 SWAP1 SUB PUSH1 0x64 ADD SWAP1 REVERT JUMPDEST PUSH2 0x1410 PUSH2 0x3F3A JUMP JUMPDEST POP PUSH1 0x40 DUP1 MLOAD PUSH1 0xA0 DUP2 ADD DUP3 MSTORE PUSH1 0x1 PUSH1 0x1 PUSH1 0xA0 SHL SUB DUP5 AND DUP1 DUP3 MSTORE PUSH1 0x20 DUP1 DUP4 ADD DUP6 SWAP1 MSTORE NUMBER DUP4 DUP6 ADD MSTORE PUSH1 0x0 PUSH1 0x60 DUP5 ADD DUP2 SWAP1 MSTORE PUSH1 0x80 DUP5 ADD MSTORE PUSH1 0x10 SLOAD DUP5 MLOAD SWAP1 DUP2 MSTORE CALLER SWAP2 DUP2 ADD SWAP2 SWAP1 SWAP2 MSTORE DUP4 MLOAD SWAP3 SWAP4 DUP6 SWAP4 PUSH32 0x883EAB2A74C029007E37F3F118FA7713D39B756C0B7C932A0269FCB995A4724C SWAP3 DUP2 SWAP1 SUB SWAP1 SWAP2 ADD SWAP1 LOG3 PUSH1 0x10 DUP1 SLOAD PUSH1 0x1 DUP2 ADD DUP3 SSTORE PUSH1 0x0 SWAP2 SWAP1 SWAP2 MSTORE DUP2 MLOAD PUSH32 0x1B6847DC741A1B0CD08D278845F9D819D87B734759AFB55FE2DE5CB82A9AE672 PUSH1 0x6 SWAP1 SWAP3 MUL SWAP2 DUP3 ADD DUP1 SLOAD PUSH32 0xFFFFFFFFFFFFFFFFFFFFFFFF0000000000000000000000000000000000000000 AND PUSH1 0x1 PUSH1 0x1 PUSH1 0xA0 SHL SUB SWAP1 SWAP3 AND SWAP2 SWAP1 SWAP2 OR SWAP1 SSTORE PUSH1 0x20 DUP3 ADD MLOAD PUSH32 0x1B6847DC741A1B0CD08D278845F9D819D87B734759AFB55FE2DE5CB82A9AE673 DUP3 ADD SSTORE PUSH1 0x40 DUP3 ADD MLOAD PUSH32 0x1B6847DC741A1B0CD08D278845F9D819D87B734759AFB55FE2DE5CB82A9AE674 DUP3 ADD SSTORE PUSH1 0x60 DUP3 ADD MLOAD PUSH32 0x1B6847DC741A1B0CD08D278845F9D819D87B734759AFB55FE2DE5CB82A9AE675 DUP3 ADD SSTORE PUSH1 0x80 SWAP1 SWAP2 ADD MLOAD PUSH32 0x1B6847DC741A1B0CD08D278845F9D819D87B734759AFB55FE2DE5CB82A9AE676 SWAP1 SWAP2 ADD DUP1 SLOAD PUSH32 0xFFFFFFFFFFFFFFFFFFFFFFFFFFFFFFFFFFFFFFFFFFFFFFFFFFFFFFFFFFFFFF00 AND SWAP2 ISZERO ISZERO SWAP2 SWAP1 SWAP2 OR SWAP1 SSTORE POP POP JUMP JUMPDEST PUSH1 0x0 SLOAD PUSH1 0x1 PUSH1 0x1 PUSH1 0xA0 SHL SUB AND CALLER EQ PUSH2 0x1628 JUMPI PUSH1 0x40 DUP1 MLOAD PUSH3 0x461BCD PUSH1 0xE5 SHL DUP2 MSTORE PUSH1 0x20 PUSH1 0x4 DUP3 ADD MSTORE PUSH1 0xA PUSH1 0x24 DUP3 ADD MSTORE PUSH32 0x6F6E6C79204F776E657200000000000000000000000000000000000000000000 PUSH1 0x44 DUP3 ADD MSTORE SWAP1 MLOAD SWAP1 DUP2 SWAP1 SUB PUSH1 0x64 ADD SWAP1 REVERT JUMPDEST PUSH1 0x0 PUSH1 0x10 DUP3 DUP2 SLOAD DUP2 LT PUSH2 0x1637 JUMPI INVALID JUMPDEST PUSH1 0x0 SWAP2 DUP3 MSTORE PUSH1 0x20 DUP1 DUP4 KECCAK256 PUSH1 0x6 SWAP3 SWAP1 SWAP3 MUL SWAP1 SWAP2 ADD PUSH1 0x4 ADD DUP1 SLOAD PUSH32 0xFFFFFFFFFFFFFFFFFFFFFFFFFFFFFFFFFFFFFFFFFFFFFFFFFFFFFFFFFFFFFF00 AND SWAP4 ISZERO ISZERO SWAP4 SWAP1 SWAP4 OR SWAP1 SWAP3 SSTORE PUSH1 0x40 DUP1 MLOAD DUP5 DUP2 MSTORE SWAP3 DUP4 ADD SWAP2 SWAP1 SWAP2 MSTORE DUP1 MLOAD PUSH32 0xBE7295EF37CA984EC35808D259AA03F272C2D747C6CE6A47B6E90862AFCCC576 SWAP3 DUP2 SWAP1 SUB SWAP1 SWAP2 ADD SWAP1 LOG1 POP JUMP JUMPDEST PUSH1 0x7 SLOAD DUP2 JUMP JUMPDEST PUSH1 0x0 SLOAD PUSH1 0x1 PUSH1 0x1 PUSH1 0xA0 SHL SUB AND CALLER EQ PUSH2 0x171D JUMPI PUSH1 0x40 DUP1 MLOAD PUSH3 0x461BCD PUSH1 0xE5 SHL DUP2 MSTORE PUSH1 0x20 PUSH1 0x4 DUP3 ADD MSTORE PUSH1 0xA PUSH1 0x24 DUP3 ADD MSTORE PUSH32 0x6F6E6C79204F776E657200000000000000000000000000000000000000000000 PUSH1 0x44 DUP3 ADD MSTORE SWAP1 MLOAD SWAP1 DUP2 SWAP1 SUB PUSH1 0x64 ADD SWAP1 REVERT JUMPDEST PUSH1 0x13 DUP1 SLOAD PUSH32 0xFFFFFFFFFFFFFFFFFFFFFFFF0000000000000000000000000000000000000000 AND PUSH1 0x1 PUSH1 0x1 PUSH1 0xA0 SHL SUB SWAP3 SWAP1 SWAP3 AND SWAP2 SWAP1 SWAP2 OR SWAP1 SSTORE JUMP JUMPDEST PUSH1 0x0 SLOAD PUSH1 0x1 PUSH1 0x1 PUSH1 0xA0 SHL SUB AND CALLER EQ PUSH2 0x17B6 JUMPI PUSH1 0x40 DUP1 MLOAD PUSH3 0x461BCD PUSH1 0xE5 SHL DUP2 MSTORE PUSH1 0x20 PUSH1 0x4 DUP3 ADD MSTORE PUSH1 0xA PUSH1 0x24 DUP3 ADD MSTORE PUSH32 0x6F6E6C79204F776E657200000000000000000000000000000000000000000000 PUSH1 0x44 DUP3 ADD MSTORE SWAP1 MLOAD SWAP1 DUP2 SWAP1 SUB PUSH1 0x64 ADD SWAP1 REVERT JUMPDEST DUP2 DUP4 GT ISZERO DUP1 ISZERO PUSH2 0x17C6 JUMPI POP DUP1 DUP3 GT ISZERO JUMPDEST PUSH2 0x17CF JUMPI PUSH1 0x0 DUP1 REVERT JUMPDEST PUSH1 0x5 DUP4 SWAP1 SSTORE PUSH1 0x8 SLOAD DUP4 LT ISZERO PUSH2 0x17E5 JUMPI PUSH1 0x5 SLOAD PUSH1 0x8 SSTORE JUMPDEST PUSH1 0x6 DUP3 SWAP1 SSTORE PUSH1 0x9 SLOAD DUP3 LT ISZERO PUSH2 0x17FB JUMPI PUSH1 0x6 SLOAD PUSH1 0x9 SSTORE JUMPDEST PUSH1 0x7 DUP2 SWAP1 SSTORE PUSH1 0xA SLOAD DUP2 LT ISZERO PUSH2 0x1811 JUMPI PUSH1 0x7 SLOAD PUSH1 0xA SSTORE JUMPDEST PUSH1 0x40 DUP1 MLOAD DUP5 DUP2 MSTORE PUSH1 0x20 DUP2 ADD DUP5 SWAP1 MSTORE DUP1 DUP3 ADD DUP4 SWAP1 MSTORE SWAP1 MLOAD PUSH32 0xA88EC94782BAC5C3E5F7D8E8F27B39F3F9D53DA3FC2824DB137086185CF2117D SWAP2 DUP2 SWAP1 SUB PUSH1 0x60 ADD SWAP1 LOG1 POP POP POP JUMP JUMPDEST PUSH1 0x1 SLOAD PUSH1 0x1 PUSH1 0x1 PUSH1 0xA0 SHL SUB AND CALLER EQ PUSH2 0x186D JUMPI PUSH1 0x0 DUP1 REVERT JUMPDEST PUSH1 0x1 SLOAD PUSH1 0x0 DUP1 SLOAD PUSH1 0x40 MLOAD PUSH1 0x1 PUSH1 0x1 PUSH1 0xA0 SHL SUB SWAP4 DUP5 AND SWAP4 SWAP1 SWAP2 AND SWAP2 PUSH32 0x8BE0079C531659141344CD1FD0A4F28419497F9722A3DAAFE3B4186F6B6457E0 SWAP2 LOG3 PUSH1 0x1 DUP1 SLOAD PUSH1 0x0 DUP1 SLOAD PUSH32 0xFFFFFFFFFFFFFFFFFFFFFFFF0000000000000000000000000000000000000000 SWAP1 DUP2 AND PUSH1 0x1 PUSH1 0x1 PUSH1 0xA0 SHL SUB DUP5 AND OR SWAP1 SWAP2 SSTORE AND SWAP1 SSTORE JUMP JUMPDEST PUSH1 0x0 SLOAD PUSH1 0x1 PUSH1 0x1 PUSH1 0xA0 SHL SUB AND CALLER EQ PUSH2 0x1948 JUMPI PUSH1 0x40 DUP1 MLOAD PUSH3 0x461BCD PUSH1 0xE5 SHL DUP2 MSTORE PUSH1 0x20 PUSH1 0x4 DUP3 ADD MSTORE PUSH1 0xA PUSH1 0x24 DUP3 ADD MSTORE PUSH32 0x6F6E6C79204F776E657200000000000000000000000000000000000000000000 PUSH1 0x44 DUP3 ADD MSTORE SWAP1 MLOAD SWAP1 DUP2 SWAP1 SUB PUSH1 0x64 ADD SWAP1 REVERT JUMPDEST PUSH1 0x11 SLOAD PUSH1 0x40 DUP1 MLOAD PUSH32 0x3659CFE600000000000000000000000000000000000000000000000000000000 DUP2 MSTORE PUSH1 0x1 PUSH1 0x1 PUSH1 0xA0 SHL SUB DUP5 DUP2 AND PUSH1 0x4 DUP4 ADD MSTORE SWAP2 MLOAD SWAP2 SWAP1 SWAP3 AND SWAP2 PUSH4 0x3659CFE6 SWAP2 PUSH1 0x24 DUP1 DUP4 ADD SWAP3 PUSH1 0x0 SWAP3 SWAP2 SWAP1 DUP3 SWAP1 SUB ADD DUP2 DUP4 DUP8 DUP1 EXTCODESIZE ISZERO DUP1 ISZERO PUSH2 0x1192 JUMPI PUSH1 0x0 DUP1 REVERT JUMPDEST PUSH1 0x0 SLOAD PUSH1 0x1 PUSH1 0x1 PUSH1 0xA0 SHL SUB AND CALLER EQ PUSH2 0x1A0E JUMPI PUSH1 0x40 DUP1 MLOAD PUSH3 0x461BCD PUSH1 0xE5 SHL DUP2 MSTORE PUSH1 0x20 PUSH1 0x4 DUP3 ADD MSTORE PUSH1 0xA PUSH1 0x24 DUP3 ADD MSTORE PUSH32 0x6F6E6C79204F776E657200000000000000000000000000000000000000000000 PUSH1 0x44 DUP3 ADD MSTORE SWAP1 MLOAD SWAP1 DUP2 SWAP1 SUB PUSH1 0x64 ADD SWAP1 REVERT JUMPDEST PUSH1 0x11 SLOAD PUSH1 0x40 DUP1 MLOAD PUSH32 0x5200605000000000000000000000000000000000000000000000000000000000 DUP2 MSTORE PUSH1 0x4 DUP2 ADD DUP6 SWAP1 MSTORE PUSH1 0x24 DUP2 ADD DUP5 SWAP1 MSTORE SWAP1 MLOAD PUSH1 0x1 PUSH1 0x1 PUSH1 0xA0 SHL SUB SWAP1 SWAP3 AND SWAP2 PUSH4 0x52006050 SWAP2 PUSH1 0x44 DUP1 DUP3 ADD SWAP3 PUSH1 0x0 SWAP3 SWAP1 SWAP2 SWAP1 DUP3 SWAP1 SUB ADD DUP2 DUP4 DUP8 DUP1 EXTCODESIZE ISZERO DUP1 ISZERO PUSH2 0xB34 JUMPI PUSH1 0x0 DUP1 REVERT JUMPDEST PUSH1 0x0 SLOAD PUSH1 0x1 PUSH1 0x1 PUSH1 0xA0 SHL SUB AND CALLER EQ PUSH2 0x1ADA JUMPI PUSH1 0x40 DUP1 MLOAD PUSH3 0x461BCD PUSH1 0xE5 SHL DUP2 MSTORE PUSH1 0x20 PUSH1 0x4 DUP3 ADD MSTORE PUSH1 0xA PUSH1 0x24 DUP3 ADD MSTORE PUSH32 0x6F6E6C79204F776E657200000000000000000000000000000000000000000000 PUSH1 0x44 DUP3 ADD MSTORE SWAP1 MLOAD SWAP1 DUP2 SWAP1 SUB PUSH1 0x64 ADD SWAP1 REVERT JUMPDEST NUMBER PUSH1 0xE SSTORE JUMP JUMPDEST PUSH1 0xF SLOAD PUSH1 0x1 PUSH1 0x1 PUSH1 0xA0 SHL SUB AND DUP2 JUMP JUMPDEST PUSH1 0x12 SLOAD PUSH1 0x40 DUP1 MLOAD PUSH32 0x7338C25C00000000000000000000000000000000000000000000000000000000 DUP2 MSTORE CALLER PUSH1 0x4 DUP3 ADD MSTORE PUSH32 0x6973545553444D696E7450617573657273000000000000000000000000000000 PUSH1 0x24 DUP3 ADD MSTORE SWAP1 MLOAD PUSH1 0x1 PUSH1 0x1 PUSH1 0xA0 SHL SUB SWAP1 SWAP3 AND SWAP2 PUSH4 0x7338C25C SWAP2 PUSH1 0x44 DUP1 DUP3 ADD SWAP3 PUSH1 0x20 SWAP3 SWAP1 SWAP2 SWAP1 DUP3 SWAP1 SUB ADD DUP2 DUP7 DUP1 EXTCODESIZE ISZERO DUP1 ISZERO PUSH2 0x1B79 JUMPI PUSH1 0x0 DUP1 REVERT JUMPDEST POP GAS STATICCALL ISZERO DUP1 ISZERO PUSH2 0x1B8D JUMPI RETURNDATASIZE PUSH1 0x0 DUP1 RETURNDATACOPY RETURNDATASIZE PUSH1 0x0 REVERT JUMPDEST POP POP POP POP PUSH1 0x40 MLOAD RETURNDATASIZE PUSH1 0x20 DUP2 LT ISZERO PUSH2 0x1BA3 JUMPI PUSH1 0x0 DUP1 REVERT JUMPDEST POP MLOAD DUP1 PUSH2 0x1BBA JUMPI POP PUSH1 0x0 SLOAD PUSH1 0x1 PUSH1 0x1 PUSH1 0xA0 SHL SUB AND CALLER EQ JUMPDEST PUSH2 0x1C0B JUMPI PUSH1 0x40 DUP1 MLOAD PUSH3 0x461BCD PUSH1 0xE5 SHL DUP2 MSTORE PUSH1 0x20 PUSH1 0x4 DUP3 ADD MSTORE PUSH1 0x17 PUSH1 0x24 DUP3 ADD MSTORE PUSH32 0x6D75737420626520706175736572206F72206F776E6572000000000000000000 PUSH1 0x44 DUP3 ADD MSTORE SWAP1 MLOAD SWAP1 DUP2 SWAP1 SUB PUSH1 0x64 ADD SWAP1 REVERT JUMPDEST PUSH1 0x1 PUSH1 0x10 DUP3 DUP2 SLOAD DUP2 LT PUSH2 0x1C1A JUMPI INVALID JUMPDEST PUSH1 0x0 SWAP2 DUP3 MSTORE PUSH1 0x20 SWAP2 DUP3 SWAP1 KECCAK256 PUSH1 0x6 SWAP2 SWAP1 SWAP2 MUL ADD PUSH1 0x4 ADD DUP1 SLOAD PUSH32 0xFFFFFFFFFFFFFFFFFFFFFFFFFFFFFFFFFFFFFFFFFFFFFFFFFFFFFFFFFFFFFF00 AND SWAP3 ISZERO ISZERO SWAP3 SWAP1 SWAP3 OR SWAP1 SWAP2 SSTORE PUSH1 0x40 DUP1 MLOAD DUP4 DUP2 MSTORE PUSH1 0x1 SWAP3 DUP2 ADD SWAP3 SWAP1 SWAP3 MSTORE DUP1 MLOAD PUSH32 0xBE7295EF37CA984EC35808D259AA03F272C2D747C6CE6A47B6E90862AFCCC576 SWAP3 DUP2 SWAP1 SUB SWAP1 SWAP2 ADD SWAP1 LOG1 POP JUMP JUMPDEST PUSH1 0x0 SLOAD PUSH1 0x1 PUSH1 0x1 PUSH1 0xA0 SHL SUB AND CALLER EQ PUSH2 0x1CFB JUMPI PUSH1 0x40 DUP1 MLOAD PUSH3 0x461BCD PUSH1 0xE5 SHL DUP2 MSTORE PUSH1 0x20 PUSH1 0x4 DUP3 ADD MSTORE PUSH1 0xA PUSH1 0x24 DUP3 ADD MSTORE PUSH32 0x6F6E6C79204F776E657200000000000000000000000000000000000000000000 PUSH1 0x44 DUP3 ADD MSTORE SWAP1 MLOAD SWAP1 DUP2 SWAP1 SUB PUSH1 0x64 ADD SWAP1 REVERT JUMPDEST DUP2 DUP4 GT ISZERO DUP1 ISZERO PUSH2 0x1D0B JUMPI POP DUP1 DUP3 GT ISZERO JUMPDEST PUSH2 0x1D14 JUMPI PUSH1 0x0 DUP1 REVERT JUMPDEST PUSH1 0x2 DUP4 SWAP1 SSTORE PUSH1 0x3 DUP3 SWAP1 SSTORE PUSH1 0x4 DUP2 SWAP1 SSTORE PUSH1 0x40 DUP1 MLOAD DUP5 DUP2 MSTORE PUSH1 0x20 DUP2 ADD DUP5 SWAP1 MSTORE DUP1 DUP3 ADD DUP4 SWAP1 MSTORE SWAP1 MLOAD PUSH32 0xBA6A9F8D54021AF0FAB65E388AD81CC3DFB17207BED50A5E9A30F7ADABB534D1 SWAP2 DUP2 SWAP1 SUB PUSH1 0x60 ADD SWAP1 LOG1 POP POP POP JUMP JUMPDEST PUSH1 0x13 SLOAD PUSH1 0x1 PUSH1 0x1 PUSH1 0xA0 SHL SUB AND DUP2 JUMP JUMPDEST PUSH1 0x0 SLOAD PUSH1 0x1 PUSH1 0x1 PUSH1 0xA0 SHL SUB AND CALLER EQ PUSH2 0x1DE1 JUMPI PUSH1 0xD SLOAD PUSH1 0xFF AND ISZERO PUSH2 0x1DE1 JUMPI PUSH1 0x40 DUP1 MLOAD PUSH3 0x461BCD PUSH1 0xE5 SHL DUP2 MSTORE PUSH1 0x20 PUSH1 0x4 DUP3 ADD MSTORE PUSH1 0x11 PUSH1 0x24 DUP3 ADD MSTORE PUSH32 0x6D696E74696E6720697320706175736564000000000000000000000000000000 PUSH1 0x44 DUP3 ADD MSTORE SWAP1 MLOAD SWAP1 DUP2 SWAP1 SUB PUSH1 0x64 ADD SWAP1 REVERT JUMPDEST PUSH1 0xF SLOAD PUSH1 0x1 PUSH1 0x1 PUSH1 0xA0 SHL SUB AND CALLER EQ DUP1 PUSH2 0x1E04 JUMPI POP PUSH1 0x0 SLOAD PUSH1 0x1 PUSH1 0x1 PUSH1 0xA0 SHL SUB AND CALLER EQ JUMPDEST PUSH2 0x1E55 JUMPI PUSH1 0x40 DUP1 MLOAD PUSH3 0x461BCD PUSH1 0xE5 SHL DUP2 MSTORE PUSH1 0x20 PUSH1 0x4 DUP3 ADD MSTORE PUSH1 0x18 PUSH1 0x24 DUP3 ADD MSTORE PUSH32 0x6D757374206265206D696E744B6579206F72206F776E65720000000000000000 PUSH1 0x44 DUP3 ADD MSTORE SWAP1 MLOAD SWAP1 DUP2 SWAP1 SUB PUSH1 0x64 ADD SWAP1 REVERT JUMPDEST PUSH1 0x2 SLOAD DUP2 GT ISZERO PUSH2 0x1EAC JUMPI PUSH1 0x40 DUP1 MLOAD PUSH3 0x461BCD PUSH1 0xE5 SHL DUP2 MSTORE PUSH1 0x20 PUSH1 0x4 DUP3 ADD MSTORE PUSH1 0x1F PUSH1 0x24 DUP3 ADD MSTORE PUSH32 0x6F7665722074686520696E7374616E74206D696E74207468726573686F6C6400 PUSH1 0x44 DUP3 ADD MSTORE SWAP1 MLOAD SWAP1 DUP2 SWAP1 SUB PUSH1 0x64 ADD SWAP1 REVERT JUMPDEST PUSH1 0x8 SLOAD DUP2 GT ISZERO PUSH2 0x1F03 JUMPI PUSH1 0x40 DUP1 MLOAD PUSH3 0x461BCD PUSH1 0xE5 SHL DUP2 MSTORE PUSH1 0x20 PUSH1 0x4 DUP3 ADD MSTORE PUSH1 0x18 PUSH1 0x24 DUP3 ADD MSTORE PUSH32 0x696E7374616E74206D696E7420706F6F6C206973206472790000000000000000 PUSH1 0x44 DUP3 ADD MSTORE SWAP1 MLOAD SWAP1 DUP2 SWAP1 SUB PUSH1 0x64 ADD SWAP1 REVERT JUMPDEST PUSH1 0x8 SLOAD PUSH2 0x1F16 SWAP1 DUP3 PUSH4 0xFFFFFFFF PUSH2 0x3D6C AND JUMP JUMPDEST PUSH1 0x8 SSTORE PUSH1 0x40 MLOAD CALLER SWAP1 DUP3 SWAP1 PUSH1 0x1 PUSH1 0x1 PUSH1 0xA0 SHL SUB DUP6 AND SWAP1 PUSH32 0xEC755A4FEB8086D62E216CA919461349221DF54BF9CA83300B7A2BF8E5807DFC SWAP1 PUSH1 0x0 SWAP1 LOG4 PUSH1 0x11 SLOAD PUSH1 0x40 DUP1 MLOAD PUSH32 0x40C10F1900000000000000000000000000000000000000000000000000000000 DUP2 MSTORE PUSH1 0x1 PUSH1 0x1 PUSH1 0xA0 SHL SUB DUP6 DUP2 AND PUSH1 0x4 DUP4 ADD MSTORE PUSH1 0x24 DUP3 ADD DUP6 SWAP1 MSTORE SWAP2 MLOAD SWAP2 SWAP1 SWAP3 AND SWAP2 PUSH4 0x40C10F19 SWAP2 PUSH1 0x44 DUP1 DUP4 ADD SWAP3 PUSH1 0x0 SWAP3 SWAP2 SWAP1 DUP3 SWAP1 SUB ADD DUP2 DUP4 DUP8 DUP1 EXTCODESIZE ISZERO DUP1 ISZERO PUSH2 0xB34 JUMPI PUSH1 0x0 DUP1 REVERT JUMPDEST PUSH1 0x2 SLOAD DUP2 JUMP JUMPDEST PUSH1 0x0 SLOAD PUSH1 0x1 PUSH1 0x1 PUSH1 0xA0 SHL SUB AND CALLER EQ PUSH2 0x2024 JUMPI PUSH1 0x40 DUP1 MLOAD PUSH3 0x461BCD PUSH1 0xE5 SHL DUP2 MSTORE PUSH1 0x20 PUSH1 0x4 DUP3 ADD MSTORE PUSH1 0xA PUSH1 0x24 DUP3 ADD MSTORE PUSH32 0x6F6E6C79204F776E657200000000000000000000000000000000000000000000 PUSH1 0x44 DUP3 ADD MSTORE SWAP1 MLOAD SWAP1 DUP2 SWAP1 SUB PUSH1 0x64 ADD SWAP1 REVERT JUMPDEST PUSH1 0x11 SLOAD PUSH1 0x0 DUP1 SLOAD PUSH1 0x40 DUP1 MLOAD PUSH32 0x88EE39CC00000000000000000000000000000000000000000000000000000000 DUP2 MSTORE PUSH1 0x1 PUSH1 0x1 PUSH1 0xA0 SHL SUB DUP7 DUP2 AND PUSH1 0x4 DUP4 ADD MSTORE SWAP3 DUP4 AND PUSH1 0x24 DUP3 ADD MSTORE SWAP1 MLOAD SWAP2 SWAP1 SWAP4 AND SWAP3 PUSH4 0x88EE39CC SWAP3 PUSH1 0x44 DUP1 DUP4 ADD SWAP4 SWAP2 SWAP3 DUP3 SWAP1 SUB ADD DUP2 DUP4 DUP8 DUP1 EXTCODESIZE ISZERO DUP1 ISZERO PUSH2 0x1192 JUMPI PUSH1 0x0 DUP1 REVERT JUMPDEST PUSH1 0x12 SLOAD PUSH1 0x1 PUSH1 0x1 PUSH1 0xA0 SHL SUB AND DUP2 JUMP JUMPDEST PUSH1 0xD SLOAD PUSH1 0xFF AND DUP2 JUMP JUMPDEST PUSH1 0xF SLOAD PUSH1 0x1 PUSH1 0x1 PUSH1 0xA0 SHL SUB AND CALLER EQ DUP1 PUSH2 0x20CF JUMPI POP PUSH1 0x0 SLOAD PUSH1 0x1 PUSH1 0x1 PUSH1 0xA0 SHL SUB AND CALLER EQ JUMPDEST PUSH2 0x2120 JUMPI PUSH1 0x40 DUP1 MLOAD PUSH3 0x461BCD PUSH1 0xE5 SHL DUP2 MSTORE PUSH1 0x20 PUSH1 0x4 DUP3 ADD MSTORE PUSH1 0x18 PUSH1 0x24 DUP3 ADD MSTORE PUSH32 0x6D757374206265206D696E744B6579206F72206F776E65720000000000000000 PUSH1 0x44 DUP3 ADD MSTORE SWAP1 MLOAD SWAP1 DUP2 SWAP1 SUB PUSH1 0x64 ADD SWAP1 REVERT JUMPDEST PUSH1 0x10 DUP2 DUP2 SLOAD DUP2 LT PUSH2 0x212D JUMPI INVALID JUMPDEST PUSH1 0x0 SWAP2 DUP3 MSTORE PUSH1 0x20 DUP1 DUP4 KECCAK256 PUSH1 0x6 SWAP1 SWAP3 MUL SWAP1 SWAP2 ADD DUP1 SLOAD PUSH32 0xFFFFFFFFFFFFFFFFFFFFFFFF0000000000000000000000000000000000000000 AND DUP2 SSTORE PUSH1 0x1 DUP2 ADD DUP4 SWAP1 SSTORE PUSH1 0x2 DUP2 ADD DUP4 SWAP1 SSTORE PUSH1 0x3 DUP2 ADD SWAP3 SWAP1 SWAP3 SSTORE PUSH1 0x4 SWAP1 SWAP2 ADD DUP1 SLOAD PUSH32 0xFFFFFFFFFFFFFFFFFFFFFFFFFFFFFFFFFFFFFFFFFFFFFFFFFFFFFFFFFFFFFF00 AND SWAP1 SSTORE PUSH1 0x40 DUP1 MLOAD DUP4 DUP2 MSTORE SWAP1 MLOAD PUSH32 0xCCEC691F17B1A3D2B56AC2C39074C2930BA803FC46191A49259706621EAC3F8F SWAP3 SWAP2 DUP2 SWAP1 SUB SWAP1 SWAP2 ADD SWAP1 LOG1 POP JUMP JUMPDEST PUSH1 0x13 SLOAD PUSH1 0x1 PUSH1 0x1 PUSH1 0xA0 SHL SUB AND CALLER EQ DUP1 PUSH2 0x2200 JUMPI POP PUSH1 0x0 SLOAD PUSH1 0x1 PUSH1 0x1 PUSH1 0xA0 SHL SUB AND CALLER EQ JUMPDEST PUSH2 0x2251 JUMPI PUSH1 0x40 DUP1 MLOAD PUSH3 0x461BCD PUSH1 0xE5 SHL DUP2 MSTORE PUSH1 0x20 PUSH1 0x4 DUP3 ADD MSTORE PUSH1 0x1F PUSH1 0x24 DUP3 ADD MSTORE PUSH32 0x6D7573742062652072656769737472792061646D696E206F72206F776E657200 PUSH1 0x44 DUP3 ADD MSTORE SWAP1 MLOAD SWAP1 DUP2 SWAP1 SUB PUSH1 0x64 ADD SWAP1 REVERT JUMPDEST PUSH1 0x11 SLOAD PUSH1 0x40 DUP1 MLOAD PUSH32 0x8074965600000000000000000000000000000000000000000000000000000000 DUP2 MSTORE PUSH1 0x1 PUSH1 0x1 PUSH1 0xA0 SHL SUB DUP6 DUP2 AND PUSH1 0x4 DUP4 ADD MSTORE DUP5 ISZERO ISZERO PUSH1 0x24 DUP4 ADD MSTORE SWAP2 MLOAD SWAP2 SWAP1 SWAP3 AND SWAP2 PUSH4 0x80749656 SWAP2 PUSH1 0x44 DUP1 DUP4 ADD SWAP3 PUSH1 0x0 SWAP3 SWAP2 SWAP1 DUP3 SWAP1 SUB ADD DUP2 DUP4 DUP8 DUP1 EXTCODESIZE ISZERO DUP1 ISZERO PUSH2 0x22C0 JUMPI PUSH1 0x0 DUP1 REVERT JUMPDEST POP GAS CALL ISZERO DUP1 ISZERO PUSH2 0x22D4 JUMPI RETURNDATASIZE PUSH1 0x0 DUP1 RETURNDATACOPY RETURNDATASIZE PUSH1 0x0 REVERT JUMPDEST POP POP PUSH1 0x40 DUP1 MLOAD PUSH1 0x1 PUSH1 0x1 PUSH1 0xA0 SHL SUB DUP7 AND DUP2 MSTORE DUP5 ISZERO ISZERO PUSH1 0x20 DUP3 ADD MSTORE DUP2 MLOAD PUSH32 0xF038153E9BF050A90FA20EAC4C02E084876A20E74C6A5139601F5B68937C54BC SWAP5 POP SWAP1 DUP2 SWAP1 SUB SWAP1 SWAP2 ADD SWAP2 POP LOG1 POP POP JUMP JUMPDEST PUSH1 0x1 SLOAD PUSH21 0x10000000000000000000000000000000000000000 SWAP1 DIV PUSH1 0xFF AND ISZERO PUSH2 0x2391 JUMPI PUSH1 0x40 DUP1 MLOAD PUSH3 0x461BCD PUSH1 0xE5 SHL DUP2 MSTORE PUSH1 0x20 PUSH1 0x4 DUP3 ADD MSTORE PUSH1 0x13 PUSH1 0x24 DUP3 ADD MSTORE PUSH32 0x616C726561647920696E697469616C697A656400000000000000000000000000 PUSH1 0x44 DUP3 ADD MSTORE SWAP1 MLOAD SWAP1 DUP2 SWAP1 SUB PUSH1 0x64 ADD SWAP1 REVERT JUMPDEST PUSH1 0x0 DUP1 SLOAD PUSH32 0xFFFFFFFFFFFFFFFFFFFFFFFF0000000000000000000000000000000000000000 AND CALLER OR SWAP1 SSTORE PUSH1 0x1 DUP1 SLOAD PUSH32 0xFFFFFFFFFFFFFFFFFFFFFF00FFFFFFFFFFFFFFFFFFFFFFFFFFFFFFFFFFFFFFFF AND PUSH21 0x10000000000000000000000000000000000000000 OR SWAP1 SSTORE JUMP JUMPDEST PUSH1 0x0 SLOAD PUSH1 0x1 PUSH1 0x1 PUSH1 0xA0 SHL SUB AND CALLER EQ PUSH2 0x245B JUMPI PUSH1 0x40 DUP1 MLOAD PUSH3 0x461BCD PUSH1 0xE5 SHL DUP2 MSTORE PUSH1 0x20 PUSH1 0x4 DUP3 ADD MSTORE PUSH1 0xA PUSH1 0x24 DUP3 ADD MSTORE PUSH32 0x6F6E6C79204F776E657200000000000000000000000000000000000000000000 PUSH1 0x44 DUP3 ADD MSTORE SWAP1 MLOAD SWAP1 DUP2 SWAP1 SUB PUSH1 0x64 ADD SWAP1 REVERT JUMPDEST PUSH1 0x14 DUP1 SLOAD PUSH32 0xFFFFFFFFFFFFFFFFFFFFFFFF0000000000000000000000000000000000000000 AND PUSH1 0x1 PUSH1 0x1 PUSH1 0xA0 SHL SUB SWAP3 SWAP1 SWAP3 AND SWAP2 SWAP1 SWAP2 OR SWAP1 SSTORE JUMP JUMPDEST PUSH1 0x8 SLOAD DUP2 JUMP JUMPDEST PUSH1 0x0 SLOAD PUSH1 0x1 PUSH1 0x1 PUSH1 0xA0 SHL SUB AND CALLER EQ PUSH2 0x24FA JUMPI PUSH1 0x40 DUP1 MLOAD PUSH3 0x461BCD PUSH1 0xE5 SHL DUP2 MSTORE PUSH1 0x20 PUSH1 0x4 DUP3 ADD MSTORE PUSH1 0xA PUSH1 0x24 DUP3 ADD MSTORE PUSH32 0x6F6E6C79204F776E657200000000000000000000000000000000000000000000 PUSH1 0x44 DUP3 ADD MSTORE SWAP1 MLOAD SWAP1 DUP2 SWAP1 SUB PUSH1 0x64 ADD SWAP1 REVERT JUMPDEST PUSH1 0x40 DUP1 MLOAD PUSH32 0x70A0823100000000000000000000000000000000000000000000000000000000 DUP2 MSTORE ADDRESS PUSH1 0x4 DUP3 ADD MSTORE SWAP1 MLOAD PUSH1 0x0 SWAP2 PUSH1 0x1 PUSH1 0x1 PUSH1 0xA0 SHL SUB DUP6 AND SWAP2 PUSH4 0x70A08231 SWAP2 PUSH1 0x24 DUP1 DUP3 ADD SWAP3 PUSH1 0x20 SWAP3 SWAP1 SWAP2 SWAP1 DUP3 SWAP1 SUB ADD DUP2 DUP7 DUP1 EXTCODESIZE ISZERO DUP1 ISZERO PUSH2 0x255D JUMPI PUSH1 0x0 DUP1 REVERT JUMPDEST POP GAS STATICCALL ISZERO DUP1 ISZERO PUSH2 0x2571 JUMPI RETURNDATASIZE PUSH1 0x0 DUP1 RETURNDATACOPY RETURNDATASIZE PUSH1 0x0 REVERT JUMPDEST POP POP POP POP PUSH1 0x40 MLOAD RETURNDATASIZE PUSH1 0x20 DUP2 LT ISZERO PUSH2 0x2587 JUMPI PUSH1 0x0 DUP1 REVERT JUMPDEST POP MLOAD PUSH1 0x40 DUP1 MLOAD PUSH32 0xA9059CBB00000000000000000000000000000000000000000000000000000000 DUP2 MSTORE PUSH1 0x1 PUSH1 0x1 PUSH1 0xA0 SHL SUB DUP6 DUP2 AND PUSH1 0x4 DUP4 ADD MSTORE PUSH1 0x24 DUP3 ADD DUP5 SWAP1 MSTORE SWAP2 MLOAD SWAP3 SWAP4 POP SWAP1 DUP6 AND SWAP2 PUSH4 0xA9059CBB SWAP2 PUSH1 0x44 DUP1 DUP3 ADD SWAP3 PUSH1 0x20 SWAP3 SWAP1 SWAP2 SWAP1 DUP3 SWAP1 SUB ADD DUP2 PUSH1 0x0 DUP8 DUP1 EXTCODESIZE ISZERO DUP1 ISZERO PUSH2 0x25F8 JUMPI PUSH1 0x0 DUP1 REVERT JUMPDEST POP GAS CALL ISZERO DUP1 ISZERO PUSH2 0x260C JUMPI RETURNDATASIZE PUSH1 0x0 DUP1 RETURNDATACOPY RETURNDATASIZE PUSH1 0x0 REVERT JUMPDEST POP POP POP POP PUSH1 0x40 MLOAD RETURNDATASIZE PUSH1 0x20 DUP2 LT ISZERO PUSH2 0x11A6 JUMPI PUSH1 0x0 DUP1 REVERT JUMPDEST PUSH1 0x12 SLOAD PUSH1 0x40 DUP1 MLOAD PUSH32 0x7338C25C00000000000000000000000000000000000000000000000000000000 DUP2 MSTORE CALLER PUSH1 0x4 DUP3 ADD MSTORE PUSH32 0x6973545553444D696E7452617469666965720000000000000000000000000000 PUSH1 0x24 DUP3 ADD MSTORE SWAP1 MLOAD PUSH1 0x1 PUSH1 0x1 PUSH1 0xA0 SHL SUB SWAP1 SWAP3 AND SWAP2 PUSH4 0x7338C25C SWAP2 PUSH1 0x44 DUP1 DUP3 ADD SWAP3 PUSH1 0x20 SWAP3 SWAP1 SWAP2 SWAP1 DUP3 SWAP1 SUB ADD DUP2 DUP7 DUP1 EXTCODESIZE ISZERO DUP1 ISZERO PUSH2 0x26AC JUMPI PUSH1 0x0 DUP1 REVERT JUMPDEST POP GAS STATICCALL ISZERO DUP1 ISZERO PUSH2 0x26C0 JUMPI RETURNDATASIZE PUSH1 0x0 DUP1 RETURNDATACOPY RETURNDATASIZE PUSH1 0x0 REVERT JUMPDEST POP POP POP POP PUSH1 0x40 MLOAD RETURNDATASIZE PUSH1 0x20 DUP2 LT ISZERO PUSH2 0x26D6 JUMPI PUSH1 0x0 DUP1 REVERT JUMPDEST POP MLOAD DUP1 PUSH2 0x26ED JUMPI POP PUSH1 0x0 SLOAD PUSH1 0x1 PUSH1 0x1 PUSH1 0xA0 SHL SUB AND CALLER EQ JUMPDEST PUSH2 0x273E JUMPI PUSH1 0x40 DUP1 MLOAD PUSH3 0x461BCD PUSH1 0xE5 SHL DUP2 MSTORE PUSH1 0x20 PUSH1 0x4 DUP3 ADD MSTORE PUSH1 0x19 PUSH1 0x24 DUP3 ADD MSTORE PUSH32 0x6D757374206265207261746966696572206F72206F776E657200000000000000 PUSH1 0x44 DUP3 ADD MSTORE SWAP1 MLOAD SWAP1 DUP2 SWAP1 SUB PUSH1 0x64 ADD SWAP1 REVERT JUMPDEST PUSH1 0x0 SLOAD PUSH1 0x1 PUSH1 0x1 PUSH1 0xA0 SHL SUB AND CALLER EQ PUSH2 0x284A JUMPI PUSH2 0x2758 PUSH2 0x3F74 JUMP JUMPDEST PUSH1 0x40 DUP1 MLOAD DUP1 DUP3 ADD SWAP2 DUP3 SWAP1 MSTORE SWAP1 PUSH1 0xB SWAP1 PUSH1 0x2 SWAP1 DUP3 DUP5 JUMPDEST DUP2 SLOAD PUSH1 0x1 PUSH1 0x1 PUSH1 0xA0 SHL SUB AND DUP2 MSTORE PUSH1 0x1 SWAP1 SWAP2 ADD SWAP1 PUSH1 0x20 ADD DUP1 DUP4 GT PUSH2 0x276D JUMPI POP POP POP POP POP SWAP1 POP DUP1 PUSH1 0x0 PUSH1 0x2 DUP2 LT PUSH2 0x279E JUMPI INVALID JUMPDEST PUSH1 0x20 MUL ADD MLOAD PUSH1 0x1 PUSH1 0x1 PUSH1 0xA0 SHL SUB AND CALLER PUSH1 0x1 PUSH1 0x1 PUSH1 0xA0 SHL SUB AND EQ ISZERO DUP1 ISZERO PUSH2 0x27D1 JUMPI POP PUSH1 0x20 DUP2 ADD MLOAD PUSH1 0x1 PUSH1 0x1 PUSH1 0xA0 SHL SUB AND CALLER EQ ISZERO JUMPDEST PUSH2 0x27DA JUMPI PUSH1 0x0 DUP1 REVERT JUMPDEST DUP1 MLOAD PUSH1 0x1 PUSH1 0x1 PUSH1 0xA0 SHL SUB AND PUSH2 0x282C JUMPI CALLER PUSH1 0xB PUSH1 0x0 JUMPDEST ADD DUP1 SLOAD PUSH32 0xFFFFFFFFFFFFFFFFFFFFFFFF0000000000000000000000000000000000000000 AND PUSH1 0x1 PUSH1 0x1 PUSH1 0xA0 SHL SUB SWAP3 SWAP1 SWAP3 AND SWAP2 SWAP1 SWAP2 OR SWAP1 SSTORE POP PUSH2 0x28B2 JUMP JUMPDEST PUSH1 0x20 DUP2 ADD MLOAD PUSH1 0x1 PUSH1 0x1 PUSH1 0xA0 SHL SUB AND PUSH2 0x2848 JUMPI CALLER PUSH1 0xB PUSH1 0x1 PUSH2 0x27EF JUMP JUMPDEST POP JUMPDEST PUSH2 0x2856 PUSH1 0xB PUSH1 0x0 PUSH2 0x3F92 JUMP JUMPDEST PUSH2 0x287F PUSH2 0x2870 PUSH1 0x9 SLOAD PUSH1 0x6 SLOAD PUSH2 0x3D6C SWAP1 SWAP2 SWAP1 PUSH4 0xFFFFFFFF AND JUMP JUMPDEST PUSH1 0xA SLOAD SWAP1 PUSH4 0xFFFFFFFF PUSH2 0x3D6C AND JUMP JUMPDEST PUSH1 0xA SSTORE PUSH1 0x6 SLOAD PUSH1 0x9 SSTORE PUSH1 0x40 MLOAD PUSH32 0x102A997AC4D17915071D5422BC77B9E807C57305CEFEF394DAF2468ABACB26C2 SWAP1 PUSH1 0x0 SWAP1 LOG1 JUMPDEST JUMP JUMPDEST PUSH1 0x0 SLOAD PUSH1 0x1 PUSH1 0x1 PUSH1 0xA0 SHL SUB AND DUP2 JUMP JUMPDEST PUSH1 0x0 SLOAD PUSH1 0x1 PUSH1 0x1 PUSH1 0xA0 SHL SUB AND CALLER EQ PUSH2 0x292D JUMPI PUSH1 0xD SLOAD PUSH1 0xFF AND ISZERO PUSH2 0x292D JUMPI PUSH1 0x40 DUP1 MLOAD PUSH3 0x461BCD PUSH1 0xE5 SHL DUP2 MSTORE PUSH1 0x20 PUSH1 0x4 DUP3 ADD MSTORE PUSH1 0x11 PUSH1 0x24 DUP3 ADD MSTORE PUSH32 0x6D696E74696E6720697320706175736564000000000000000000000000000000 PUSH1 0x44 DUP3 ADD MSTORE SWAP1 MLOAD SWAP1 DUP2 SWAP1 SUB PUSH1 0x64 ADD SWAP1 REVERT JUMPDEST PUSH2 0x2935 PUSH2 0x3F3A JUMP JUMPDEST PUSH1 0x10 DUP3 DUP2 SLOAD DUP2 LT PUSH2 0x2942 JUMPI INVALID JUMPDEST PUSH1 0x0 SWAP2 DUP3 MSTORE PUSH1 0x20 DUP1 DUP4 KECCAK256 PUSH1 0x40 DUP1 MLOAD PUSH1 0xA0 DUP2 ADD DUP3 MSTORE PUSH1 0x6 SWAP1 SWAP5 MUL SWAP1 SWAP2 ADD DUP1 SLOAD PUSH1 0x1 PUSH1 0x1 PUSH1 0xA0 SHL SUB SWAP1 DUP2 AND DUP1 DUP7 MSTORE PUSH1 0x1 DUP4 ADD SLOAD SWAP5 DUP7 ADD DUP6 SWAP1 MSTORE PUSH1 0x2 DUP4 ADD SLOAD SWAP4 DUP7 ADD SWAP4 SWAP1 SWAP4 MSTORE PUSH1 0x3 DUP3 ADD SLOAD PUSH1 0x60 DUP7 ADD MSTORE PUSH1 0x4 SWAP1 SWAP2 ADD SLOAD PUSH1 0xFF AND ISZERO ISZERO PUSH1 0x80 DUP6 ADD MSTORE SWAP4 SLOAD SWAP3 SWAP5 POP SWAP3 SWAP1 SWAP2 CALLER SWAP2 AND EQ PUSH2 0x29CA JUMPI PUSH2 0x29B8 DUP5 PUSH2 0x3886 JUMP JUMPDEST PUSH2 0x29C1 JUMPI PUSH1 0x0 DUP1 REVERT JUMPDEST PUSH2 0x29CA DUP2 PUSH2 0x3DAE JUMP JUMPDEST PUSH1 0x10 DUP5 DUP2 SLOAD DUP2 LT PUSH2 0x29D7 JUMPI INVALID JUMPDEST PUSH1 0x0 SWAP2 DUP3 MSTORE PUSH1 0x20 DUP3 KECCAK256 PUSH1 0x6 SWAP1 SWAP2 MUL ADD DUP1 SLOAD PUSH32 0xFFFFFFFFFFFFFFFFFFFFFFFF0000000000000000000000000000000000000000 AND DUP2 SSTORE PUSH1 0x1 DUP2 ADD DUP3 SWAP1 SSTORE PUSH1 0x2 DUP2 ADD DUP3 SWAP1 SSTORE PUSH1 0x3 DUP2 ADD DUP3 SWAP1 SSTORE PUSH1 0x4 SWAP1 DUP2 ADD DUP1 SLOAD PUSH32 0xFFFFFFFFFFFFFFFFFFFFFFFFFFFFFFFFFFFFFFFFFFFFFFFFFFFFFFFFFFFFFF00 AND SWAP1 SSTORE PUSH1 0x11 SLOAD PUSH1 0x40 DUP1 MLOAD PUSH32 0x40C10F1900000000000000000000000000000000000000000000000000000000 DUP2 MSTORE PUSH1 0x1 PUSH1 0x1 PUSH1 0xA0 SHL SUB DUP8 DUP2 AND SWAP5 DUP3 ADD SWAP5 SWAP1 SWAP5 MSTORE PUSH1 0x24 DUP2 ADD DUP7 SWAP1 MSTORE SWAP1 MLOAD SWAP2 SWAP1 SWAP3 AND SWAP3 PUSH4 0x40C10F19 SWAP3 PUSH1 0x44 DUP1 DUP3 ADD SWAP4 SWAP2 DUP3 SWAP1 SUB ADD DUP2 DUP4 DUP8 DUP1 EXTCODESIZE ISZERO DUP1 ISZERO PUSH2 0x2AB8 JUMPI PUSH1 0x0 DUP1 REVERT JUMPDEST POP GAS CALL ISZERO DUP1 ISZERO PUSH2 0x2ACC JUMPI RETURNDATASIZE PUSH1 0x0 DUP1 RETURNDATACOPY RETURNDATASIZE PUSH1 0x0 REVERT JUMPDEST POP POP PUSH1 0x40 DUP1 MLOAD DUP8 DUP2 MSTORE CALLER PUSH1 0x20 DUP3 ADD MSTORE DUP2 MLOAD DUP6 SWAP5 POP PUSH1 0x1 PUSH1 0x1 PUSH1 0xA0 SHL SUB DUP8 AND SWAP4 POP PUSH32 0x9A0DCEE498442C144388E9D1DD09ACDF74FFC3BCE9CB52841186C1D8AC032154 SWAP3 SWAP2 DUP2 SWAP1 SUB SWAP1 SWAP2 ADD SWAP1 LOG3 POP POP POP POP JUMP JUMPDEST PUSH1 0x0 SLOAD PUSH1 0x1 PUSH1 0x1 PUSH1 0xA0 SHL SUB AND CALLER EQ PUSH2 0x2B7C JUMPI PUSH1 0x40 DUP1 MLOAD PUSH3 0x461BCD PUSH1 0xE5 SHL DUP2 MSTORE PUSH1 0x20 PUSH1 0x4 DUP3 ADD MSTORE PUSH1 0xA PUSH1 0x24 DUP3 ADD MSTORE PUSH32 0x6F6E6C79204F776E657200000000000000000000000000000000000000000000 PUSH1 0x44 DUP3 ADD MSTORE SWAP1 MLOAD SWAP1 DUP2 SWAP1 SUB PUSH1 0x64 ADD SWAP1 REVERT JUMPDEST PUSH1 0x40 MLOAD PUSH1 0x1 PUSH1 0x1 PUSH1 0xA0 SHL SUB DUP3 AND SWAP1 SELFBALANCE DUP1 ISZERO PUSH2 0x8FC MUL SWAP2 PUSH1 0x0 DUP2 DUP2 DUP2 DUP6 DUP9 DUP9 CALL SWAP4 POP POP POP POP ISZERO DUP1 ISZERO PUSH2 0x2BB1 JUMPI RETURNDATASIZE PUSH1 0x0 DUP1 RETURNDATACOPY RETURNDATASIZE PUSH1 0x0 REVERT JUMPDEST POP POP JUMP JUMPDEST PUSH1 0xB DUP2 PUSH1 0x2 DUP2 LT PUSH2 0x2BC2 JUMPI INVALID JUMPDEST ADD SLOAD PUSH1 0x1 PUSH1 0x1 PUSH1 0xA0 SHL SUB AND SWAP1 POP DUP2 JUMP JUMPDEST PUSH1 0x0 SLOAD PUSH1 0x1 PUSH1 0x1 PUSH1 0xA0 SHL SUB AND CALLER EQ PUSH2 0x2C31 JUMPI PUSH1 0x40 DUP1 MLOAD PUSH3 0x461BCD PUSH1 0xE5 SHL DUP2 MSTORE PUSH1 0x20 PUSH1 0x4 DUP3 ADD MSTORE PUSH1 0xA PUSH1 0x24 DUP3 ADD MSTORE PUSH32 0x6F6E6C79204F776E657200000000000000000000000000000000000000000000 PUSH1 0x44 DUP3 ADD MSTORE SWAP1 MLOAD SWAP1 DUP2 SWAP1 SUB PUSH1 0x64 ADD SWAP1 REVERT JUMPDEST PUSH1 0x7 SLOAD PUSH1 0xA SSTORE PUSH1 0x40 MLOAD PUSH32 0xF887EFB579B3283F395871614F44A2FD3021DDF59E72A91195F5DA936EBAA06D SWAP1 PUSH1 0x0 SWAP1 LOG1 JUMP JUMPDEST PUSH1 0x14 SLOAD PUSH1 0x1 PUSH1 0x1 PUSH1 0xA0 SHL SUB AND CALLER EQ DUP1 PUSH2 0x2C85 JUMPI POP PUSH1 0x0 SLOAD PUSH1 0x1 PUSH1 0x1 PUSH1 0xA0 SHL SUB AND CALLER EQ JUMPDEST PUSH2 0x2CD6 JUMPI PUSH1 0x40 DUP1 MLOAD PUSH3 0x461BCD PUSH1 0xE5 SHL DUP2 MSTORE PUSH1 0x20 PUSH1 0x4 DUP3 ADD MSTORE PUSH1 0x1D PUSH1 0x24 DUP3 ADD MSTORE PUSH32 0x6D7573742062652067617320726566756E646572206F72206F776E6572000000 PUSH1 0x44 DUP3 ADD MSTORE SWAP1 MLOAD SWAP1 DUP2 SWAP1 SUB PUSH1 0x64 ADD SWAP1 REVERT JUMPDEST PUSH1 0x0 GAS SWAP1 POP DUP2 PUSH1 0x1 PUSH1 0x1 PUSH1 0xA0 SHL SUB AND PUSH4 0x7F5A7C7B PUSH1 0x40 MLOAD DUP2 PUSH4 0xFFFFFFFF AND PUSH1 0xE0 SHL DUP2 MSTORE PUSH1 0x4 ADD PUSH1 0x0 PUSH1 0x40 MLOAD DUP1 DUP4 SUB DUP2 PUSH1 0x0 DUP8 DUP1 EXTCODESIZE ISZERO DUP1 ISZERO PUSH2 0x2D16 JUMPI PUSH1 0x0 DUP1 REVERT JUMPDEST POP GAS CALL ISZERO DUP1 ISZERO PUSH2 0x2D2A JUMPI RETURNDATASIZE PUSH1 0x0 DUP1 RETURNDATACOPY RETURNDATASIZE PUSH1 0x0 REVERT JUMPDEST POP POP POP POP PUSH1 0x0 PUSH2 0x2D41 GAS DUP4 SWAP1 PUSH4 0xFFFFFFFF PUSH2 0x3D6C AND JUMP JUMPDEST PUSH1 0x11 SLOAD SWAP1 SWAP2 POP PUSH1 0x1 PUSH1 0x1 PUSH1 0xA0 SHL SUB AND PUSH4 0x17C931BD PUSH2 0x2D67 DUP4 PUSH2 0x61A8 PUSH4 0xFFFFFFFF PUSH2 0x3DFC AND JUMP JUMPDEST PUSH1 0x40 MLOAD DUP3 PUSH4 0xFFFFFFFF AND PUSH1 0xE0 SHL DUP2 MSTORE PUSH1 0x4 ADD DUP1 DUP3 DUP2 MSTORE PUSH1 0x20 ADD SWAP2 POP POP PUSH1 0x0 PUSH1 0x40 MLOAD DUP1 DUP4 SUB DUP2 PUSH1 0x0 DUP8 DUP1 EXTCODESIZE ISZERO DUP1 ISZERO PUSH2 0x2D9D JUMPI PUSH1 0x0 DUP1 REVERT JUMPDEST POP GAS CALL ISZERO DUP1 ISZERO PUSH2 0x2DB1 JUMPI RETURNDATASIZE PUSH1 0x0 DUP1 RETURNDATACOPY RETURNDATASIZE PUSH1 0x0 REVERT JUMPDEST POP POP POP POP POP POP POP JUMP JUMPDEST PUSH1 0x0 SLOAD PUSH1 0x1 PUSH1 0x1 PUSH1 0xA0 SHL SUB AND CALLER EQ PUSH2 0x2E19 JUMPI PUSH1 0x40 DUP1 MLOAD PUSH3 0x461BCD PUSH1 0xE5 SHL DUP2 MSTORE PUSH1 0x20 PUSH1 0x4 DUP3 ADD MSTORE PUSH1 0xA PUSH1 0x24 DUP3 ADD MSTORE PUSH32 0x6F6E6C79204F776E657200000000000000000000000000000000000000000000 PUSH1 0x44 DUP3 ADD MSTORE SWAP1 MLOAD SWAP1 DUP2 SWAP1 SUB PUSH1 0x64 ADD SWAP1 REVERT JUMPDEST PUSH1 0x12 DUP1 SLOAD PUSH32 0xFFFFFFFFFFFFFFFFFFFFFFFF0000000000000000000000000000000000000000 AND PUSH1 0x1 PUSH1 0x1 PUSH1 0xA0 SHL SUB DUP4 DUP2 AND SWAP2 SWAP1 SWAP2 OR SWAP2 DUP3 SWAP1 SSTORE PUSH1 0x40 MLOAD SWAP2 AND SWAP1 PUSH32 0x278C70CED5F3E0E5EEB385B5FF9CB735748BA00A625147E66065ED48FC1562CD SWAP1 PUSH1 0x0 SWAP1 LOG2 POP JUMP JUMPDEST PUSH1 0x12 SLOAD PUSH1 0x40 DUP1 MLOAD PUSH32 0x7338C25C00000000000000000000000000000000000000000000000000000000 DUP2 MSTORE CALLER PUSH1 0x4 DUP3 ADD MSTORE PUSH32 0x6973545553444D696E7450617573657273000000000000000000000000000000 PUSH1 0x24 DUP3 ADD MSTORE SWAP1 MLOAD PUSH1 0x1 PUSH1 0x1 PUSH1 0xA0 SHL SUB SWAP1 SWAP3 AND SWAP2 PUSH4 0x7338C25C SWAP2 PUSH1 0x44 DUP1 DUP3 ADD SWAP3 PUSH1 0x20 SWAP3 SWAP1 SWAP2 SWAP1 DUP3 SWAP1 SUB ADD DUP2 DUP7 DUP1 EXTCODESIZE ISZERO DUP1 ISZERO PUSH2 0x2F0B JUMPI PUSH1 0x0 DUP1 REVERT JUMPDEST POP GAS STATICCALL ISZERO DUP1 ISZERO PUSH2 0x2F1F JUMPI RETURNDATASIZE PUSH1 0x0 DUP1 RETURNDATACOPY RETURNDATASIZE PUSH1 0x0 REVERT JUMPDEST POP POP POP POP PUSH1 0x40 MLOAD RETURNDATASIZE PUSH1 0x20 DUP2 LT ISZERO PUSH2 0x2F35 JUMPI PUSH1 0x0 DUP1 REVERT JUMPDEST POP MLOAD DUP1 PUSH2 0x2F4C JUMPI POP PUSH1 0x0 SLOAD PUSH1 0x1 PUSH1 0x1 PUSH1 0xA0 SHL SUB AND CALLER EQ JUMPDEST PUSH2 0x2F9D JUMPI PUSH1 0x40 DUP1 MLOAD PUSH3 0x461BCD PUSH1 0xE5 SHL DUP2 MSTORE PUSH1 0x20 PUSH1 0x4 DUP3 ADD MSTORE PUSH1 0x17 PUSH1 0x24 DUP3 ADD MSTORE PUSH32 0x6D75737420626520706175736572206F72206F776E6572000000000000000000 PUSH1 0x44 DUP3 ADD MSTORE SWAP1 MLOAD SWAP1 DUP2 SWAP1 SUB PUSH1 0x64 ADD SWAP1 REVERT JUMPDEST PUSH1 0xD DUP1 SLOAD PUSH32 0xFFFFFFFFFFFFFFFFFFFFFFFFFFFFFFFFFFFFFFFFFFFFFFFFFFFFFFFFFFFFFF00 AND PUSH1 0x1 SWAP1 DUP2 OR SWAP1 SWAP2 SSTORE PUSH1 0x40 DUP1 MLOAD SWAP2 DUP3 MSTORE MLOAD PUSH32 0x6CB4A816BE468261438A85ABAE2D59DE6BC19B06D3A76E2F3ACFD656D85A2EE9 SWAP2 DUP2 SWAP1 SUB PUSH1 0x20 ADD SWAP1 LOG1 JUMP JUMPDEST PUSH1 0x0 SLOAD PUSH1 0x1 PUSH1 0x1 PUSH1 0xA0 SHL SUB AND CALLER EQ PUSH2 0x305E JUMPI PUSH1 0x40 DUP1 MLOAD PUSH3 0x461BCD PUSH1 0xE5 SHL DUP2 MSTORE PUSH1 0x20 PUSH1 0x4 DUP3 ADD MSTORE PUSH1 0xA PUSH1 0x24 DUP3 ADD MSTORE PUSH32 0x6F6E6C79204F776E657200000000000000000000000000000000000000000000 PUSH1 0x44 DUP3 ADD MSTORE SWAP1 MLOAD SWAP1 DUP2 SWAP1 SUB PUSH1 0x64 ADD SWAP1 REVERT JUMPDEST DUP2 PUSH1 0x1 PUSH1 0x1 PUSH1 0xA0 SHL SUB AND PUSH4 0xF2FDE38B DUP3 PUSH1 0x40 MLOAD DUP3 PUSH4 0xFFFFFFFF AND PUSH1 0xE0 SHL DUP2 MSTORE PUSH1 0x4 ADD DUP1 DUP3 PUSH1 0x1 PUSH1 0x1 PUSH1 0xA0 SHL SUB AND PUSH1 0x1 PUSH1 0x1 PUSH1 0xA0 SHL SUB AND DUP2 MSTORE PUSH1 0x20 ADD SWAP2 POP POP PUSH1 0x0 PUSH1 0x40 MLOAD DUP1 DUP4 SUB DUP2 PUSH1 0x0 DUP8 DUP1 EXTCODESIZE ISZERO DUP1 ISZERO PUSH2 0x30B6 JUMPI PUSH1 0x0 DUP1 REVERT JUMPDEST POP GAS CALL ISZERO DUP1 ISZERO PUSH2 0x30CA JUMPI RETURNDATASIZE PUSH1 0x0 DUP1 RETURNDATACOPY RETURNDATASIZE PUSH1 0x0 REVERT JUMPDEST POP POP PUSH1 0x40 MLOAD PUSH1 0x1 PUSH1 0x1 PUSH1 0xA0 SHL SUB DUP1 DUP6 AND SWAP4 POP DUP6 AND SWAP2 POP PUSH32 0x425A9EF6E4130595DE2345FA70AEBBDF0431120D720B65C46F16C69EC2BFBF69 SWAP1 PUSH1 0x0 SWAP1 LOG3 POP POP JUMP JUMPDEST PUSH1 0xA SLOAD DUP2 JUMP JUMPDEST PUSH1 0x12 SLOAD PUSH1 0x40 DUP1 MLOAD PUSH32 0x7338C25C00000000000000000000000000000000000000000000000000000000 DUP2 MSTORE CALLER PUSH1 0x4 DUP3 ADD MSTORE PUSH32 0x6973545553444D696E7452617469666965720000000000000000000000000000 PUSH1 0x24 DUP3 ADD MSTORE SWAP1 MLOAD PUSH1 0x1 PUSH1 0x1 PUSH1 0xA0 SHL SUB SWAP1 SWAP3 AND SWAP2 PUSH4 0x7338C25C SWAP2 PUSH1 0x44 DUP1 DUP3 ADD SWAP3 PUSH1 0x20 SWAP3 SWAP1 SWAP2 SWAP1 DUP3 SWAP1 SUB ADD DUP2 DUP7 DUP1 EXTCODESIZE ISZERO DUP1 ISZERO PUSH2 0x319A JUMPI PUSH1 0x0 DUP1 REVERT JUMPDEST POP GAS STATICCALL ISZERO DUP1 ISZERO PUSH2 0x31AE JUMPI RETURNDATASIZE PUSH1 0x0 DUP1 RETURNDATACOPY RETURNDATASIZE PUSH1 0x0 REVERT JUMPDEST POP POP POP POP PUSH1 0x40 MLOAD RETURNDATASIZE PUSH1 0x20 DUP2 LT ISZERO PUSH2 0x31C4 JUMPI PUSH1 0x0 DUP1 REVERT JUMPDEST POP MLOAD DUP1 PUSH2 0x31DB JUMPI POP PUSH1 0x0 SLOAD PUSH1 0x1 PUSH1 0x1 PUSH1 0xA0 SHL SUB AND CALLER EQ JUMPDEST PUSH2 0x322C JUMPI PUSH1 0x40 DUP1 MLOAD PUSH3 0x461BCD PUSH1 0xE5 SHL DUP2 MSTORE PUSH1 0x20 PUSH1 0x4 DUP3 ADD MSTORE PUSH1 0x19 PUSH1 0x24 DUP3 ADD MSTORE PUSH32 0x6D757374206265207261746966696572206F72206F776E657200000000000000 PUSH1 0x44 DUP3 ADD MSTORE SWAP1 MLOAD SWAP1 DUP2 SWAP1 SUB PUSH1 0x64 ADD SWAP1 REVERT JUMPDEST PUSH2 0x3255 PUSH2 0x3246 PUSH1 0x8 SLOAD PUSH1 0x5 SLOAD PUSH2 0x3D6C SWAP1 SWAP2 SWAP1 PUSH4 0xFFFFFFFF AND JUMP JUMPDEST PUSH1 0x9 SLOAD SWAP1 PUSH4 0xFFFFFFFF PUSH2 0x3D6C AND JUMP JUMPDEST PUSH1 0x9 SSTORE PUSH1 0x5 SLOAD PUSH1 0x8 SSTORE PUSH1 0x40 MLOAD PUSH32 0xFEBCE9A3DBC55FE4E42CABD1229670F5E1ED4CBF008685F75392A050AB9561FD SWAP1 PUSH1 0x0 SWAP1 LOG1 JUMP JUMPDEST PUSH1 0x0 SLOAD PUSH1 0x1 PUSH1 0x1 PUSH1 0xA0 SHL SUB AND CALLER EQ PUSH2 0x32E8 JUMPI PUSH1 0x40 DUP1 MLOAD PUSH3 0x461BCD PUSH1 0xE5 SHL DUP2 MSTORE PUSH1 0x20 PUSH1 0x4 DUP3 ADD MSTORE PUSH1 0xA PUSH1 0x24 DUP3 ADD MSTORE PUSH32 0x6F6E6C79204F776E657200000000000000000000000000000000000000000000 PUSH1 0x44 DUP3 ADD MSTORE SWAP1 MLOAD SWAP1 DUP2 SWAP1 SUB PUSH1 0x64 ADD SWAP1 REVERT JUMPDEST PUSH1 0x1 PUSH1 0x1 PUSH1 0xA0 SHL SUB DUP2 AND PUSH2 0x3343 JUMPI PUSH1 0x40 DUP1 MLOAD PUSH3 0x461BCD PUSH1 0xE5 SHL DUP2 MSTORE PUSH1 0x20 PUSH1 0x4 DUP3 ADD MSTORE PUSH1 0x1A PUSH1 0x24 DUP3 ADD MSTORE PUSH32 0x6E6577206D696E74206B65792063616E6E6F7420626520307830000000000000 PUSH1 0x44 DUP3 ADD MSTORE SWAP1 MLOAD SWAP1 DUP2 SWAP1 SUB PUSH1 0x64 ADD SWAP1 REVERT JUMPDEST PUSH1 0xF SLOAD PUSH1 0x40 MLOAD PUSH1 0x1 PUSH1 0x1 PUSH1 0xA0 SHL SUB DUP1 DUP5 AND SWAP3 AND SWAP1 PUSH32 0xFBD0B5E594E818883D41B4DE49805781C984D030597177B02C741CAFE04BF21B SWAP1 PUSH1 0x0 SWAP1 LOG3 PUSH1 0xF DUP1 SLOAD PUSH32 0xFFFFFFFFFFFFFFFFFFFFFFFF0000000000000000000000000000000000000000 AND PUSH1 0x1 PUSH1 0x1 PUSH1 0xA0 SHL SUB SWAP3 SWAP1 SWAP3 AND SWAP2 SWAP1 SWAP2 OR SWAP1 SSTORE JUMP JUMPDEST PUSH1 0x1 SLOAD PUSH21 0x10000000000000000000000000000000000000000 SWAP1 DIV PUSH1 0xFF AND ISZERO PUSH2 0x3427 JUMPI PUSH1 0x40 DUP1 MLOAD PUSH3 0x461BCD PUSH1 0xE5 SHL DUP2 MSTORE PUSH1 0x20 PUSH1 0x4 DUP3 ADD MSTORE PUSH1 0x13 PUSH1 0x24 DUP3 ADD MSTORE PUSH32 0x616C726561647920696E697469616C697A656400000000000000000000000000 PUSH1 0x44 DUP3 ADD MSTORE SWAP1 MLOAD SWAP1 DUP2 SWAP1 SUB PUSH1 0x64 ADD SWAP1 REVERT JUMPDEST PUSH1 0x0 DUP1 SLOAD PUSH32 0xFFFFFFFFFFFFFFFFFFFFFFFF0000000000000000000000000000000000000000 SWAP1 DUP2 AND CALLER OR SWAP1 SWAP2 SSTORE PUSH1 0x1 DUP1 SLOAD PUSH32 0xFFFFFFFFFFFFFFFFFFFFFF00FFFFFFFFFFFFFFFFFFFFFFFFFFFFFFFFFFFFFFFF AND PUSH21 0x10000000000000000000000000000000000000000 OR SWAP1 SSTORE PUSH1 0x11 DUP1 SLOAD PUSH1 0x1 PUSH1 0x1 PUSH1 0xA0 SHL SUB DUP6 AND SWAP3 AND DUP3 OR SWAP1 SSTORE PUSH1 0x40 DUP1 MLOAD SWAP2 DUP3 MSTORE MLOAD PUSH32 0xEFC1FD16EA80A922086EE4E995739D59B025C1BCEA6D1F67855747480C83214B SWAP2 DUP2 SWAP1 SUB PUSH1 0x20 ADD SWAP1 LOG1 PUSH1 0x12 DUP1 SLOAD PUSH32 0xFFFFFFFFFFFFFFFFFFFFFFFF0000000000000000000000000000000000000000 AND PUSH1 0x1 PUSH1 0x1 PUSH1 0xA0 SHL SUB DUP4 AND SWAP1 DUP2 OR SWAP1 SWAP2 SSTORE PUSH1 0x40 MLOAD PUSH32 0x278C70CED5F3E0E5EEB385B5FF9CB735748BA00A625147E66065ED48FC1562CD SWAP1 PUSH1 0x0 SWAP1 LOG2 PUSH1 0x0 SLOAD PUSH1 0x14 DUP1 SLOAD PUSH1 0x1 PUSH1 0x1 PUSH1 0xA0 SHL SUB SWAP1 SWAP3 AND PUSH32 0xFFFFFFFFFFFFFFFFFFFFFFFF0000000000000000000000000000000000000000 SWAP3 DUP4 AND DUP2 OR SWAP1 SWAP2 SSTORE PUSH1 0x13 DUP1 SLOAD SWAP1 SWAP3 AND OR SWAP1 SSTORE PUSH10 0xD3C21BCECCEDA1000000 PUSH1 0x2 DUP2 SWAP1 SSTORE PUSH11 0x84595161401484A000000 PUSH1 0x3 DUP2 SWAP1 SSTORE PUSH11 0x52B7D2DCC80CD2E4000000 PUSH1 0x4 DUP2 SWAP1 SSTORE PUSH1 0x5 DUP4 SWAP1 SSTORE PUSH1 0x6 DUP3 SWAP1 SSTORE PUSH1 0x7 DUP2 SWAP1 SSTORE PUSH1 0x8 DUP4 SWAP1 SSTORE PUSH1 0x9 DUP3 SWAP1 SSTORE PUSH1 0xA DUP2 SWAP1 SSTORE PUSH1 0x40 DUP1 MLOAD DUP5 DUP2 MSTORE PUSH1 0x20 DUP2 ADD DUP5 SWAP1 MSTORE DUP1 DUP3 ADD DUP4 SWAP1 MSTORE SWAP1 MLOAD PUSH32 0xBA6A9F8D54021AF0FAB65E388AD81CC3DFB17207BED50A5E9A30F7ADABB534D1 SWAP2 PUSH1 0x60 SWAP1 DUP3 SWAP1 SUB ADD SWAP1 LOG1 PUSH1 0x40 DUP1 MLOAD DUP5 DUP2 MSTORE PUSH1 0x20 DUP2 ADD DUP5 SWAP1 MSTORE DUP1 DUP3 ADD DUP4 SWAP1 MSTORE SWAP1 MLOAD PUSH32 0xA88EC94782BAC5C3E5F7D8E8F27B39F3F9D53DA3FC2824DB137086185CF2117D SWAP2 DUP2 SWAP1 SUB PUSH1 0x60 ADD SWAP1 LOG1 PUSH1 0x40 MLOAD PUSH32 0xFEBCE9A3DBC55FE4E42CABD1229670F5E1ED4CBF008685F75392A050AB9561FD SWAP1 PUSH1 0x0 SWAP1 LOG1 PUSH1 0x40 MLOAD PUSH32 0x102A997AC4D17915071D5422BC77B9E807C57305CEFEF394DAF2468ABACB26C2 SWAP1 PUSH1 0x0 SWAP1 LOG1 PUSH1 0x40 MLOAD PUSH32 0xF887EFB579B3283F395871614F44A2FD3021DDF59E72A91195F5DA936EBAA06D SWAP1 PUSH1 0x0 SWAP1 LOG1 POP POP POP POP POP JUMP JUMPDEST PUSH1 0x13 SLOAD PUSH1 0x1 PUSH1 0x1 PUSH1 0xA0 SHL SUB AND CALLER EQ DUP1 PUSH2 0x36F3 JUMPI POP PUSH1 0x0 SLOAD PUSH1 0x1 PUSH1 0x1 PUSH1 0xA0 SHL SUB AND CALLER EQ JUMPDEST PUSH2 0x3744 JUMPI PUSH1 0x40 DUP1 MLOAD PUSH3 0x461BCD PUSH1 0xE5 SHL DUP2 MSTORE PUSH1 0x20 PUSH1 0x4 DUP3 ADD MSTORE PUSH1 0x1F PUSH1 0x24 DUP3 ADD MSTORE PUSH32 0x6D7573742062652072656769737472792061646D696E206F72206F776E657200 PUSH1 0x44 DUP3 ADD MSTORE SWAP1 MLOAD SWAP1 DUP2 SWAP1 SUB PUSH1 0x64 ADD SWAP1 REVERT JUMPDEST PUSH1 0x11 SLOAD PUSH1 0x40 DUP1 MLOAD PUSH32 0xD01DD6D200000000000000000000000000000000000000000000000000000000 DUP2 MSTORE PUSH1 0x1 PUSH1 0x1 PUSH1 0xA0 SHL SUB DUP6 DUP2 AND PUSH1 0x4 DUP4 ADD MSTORE DUP5 ISZERO ISZERO PUSH1 0x24 DUP4 ADD MSTORE SWAP2 MLOAD SWAP2 SWAP1 SWAP3 AND SWAP2 PUSH4 0xD01DD6D2 SWAP2 PUSH1 0x44 DUP1 DUP4 ADD SWAP3 PUSH1 0x0 SWAP3 SWAP2 SWAP1 DUP3 SWAP1 SUB ADD DUP2 DUP4 DUP8 DUP1 EXTCODESIZE ISZERO DUP1 ISZERO PUSH2 0xB34 JUMPI PUSH1 0x0 DUP1 REVERT JUMPDEST PUSH1 0xE SLOAD DUP2 JUMP JUMPDEST PUSH1 0x14 SLOAD PUSH1 0x1 PUSH1 0x1 PUSH1 0xA0 SHL SUB AND DUP2 JUMP JUMPDEST PUSH1 0x0 SLOAD PUSH1 0x1 PUSH1 0x1 PUSH1 0xA0 SHL SUB AND CALLER EQ PUSH2 0x3827 JUMPI PUSH1 0x40 DUP1 MLOAD PUSH3 0x461BCD PUSH1 0xE5 SHL DUP2 MSTORE PUSH1 0x20 PUSH1 0x4 DUP3 ADD MSTORE PUSH1 0xA PUSH1 0x24 DUP3 ADD MSTORE PUSH32 0x6F6E6C79204F776E657200000000000000000000000000000000000000000000 PUSH1 0x44 DUP3 ADD MSTORE SWAP1 MLOAD SWAP1 DUP2 SWAP1 SUB PUSH1 0x64 ADD SWAP1 REVERT JUMPDEST PUSH1 0x11 PUSH1 0x0 SWAP1 SLOAD SWAP1 PUSH2 0x100 EXP SWAP1 DIV PUSH1 0x1 PUSH1 0x1 PUSH1 0xA0 SHL SUB AND PUSH1 0x1 PUSH1 0x1 PUSH1 0xA0 SHL SUB AND PUSH4 0x9965B3D6 PUSH1 0x40 MLOAD DUP2 PUSH4 0xFFFFFFFF AND PUSH1 0xE0 SHL DUP2 MSTORE PUSH1 0x4 ADD PUSH1 0x0 PUSH1 0x40 MLOAD DUP1 DUP4 SUB DUP2 PUSH1 0x0 DUP8 DUP1 EXTCODESIZE ISZERO DUP1 ISZERO PUSH2 0x1304 JUMPI PUSH1 0x0 DUP1 REVERT JUMPDEST PUSH1 0x1 SLOAD PUSH1 0x1 PUSH1 0x1 PUSH1 0xA0 SHL SUB AND DUP2 JUMP JUMPDEST PUSH1 0x0 PUSH2 0x3890 PUSH2 0x3F3A JUMP JUMPDEST PUSH1 0x10 DUP4 DUP2 SLOAD DUP2 LT PUSH2 0x389D JUMPI INVALID JUMPDEST PUSH1 0x0 SWAP2 DUP3 MSTORE PUSH1 0x20 SWAP2 DUP3 SWAP1 KECCAK256 PUSH1 0x40 DUP1 MLOAD PUSH1 0xA0 DUP2 ADD DUP3 MSTORE PUSH1 0x6 SWAP1 SWAP4 MUL SWAP1 SWAP2 ADD DUP1 SLOAD PUSH1 0x1 PUSH1 0x1 PUSH1 0xA0 SHL SUB AND DUP4 MSTORE PUSH1 0x1 DUP2 ADD SLOAD SWAP4 DUP4 ADD SWAP4 SWAP1 SWAP4 MSTORE PUSH1 0x2 DUP4 ADD SLOAD SWAP1 DUP3 ADD DUP2 SWAP1 MSTORE PUSH1 0x3 DUP4 ADD SLOAD PUSH1 0x60 DUP4 ADD MSTORE PUSH1 0x4 SWAP1 SWAP3 ADD SLOAD PUSH1 0xFF AND ISZERO ISZERO PUSH1 0x80 DUP3 ADD MSTORE PUSH1 0xE SLOAD SWAP1 SWAP3 POP LT PUSH2 0x3950 JUMPI PUSH1 0x40 DUP1 MLOAD PUSH3 0x461BCD PUSH1 0xE5 SHL DUP2 MSTORE PUSH1 0x20 PUSH1 0x4 DUP3 ADD MSTORE PUSH1 0x14 PUSH1 0x24 DUP3 ADD MSTORE PUSH32 0x74686973206D696E7420697320696E76616C6964000000000000000000000000 PUSH1 0x44 DUP3 ADD MSTORE SWAP1 MLOAD SWAP1 DUP2 SWAP1 SUB PUSH1 0x64 ADD SWAP1 REVERT JUMPDEST DUP1 PUSH1 0x80 ADD MLOAD ISZERO PUSH2 0x39A7 JUMPI PUSH1 0x40 DUP1 MLOAD PUSH3 0x461BCD PUSH1 0xE5 SHL DUP2 MSTORE PUSH1 0x20 PUSH1 0x4 DUP3 ADD MSTORE PUSH1 0x13 PUSH1 0x24 DUP3 ADD MSTORE PUSH32 0x74686973206D696E742069732070617573656400000000000000000000000000 PUSH1 0x44 DUP3 ADD MSTORE SWAP1 MLOAD SWAP1 DUP2 SWAP1 SUB PUSH1 0x64 ADD SWAP1 REVERT JUMPDEST PUSH2 0x39B9 DUP2 PUSH1 0x60 ADD MLOAD DUP3 PUSH1 0x20 ADD MLOAD PUSH2 0x11B3 JUMP JUMPDEST PUSH2 0x3A0A JUMPI PUSH1 0x40 DUP1 MLOAD PUSH3 0x461BCD PUSH1 0xE5 SHL DUP2 MSTORE PUSH1 0x20 PUSH1 0x4 DUP3 ADD MSTORE PUSH1 0x14 PUSH1 0x24 DUP3 ADD MSTORE PUSH32 0x6E6F7420656E6F75676820617070726F76616C73000000000000000000000000 PUSH1 0x44 DUP3 ADD MSTORE SWAP1 MLOAD SWAP1 DUP2 SWAP1 SUB PUSH1 0x64 ADD SWAP1 REVERT JUMPDEST POP PUSH1 0x1 SWAP3 SWAP2 POP POP JUMP JUMPDEST PUSH1 0x6 SLOAD DUP2 JUMP JUMPDEST PUSH1 0x10 DUP2 DUP2 SLOAD DUP2 LT PUSH2 0x3A26 JUMPI INVALID JUMPDEST PUSH1 0x0 SWAP2 DUP3 MSTORE PUSH1 0x20 SWAP1 SWAP2 KECCAK256 PUSH1 0x6 SWAP1 SWAP2 MUL ADD DUP1 SLOAD PUSH1 0x1 DUP3 ADD SLOAD PUSH1 0x2 DUP4 ADD SLOAD PUSH1 0x3 DUP5 ADD SLOAD PUSH1 0x4 SWAP1 SWAP5 ADD SLOAD PUSH1 0x1 PUSH1 0x1 PUSH1 0xA0 SHL SUB SWAP1 SWAP4 AND SWAP5 POP SWAP1 SWAP3 SWAP1 SWAP2 PUSH1 0xFF AND DUP6 JUMP JUMPDEST PUSH1 0x3 DUP2 JUMP JUMPDEST PUSH20 0x3C8984DCE8F68FCDEEEAFD9E0ECA3598562ED291 DUP2 JUMP JUMPDEST PUSH1 0x0 SLOAD PUSH1 0x1 PUSH1 0x1 PUSH1 0xA0 SHL SUB AND CALLER EQ PUSH2 0x3AE0 JUMPI PUSH1 0x40 DUP1 MLOAD PUSH3 0x461BCD PUSH1 0xE5 SHL DUP2 MSTORE PUSH1 0x20 PUSH1 0x4 DUP3 ADD MSTORE PUSH1 0xA PUSH1 0x24 DUP3 ADD MSTORE PUSH32 0x6F6E6C79204F776E657200000000000000000000000000000000000000000000 PUSH1 0x44 DUP3 ADD MSTORE SWAP1 MLOAD SWAP1 DUP2 SWAP1 SUB PUSH1 0x64 ADD SWAP1 REVERT JUMPDEST PUSH1 0x1 DUP1 SLOAD PUSH32 0xFFFFFFFFFFFFFFFFFFFFFFFF0000000000000000000000000000000000000000 AND PUSH1 0x1 PUSH1 0x1 PUSH1 0xA0 SHL SUB DUP4 DUP2 AND SWAP2 SWAP1 SWAP2 OR SWAP2 DUP3 SWAP1 SSTORE PUSH1 0x0 DUP1 SLOAD PUSH1 0x40 MLOAD SWAP4 DUP4 AND SWAP4 SWAP3 AND SWAP2 PUSH32 0xEC070B46448FEDE8B4A9A9F8D7919141B5E1C729397ECCB0C59AF2D6D9FC2D6C SWAP2 SWAP1 LOG3 POP JUMP JUMPDEST PUSH1 0x0 SLOAD PUSH1 0x1 PUSH1 0x1 PUSH1 0xA0 SHL SUB AND CALLER EQ PUSH2 0x3BAD JUMPI PUSH1 0x40 DUP1 MLOAD PUSH3 0x461BCD PUSH1 0xE5 SHL DUP2 MSTORE PUSH1 0x20 PUSH1 0x4 DUP3 ADD MSTORE PUSH1 0xA PUSH1 0x24 DUP3 ADD MSTORE PUSH32 0x6F6E6C79204F776E657200000000000000000000000000000000000000000000 PUSH1 0x44 DUP3 ADD MSTORE SWAP1 MLOAD SWAP1 DUP2 SWAP1 SUB PUSH1 0x64 ADD SWAP1 REVERT JUMPDEST PUSH1 0xD DUP1 SLOAD PUSH32 0xFFFFFFFFFFFFFFFFFFFFFFFFFFFFFFFFFFFFFFFFFFFFFFFFFFFFFFFFFFFFFF00 AND SWAP1 SSTORE PUSH1 0x40 DUP1 MLOAD PUSH1 0x0 DUP2 MSTORE SWAP1 MLOAD PUSH32 0x6CB4A816BE468261438A85ABAE2D59DE6BC19B06D3A76E2F3ACFD656D85A2EE9 SWAP2 DUP2 SWAP1 SUB PUSH1 0x20 ADD SWAP1 LOG1 JUMP JUMPDEST PUSH1 0x0 SLOAD PUSH1 0x1 PUSH1 0x1 PUSH1 0xA0 SHL SUB AND CALLER EQ PUSH2 0x3C6A JUMPI PUSH1 0x40 DUP1 MLOAD PUSH3 0x461BCD PUSH1 0xE5 SHL DUP2 MSTORE PUSH1 0x20 PUSH1 0x4 DUP3 ADD MSTORE PUSH1 0xA PUSH1 0x24 DUP3 ADD MSTORE PUSH32 0x6F6E6C79204F776E657200000000000000000000000000000000000000000000 PUSH1 0x44 DUP3 ADD MSTORE SWAP1 MLOAD SWAP1 DUP2 SWAP1 SUB PUSH1 0x64 ADD SWAP1 REVERT JUMPDEST PUSH1 0x11 SLOAD PUSH1 0x0 DUP1 SLOAD PUSH1 0x40 DUP1 MLOAD PUSH32 0x9A6A30A400000000000000000000000000000000000000000000000000000000 DUP2 MSTORE PUSH1 0x1 PUSH1 0x1 PUSH1 0xA0 SHL SUB SWAP3 DUP4 AND PUSH1 0x4 DUP3 ADD MSTORE SWAP1 MLOAD SWAP2 SWAP1 SWAP4 AND SWAP3 PUSH4 0x9A6A30A4 SWAP3 PUSH1 0x24 DUP1 DUP4 ADD SWAP4 SWAP2 SWAP3 DUP3 SWAP1 SUB ADD DUP2 DUP4 DUP8 DUP1 EXTCODESIZE ISZERO DUP1 ISZERO PUSH2 0x1304 JUMPI PUSH1 0x0 DUP1 REVERT JUMPDEST PUSH32 0x697354555344526564656D7074696F6E41646D696E0000000000000000000000 DUP2 JUMP JUMPDEST PUSH1 0x11 SLOAD PUSH1 0x1 PUSH1 0x1 PUSH1 0xA0 SHL SUB AND DUP2 JUMP JUMPDEST PUSH1 0x5 SLOAD DUP2 JUMP JUMPDEST PUSH1 0x0 DUP3 DUP3 ADD DUP4 DUP2 LT ISZERO PUSH2 0x3D65 JUMPI PUSH1 0x40 DUP1 MLOAD PUSH3 0x461BCD PUSH1 0xE5 SHL DUP2 MSTORE PUSH1 0x20 PUSH1 0x4 DUP3 ADD MSTORE PUSH1 0x1B PUSH1 0x24 DUP3 ADD MSTORE PUSH32 0x536166654D6174683A206164646974696F6E206F766572666C6F770000000000 PUSH1 0x44 DUP3 ADD MSTORE SWAP1 MLOAD SWAP1 DUP2 SWAP1 SUB PUSH1 0x64 ADD SWAP1 REVERT JUMPDEST SWAP4 SWAP3 POP POP POP JUMP JUMPDEST PUSH1 0x0 PUSH2 0x3D65 DUP4 DUP4 PUSH1 0x40 MLOAD DUP1 PUSH1 0x40 ADD PUSH1 0x40 MSTORE DUP1 PUSH1 0x1E DUP2 MSTORE PUSH1 0x20 ADD PUSH32 0x536166654D6174683A207375627472616374696F6E206F766572666C6F770000 DUP2 MSTORE POP PUSH2 0x3E3E JUMP JUMPDEST PUSH1 0x9 SLOAD DUP2 GT ISZERO DUP1 ISZERO PUSH2 0x3DC2 JUMPI POP PUSH1 0x3 SLOAD DUP2 GT ISZERO JUMPDEST ISZERO PUSH2 0x3DE2 JUMPI PUSH1 0x9 SLOAD PUSH2 0x3DDA SWAP1 DUP3 PUSH4 0xFFFFFFFF PUSH2 0x3D6C AND JUMP JUMPDEST PUSH1 0x9 SSTORE PUSH2 0x3DF9 JUMP JUMPDEST PUSH1 0xA SLOAD PUSH2 0x3DF5 SWAP1 DUP3 PUSH4 0xFFFFFFFF PUSH2 0x3D6C AND JUMP JUMPDEST PUSH1 0xA SSTORE JUMPDEST POP JUMP JUMPDEST PUSH1 0x0 PUSH2 0x3D65 DUP4 DUP4 PUSH1 0x40 MLOAD DUP1 PUSH1 0x40 ADD PUSH1 0x40 MSTORE DUP1 PUSH1 0x1A DUP2 MSTORE PUSH1 0x20 ADD PUSH32 0x536166654D6174683A206469766973696F6E206279207A65726F000000000000 DUP2 MSTORE POP PUSH2 0x3ED5 JUMP JUMPDEST PUSH1 0x0 DUP2 DUP5 DUP5 GT ISZERO PUSH2 0x3ECD JUMPI PUSH1 0x40 MLOAD PUSH3 0x461BCD PUSH1 0xE5 SHL DUP2 MSTORE PUSH1 0x4 ADD DUP1 DUP1 PUSH1 0x20 ADD DUP3 DUP2 SUB DUP3 MSTORE DUP4 DUP2 DUP2 MLOAD DUP2 MSTORE PUSH1 0x20 ADD SWAP2 POP DUP1 MLOAD SWAP1 PUSH1 0x20 ADD SWAP1 DUP1 DUP4 DUP4 PUSH1 0x0 JUMPDEST DUP4 DUP2 LT ISZERO PUSH2 0x3E92 JUMPI DUP2 DUP2 ADD MLOAD DUP4 DUP3 ADD MSTORE PUSH1 0x20 ADD PUSH2 0x3E7A JUMP JUMPDEST POP POP POP POP SWAP1 POP SWAP1 DUP2 ADD SWAP1 PUSH1 0x1F AND DUP1 ISZERO PUSH2 0x3EBF JUMPI DUP1 DUP3 SUB DUP1 MLOAD PUSH1 0x1 DUP4 PUSH1 0x20 SUB PUSH2 0x100 EXP SUB NOT AND DUP2 MSTORE PUSH1 0x20 ADD SWAP2 POP JUMPDEST POP SWAP3 POP POP POP PUSH1 0x40 MLOAD DUP1 SWAP2 SUB SWAP1 REVERT JUMPDEST POP POP POP SWAP1 SUB SWAP1 JUMP JUMPDEST PUSH1 0x0 DUP2 DUP4 PUSH2 0x3F24 JUMPI PUSH1 0x40 MLOAD PUSH3 0x461BCD PUSH1 0xE5 SHL DUP2 MSTORE PUSH1 0x20 PUSH1 0x4 DUP3 ADD DUP2 DUP2 MSTORE DUP4 MLOAD PUSH1 0x24 DUP5 ADD MSTORE DUP4 MLOAD SWAP1 SWAP3 DUP4 SWAP3 PUSH1 0x44 SWAP1 SWAP2 ADD SWAP2 SWAP1 DUP6 ADD SWAP1 DUP1 DUP4 DUP4 PUSH1 0x0 DUP4 ISZERO PUSH2 0x3E92 JUMPI DUP2 DUP2 ADD MLOAD DUP4 DUP3 ADD MSTORE PUSH1 0x20 ADD PUSH2 0x3E7A JUMP JUMPDEST POP PUSH1 0x0 DUP4 DUP6 DUP2 PUSH2 0x3F30 JUMPI INVALID JUMPDEST DIV SWAP6 SWAP5 POP POP POP POP POP JUMP JUMPDEST PUSH1 0x40 MLOAD DUP1 PUSH1 0xA0 ADD PUSH1 0x40 MSTORE DUP1 PUSH1 0x0 PUSH1 0x1 PUSH1 0x1 PUSH1 0xA0 SHL SUB AND DUP2 MSTORE PUSH1 0x20 ADD PUSH1 0x0 DUP2 MSTORE PUSH1 0x20 ADD PUSH1 0x0 DUP2 MSTORE PUSH1 0x20 ADD PUSH1 0x0 DUP2 MSTORE PUSH1 0x20 ADD PUSH1 0x0 ISZERO ISZERO DUP2 MSTORE POP SWAP1 JUMP JUMPDEST PUSH1 0x40 MLOAD DUP1 PUSH1 0x40 ADD PUSH1 0x40 MSTORE DUP1 PUSH1 0x2 SWAP1 PUSH1 0x20 DUP3 MUL DUP1 CALLDATASIZE DUP4 CALLDATACOPY POP SWAP2 SWAP3 SWAP2 POP POP JUMP JUMPDEST POP PUSH1 0x0 DUP2 SSTORE PUSH1 0x1 ADD PUSH1 0x0 SWAP1 SSTORE JUMP INVALID LOG2 PUSH5 0x6970667358 0x22 SLT KECCAK256 0xD4 0xD8 0xA6 KECCAK256 0xB2 LOG1 NOT 0xED MLOAD 0xD5 0xE3 PUSH5 0xB2AE68586B MOD 0xBB DUP13 PUSH5 0x1F3DF13C80 EXTCODECOPY 0xEF SUB CALLDATALOAD DUP13 0xC5 PUSH5 0x736F6C6343 STOP MOD EXP STOP CALLER "
    }
  }
}