{
  "abi": [
    {
      "anonymous": false,
      "inputs": [
        {
          "indexed": false,
          "internalType": "bool",
          "name": "status",
          "type": "bool"
        }
      ],
      "name": "AllMintsPaused",
      "type": "event"
    },
    {
      "anonymous": false,
      "inputs": [
        {
          "indexed": false,
          "internalType": "address",
          "name": "burner",
          "type": "address"
        },
        {
          "indexed": false,
          "internalType": "bool",
          "name": "canBurn",
          "type": "bool"
        }
      ],
      "name": "CanBurn",
      "type": "event"
    },
    {
      "anonymous": false,
      "inputs": [
        {
          "indexed": false,
          "internalType": "address",
          "name": "_newFastPause",
          "type": "address"
        }
      ],
      "name": "FastPauseSet",
      "type": "event"
    },
    {
      "anonymous": false,
      "inputs": [
        {
          "indexed": true,
          "internalType": "address",
          "name": "to",
          "type": "address"
        },
        {
          "indexed": true,
          "internalType": "uint256",
          "name": "value",
          "type": "uint256"
        },
        {
          "indexed": false,
          "internalType": "uint256",
          "name": "opIndex",
          "type": "uint256"
        },
        {
          "indexed": false,
          "internalType": "address",
          "name": "mintKey",
          "type": "address"
        }
      ],
      "name": "FinalizeMint",
      "type": "event"
    },
    {
      "anonymous": false,
      "inputs": [
        {
          "indexed": true,
          "internalType": "address",
          "name": "to",
          "type": "address"
        },
        {
          "indexed": true,
          "internalType": "uint256",
          "name": "value",
          "type": "uint256"
        },
        {
          "indexed": true,
          "internalType": "address",
          "name": "mintKey",
          "type": "address"
        }
      ],
      "name": "InstantMint",
      "type": "event"
    },
    {
      "anonymous": false,
      "inputs": [],
      "name": "InstantPoolRefilled",
      "type": "event"
    },
    {
      "anonymous": false,
      "inputs": [
        {
          "indexed": false,
          "internalType": "address",
          "name": "approver",
          "type": "address"
        },
        {
          "indexed": false,
          "internalType": "uint256",
          "name": "opIndex",
          "type": "uint256"
        }
      ],
      "name": "MintApproved",
      "type": "event"
    },
    {
      "anonymous": false,
      "inputs": [
        {
          "indexed": false,
          "internalType": "uint256",
          "name": "instant",
          "type": "uint256"
        },
        {
          "indexed": false,
          "internalType": "uint256",
          "name": "ratified",
          "type": "uint256"
        },
        {
          "indexed": false,
          "internalType": "uint256",
          "name": "multiSig",
          "type": "uint256"
        }
      ],
      "name": "MintLimitsChanged",
      "type": "event"
    },
    {
      "anonymous": false,
      "inputs": [
        {
          "indexed": false,
          "internalType": "uint256",
          "name": "opIndex",
          "type": "uint256"
        },
        {
          "indexed": false,
          "internalType": "bool",
          "name": "status",
          "type": "bool"
        }
      ],
      "name": "MintPaused",
      "type": "event"
    },
    {
      "anonymous": false,
      "inputs": [
        {
          "indexed": true,
          "internalType": "uint256",
          "name": "opIndex",
          "type": "uint256"
        },
        {
          "indexed": true,
          "internalType": "address",
          "name": "ratifier",
          "type": "address"
        }
      ],
      "name": "MintRatified",
      "type": "event"
    },
    {
      "anonymous": false,
      "inputs": [
        {
          "indexed": false,
          "internalType": "uint256",
          "name": "instant",
          "type": "uint256"
        },
        {
          "indexed": false,
          "internalType": "uint256",
          "name": "ratified",
          "type": "uint256"
        },
        {
          "indexed": false,
          "internalType": "uint256",
          "name": "multiSig",
          "type": "uint256"
        }
      ],
      "name": "MintThresholdChanged",
      "type": "event"
    },
    {
      "anonymous": false,
      "inputs": [],
      "name": "MultiSigPoolRefilled",
      "type": "event"
    },
    {
      "anonymous": false,
      "inputs": [
        {
          "indexed": true,
          "internalType": "address",
          "name": "currentOwner",
          "type": "address"
        },
        {
          "indexed": true,
          "internalType": "address",
          "name": "pendingOwner",
          "type": "address"
        }
      ],
      "name": "NewOwnerPending",
      "type": "event"
    },
    {
      "anonymous": false,
      "inputs": [
        {
          "indexed": true,
          "internalType": "address",
          "name": "previousOwner",
          "type": "address"
        },
        {
          "indexed": true,
          "internalType": "address",
          "name": "newOwner",
          "type": "address"
        }
      ],
      "name": "OwnershipTransferred",
      "type": "event"
    },
    {
      "anonymous": false,
      "inputs": [],
      "name": "RatifyPoolRefilled",
      "type": "event"
    },
    {
      "anonymous": false,
      "inputs": [
        {
          "indexed": true,
          "internalType": "address",
          "name": "to",
          "type": "address"
        },
        {
          "indexed": true,
          "internalType": "uint256",
          "name": "value",
          "type": "uint256"
        },
        {
          "indexed": false,
          "internalType": "uint256",
          "name": "opIndex",
          "type": "uint256"
        },
        {
          "indexed": false,
          "internalType": "address",
          "name": "mintKey",
          "type": "address"
        }
      ],
      "name": "RequestMint",
      "type": "event"
    },
    {
      "anonymous": false,
      "inputs": [
        {
          "indexed": true,
          "internalType": "address",
          "name": "other",
          "type": "address"
        }
      ],
      "name": "RequestReclaimContract",
      "type": "event"
    },
    {
      "anonymous": false,
      "inputs": [
        {
          "indexed": false,
          "internalType": "uint256",
          "name": "opIndex",
          "type": "uint256"
        }
      ],
      "name": "RevokeMint",
      "type": "event"
    },
    {
      "anonymous": false,
      "inputs": [
        {
          "indexed": true,
          "internalType": "address",
          "name": "registry",
          "type": "address"
        }
      ],
      "name": "SetRegistry",
      "type": "event"
    },
    {
      "anonymous": false,
      "inputs": [
        {
          "indexed": false,
          "internalType": "contract ITrueCurrency",
          "name": "newContract",
          "type": "address"
        }
      ],
      "name": "SetToken",
      "type": "event"
    },
    {
      "anonymous": false,
      "inputs": [
        {
          "indexed": true,
          "internalType": "address",
          "name": "child",
          "type": "address"
        },
        {
          "indexed": true,
          "internalType": "address",
          "name": "newOwner",
          "type": "address"
        }
      ],
      "name": "TransferChild",
      "type": "event"
    },
    {
      "anonymous": false,
      "inputs": [
        {
          "indexed": true,
          "internalType": "address",
          "name": "previousMintKey",
          "type": "address"
        },
        {
          "indexed": true,
          "internalType": "address",
          "name": "newMintKey",
          "type": "address"
        }
      ],
      "name": "TransferMintKey",
      "type": "event"
    },
    {
      "inputs": [],
      "name": "IS_MINT_PAUSER",
      "outputs": [
        {
          "internalType": "bytes32",
          "name": "",
          "type": "bytes32"
        }
      ],
      "stateMutability": "view",
      "type": "function"
    },
    {
      "inputs": [],
      "name": "IS_MINT_RATIFIER",
      "outputs": [
        {
          "internalType": "bytes32",
          "name": "",
          "type": "bytes32"
        }
      ],
      "stateMutability": "view",
      "type": "function"
    },
    {
      "inputs": [],
      "name": "IS_REDEMPTION_ADMIN",
      "outputs": [
        {
          "internalType": "bytes32",
          "name": "",
          "type": "bytes32"
        }
      ],
      "stateMutability": "view",
      "type": "function"
    },
    {
      "inputs": [],
      "name": "MULTISIG_MINT_SIGS",
      "outputs": [
        {
          "internalType": "uint8",
          "name": "",
          "type": "uint8"
        }
      ],
      "stateMutability": "view",
      "type": "function"
    },
    {
      "inputs": [],
      "name": "PAUSED_IMPLEMENTATION",
      "outputs": [
        {
          "internalType": "address",
          "name": "",
          "type": "address"
        }
      ],
      "stateMutability": "view",
      "type": "function"
    },
    {
      "inputs": [],
      "name": "RATIFY_MINT_SIGS",
      "outputs": [
        {
          "internalType": "uint8",
          "name": "",
          "type": "uint8"
        }
      ],
      "stateMutability": "view",
      "type": "function"
    },
    {
      "inputs": [
        {
          "internalType": "uint256",
          "name": "_index",
          "type": "uint256"
        }
      ],
      "name": "canFinalize",
      "outputs": [
        {
          "internalType": "bool",
          "name": "",
          "type": "bool"
        }
      ],
      "stateMutability": "view",
      "type": "function"
    },
    {
      "inputs": [],
      "name": "claimOwnership",
      "outputs": [],
      "stateMutability": "nonpayable",
      "type": "function"
    },
    {
      "inputs": [],
      "name": "claimTrueCurrencyProxyOwnership",
      "outputs": [],
      "stateMutability": "nonpayable",
      "type": "function"
    },
    {
      "inputs": [
        {
          "internalType": "uint256",
          "name": "_index",
          "type": "uint256"
        }
      ],
      "name": "finalizeMint",
      "outputs": [],
      "stateMutability": "nonpayable",
      "type": "function"
    },
    {
      "inputs": [],
      "name": "gasRefunder",
      "outputs": [
        {
          "internalType": "address",
          "name": "",
          "type": "address"
        }
      ],
      "stateMutability": "view",
      "type": "function"
    },
    {
      "inputs": [
        {
          "internalType": "uint256",
          "name": "_numberOfApproval",
          "type": "uint256"
        },
        {
          "internalType": "uint256",
          "name": "_value",
          "type": "uint256"
        }
      ],
      "name": "hasEnoughApproval",
      "outputs": [
        {
          "internalType": "bool",
          "name": "",
          "type": "bool"
        }
      ],
      "stateMutability": "view",
      "type": "function"
    },
    {
      "inputs": [],
      "name": "initialized",
      "outputs": [
        {
          "internalType": "bool",
          "name": "",
          "type": "bool"
        }
      ],
      "stateMutability": "view",
      "type": "function"
    },
    {
      "inputs": [
        {
          "internalType": "address",
          "name": "_to",
          "type": "address"
        },
        {
          "internalType": "uint256",
          "name": "_value",
          "type": "uint256"
        }
      ],
      "name": "instantMint",
      "outputs": [],
      "stateMutability": "nonpayable",
      "type": "function"
    },
    {
      "inputs": [],
      "name": "instantMintLimit",
      "outputs": [
        {
          "internalType": "uint256",
          "name": "",
          "type": "uint256"
        }
      ],
      "stateMutability": "view",
      "type": "function"
    },
    {
      "inputs": [],
      "name": "instantMintPool",
      "outputs": [
        {
          "internalType": "uint256",
          "name": "",
          "type": "uint256"
        }
      ],
      "stateMutability": "view",
      "type": "function"
    },
    {
      "inputs": [],
      "name": "instantMintThreshold",
      "outputs": [
        {
          "internalType": "uint256",
          "name": "",
          "type": "uint256"
        }
      ],
      "stateMutability": "view",
      "type": "function"
    },
    {
      "inputs": [],
      "name": "invalidateAllPendingMints",
      "outputs": [],
      "stateMutability": "nonpayable",
      "type": "function"
    },
    {
      "inputs": [
        {
          "internalType": "address",
          "name": "_other",
          "type": "address"
        }
      ],
      "name": "issueClaimOwnership",
      "outputs": [],
      "stateMutability": "nonpayable",
      "type": "function"
    },
    {
      "inputs": [],
      "name": "mintKey",
      "outputs": [
        {
          "internalType": "address",
          "name": "",
          "type": "address"
        }
      ],
      "stateMutability": "view",
      "type": "function"
    },
    {
      "inputs": [],
      "name": "mintOperationCount",
      "outputs": [
        {
          "internalType": "uint256",
          "name": "",
          "type": "uint256"
        }
      ],
      "stateMutability": "view",
      "type": "function"
    },
    {
      "inputs": [
        {
          "internalType": "uint256",
          "name": "",
          "type": "uint256"
        }
      ],
      "name": "mintOperations",
      "outputs": [
        {
          "internalType": "address",
          "name": "to",
          "type": "address"
        },
        {
          "internalType": "uint256",
          "name": "value",
          "type": "uint256"
        },
        {
          "internalType": "uint256",
          "name": "requestedBlock",
          "type": "uint256"
        },
        {
          "internalType": "uint256",
          "name": "numberOfApproval",
          "type": "uint256"
        },
        {
          "internalType": "bool",
          "name": "paused",
          "type": "bool"
        }
      ],
      "stateMutability": "view",
      "type": "function"
    },
    {
      "inputs": [],
      "name": "mintPaused",
      "outputs": [
        {
          "internalType": "bool",
          "name": "",
          "type": "bool"
        }
      ],
      "stateMutability": "view",
      "type": "function"
    },
    {
      "inputs": [],
      "name": "mintReqInvalidBeforeThisBlock",
      "outputs": [
        {
          "internalType": "uint256",
          "name": "",
          "type": "uint256"
        }
      ],
      "stateMutability": "view",
      "type": "function"
    },
    {
      "inputs": [],
      "name": "multiSigMintLimit",
      "outputs": [
        {
          "internalType": "uint256",
          "name": "",
          "type": "uint256"
        }
      ],
      "stateMutability": "view",
      "type": "function"
    },
    {
      "inputs": [],
      "name": "multiSigMintPool",
      "outputs": [
        {
          "internalType": "uint256",
          "name": "",
          "type": "uint256"
        }
      ],
      "stateMutability": "view",
      "type": "function"
    },
    {
      "inputs": [],
      "name": "multiSigMintThreshold",
      "outputs": [
        {
          "internalType": "uint256",
          "name": "",
          "type": "uint256"
        }
      ],
      "stateMutability": "view",
      "type": "function"
    },
    {
      "inputs": [],
      "name": "owner",
      "outputs": [
        {
          "internalType": "address payable",
          "name": "",
          "type": "address"
        }
      ],
      "stateMutability": "view",
      "type": "function"
    },
    {
      "inputs": [
        {
          "internalType": "uint256",
          "name": "_opIndex",
          "type": "uint256"
        }
      ],
      "name": "pauseMint",
      "outputs": [],
      "stateMutability": "nonpayable",
      "type": "function"
    },
    {
      "inputs": [],
      "name": "pauseMints",
      "outputs": [],
      "stateMutability": "nonpayable",
      "type": "function"
    },
    {
      "inputs": [],
      "name": "pauseToken",
      "outputs": [],
      "stateMutability": "nonpayable",
      "type": "function"
    },
    {
      "inputs": [],
      "name": "pendingOwner",
      "outputs": [
        {
          "internalType": "address payable",
          "name": "",
          "type": "address"
        }
      ],
      "stateMutability": "view",
      "type": "function"
    },
    {
      "inputs": [],
      "name": "ratifiedMintLimit",
      "outputs": [
        {
          "internalType": "uint256",
          "name": "",
          "type": "uint256"
        }
      ],
      "stateMutability": "view",
      "type": "function"
    },
    {
      "inputs": [],
      "name": "ratifiedMintPool",
      "outputs": [
        {
          "internalType": "uint256",
          "name": "",
          "type": "uint256"
        }
      ],
      "stateMutability": "view",
      "type": "function"
    },
    {
      "inputs": [],
      "name": "ratifiedMintThreshold",
      "outputs": [
        {
          "internalType": "uint256",
          "name": "",
          "type": "uint256"
        }
      ],
      "stateMutability": "view",
      "type": "function"
    },
    {
      "inputs": [
        {
          "internalType": "uint256",
          "name": "",
          "type": "uint256"
        }
      ],
      "name": "ratifiedPoolRefillApprovals",
      "outputs": [
        {
          "internalType": "address",
          "name": "",
          "type": "address"
        }
      ],
      "stateMutability": "view",
      "type": "function"
    },
    {
      "inputs": [
        {
          "internalType": "uint256",
          "name": "_index",
          "type": "uint256"
        },
        {
          "internalType": "address",
          "name": "_to",
          "type": "address"
        },
        {
          "internalType": "uint256",
          "name": "_value",
          "type": "uint256"
        }
      ],
      "name": "ratifyMint",
      "outputs": [],
      "stateMutability": "nonpayable",
      "type": "function"
    },
    {
      "inputs": [
        {
          "internalType": "address payable",
          "name": "_to",
          "type": "address"
        }
      ],
      "name": "reclaimEther",
      "outputs": [],
      "stateMutability": "nonpayable",
      "type": "function"
    },
    {
      "inputs": [
        {
          "internalType": "contract IERC20",
          "name": "_token",
          "type": "address"
        },
        {
          "internalType": "address",
          "name": "_to",
          "type": "address"
        }
      ],
      "name": "reclaimToken",
      "outputs": [],
      "stateMutability": "nonpayable",
      "type": "function"
    },
    {
      "inputs": [],
      "name": "refillInstantMintPool",
      "outputs": [],
      "stateMutability": "nonpayable",
      "type": "function"
    },
    {
      "inputs": [],
      "name": "refillMultiSigMintPool",
      "outputs": [],
      "stateMutability": "nonpayable",
      "type": "function"
    },
    {
      "inputs": [],
      "name": "refillRatifiedMintPool",
      "outputs": [],
      "stateMutability": "nonpayable",
      "type": "function"
    },
    {
      "inputs": [
        {
          "internalType": "contract IHook",
          "name": "hookContract",
          "type": "address"
        }
      ],
      "name": "refundGasWithHook",
      "outputs": [],
      "stateMutability": "nonpayable",
      "type": "function"
    },
    {
      "inputs": [],
      "name": "registry",
      "outputs": [
        {
          "internalType": "contract IRegistry",
          "name": "",
          "type": "address"
        }
      ],
      "stateMutability": "view",
      "type": "function"
    },
    {
      "inputs": [],
      "name": "registryAdmin",
      "outputs": [
        {
          "internalType": "address",
          "name": "",
          "type": "address"
        }
      ],
      "stateMutability": "view",
      "type": "function"
    },
    {
      "inputs": [
        {
          "internalType": "address",
          "name": "_to",
          "type": "address"
        },
        {
          "internalType": "uint256",
          "name": "_value",
          "type": "uint256"
        }
      ],
      "name": "requestMint",
      "outputs": [],
      "stateMutability": "nonpayable",
      "type": "function"
    },
    {
      "inputs": [],
      "name": "requestReclaimEther",
      "outputs": [],
      "stateMutability": "nonpayable",
      "type": "function"
    },
    {
      "inputs": [
        {
          "internalType": "contract IERC20",
          "name": "_token",
          "type": "address"
        }
      ],
      "name": "requestReclaimToken",
      "outputs": [],
      "stateMutability": "nonpayable",
      "type": "function"
    },
    {
      "inputs": [
        {
          "internalType": "uint256",
          "name": "_index",
          "type": "uint256"
        }
      ],
      "name": "revokeMint",
      "outputs": [],
      "stateMutability": "nonpayable",
      "type": "function"
    },
    {
      "inputs": [
        {
          "internalType": "address",
          "name": "account",
          "type": "address"
        },
        {
          "internalType": "bool",
          "name": "isBlacklisted",
          "type": "bool"
        }
      ],
      "name": "setBlacklisted",
      "outputs": [],
      "stateMutability": "nonpayable",
      "type": "function"
    },
    {
      "inputs": [
        {
          "internalType": "uint256",
          "name": "_min",
          "type": "uint256"
        },
        {
          "internalType": "uint256",
          "name": "_max",
          "type": "uint256"
        }
      ],
      "name": "setBurnBounds",
      "outputs": [],
      "stateMutability": "nonpayable",
      "type": "function"
    },
    {
      "inputs": [
        {
          "internalType": "address",
          "name": "burner",
          "type": "address"
        },
        {
          "internalType": "bool",
          "name": "canBurn",
          "type": "bool"
        }
      ],
      "name": "setCanBurn",
      "outputs": [],
      "stateMutability": "nonpayable",
      "type": "function"
    },
    {
      "inputs": [
        {
          "internalType": "address",
          "name": "refunder",
          "type": "address"
        }
      ],
      "name": "setGasRefunder",
      "outputs": [],
      "stateMutability": "nonpayable",
      "type": "function"
    },
    {
      "inputs": [
        {
          "internalType": "uint256",
          "name": "_instant",
          "type": "uint256"
        },
        {
          "internalType": "uint256",
          "name": "_ratified",
          "type": "uint256"
        },
        {
          "internalType": "uint256",
          "name": "_multiSig",
          "type": "uint256"
        }
      ],
      "name": "setMintLimits",
      "outputs": [],
      "stateMutability": "nonpayable",
      "type": "function"
    },
    {
      "inputs": [
        {
          "internalType": "uint256",
          "name": "_instant",
          "type": "uint256"
        },
        {
          "internalType": "uint256",
          "name": "_ratified",
          "type": "uint256"
        },
        {
          "internalType": "uint256",
          "name": "_multiSig",
          "type": "uint256"
        }
      ],
      "name": "setMintThresholds",
      "outputs": [],
      "stateMutability": "nonpayable",
      "type": "function"
    },
    {
      "inputs": [
        {
          "internalType": "contract IRegistry",
          "name": "_registry",
          "type": "address"
        }
      ],
      "name": "setRegistry",
      "outputs": [],
      "stateMutability": "nonpayable",
      "type": "function"
    },
    {
      "inputs": [
        {
          "internalType": "address",
          "name": "admin",
          "type": "address"
        }
      ],
      "name": "setRegistryAdmin",
      "outputs": [],
      "stateMutability": "nonpayable",
      "type": "function"
    },
    {
      "inputs": [
        {
          "internalType": "contract ITrueCurrency",
          "name": "_newContract",
          "type": "address"
        }
      ],
      "name": "setToken",
      "outputs": [],
      "stateMutability": "nonpayable",
      "type": "function"
    },
    {
      "inputs": [],
      "name": "token",
      "outputs": [
        {
          "internalType": "contract ITrueCurrency",
          "name": "",
          "type": "address"
        }
      ],
      "stateMutability": "view",
      "type": "function"
    },
    {
      "inputs": [
        {
          "internalType": "contract IHasOwner",
          "name": "_child",
          "type": "address"
        },
        {
          "internalType": "address",
          "name": "_newOwner",
          "type": "address"
        }
      ],
      "name": "transferChild",
      "outputs": [],
      "stateMutability": "nonpayable",
      "type": "function"
    },
    {
      "inputs": [
        {
          "internalType": "address",
          "name": "_newMintKey",
          "type": "address"
        }
      ],
      "name": "transferMintKey",
      "outputs": [],
      "stateMutability": "nonpayable",
      "type": "function"
    },
    {
      "inputs": [
        {
          "internalType": "address payable",
          "name": "newOwner",
          "type": "address"
        }
      ],
      "name": "transferOwnership",
      "outputs": [],
      "stateMutability": "nonpayable",
      "type": "function"
    },
    {
      "inputs": [
        {
          "internalType": "address",
          "name": "_newOwner",
          "type": "address"
        }
      ],
      "name": "transferTrueCurrencyProxyOwnership",
      "outputs": [],
      "stateMutability": "nonpayable",
      "type": "function"
    },
    {
      "inputs": [
        {
          "internalType": "uint256",
          "name": "_opIndex",
          "type": "uint256"
        }
      ],
      "name": "unpauseMint",
      "outputs": [],
      "stateMutability": "nonpayable",
      "type": "function"
    },
    {
      "inputs": [],
      "name": "unpauseMints",
      "outputs": [],
      "stateMutability": "nonpayable",
      "type": "function"
    },
    {
      "inputs": [
        {
          "internalType": "address",
          "name": "_implementation",
          "type": "address"
        }
      ],
      "name": "upgradeTrueCurrencyProxyImplTo",
      "outputs": [],
      "stateMutability": "nonpayable",
      "type": "function"
    }
  ],
  "evm": {
    "bytecode": {
      "linkReferences": {},
      "object": "608060405234801561001057600080fd5b50613b76806100206000396000f3fe608060405234801561001057600080fd5b50600436106104065760003560e01c8063807496561161021a578063cd0f7a4511610135578063ec38e855116100c8578063f3a2796311610097578063f966f1911161007c578063f966f19114610a11578063fc0c546a14610a19578063fc46221d14610a2157610406565b8063f3a2796314610a01578063f3e2aa8314610a0957610406565b8063ec38e85514610977578063ed62b4d6146109cb578063f11db77f146109d3578063f2fde38b146109db57610406565b8063dc9da8cb11610104578063dc9da8cb14610942578063e30c39781461094a578063e4e2bfe414610952578063e653aab51461096f57610406565b8063cd0f7a45146108de578063d01dd6d214610904578063d0d2d11014610932578063d5fe955f1461093a57610406565b8063a22cba6e116101ad578063ab15f7231161017c578063ab15f72314610898578063ae11ea9b146108a0578063c37e2155146108ce578063cc7e492e146108d657610406565b8063a22cba6e14610827578063a415965c14610844578063a6aa43791461084c578063a91ee0dc1461087257610406565b806389d9b059116101e957806389d9b059146107d45780638da5cb5b146107dc5780638e3af93f146107e45780639a6a30a41461080157610406565b8063807496561461074a578063819b411c1461077857806387fb79be1461079e57806388ee39cc146107a657610406565b806334437b16116103255780636c38d4e4116102b8578063789083e6116102875780637b1039991161026c5780637b1039991461071d5780637e4831d3146107255780637ef7ce921461072d57610406565b8063789083e6146106ef57806379ca5d4c146106f757610406565b80636c38d4e41461067557806372df02a71461069257806374c16b23146106bb57806376f2a59a146106c357610406565b80634fe5d431116102f45780634fe5d4311461060057806352006050146106265780635e5ae1fe1461064957806369ebf34e1461065157610406565b806334437b16146105a157806339069d8c146105a95780633cb5bc74146105cf5780634e71e0c8146105f857610406565b806329dea3a11161039d5780632e70bd4f1161036c5780632e70bd4f146105485780633134fe9c1461055057806331a02bce1461055857806331bac4341461058457610406565b806329dea3a11461050d5780632bbdb18a146105155780632c349627146105385780632c9ebb5d1461054057610406565b806315d33838116103d957806315d33838146104a75780631d42953a146104c15780631d4e135b146104c95780631e38cdb2146104e757610406565b80630581345e1461040b5780630e536ff414610433578063144fa6d714610465578063158ef93e1461048b575b600080fd5b6104316004803603602081101561042157600080fd5b50356001600160a01b0316610a29565b005b6104316004803603606081101561044957600080fd5b508035906001600160a01b036020820135169060400135610ae4565b6104316004803603602081101561047b57600080fd5b50356001600160a01b0316610f27565b610493610ff2565b604080519115158252519081900360200190f35b6104af611013565b60408051918252519081900360200190f35b6104af611037565b6104d161105b565b6040805160ff9092168252519081900360200190f35b610431600480360360208110156104fd57600080fd5b50356001600160a01b0316611060565b6104af611141565b6104936004803603604081101561052b57600080fd5b5080359060200135611147565b6104316111c0565b6104af6112ac565b6104af6112b2565b6104af6112b8565b6104316004803603604081101561056e57600080fd5b506001600160a01b0381351690602001356112be565b6104316004803603602081101561059a57600080fd5b503561155d565b6104af61164c565b610431600480360360208110156105bf57600080fd5b50356001600160a01b0316611652565b610431600480360360608110156105e557600080fd5b50803590602081013590604001356116eb565b6104316117ea565b6104316004803603602081101561061657600080fd5b50356001600160a01b031661187d565b6104316004803603604081101561063c57600080fd5b5080359060200135611943565b610431611a0f565b610659611a74565b604080516001600160a01b039092168252519081900360200190f35b6104316004803603602081101561068b57600080fd5b5035611a83565b610431600480360360608110156106a857600080fd5b5080359060208101359060400135611c30565b610659611cfc565b610431600480360360408110156106d957600080fd5b506001600160a01b038135169060200135611d0b565b6104af611f53565b6104316004803603602081101561070d57600080fd5b50356001600160a01b0316611f59565b610659612028565b610493612037565b6104316004803603602081101561074357600080fd5b5035612040565b6104316004803603604081101561076057600080fd5b506001600160a01b0381351690602001351515612171565b6104316004803603602081101561078e57600080fd5b50356001600160a01b03166122b5565b6104af61234e565b610431600480360360408110156107bc57600080fd5b506001600160a01b0381358116916020013516612354565b6104316124db565b61065961276d565b610431600480360360208110156107fa57600080fd5b503561277c565b6104316004803603602081101561081757600080fd5b50356001600160a01b03166129d6565b6106596004803603602081101561083d57600080fd5b5035612a6e565b610431612a8b565b6104316004803603602081101561086257600080fd5b50356001600160a01b0316612b1b565b6104316004803603602081101561088857600080fd5b50356001600160a01b0316612c73565b610431612d3a565b610431600480360360408110156108b657600080fd5b506001600160a01b0381358116916020013516612eb8565b6104af612fc3565b610431612fc9565b610431600480360360208110156108f457600080fd5b50356001600160a01b0316613142565b6104316004803603604081101561091a57600080fd5b506001600160a01b0381351690602001351515613270565b6104af613353565b610659613359565b610431613368565b610659613417565b6104936004803603602081101561096857600080fd5b5035613426565b6104af6135b3565b6109946004803603602081101561098d57600080fd5b50356135b9565b604080516001600160a01b039096168652602086019490945284840192909252606084015215156080830152519081900360a00190f35b6104d1613604565b610659613609565b610431600480360360208110156109f157600080fd5b50356001600160a01b0316613621565b6104316136ee565b6104316137ab565b6104af613872565b610659613896565b6104af6138a5565b6000546001600160a01b03163314610a88576040805162461bcd60e51b815260206004820152600a60248201527f6f6e6c79204f776e657200000000000000000000000000000000000000000000604482015290519081900360640190fd5b6000819050806001600160a01b0316634e71e0c86040518163ffffffff1660e01b8152600401600060405180830381600087803b158015610ac857600080fd5b505af1158015610adc573d6000803e3d6000fd5b505050505050565b6000546001600160a01b03163314610b4e57600d5460ff1615610b4e576040805162461bcd60e51b815260206004820152601160248201527f6d696e74696e6720697320706175736564000000000000000000000000000000604482015290519081900360640190fd5b601254604080517f7338c25c0000000000000000000000000000000000000000000000000000000081523360048201527f6973545553444d696e7452617469666965720000000000000000000000000000602482015290516001600160a01b0390921691637338c25c91604480820192602092909190829003018186803b158015610bd857600080fd5b505afa158015610bec573d6000803e3d6000fd5b505050506040513d6020811015610c0257600080fd5b505180610c1957506000546001600160a01b031633145b610c6a576040805162461bcd60e51b815260206004820152601960248201527f6d757374206265207261746966696572206f72206f776e657200000000000000604482015290519081900360640190fd5b610c72613ada565b60108481548110610c7f57fe5b60009182526020918290206040805160a081018252600690930290910180546001600160a01b03908116808552600183015495850195909552600282015492840192909252600381015460608401526004015460ff1615156080830152909250841614610d33576040805162461bcd60e51b815260206004820152601960248201527f746f206164647265737320646f6573206e6f74206d6174636800000000000000604482015290519081900360640190fd5b81816020015114610d8b576040805162461bcd60e51b815260206004820152601560248201527f616d6f756e7420646f6573206e6f74206d617463680000000000000000000000604482015290519081900360640190fd5b60108481548110610d9857fe5b600091825260208083203384526005600690930201919091019052604090205460ff1615610e0d576040805162461bcd60e51b815260206004820152601060248201527f616c726561647920617070726f76656400000000000000000000000000000000604482015290519081900360640190fd5b600160108581548110610e1c57fe5b6000918252602080832033845260069290920290910160050190526040902080547fffffffffffffffffffffffffffffffffffffffffffffffffffffffffffffff001691151591909117905560108054610e9d9160019187908110610e7d57fe5b9060005260206000209060060201600301546138ab90919063ffffffff16565b60108581548110610eaa57fe5b60009182526020822060036006909202010191909155604051339186917f86cc1a29a55449d1229bb301da3d61fcd5490843635df9a79e5a4df4724773d29190a3610f1360108581548110610efb57fe5b90600052602060002090600602016003015483611147565b15610f2157610f218461277c565b50505050565b6000546001600160a01b03163314610f86576040805162461bcd60e51b815260206004820152600a60248201527f6f6e6c79204f776e657200000000000000000000000000000000000000000000604482015290519081900360640190fd5b601180546001600160a01b0383167fffffffffffffffffffffffff0000000000000000000000000000000000000000909116811790915560408051918252517fefc1fd16ea80a922086ee4e995739d59b025c1bcea6d1f67855747480c83214b9181900360200190a150565b60015474010000000000000000000000000000000000000000900460ff1681565b7f6973545553444d696e745061757365727300000000000000000000000000000081565b7f6973545553444d696e745261746966696572000000000000000000000000000081565b600181565b6000546001600160a01b031633146110bf576040805162461bcd60e51b815260206004820152600a60248201527f6f6e6c79204f776e657200000000000000000000000000000000000000000000604482015290519081900360640190fd5b601154604080517ff1739cae0000000000000000000000000000000000000000000000000000000081526001600160a01b0384811660048301529151919092169163f1739cae91602480830192600092919082900301818387803b15801561112657600080fd5b505af115801561113a573d6000803e3d6000fd5b5050505050565b60035481565b6000600954821115801561115d57506003548211155b156111725760018310611172575060016111ba565b600a54821115801561118657506004548211155b1561119b576003831061119b575060016111ba565b6000546001600160a01b03163314156111b6575060016111ba565b5060005b92915050565b6000546001600160a01b0316331461121f576040805162461bcd60e51b815260206004820152600a60248201527f6f6e6c79204f776e657200000000000000000000000000000000000000000000604482015290519081900360640190fd5b601154604080517f3659cfe6000000000000000000000000000000000000000000000000000000008152733c8984dce8f68fcdeeeafd9e0eca3598562ed291600482015290516001600160a01b0390921691633659cfe69160248082019260009290919082900301818387803b15801561129857600080fd5b505af1158015610f21573d6000803e3d6000fd5b60045481565b60105490565b60095481565b6000546001600160a01b0316331461132857600d5460ff1615611328576040805162461bcd60e51b815260206004820152601160248201527f6d696e74696e6720697320706175736564000000000000000000000000000000604482015290519081900360640190fd5b600f546001600160a01b031633148061134b57506000546001600160a01b031633145b61139c576040805162461bcd60e51b815260206004820152601860248201527f6d757374206265206d696e744b6579206f72206f776e65720000000000000000604482015290519081900360640190fd5b6113a4613ada565b506040805160a0810182526001600160a01b038416808252602080830185905243838501526000606084018190526080840152601054845190815233918101919091528351929385937f883eab2a74c029007e37f3f118fa7713d39b756c0b7c932a0269fcb995a4724c9281900390910190a36010805460018101825560009190915281517f1b6847dc741a1b0cd08d278845f9d819d87b734759afb55fe2de5cb82a9ae672600690920291820180547fffffffffffffffffffffffff0000000000000000000000000000000000000000166001600160a01b0390921691909117905560208201517f1b6847dc741a1b0cd08d278845f9d819d87b734759afb55fe2de5cb82a9ae67382015560408201517f1b6847dc741a1b0cd08d278845f9d819d87b734759afb55fe2de5cb82a9ae67482015560608201517f1b6847dc741a1b0cd08d278845f9d819d87b734759afb55fe2de5cb82a9ae6758201556080909101517f1b6847dc741a1b0cd08d278845f9d819d87b734759afb55fe2de5cb82a9ae67690910180547fffffffffffffffffffffffffffffffffffffffffffffffffffffffffffffff00169115159190911790555050565b6000546001600160a01b031633146115bc576040805162461bcd60e51b815260206004820152600a60248201527f6f6e6c79204f776e657200000000000000000000000000000000000000000000604482015290519081900360640190fd5b6000601082815481106115cb57fe5b6000918252602080832060069290920290910160040180547fffffffffffffffffffffffffffffffffffffffffffffffffffffffffffffff001693151593909317909255604080518481529283019190915280517fbe7295ef37ca984ec35808d259aa03f272c2d747c6ce6a47b6e90862afccc5769281900390910190a150565b60075481565b6000546001600160a01b031633146116b1576040805162461bcd60e51b815260206004820152600a60248201527f6f6e6c79204f776e657200000000000000000000000000000000000000000000604482015290519081900360640190fd5b601380547fffffffffffffffffffffffff0000000000000000000000000000000000000000166001600160a01b0392909216919091179055565b6000546001600160a01b0316331461174a576040805162461bcd60e51b815260206004820152600a60248201527f6f6e6c79204f776e657200000000000000000000000000000000000000000000604482015290519081900360640190fd5b81831115801561175a5750808211155b61176357600080fd5b6005839055600854831015611779576005546008555b600682905560095482101561178f576006546009555b6007819055600a548110156117a557600754600a555b604080518481526020810184905280820183905290517fa88ec94782bac5c3e5f7d8e8f27b39f3f9d53da3fc2824db137086185cf2117d9181900360600190a1505050565b6001546001600160a01b0316331461180157600080fd5b600154600080546040516001600160a01b0393841693909116917f8be0079c531659141344cd1fd0a4f28419497f9722a3daafe3b4186f6b6457e091a360018054600080547fffffffffffffffffffffffff00000000000000000000000000000000000000009081166001600160a01b03841617909155169055565b6000546001600160a01b031633146118dc576040805162461bcd60e51b815260206004820152600a60248201527f6f6e6c79204f776e657200000000000000000000000000000000000000000000604482015290519081900360640190fd5b601154604080517f3659cfe60000000000000000000000000000000000000000000000000000000081526001600160a01b03848116600483015291519190921691633659cfe691602480830192600092919082900301818387803b15801561112657600080fd5b6000546001600160a01b031633146119a2576040805162461bcd60e51b815260206004820152600a60248201527f6f6e6c79204f776e657200000000000000000000000000000000000000000000604482015290519081900360640190fd5b601154604080517f52006050000000000000000000000000000000000000000000000000000000008152600481018590526024810184905290516001600160a01b039092169163520060509160448082019260009290919082900301818387803b158015610ac857600080fd5b6000546001600160a01b03163314611a6e576040805162461bcd60e51b815260206004820152600a60248201527f6f6e6c79204f776e657200000000000000000000000000000000000000000000604482015290519081900360640190fd5b43600e55565b600f546001600160a01b031681565b601254604080517f7338c25c0000000000000000000000000000000000000000000000000000000081523360048201527f6973545553444d696e7450617573657273000000000000000000000000000000602482015290516001600160a01b0390921691637338c25c91604480820192602092909190829003018186803b158015611b0d57600080fd5b505afa158015611b21573d6000803e3d6000fd5b505050506040513d6020811015611b3757600080fd5b505180611b4e57506000546001600160a01b031633145b611b9f576040805162461bcd60e51b815260206004820152601760248201527f6d75737420626520706175736572206f72206f776e6572000000000000000000604482015290519081900360640190fd5b600160108281548110611bae57fe5b60009182526020918290206006919091020160040180547fffffffffffffffffffffffffffffffffffffffffffffffffffffffffffffff0016921515929092179091556040805183815260019281019290925280517fbe7295ef37ca984ec35808d259aa03f272c2d747c6ce6a47b6e90862afccc5769281900390910190a150565b6000546001600160a01b03163314611c8f576040805162461bcd60e51b815260206004820152600a60248201527f6f6e6c79204f776e657200000000000000000000000000000000000000000000604482015290519081900360640190fd5b818311158015611c9f5750808211155b611ca857600080fd5b600283905560038290556004819055604080518481526020810184905280820183905290517fba6a9f8d54021af0fab65e388ad81cc3dfb17207bed50a5e9a30f7adabb534d19181900360600190a1505050565b6013546001600160a01b031681565b6000546001600160a01b03163314611d7557600d5460ff1615611d75576040805162461bcd60e51b815260206004820152601160248201527f6d696e74696e6720697320706175736564000000000000000000000000000000604482015290519081900360640190fd5b600f546001600160a01b0316331480611d9857506000546001600160a01b031633145b611de9576040805162461bcd60e51b815260206004820152601860248201527f6d757374206265206d696e744b6579206f72206f776e65720000000000000000604482015290519081900360640190fd5b600254811115611e40576040805162461bcd60e51b815260206004820152601f60248201527f6f7665722074686520696e7374616e74206d696e74207468726573686f6c6400604482015290519081900360640190fd5b600854811115611e97576040805162461bcd60e51b815260206004820152601860248201527f696e7374616e74206d696e7420706f6f6c206973206472790000000000000000604482015290519081900360640190fd5b600854611eaa908263ffffffff61390c16565b600855604051339082906001600160a01b038516907fec755a4feb8086d62e216ca919461349221df54bf9ca83300b7a2bf8e5807dfc90600090a4601154604080517f40c10f190000000000000000000000000000000000000000000000000000000081526001600160a01b03858116600483015260248201859052915191909216916340c10f1991604480830192600092919082900301818387803b158015610ac857600080fd5b60025481565b6000546001600160a01b03163314611fb8576040805162461bcd60e51b815260206004820152600a60248201527f6f6e6c79204f776e657200000000000000000000000000000000000000000000604482015290519081900360640190fd5b60115460008054604080517f88ee39cc0000000000000000000000000000000000000000000000000000000081526001600160a01b0386811660048301529283166024820152905191909316926388ee39cc92604480830193919282900301818387803b15801561112657600080fd5b6012546001600160a01b031681565b600d5460ff1681565b600f546001600160a01b031633148061206357506000546001600160a01b031633145b6120b4576040805162461bcd60e51b815260206004820152601860248201527f6d757374206265206d696e744b6579206f72206f776e65720000000000000000604482015290519081900360640190fd5b601081815481106120c157fe5b60009182526020808320600690920290910180547fffffffffffffffffffffffff000000000000000000000000000000000000000016815560018101839055600281018390556003810192909255600490910180547fffffffffffffffffffffffffffffffffffffffffffffffffffffffffffffff001690556040805183815290517fccec691f17b1a3d2b56ac2c39074c2930ba803fc46191a49259706621eac3f8f929181900390910190a150565b6013546001600160a01b031633148061219457506000546001600160a01b031633145b6121e5576040805162461bcd60e51b815260206004820152601f60248201527f6d7573742062652072656769737472792061646d696e206f72206f776e657200604482015290519081900360640190fd5b601154604080517f807496560000000000000000000000000000000000000000000000000000000081526001600160a01b038581166004830152841515602483015291519190921691638074965691604480830192600092919082900301818387803b15801561225457600080fd5b505af1158015612268573d6000803e3d6000fd5b5050604080516001600160a01b0386168152841515602082015281517ff038153e9bf050a90fa20eac4c02e084876a20e74c6a5139601f5b68937c54bc9450908190039091019150a15050565b6000546001600160a01b03163314612314576040805162461bcd60e51b815260206004820152600a60248201527f6f6e6c79204f776e657200000000000000000000000000000000000000000000604482015290519081900360640190fd5b601480547fffffffffffffffffffffffff0000000000000000000000000000000000000000166001600160a01b0392909216919091179055565b60085481565b6000546001600160a01b031633146123b3576040805162461bcd60e51b815260206004820152600a60248201527f6f6e6c79204f776e657200000000000000000000000000000000000000000000604482015290519081900360640190fd5b604080517f70a0823100000000000000000000000000000000000000000000000000000000815230600482015290516000916001600160a01b038516916370a0823191602480820192602092909190829003018186803b15801561241657600080fd5b505afa15801561242a573d6000803e3d6000fd5b505050506040513d602081101561244057600080fd5b5051604080517fa9059cbb0000000000000000000000000000000000000000000000000000000081526001600160a01b0385811660048301526024820184905291519293509085169163a9059cbb916044808201926020929091908290030181600087803b1580156124b157600080fd5b505af11580156124c5573d6000803e3d6000fd5b505050506040513d602081101561113a57600080fd5b601254604080517f7338c25c0000000000000000000000000000000000000000000000000000000081523360048201527f6973545553444d696e7452617469666965720000000000000000000000000000602482015290516001600160a01b0390921691637338c25c91604480820192602092909190829003018186803b15801561256557600080fd5b505afa158015612579573d6000803e3d6000fd5b505050506040513d602081101561258f57600080fd5b5051806125a657506000546001600160a01b031633145b6125f7576040805162461bcd60e51b815260206004820152601960248201527f6d757374206265207261746966696572206f72206f776e657200000000000000604482015290519081900360640190fd5b6000546001600160a01b0316331461270357612611613b14565b604080518082019182905290600b9060029082845b81546001600160a01b0316815260019091019060200180831161262657505050505090508060006002811061265757fe5b60200201516001600160a01b0316336001600160a01b03161415801561268a575060208101516001600160a01b03163314155b61269357600080fd5b80516001600160a01b03166126e55733600b60005b0180547fffffffffffffffffffffffff0000000000000000000000000000000000000000166001600160a01b03929092169190911790555061276b565b60208101516001600160a01b03166127015733600b60016126a8565b505b61270f600b6000613b32565b61273861272960095460065461390c90919063ffffffff16565b600a549063ffffffff61390c16565b600a556006546009556040517f102a997ac4d17915071d5422bc77b9e807c57305cefef394daf2468abacb26c290600090a15b565b6000546001600160a01b031681565b6000546001600160a01b031633146127e657600d5460ff16156127e6576040805162461bcd60e51b815260206004820152601160248201527f6d696e74696e6720697320706175736564000000000000000000000000000000604482015290519081900360640190fd5b6127ee613ada565b601082815481106127fb57fe5b600091825260208083206040805160a081018252600690940290910180546001600160a01b0390811680865260018301549486018590526002830154938601939093526003820154606086015260049091015460ff16151560808501529354929450929091339116146128835761287184613426565b61287a57600080fd5b6128838161394e565b6010848154811061289057fe5b60009182526020822060069091020180547fffffffffffffffffffffffff0000000000000000000000000000000000000000168155600181018290556002810182905560038101829055600490810180547fffffffffffffffffffffffffffffffffffffffffffffffffffffffffffffff00169055601154604080517f40c10f190000000000000000000000000000000000000000000000000000000081526001600160a01b038781169482019490945260248101869052905191909216926340c10f19926044808201939182900301818387803b15801561297157600080fd5b505af1158015612985573d6000803e3d6000fd5b50506040805187815233602082015281518594506001600160a01b03871693507f9a0dcee498442c144388e9d1dd09acdf74ffc3bce9cb52841186c1d8ac032154929181900390910190a350505050565b6000546001600160a01b03163314612a35576040805162461bcd60e51b815260206004820152600a60248201527f6f6e6c79204f776e657200000000000000000000000000000000000000000000604482015290519081900360640190fd5b6040516001600160a01b038216904780156108fc02916000818181858888f19350505050158015612a6a573d6000803e3d6000fd5b5050565b600b8160028110612a7b57fe5b01546001600160a01b0316905081565b6000546001600160a01b03163314612aea576040805162461bcd60e51b815260206004820152600a60248201527f6f6e6c79204f776e657200000000000000000000000000000000000000000000604482015290519081900360640190fd5b600754600a556040517ff887efb579b3283f395871614f44a2fd3021ddf59e72a91195f5da936ebaa06d90600090a1565b6014546001600160a01b0316331480612b3e57506000546001600160a01b031633145b612b8f576040805162461bcd60e51b815260206004820152601d60248201527f6d7573742062652067617320726566756e646572206f72206f776e6572000000604482015290519081900360640190fd5b60005a9050816001600160a01b0316637f5a7c7b6040518163ffffffff1660e01b8152600401600060405180830381600087803b158015612bcf57600080fd5b505af1158015612be3573d6000803e3d6000fd5b505050506000612bfa5a839063ffffffff61390c16565b6011549091506001600160a01b03166317c931bd612c20836161a863ffffffff61399c16565b6040518263ffffffff1660e01b815260040180828152602001915050600060405180830381600087803b158015612c5657600080fd5b505af1158015612c6a573d6000803e3d6000fd5b50505050505050565b6000546001600160a01b03163314612cd2576040805162461bcd60e51b815260206004820152600a60248201527f6f6e6c79204f776e657200000000000000000000000000000000000000000000604482015290519081900360640190fd5b601280547fffffffffffffffffffffffff0000000000000000000000000000000000000000166001600160a01b0383811691909117918290556040519116907f278c70ced5f3e0e5eeb385b5ff9cb735748ba00a625147e66065ed48fc1562cd90600090a250565b601254604080517f7338c25c0000000000000000000000000000000000000000000000000000000081523360048201527f6973545553444d696e7450617573657273000000000000000000000000000000602482015290516001600160a01b0390921691637338c25c91604480820192602092909190829003018186803b158015612dc457600080fd5b505afa158015612dd8573d6000803e3d6000fd5b505050506040513d6020811015612dee57600080fd5b505180612e0557506000546001600160a01b031633145b612e56576040805162461bcd60e51b815260206004820152601760248201527f6d75737420626520706175736572206f72206f776e6572000000000000000000604482015290519081900360640190fd5b600d80547fffffffffffffffffffffffffffffffffffffffffffffffffffffffffffffff0016600190811790915560408051918252517f6cb4a816be468261438a85abae2d59de6bc19b06d3a76e2f3acfd656d85a2ee99181900360200190a1565b6000546001600160a01b03163314612f17576040805162461bcd60e51b815260206004820152600a60248201527f6f6e6c79204f776e657200000000000000000000000000000000000000000000604482015290519081900360640190fd5b816001600160a01b031663f2fde38b826040518263ffffffff1660e01b815260040180826001600160a01b03166001600160a01b03168152602001915050600060405180830381600087803b158015612f6f57600080fd5b505af1158015612f83573d6000803e3d6000fd5b50506040516001600160a01b038085169350851691507f425a9ef6e4130595de2345fa70aebbdf0431120d720b65c46f16c69ec2bfbf6990600090a35050565b600a5481565b601254604080517f7338c25c0000000000000000000000000000000000000000000000000000000081523360048201527f6973545553444d696e7452617469666965720000000000000000000000000000602482015290516001600160a01b0390921691637338c25c91604480820192602092909190829003018186803b15801561305357600080fd5b505afa158015613067573d6000803e3d6000fd5b505050506040513d602081101561307d57600080fd5b50518061309457506000546001600160a01b031633145b6130e5576040805162461bcd60e51b815260206004820152601960248201527f6d757374206265207261746966696572206f72206f776e657200000000000000604482015290519081900360640190fd5b61310e6130ff60085460055461390c90919063ffffffff16565b6009549063ffffffff61390c16565b6009556005546008556040517ffebce9a3dbc55fe4e42cabd1229670f5e1ed4cbf008685f75392a050ab9561fd90600090a1565b6000546001600160a01b031633146131a1576040805162461bcd60e51b815260206004820152600a60248201527f6f6e6c79204f776e657200000000000000000000000000000000000000000000604482015290519081900360640190fd5b6001600160a01b0381166131fc576040805162461bcd60e51b815260206004820152601a60248201527f6e6577206d696e74206b65792063616e6e6f7420626520307830000000000000604482015290519081900360640190fd5b600f546040516001600160a01b038084169216907ffbd0b5e594e818883d41b4de49805781c984d030597177b02c741cafe04bf21b90600090a3600f80547fffffffffffffffffffffffff0000000000000000000000000000000000000000166001600160a01b0392909216919091179055565b6013546001600160a01b031633148061329357506000546001600160a01b031633145b6132e4576040805162461bcd60e51b815260206004820152601f60248201527f6d7573742062652072656769737472792061646d696e206f72206f776e657200604482015290519081900360640190fd5b601154604080517fd01dd6d20000000000000000000000000000000000000000000000000000000081526001600160a01b03858116600483015284151560248301529151919092169163d01dd6d291604480830192600092919082900301818387803b158015610ac857600080fd5b600e5481565b6014546001600160a01b031681565b6000546001600160a01b031633146133c7576040805162461bcd60e51b815260206004820152600a60248201527f6f6e6c79204f776e657200000000000000000000000000000000000000000000604482015290519081900360640190fd5b601160009054906101000a90046001600160a01b03166001600160a01b0316639965b3d66040518163ffffffff1660e01b8152600401600060405180830381600087803b15801561129857600080fd5b6001546001600160a01b031681565b6000613430613ada565b6010838154811061343d57fe5b60009182526020918290206040805160a081018252600690930290910180546001600160a01b0316835260018101549383019390935260028301549082018190526003830154606083015260049092015460ff1615156080820152600e54909250106134f0576040805162461bcd60e51b815260206004820152601460248201527f74686973206d696e7420697320696e76616c6964000000000000000000000000604482015290519081900360640190fd5b806080015115613547576040805162461bcd60e51b815260206004820152601360248201527f74686973206d696e742069732070617573656400000000000000000000000000604482015290519081900360640190fd5b61355981606001518260200151611147565b6135aa576040805162461bcd60e51b815260206004820152601460248201527f6e6f7420656e6f75676820617070726f76616c73000000000000000000000000604482015290519081900360640190fd5b50600192915050565b60065481565b601081815481106135c657fe5b6000918252602090912060069091020180546001820154600283015460038401546004909401546001600160a01b0390931694509092909160ff1685565b600381565b733c8984dce8f68fcdeeeafd9e0eca3598562ed29181565b6000546001600160a01b03163314613680576040805162461bcd60e51b815260206004820152600a60248201527f6f6e6c79204f776e657200000000000000000000000000000000000000000000604482015290519081900360640190fd5b600180547fffffffffffffffffffffffff0000000000000000000000000000000000000000166001600160a01b03838116919091179182905560008054604051938316939216917fec070b46448fede8b4a9a9f8d7919141b5e1c729397eccb0c59af2d6d9fc2d6c9190a350565b6000546001600160a01b0316331461374d576040805162461bcd60e51b815260206004820152600a60248201527f6f6e6c79204f776e657200000000000000000000000000000000000000000000604482015290519081900360640190fd5b600d80547fffffffffffffffffffffffffffffffffffffffffffffffffffffffffffffff00169055604080516000815290517f6cb4a816be468261438a85abae2d59de6bc19b06d3a76e2f3acfd656d85a2ee99181900360200190a1565b6000546001600160a01b0316331461380a576040805162461bcd60e51b815260206004820152600a60248201527f6f6e6c79204f776e657200000000000000000000000000000000000000000000604482015290519081900360640190fd5b60115460008054604080517f9a6a30a40000000000000000000000000000000000000000000000000000000081526001600160a01b03928316600482015290519190931692639a6a30a492602480830193919282900301818387803b15801561129857600080fd5b7f697354555344526564656d7074696f6e41646d696e000000000000000000000081565b6011546001600160a01b031681565b60055481565b600082820183811015613905576040805162461bcd60e51b815260206004820152601b60248201527f536166654d6174683a206164646974696f6e206f766572666c6f770000000000604482015290519081900360640190fd5b9392505050565b600061390583836040518060400160405280601e81526020017f536166654d6174683a207375627472616374696f6e206f766572666c6f7700008152506139de565b600954811115801561396257506003548111155b156139825760095461397a908263ffffffff61390c16565b600955613999565b600a54613995908263ffffffff61390c16565b600a555b50565b600061390583836040518060400160405280601a81526020017f536166654d6174683a206469766973696f6e206279207a65726f000000000000815250613a75565b60008184841115613a6d5760405162461bcd60e51b81526004018080602001828103825283818151815260200191508051906020019080838360005b83811015613a32578181015183820152602001613a1a565b50505050905090810190601f168015613a5f5780820380516001836020036101000a031916815260200191505b509250505060405180910390fd5b505050900390565b60008183613ac45760405162461bcd60e51b8152602060048201818152835160248401528351909283926044909101919085019080838360008315613a32578181015183820152602001613a1a565b506000838581613ad057fe5b0495945050505050565b6040518060a0016040528060006001600160a01b031681526020016000815260200160008152602001600081526020016000151581525090565b60405180604001604052806002906020820280368337509192915050565b50600081556001016000905556fea2646970667358221220969c2e0c086d9cb96f27bb51cc8d46315f5a9a32e3d57ec0a731b7328e50c32d64736f6c634300060a0033",
      "opcodes": "PUSH1 0x80 PUSH1 0x40 MSTORE CALLVALUE DUP1 ISZERO PUSH2 0x10 JUMPI PUSH1 0x0 DUP1 REVERT JUMPDEST POP PUSH2 0x3B76 DUP1 PUSH2 0x20 PUSH1 0x0 CODECOPY PUSH1 0x0 RETURN INVALID PUSH1 0x80 PUSH1 0x40 MSTORE CALLVALUE DUP1 ISZERO PUSH2 0x10 JUMPI PUSH1 0x0 DUP1 REVERT JUMPDEST POP PUSH1 0x4 CALLDATASIZE LT PUSH2 0x406 JUMPI PUSH1 0x0 CALLDATALOAD PUSH1 0xE0 SHR DUP1 PUSH4 0x80749656 GT PUSH2 0x21A JUMPI DUP1 PUSH4 0xCD0F7A45 GT PUSH2 0x135 JUMPI DUP1 PUSH4 0xEC38E855 GT PUSH2 0xC8 JUMPI DUP1 PUSH4 0xF3A27963 GT PUSH2 0x97 JUMPI DUP1 PUSH4 0xF966F191 GT PUSH2 0x7C JUMPI DUP1 PUSH4 0xF966F191 EQ PUSH2 0xA11 JUMPI DUP1 PUSH4 0xFC0C546A EQ PUSH2 0xA19 JUMPI DUP1 PUSH4 0xFC46221D EQ PUSH2 0xA21 JUMPI PUSH2 0x406 JUMP JUMPDEST DUP1 PUSH4 0xF3A27963 EQ PUSH2 0xA01 JUMPI DUP1 PUSH4 0xF3E2AA83 EQ PUSH2 0xA09 JUMPI PUSH2 0x406 JUMP JUMPDEST DUP1 PUSH4 0xEC38E855 EQ PUSH2 0x977 JUMPI DUP1 PUSH4 0xED62B4D6 EQ PUSH2 0x9CB JUMPI DUP1 PUSH4 0xF11DB77F EQ PUSH2 0x9D3 JUMPI DUP1 PUSH4 0xF2FDE38B EQ PUSH2 0x9DB JUMPI PUSH2 0x406 JUMP JUMPDEST DUP1 PUSH4 0xDC9DA8CB GT PUSH2 0x104 JUMPI DUP1 PUSH4 0xDC9DA8CB EQ PUSH2 0x942 JUMPI DUP1 PUSH4 0xE30C3978 EQ PUSH2 0x94A JUMPI DUP1 PUSH4 0xE4E2BFE4 EQ PUSH2 0x952 JUMPI DUP1 PUSH4 0xE653AAB5 EQ PUSH2 0x96F JUMPI PUSH2 0x406 JUMP JUMPDEST DUP1 PUSH4 0xCD0F7A45 EQ PUSH2 0x8DE JUMPI DUP1 PUSH4 0xD01DD6D2 EQ PUSH2 0x904 JUMPI DUP1 PUSH4 0xD0D2D110 EQ PUSH2 0x932 JUMPI DUP1 PUSH4 0xD5FE955F EQ PUSH2 0x93A JUMPI PUSH2 0x406 JUMP JUMPDEST DUP1 PUSH4 0xA22CBA6E GT PUSH2 0x1AD JUMPI DUP1 PUSH4 0xAB15F723 GT PUSH2 0x17C JUMPI DUP1 PUSH4 0xAB15F723 EQ PUSH2 0x898 JUMPI DUP1 PUSH4 0xAE11EA9B EQ PUSH2 0x8A0 JUMPI DUP1 PUSH4 0xC37E2155 EQ PUSH2 0x8CE JUMPI DUP1 PUSH4 0xCC7E492E EQ PUSH2 0x8D6 JUMPI PUSH2 0x406 JUMP JUMPDEST DUP1 PUSH4 0xA22CBA6E EQ PUSH2 0x827 JUMPI DUP1 PUSH4 0xA415965C EQ PUSH2 0x844 JUMPI DUP1 PUSH4 0xA6AA4379 EQ PUSH2 0x84C JUMPI DUP1 PUSH4 0xA91EE0DC EQ PUSH2 0x872 JUMPI PUSH2 0x406 JUMP JUMPDEST DUP1 PUSH4 0x89D9B059 GT PUSH2 0x1E9 JUMPI DUP1 PUSH4 0x89D9B059 EQ PUSH2 0x7D4 JUMPI DUP1 PUSH4 0x8DA5CB5B EQ PUSH2 0x7DC JUMPI DUP1 PUSH4 0x8E3AF93F EQ PUSH2 0x7E4 JUMPI DUP1 PUSH4 0x9A6A30A4 EQ PUSH2 0x801 JUMPI PUSH2 0x406 JUMP JUMPDEST DUP1 PUSH4 0x80749656 EQ PUSH2 0x74A JUMPI DUP1 PUSH4 0x819B411C EQ PUSH2 0x778 JUMPI DUP1 PUSH4 0x87FB79BE EQ PUSH2 0x79E JUMPI DUP1 PUSH4 0x88EE39CC EQ PUSH2 0x7A6 JUMPI PUSH2 0x406 JUMP JUMPDEST DUP1 PUSH4 0x34437B16 GT PUSH2 0x325 JUMPI DUP1 PUSH4 0x6C38D4E4 GT PUSH2 0x2B8 JUMPI DUP1 PUSH4 0x789083E6 GT PUSH2 0x287 JUMPI DUP1 PUSH4 0x7B103999 GT PUSH2 0x26C JUMPI DUP1 PUSH4 0x7B103999 EQ PUSH2 0x71D JUMPI DUP1 PUSH4 0x7E4831D3 EQ PUSH2 0x725 JUMPI DUP1 PUSH4 0x7EF7CE92 EQ PUSH2 0x72D JUMPI PUSH2 0x406 JUMP JUMPDEST DUP1 PUSH4 0x789083E6 EQ PUSH2 0x6EF JUMPI DUP1 PUSH4 0x79CA5D4C EQ PUSH2 0x6F7 JUMPI PUSH2 0x406 JUMP JUMPDEST DUP1 PUSH4 0x6C38D4E4 EQ PUSH2 0x675 JUMPI DUP1 PUSH4 0x72DF02A7 EQ PUSH2 0x692 JUMPI DUP1 PUSH4 0x74C16B23 EQ PUSH2 0x6BB JUMPI DUP1 PUSH4 0x76F2A59A EQ PUSH2 0x6C3 JUMPI PUSH2 0x406 JUMP JUMPDEST DUP1 PUSH4 0x4FE5D431 GT PUSH2 0x2F4 JUMPI DUP1 PUSH4 0x4FE5D431 EQ PUSH2 0x600 JUMPI DUP1 PUSH4 0x52006050 EQ PUSH2 0x626 JUMPI DUP1 PUSH4 0x5E5AE1FE EQ PUSH2 0x649 JUMPI DUP1 PUSH4 0x69EBF34E EQ PUSH2 0x651 JUMPI PUSH2 0x406 JUMP JUMPDEST DUP1 PUSH4 0x34437B16 EQ PUSH2 0x5A1 JUMPI DUP1 PUSH4 0x39069D8C EQ PUSH2 0x5A9 JUMPI DUP1 PUSH4 0x3CB5BC74 EQ PUSH2 0x5CF JUMPI DUP1 PUSH4 0x4E71E0C8 EQ PUSH2 0x5F8 JUMPI PUSH2 0x406 JUMP JUMPDEST DUP1 PUSH4 0x29DEA3A1 GT PUSH2 0x39D JUMPI DUP1 PUSH4 0x2E70BD4F GT PUSH2 0x36C JUMPI DUP1 PUSH4 0x2E70BD4F EQ PUSH2 0x548 JUMPI DUP1 PUSH4 0x3134FE9C EQ PUSH2 0x550 JUMPI DUP1 PUSH4 0x31A02BCE EQ PUSH2 0x558 JUMPI DUP1 PUSH4 0x31BAC434 EQ PUSH2 0x584 JUMPI PUSH2 0x406 JUMP JUMPDEST DUP1 PUSH4 0x29DEA3A1 EQ PUSH2 0x50D JUMPI DUP1 PUSH4 0x2BBDB18A EQ PUSH2 0x515 JUMPI DUP1 PUSH4 0x2C349627 EQ PUSH2 0x538 JUMPI DUP1 PUSH4 0x2C9EBB5D EQ PUSH2 0x540 JUMPI PUSH2 0x406 JUMP JUMPDEST DUP1 PUSH4 0x15D33838 GT PUSH2 0x3D9 JUMPI DUP1 PUSH4 0x15D33838 EQ PUSH2 0x4A7 JUMPI DUP1 PUSH4 0x1D42953A EQ PUSH2 0x4C1 JUMPI DUP1 PUSH4 0x1D4E135B EQ PUSH2 0x4C9 JUMPI DUP1 PUSH4 0x1E38CDB2 EQ PUSH2 0x4E7 JUMPI PUSH2 0x406 JUMP JUMPDEST DUP1 PUSH4 0x581345E EQ PUSH2 0x40B JUMPI DUP1 PUSH4 0xE536FF4 EQ PUSH2 0x433 JUMPI DUP1 PUSH4 0x144FA6D7 EQ PUSH2 0x465 JUMPI DUP1 PUSH4 0x158EF93E EQ PUSH2 0x48B JUMPI JUMPDEST PUSH1 0x0 DUP1 REVERT JUMPDEST PUSH2 0x431 PUSH1 0x4 DUP1 CALLDATASIZE SUB PUSH1 0x20 DUP2 LT ISZERO PUSH2 0x421 JUMPI PUSH1 0x0 DUP1 REVERT JUMPDEST POP CALLDATALOAD PUSH1 0x1 PUSH1 0x1 PUSH1 0xA0 SHL SUB AND PUSH2 0xA29 JUMP JUMPDEST STOP JUMPDEST PUSH2 0x431 PUSH1 0x4 DUP1 CALLDATASIZE SUB PUSH1 0x60 DUP2 LT ISZERO PUSH2 0x449 JUMPI PUSH1 0x0 DUP1 REVERT JUMPDEST POP DUP1 CALLDATALOAD SWAP1 PUSH1 0x1 PUSH1 0x1 PUSH1 0xA0 SHL SUB PUSH1 0x20 DUP3 ADD CALLDATALOAD AND SWAP1 PUSH1 0x40 ADD CALLDATALOAD PUSH2 0xAE4 JUMP JUMPDEST PUSH2 0x431 PUSH1 0x4 DUP1 CALLDATASIZE SUB PUSH1 0x20 DUP2 LT ISZERO PUSH2 0x47B JUMPI PUSH1 0x0 DUP1 REVERT JUMPDEST POP CALLDATALOAD PUSH1 0x1 PUSH1 0x1 PUSH1 0xA0 SHL SUB AND PUSH2 0xF27 JUMP JUMPDEST PUSH2 0x493 PUSH2 0xFF2 JUMP JUMPDEST PUSH1 0x40 DUP1 MLOAD SWAP2 ISZERO ISZERO DUP3 MSTORE MLOAD SWAP1 DUP2 SWAP1 SUB PUSH1 0x20 ADD SWAP1 RETURN JUMPDEST PUSH2 0x4AF PUSH2 0x1013 JUMP JUMPDEST PUSH1 0x40 DUP1 MLOAD SWAP2 DUP3 MSTORE MLOAD SWAP1 DUP2 SWAP1 SUB PUSH1 0x20 ADD SWAP1 RETURN JUMPDEST PUSH2 0x4AF PUSH2 0x1037 JUMP JUMPDEST PUSH2 0x4D1 PUSH2 0x105B JUMP JUMPDEST PUSH1 0x40 DUP1 MLOAD PUSH1 0xFF SWAP1 SWAP3 AND DUP3 MSTORE MLOAD SWAP1 DUP2 SWAP1 SUB PUSH1 0x20 ADD SWAP1 RETURN JUMPDEST PUSH2 0x431 PUSH1 0x4 DUP1 CALLDATASIZE SUB PUSH1 0x20 DUP2 LT ISZERO PUSH2 0x4FD JUMPI PUSH1 0x0 DUP1 REVERT JUMPDEST POP CALLDATALOAD PUSH1 0x1 PUSH1 0x1 PUSH1 0xA0 SHL SUB AND PUSH2 0x1060 JUMP JUMPDEST PUSH2 0x4AF PUSH2 0x1141 JUMP JUMPDEST PUSH2 0x493 PUSH1 0x4 DUP1 CALLDATASIZE SUB PUSH1 0x40 DUP2 LT ISZERO PUSH2 0x52B JUMPI PUSH1 0x0 DUP1 REVERT JUMPDEST POP DUP1 CALLDATALOAD SWAP1 PUSH1 0x20 ADD CALLDATALOAD PUSH2 0x1147 JUMP JUMPDEST PUSH2 0x431 PUSH2 0x11C0 JUMP JUMPDEST PUSH2 0x4AF PUSH2 0x12AC JUMP JUMPDEST PUSH2 0x4AF PUSH2 0x12B2 JUMP JUMPDEST PUSH2 0x4AF PUSH2 0x12B8 JUMP JUMPDEST PUSH2 0x431 PUSH1 0x4 DUP1 CALLDATASIZE SUB PUSH1 0x40 DUP2 LT ISZERO PUSH2 0x56E JUMPI PUSH1 0x0 DUP1 REVERT JUMPDEST POP PUSH1 0x1 PUSH1 0x1 PUSH1 0xA0 SHL SUB DUP2 CALLDATALOAD AND SWAP1 PUSH1 0x20 ADD CALLDATALOAD PUSH2 0x12BE JUMP JUMPDEST PUSH2 0x431 PUSH1 0x4 DUP1 CALLDATASIZE SUB PUSH1 0x20 DUP2 LT ISZERO PUSH2 0x59A JUMPI PUSH1 0x0 DUP1 REVERT JUMPDEST POP CALLDATALOAD PUSH2 0x155D JUMP JUMPDEST PUSH2 0x4AF PUSH2 0x164C JUMP JUMPDEST PUSH2 0x431 PUSH1 0x4 DUP1 CALLDATASIZE SUB PUSH1 0x20 DUP2 LT ISZERO PUSH2 0x5BF JUMPI PUSH1 0x0 DUP1 REVERT JUMPDEST POP CALLDATALOAD PUSH1 0x1 PUSH1 0x1 PUSH1 0xA0 SHL SUB AND PUSH2 0x1652 JUMP JUMPDEST PUSH2 0x431 PUSH1 0x4 DUP1 CALLDATASIZE SUB PUSH1 0x60 DUP2 LT ISZERO PUSH2 0x5E5 JUMPI PUSH1 0x0 DUP1 REVERT JUMPDEST POP DUP1 CALLDATALOAD SWAP1 PUSH1 0x20 DUP2 ADD CALLDATALOAD SWAP1 PUSH1 0x40 ADD CALLDATALOAD PUSH2 0x16EB JUMP JUMPDEST PUSH2 0x431 PUSH2 0x17EA JUMP JUMPDEST PUSH2 0x431 PUSH1 0x4 DUP1 CALLDATASIZE SUB PUSH1 0x20 DUP2 LT ISZERO PUSH2 0x616 JUMPI PUSH1 0x0 DUP1 REVERT JUMPDEST POP CALLDATALOAD PUSH1 0x1 PUSH1 0x1 PUSH1 0xA0 SHL SUB AND PUSH2 0x187D JUMP JUMPDEST PUSH2 0x431 PUSH1 0x4 DUP1 CALLDATASIZE SUB PUSH1 0x40 DUP2 LT ISZERO PUSH2 0x63C JUMPI PUSH1 0x0 DUP1 REVERT JUMPDEST POP DUP1 CALLDATALOAD SWAP1 PUSH1 0x20 ADD CALLDATALOAD PUSH2 0x1943 JUMP JUMPDEST PUSH2 0x431 PUSH2 0x1A0F JUMP JUMPDEST PUSH2 0x659 PUSH2 0x1A74 JUMP JUMPDEST PUSH1 0x40 DUP1 MLOAD PUSH1 0x1 PUSH1 0x1 PUSH1 0xA0 SHL SUB SWAP1 SWAP3 AND DUP3 MSTORE MLOAD SWAP1 DUP2 SWAP1 SUB PUSH1 0x20 ADD SWAP1 RETURN JUMPDEST PUSH2 0x431 PUSH1 0x4 DUP1 CALLDATASIZE SUB PUSH1 0x20 DUP2 LT ISZERO PUSH2 0x68B JUMPI PUSH1 0x0 DUP1 REVERT JUMPDEST POP CALLDATALOAD PUSH2 0x1A83 JUMP JUMPDEST PUSH2 0x431 PUSH1 0x4 DUP1 CALLDATASIZE SUB PUSH1 0x60 DUP2 LT ISZERO PUSH2 0x6A8 JUMPI PUSH1 0x0 DUP1 REVERT JUMPDEST POP DUP1 CALLDATALOAD SWAP1 PUSH1 0x20 DUP2 ADD CALLDATALOAD SWAP1 PUSH1 0x40 ADD CALLDATALOAD PUSH2 0x1C30 JUMP JUMPDEST PUSH2 0x659 PUSH2 0x1CFC JUMP JUMPDEST PUSH2 0x431 PUSH1 0x4 DUP1 CALLDATASIZE SUB PUSH1 0x40 DUP2 LT ISZERO PUSH2 0x6D9 JUMPI PUSH1 0x0 DUP1 REVERT JUMPDEST POP PUSH1 0x1 PUSH1 0x1 PUSH1 0xA0 SHL SUB DUP2 CALLDATALOAD AND SWAP1 PUSH1 0x20 ADD CALLDATALOAD PUSH2 0x1D0B JUMP JUMPDEST PUSH2 0x4AF PUSH2 0x1F53 JUMP JUMPDEST PUSH2 0x431 PUSH1 0x4 DUP1 CALLDATASIZE SUB PUSH1 0x20 DUP2 LT ISZERO PUSH2 0x70D JUMPI PUSH1 0x0 DUP1 REVERT JUMPDEST POP CALLDATALOAD PUSH1 0x1 PUSH1 0x1 PUSH1 0xA0 SHL SUB AND PUSH2 0x1F59 JUMP JUMPDEST PUSH2 0x659 PUSH2 0x2028 JUMP JUMPDEST PUSH2 0x493 PUSH2 0x2037 JUMP JUMPDEST PUSH2 0x431 PUSH1 0x4 DUP1 CALLDATASIZE SUB PUSH1 0x20 DUP2 LT ISZERO PUSH2 0x743 JUMPI PUSH1 0x0 DUP1 REVERT JUMPDEST POP CALLDATALOAD PUSH2 0x2040 JUMP JUMPDEST PUSH2 0x431 PUSH1 0x4 DUP1 CALLDATASIZE SUB PUSH1 0x40 DUP2 LT ISZERO PUSH2 0x760 JUMPI PUSH1 0x0 DUP1 REVERT JUMPDEST POP PUSH1 0x1 PUSH1 0x1 PUSH1 0xA0 SHL SUB DUP2 CALLDATALOAD AND SWAP1 PUSH1 0x20 ADD CALLDATALOAD ISZERO ISZERO PUSH2 0x2171 JUMP JUMPDEST PUSH2 0x431 PUSH1 0x4 DUP1 CALLDATASIZE SUB PUSH1 0x20 DUP2 LT ISZERO PUSH2 0x78E JUMPI PUSH1 0x0 DUP1 REVERT JUMPDEST POP CALLDATALOAD PUSH1 0x1 PUSH1 0x1 PUSH1 0xA0 SHL SUB AND PUSH2 0x22B5 JUMP JUMPDEST PUSH2 0x4AF PUSH2 0x234E JUMP JUMPDEST PUSH2 0x431 PUSH1 0x4 DUP1 CALLDATASIZE SUB PUSH1 0x40 DUP2 LT ISZERO PUSH2 0x7BC JUMPI PUSH1 0x0 DUP1 REVERT JUMPDEST POP PUSH1 0x1 PUSH1 0x1 PUSH1 0xA0 SHL SUB DUP2 CALLDATALOAD DUP2 AND SWAP2 PUSH1 0x20 ADD CALLDATALOAD AND PUSH2 0x2354 JUMP JUMPDEST PUSH2 0x431 PUSH2 0x24DB JUMP JUMPDEST PUSH2 0x659 PUSH2 0x276D JUMP JUMPDEST PUSH2 0x431 PUSH1 0x4 DUP1 CALLDATASIZE SUB PUSH1 0x20 DUP2 LT ISZERO PUSH2 0x7FA JUMPI PUSH1 0x0 DUP1 REVERT JUMPDEST POP CALLDATALOAD PUSH2 0x277C JUMP JUMPDEST PUSH2 0x431 PUSH1 0x4 DUP1 CALLDATASIZE SUB PUSH1 0x20 DUP2 LT ISZERO PUSH2 0x817 JUMPI PUSH1 0x0 DUP1 REVERT JUMPDEST POP CALLDATALOAD PUSH1 0x1 PUSH1 0x1 PUSH1 0xA0 SHL SUB AND PUSH2 0x29D6 JUMP JUMPDEST PUSH2 0x659 PUSH1 0x4 DUP1 CALLDATASIZE SUB PUSH1 0x20 DUP2 LT ISZERO PUSH2 0x83D JUMPI PUSH1 0x0 DUP1 REVERT JUMPDEST POP CALLDATALOAD PUSH2 0x2A6E JUMP JUMPDEST PUSH2 0x431 PUSH2 0x2A8B JUMP JUMPDEST PUSH2 0x431 PUSH1 0x4 DUP1 CALLDATASIZE SUB PUSH1 0x20 DUP2 LT ISZERO PUSH2 0x862 JUMPI PUSH1 0x0 DUP1 REVERT JUMPDEST POP CALLDATALOAD PUSH1 0x1 PUSH1 0x1 PUSH1 0xA0 SHL SUB AND PUSH2 0x2B1B JUMP JUMPDEST PUSH2 0x431 PUSH1 0x4 DUP1 CALLDATASIZE SUB PUSH1 0x20 DUP2 LT ISZERO PUSH2 0x888 JUMPI PUSH1 0x0 DUP1 REVERT JUMPDEST POP CALLDATALOAD PUSH1 0x1 PUSH1 0x1 PUSH1 0xA0 SHL SUB AND PUSH2 0x2C73 JUMP JUMPDEST PUSH2 0x431 PUSH2 0x2D3A JUMP JUMPDEST PUSH2 0x431 PUSH1 0x4 DUP1 CALLDATASIZE SUB PUSH1 0x40 DUP2 LT ISZERO PUSH2 0x8B6 JUMPI PUSH1 0x0 DUP1 REVERT JUMPDEST POP PUSH1 0x1 PUSH1 0x1 PUSH1 0xA0 SHL SUB DUP2 CALLDATALOAD DUP2 AND SWAP2 PUSH1 0x20 ADD CALLDATALOAD AND PUSH2 0x2EB8 JUMP JUMPDEST PUSH2 0x4AF PUSH2 0x2FC3 JUMP JUMPDEST PUSH2 0x431 PUSH2 0x2FC9 JUMP JUMPDEST PUSH2 0x431 PUSH1 0x4 DUP1 CALLDATASIZE SUB PUSH1 0x20 DUP2 LT ISZERO PUSH2 0x8F4 JUMPI PUSH1 0x0 DUP1 REVERT JUMPDEST POP CALLDATALOAD PUSH1 0x1 PUSH1 0x1 PUSH1 0xA0 SHL SUB AND PUSH2 0x3142 JUMP JUMPDEST PUSH2 0x431 PUSH1 0x4 DUP1 CALLDATASIZE SUB PUSH1 0x40 DUP2 LT ISZERO PUSH2 0x91A JUMPI PUSH1 0x0 DUP1 REVERT JUMPDEST POP PUSH1 0x1 PUSH1 0x1 PUSH1 0xA0 SHL SUB DUP2 CALLDATALOAD AND SWAP1 PUSH1 0x20 ADD CALLDATALOAD ISZERO ISZERO PUSH2 0x3270 JUMP JUMPDEST PUSH2 0x4AF PUSH2 0x3353 JUMP JUMPDEST PUSH2 0x659 PUSH2 0x3359 JUMP JUMPDEST PUSH2 0x431 PUSH2 0x3368 JUMP JUMPDEST PUSH2 0x659 PUSH2 0x3417 JUMP JUMPDEST PUSH2 0x493 PUSH1 0x4 DUP1 CALLDATASIZE SUB PUSH1 0x20 DUP2 LT ISZERO PUSH2 0x968 JUMPI PUSH1 0x0 DUP1 REVERT JUMPDEST POP CALLDATALOAD PUSH2 0x3426 JUMP JUMPDEST PUSH2 0x4AF PUSH2 0x35B3 JUMP JUMPDEST PUSH2 0x994 PUSH1 0x4 DUP1 CALLDATASIZE SUB PUSH1 0x20 DUP2 LT ISZERO PUSH2 0x98D JUMPI PUSH1 0x0 DUP1 REVERT JUMPDEST POP CALLDATALOAD PUSH2 0x35B9 JUMP JUMPDEST PUSH1 0x40 DUP1 MLOAD PUSH1 0x1 PUSH1 0x1 PUSH1 0xA0 SHL SUB SWAP1 SWAP7 AND DUP7 MSTORE PUSH1 0x20 DUP7 ADD SWAP5 SWAP1 SWAP5 MSTORE DUP5 DUP5 ADD SWAP3 SWAP1 SWAP3 MSTORE PUSH1 0x60 DUP5 ADD MSTORE ISZERO ISZERO PUSH1 0x80 DUP4 ADD MSTORE MLOAD SWAP1 DUP2 SWAP1 SUB PUSH1 0xA0 ADD SWAP1 RETURN JUMPDEST PUSH2 0x4D1 PUSH2 0x3604 JUMP JUMPDEST PUSH2 0x659 PUSH2 0x3609 JUMP JUMPDEST PUSH2 0x431 PUSH1 0x4 DUP1 CALLDATASIZE SUB PUSH1 0x20 DUP2 LT ISZERO PUSH2 0x9F1 JUMPI PUSH1 0x0 DUP1 REVERT JUMPDEST POP CALLDATALOAD PUSH1 0x1 PUSH1 0x1 PUSH1 0xA0 SHL SUB AND PUSH2 0x3621 JUMP JUMPDEST PUSH2 0x431 PUSH2 0x36EE JUMP JUMPDEST PUSH2 0x431 PUSH2 0x37AB JUMP JUMPDEST PUSH2 0x4AF PUSH2 0x3872 JUMP JUMPDEST PUSH2 0x659 PUSH2 0x3896 JUMP JUMPDEST PUSH2 0x4AF PUSH2 0x38A5 JUMP JUMPDEST PUSH1 0x0 SLOAD PUSH1 0x1 PUSH1 0x1 PUSH1 0xA0 SHL SUB AND CALLER EQ PUSH2 0xA88 JUMPI PUSH1 0x40 DUP1 MLOAD PUSH3 0x461BCD PUSH1 0xE5 SHL DUP2 MSTORE PUSH1 0x20 PUSH1 0x4 DUP3 ADD MSTORE PUSH1 0xA PUSH1 0x24 DUP3 ADD MSTORE PUSH32 0x6F6E6C79204F776E657200000000000000000000000000000000000000000000 PUSH1 0x44 DUP3 ADD MSTORE SWAP1 MLOAD SWAP1 DUP2 SWAP1 SUB PUSH1 0x64 ADD SWAP1 REVERT JUMPDEST PUSH1 0x0 DUP2 SWAP1 POP DUP1 PUSH1 0x1 PUSH1 0x1 PUSH1 0xA0 SHL SUB AND PUSH4 0x4E71E0C8 PUSH1 0x40 MLOAD DUP2 PUSH4 0xFFFFFFFF AND PUSH1 0xE0 SHL DUP2 MSTORE PUSH1 0x4 ADD PUSH1 0x0 PUSH1 0x40 MLOAD DUP1 DUP4 SUB DUP2 PUSH1 0x0 DUP8 DUP1 EXTCODESIZE ISZERO DUP1 ISZERO PUSH2 0xAC8 JUMPI PUSH1 0x0 DUP1 REVERT JUMPDEST POP GAS CALL ISZERO DUP1 ISZERO PUSH2 0xADC JUMPI RETURNDATASIZE PUSH1 0x0 DUP1 RETURNDATACOPY RETURNDATASIZE PUSH1 0x0 REVERT JUMPDEST POP POP POP POP POP POP JUMP JUMPDEST PUSH1 0x0 SLOAD PUSH1 0x1 PUSH1 0x1 PUSH1 0xA0 SHL SUB AND CALLER EQ PUSH2 0xB4E JUMPI PUSH1 0xD SLOAD PUSH1 0xFF AND ISZERO PUSH2 0xB4E JUMPI PUSH1 0x40 DUP1 MLOAD PUSH3 0x461BCD PUSH1 0xE5 SHL DUP2 MSTORE PUSH1 0x20 PUSH1 0x4 DUP3 ADD MSTORE PUSH1 0x11 PUSH1 0x24 DUP3 ADD MSTORE PUSH32 0x6D696E74696E6720697320706175736564000000000000000000000000000000 PUSH1 0x44 DUP3 ADD MSTORE SWAP1 MLOAD SWAP1 DUP2 SWAP1 SUB PUSH1 0x64 ADD SWAP1 REVERT JUMPDEST PUSH1 0x12 SLOAD PUSH1 0x40 DUP1 MLOAD PUSH32 0x7338C25C00000000000000000000000000000000000000000000000000000000 DUP2 MSTORE CALLER PUSH1 0x4 DUP3 ADD MSTORE PUSH32 0x6973545553444D696E7452617469666965720000000000000000000000000000 PUSH1 0x24 DUP3 ADD MSTORE SWAP1 MLOAD PUSH1 0x1 PUSH1 0x1 PUSH1 0xA0 SHL SUB SWAP1 SWAP3 AND SWAP2 PUSH4 0x7338C25C SWAP2 PUSH1 0x44 DUP1 DUP3 ADD SWAP3 PUSH1 0x20 SWAP3 SWAP1 SWAP2 SWAP1 DUP3 SWAP1 SUB ADD DUP2 DUP7 DUP1 EXTCODESIZE ISZERO DUP1 ISZERO PUSH2 0xBD8 JUMPI PUSH1 0x0 DUP1 REVERT JUMPDEST POP GAS STATICCALL ISZERO DUP1 ISZERO PUSH2 0xBEC JUMPI RETURNDATASIZE PUSH1 0x0 DUP1 RETURNDATACOPY RETURNDATASIZE PUSH1 0x0 REVERT JUMPDEST POP POP POP POP PUSH1 0x40 MLOAD RETURNDATASIZE PUSH1 0x20 DUP2 LT ISZERO PUSH2 0xC02 JUMPI PUSH1 0x0 DUP1 REVERT JUMPDEST POP MLOAD DUP1 PUSH2 0xC19 JUMPI POP PUSH1 0x0 SLOAD PUSH1 0x1 PUSH1 0x1 PUSH1 0xA0 SHL SUB AND CALLER EQ JUMPDEST PUSH2 0xC6A JUMPI PUSH1 0x40 DUP1 MLOAD PUSH3 0x461BCD PUSH1 0xE5 SHL DUP2 MSTORE PUSH1 0x20 PUSH1 0x4 DUP3 ADD MSTORE PUSH1 0x19 PUSH1 0x24 DUP3 ADD MSTORE PUSH32 0x6D757374206265207261746966696572206F72206F776E657200000000000000 PUSH1 0x44 DUP3 ADD MSTORE SWAP1 MLOAD SWAP1 DUP2 SWAP1 SUB PUSH1 0x64 ADD SWAP1 REVERT JUMPDEST PUSH2 0xC72 PUSH2 0x3ADA JUMP JUMPDEST PUSH1 0x10 DUP5 DUP2 SLOAD DUP2 LT PUSH2 0xC7F JUMPI INVALID JUMPDEST PUSH1 0x0 SWAP2 DUP3 MSTORE PUSH1 0x20 SWAP2 DUP3 SWAP1 KECCAK256 PUSH1 0x40 DUP1 MLOAD PUSH1 0xA0 DUP2 ADD DUP3 MSTORE PUSH1 0x6 SWAP1 SWAP4 MUL SWAP1 SWAP2 ADD DUP1 SLOAD PUSH1 0x1 PUSH1 0x1 PUSH1 0xA0 SHL SUB SWAP1 DUP2 AND DUP1 DUP6 MSTORE PUSH1 0x1 DUP4 ADD SLOAD SWAP6 DUP6 ADD SWAP6 SWAP1 SWAP6 MSTORE PUSH1 0x2 DUP3 ADD SLOAD SWAP3 DUP5 ADD SWAP3 SWAP1 SWAP3 MSTORE PUSH1 0x3 DUP2 ADD SLOAD PUSH1 0x60 DUP5 ADD MSTORE PUSH1 0x4 ADD SLOAD PUSH1 0xFF AND ISZERO ISZERO PUSH1 0x80 DUP4 ADD MSTORE SWAP1 SWAP3 POP DUP5 AND EQ PUSH2 0xD33 JUMPI PUSH1 0x40 DUP1 MLOAD PUSH3 0x461BCD PUSH1 0xE5 SHL DUP2 MSTORE PUSH1 0x20 PUSH1 0x4 DUP3 ADD MSTORE PUSH1 0x19 PUSH1 0x24 DUP3 ADD MSTORE PUSH32 0x746F206164647265737320646F6573206E6F74206D6174636800000000000000 PUSH1 0x44 DUP3 ADD MSTORE SWAP1 MLOAD SWAP1 DUP2 SWAP1 SUB PUSH1 0x64 ADD SWAP1 REVERT JUMPDEST DUP2 DUP2 PUSH1 0x20 ADD MLOAD EQ PUSH2 0xD8B JUMPI PUSH1 0x40 DUP1 MLOAD PUSH3 0x461BCD PUSH1 0xE5 SHL DUP2 MSTORE PUSH1 0x20 PUSH1 0x4 DUP3 ADD MSTORE PUSH1 0x15 PUSH1 0x24 DUP3 ADD MSTORE PUSH32 0x616D6F756E7420646F6573206E6F74206D617463680000000000000000000000 PUSH1 0x44 DUP3 ADD MSTORE SWAP1 MLOAD SWAP1 DUP2 SWAP1 SUB PUSH1 0x64 ADD SWAP1 REVERT JUMPDEST PUSH1 0x10 DUP5 DUP2 SLOAD DUP2 LT PUSH2 0xD98 JUMPI INVALID JUMPDEST PUSH1 0x0 SWAP2 DUP3 MSTORE PUSH1 0x20 DUP1 DUP4 KECCAK256 CALLER DUP5 MSTORE PUSH1 0x5 PUSH1 0x6 SWAP1 SWAP4 MUL ADD SWAP2 SWAP1 SWAP2 ADD SWAP1 MSTORE PUSH1 0x40 SWAP1 KECCAK256 SLOAD PUSH1 0xFF AND ISZERO PUSH2 0xE0D JUMPI PUSH1 0x40 DUP1 MLOAD PUSH3 0x461BCD PUSH1 0xE5 SHL DUP2 MSTORE PUSH1 0x20 PUSH1 0x4 DUP3 ADD MSTORE PUSH1 0x10 PUSH1 0x24 DUP3 ADD MSTORE PUSH32 0x616C726561647920617070726F76656400000000000000000000000000000000 PUSH1 0x44 DUP3 ADD MSTORE SWAP1 MLOAD SWAP1 DUP2 SWAP1 SUB PUSH1 0x64 ADD SWAP1 REVERT JUMPDEST PUSH1 0x1 PUSH1 0x10 DUP6 DUP2 SLOAD DUP2 LT PUSH2 0xE1C JUMPI INVALID JUMPDEST PUSH1 0x0 SWAP2 DUP3 MSTORE PUSH1 0x20 DUP1 DUP4 KECCAK256 CALLER DUP5 MSTORE PUSH1 0x6 SWAP3 SWAP1 SWAP3 MUL SWAP1 SWAP2 ADD PUSH1 0x5 ADD SWAP1 MSTORE PUSH1 0x40 SWAP1 KECCAK256 DUP1 SLOAD PUSH32 0xFFFFFFFFFFFFFFFFFFFFFFFFFFFFFFFFFFFFFFFFFFFFFFFFFFFFFFFFFFFFFF00 AND SWAP2 ISZERO ISZERO SWAP2 SWAP1 SWAP2 OR SWAP1 SSTORE PUSH1 0x10 DUP1 SLOAD PUSH2 0xE9D SWAP2 PUSH1 0x1 SWAP2 DUP8 SWAP1 DUP2 LT PUSH2 0xE7D JUMPI INVALID JUMPDEST SWAP1 PUSH1 0x0 MSTORE PUSH1 0x20 PUSH1 0x0 KECCAK256 SWAP1 PUSH1 0x6 MUL ADD PUSH1 0x3 ADD SLOAD PUSH2 0x38AB SWAP1 SWAP2 SWAP1 PUSH4 0xFFFFFFFF AND JUMP JUMPDEST PUSH1 0x10 DUP6 DUP2 SLOAD DUP2 LT PUSH2 0xEAA JUMPI INVALID JUMPDEST PUSH1 0x0 SWAP2 DUP3 MSTORE PUSH1 0x20 DUP3 KECCAK256 PUSH1 0x3 PUSH1 0x6 SWAP1 SWAP3 MUL ADD ADD SWAP2 SWAP1 SWAP2 SSTORE PUSH1 0x40 MLOAD CALLER SWAP2 DUP7 SWAP2 PUSH32 0x86CC1A29A55449D1229BB301DA3D61FCD5490843635DF9A79E5A4DF4724773D2 SWAP2 SWAP1 LOG3 PUSH2 0xF13 PUSH1 0x10 DUP6 DUP2 SLOAD DUP2 LT PUSH2 0xEFB JUMPI INVALID JUMPDEST SWAP1 PUSH1 0x0 MSTORE PUSH1 0x20 PUSH1 0x0 KECCAK256 SWAP1 PUSH1 0x6 MUL ADD PUSH1 0x3 ADD SLOAD DUP4 PUSH2 0x1147 JUMP JUMPDEST ISZERO PUSH2 0xF21 JUMPI PUSH2 0xF21 DUP5 PUSH2 0x277C JUMP JUMPDEST POP POP POP POP JUMP JUMPDEST PUSH1 0x0 SLOAD PUSH1 0x1 PUSH1 0x1 PUSH1 0xA0 SHL SUB AND CALLER EQ PUSH2 0xF86 JUMPI PUSH1 0x40 DUP1 MLOAD PUSH3 0x461BCD PUSH1 0xE5 SHL DUP2 MSTORE PUSH1 0x20 PUSH1 0x4 DUP3 ADD MSTORE PUSH1 0xA PUSH1 0x24 DUP3 ADD MSTORE PUSH32 0x6F6E6C79204F776E657200000000000000000000000000000000000000000000 PUSH1 0x44 DUP3 ADD MSTORE SWAP1 MLOAD SWAP1 DUP2 SWAP1 SUB PUSH1 0x64 ADD SWAP1 REVERT JUMPDEST PUSH1 0x11 DUP1 SLOAD PUSH1 0x1 PUSH1 0x1 PUSH1 0xA0 SHL SUB DUP4 AND PUSH32 0xFFFFFFFFFFFFFFFFFFFFFFFF0000000000000000000000000000000000000000 SWAP1 SWAP2 AND DUP2 OR SWAP1 SWAP2 SSTORE PUSH1 0x40 DUP1 MLOAD SWAP2 DUP3 MSTORE MLOAD PUSH32 0xEFC1FD16EA80A922086EE4E995739D59B025C1BCEA6D1F67855747480C83214B SWAP2 DUP2 SWAP1 SUB PUSH1 0x20 ADD SWAP1 LOG1 POP JUMP JUMPDEST PUSH1 0x1 SLOAD PUSH21 0x10000000000000000000000000000000000000000 SWAP1 DIV PUSH1 0xFF AND DUP2 JUMP JUMPDEST PUSH32 0x6973545553444D696E7450617573657273000000000000000000000000000000 DUP2 JUMP JUMPDEST PUSH32 0x6973545553444D696E7452617469666965720000000000000000000000000000 DUP2 JUMP JUMPDEST PUSH1 0x1 DUP2 JUMP JUMPDEST PUSH1 0x0 SLOAD PUSH1 0x1 PUSH1 0x1 PUSH1 0xA0 SHL SUB AND CALLER EQ PUSH2 0x10BF JUMPI PUSH1 0x40 DUP1 MLOAD PUSH3 0x461BCD PUSH1 0xE5 SHL DUP2 MSTORE PUSH1 0x20 PUSH1 0x4 DUP3 ADD MSTORE PUSH1 0xA PUSH1 0x24 DUP3 ADD MSTORE PUSH32 0x6F6E6C79204F776E657200000000000000000000000000000000000000000000 PUSH1 0x44 DUP3 ADD MSTORE SWAP1 MLOAD SWAP1 DUP2 SWAP1 SUB PUSH1 0x64 ADD SWAP1 REVERT JUMPDEST PUSH1 0x11 SLOAD PUSH1 0x40 DUP1 MLOAD PUSH32 0xF1739CAE00000000000000000000000000000000000000000000000000000000 DUP2 MSTORE PUSH1 0x1 PUSH1 0x1 PUSH1 0xA0 SHL SUB DUP5 DUP2 AND PUSH1 0x4 DUP4 ADD MSTORE SWAP2 MLOAD SWAP2 SWAP1 SWAP3 AND SWAP2 PUSH4 0xF1739CAE SWAP2 PUSH1 0x24 DUP1 DUP4 ADD SWAP3 PUSH1 0x0 SWAP3 SWAP2 SWAP1 DUP3 SWAP1 SUB ADD DUP2 DUP4 DUP8 DUP1 EXTCODESIZE ISZERO DUP1 ISZERO PUSH2 0x1126 JUMPI PUSH1 0x0 DUP1 REVERT JUMPDEST POP GAS CALL ISZERO DUP1 ISZERO PUSH2 0x113A JUMPI RETURNDATASIZE PUSH1 0x0 DUP1 RETURNDATACOPY RETURNDATASIZE PUSH1 0x0 REVERT JUMPDEST POP POP POP POP POP JUMP JUMPDEST PUSH1 0x3 SLOAD DUP2 JUMP JUMPDEST PUSH1 0x0 PUSH1 0x9 SLOAD DUP3 GT ISZERO DUP1 ISZERO PUSH2 0x115D JUMPI POP PUSH1 0x3 SLOAD DUP3 GT ISZERO JUMPDEST ISZERO PUSH2 0x1172 JUMPI PUSH1 0x1 DUP4 LT PUSH2 0x1172 JUMPI POP PUSH1 0x1 PUSH2 0x11BA JUMP JUMPDEST PUSH1 0xA SLOAD DUP3 GT ISZERO DUP1 ISZERO PUSH2 0x1186 JUMPI POP PUSH1 0x4 SLOAD DUP3 GT ISZERO JUMPDEST ISZERO PUSH2 0x119B JUMPI PUSH1 0x3 DUP4 LT PUSH2 0x119B JUMPI POP PUSH1 0x1 PUSH2 0x11BA JUMP JUMPDEST PUSH1 0x0 SLOAD PUSH1 0x1 PUSH1 0x1 PUSH1 0xA0 SHL SUB AND CALLER EQ ISZERO PUSH2 0x11B6 JUMPI POP PUSH1 0x1 PUSH2 0x11BA JUMP JUMPDEST POP PUSH1 0x0 JUMPDEST SWAP3 SWAP2 POP POP JUMP JUMPDEST PUSH1 0x0 SLOAD PUSH1 0x1 PUSH1 0x1 PUSH1 0xA0 SHL SUB AND CALLER EQ PUSH2 0x121F JUMPI PUSH1 0x40 DUP1 MLOAD PUSH3 0x461BCD PUSH1 0xE5 SHL DUP2 MSTORE PUSH1 0x20 PUSH1 0x4 DUP3 ADD MSTORE PUSH1 0xA PUSH1 0x24 DUP3 ADD MSTORE PUSH32 0x6F6E6C79204F776E657200000000000000000000000000000000000000000000 PUSH1 0x44 DUP3 ADD MSTORE SWAP1 MLOAD SWAP1 DUP2 SWAP1 SUB PUSH1 0x64 ADD SWAP1 REVERT JUMPDEST PUSH1 0x11 SLOAD PUSH1 0x40 DUP1 MLOAD PUSH32 0x3659CFE600000000000000000000000000000000000000000000000000000000 DUP2 MSTORE PUSH20 0x3C8984DCE8F68FCDEEEAFD9E0ECA3598562ED291 PUSH1 0x4 DUP3 ADD MSTORE SWAP1 MLOAD PUSH1 0x1 PUSH1 0x1 PUSH1 0xA0 SHL SUB SWAP1 SWAP3 AND SWAP2 PUSH4 0x3659CFE6 SWAP2 PUSH1 0x24 DUP1 DUP3 ADD SWAP3 PUSH1 0x0 SWAP3 SWAP1 SWAP2 SWAP1 DUP3 SWAP1 SUB ADD DUP2 DUP4 DUP8 DUP1 EXTCODESIZE ISZERO DUP1 ISZERO PUSH2 0x1298 JUMPI PUSH1 0x0 DUP1 REVERT JUMPDEST POP GAS CALL ISZERO DUP1 ISZERO PUSH2 0xF21 JUMPI RETURNDATASIZE PUSH1 0x0 DUP1 RETURNDATACOPY RETURNDATASIZE PUSH1 0x0 REVERT JUMPDEST PUSH1 0x4 SLOAD DUP2 JUMP JUMPDEST PUSH1 0x10 SLOAD SWAP1 JUMP JUMPDEST PUSH1 0x9 SLOAD DUP2 JUMP JUMPDEST PUSH1 0x0 SLOAD PUSH1 0x1 PUSH1 0x1 PUSH1 0xA0 SHL SUB AND CALLER EQ PUSH2 0x1328 JUMPI PUSH1 0xD SLOAD PUSH1 0xFF AND ISZERO PUSH2 0x1328 JUMPI PUSH1 0x40 DUP1 MLOAD PUSH3 0x461BCD PUSH1 0xE5 SHL DUP2 MSTORE PUSH1 0x20 PUSH1 0x4 DUP3 ADD MSTORE PUSH1 0x11 PUSH1 0x24 DUP3 ADD MSTORE PUSH32 0x6D696E74696E6720697320706175736564000000000000000000000000000000 PUSH1 0x44 DUP3 ADD MSTORE SWAP1 MLOAD SWAP1 DUP2 SWAP1 SUB PUSH1 0x64 ADD SWAP1 REVERT JUMPDEST PUSH1 0xF SLOAD PUSH1 0x1 PUSH1 0x1 PUSH1 0xA0 SHL SUB AND CALLER EQ DUP1 PUSH2 0x134B JUMPI POP PUSH1 0x0 SLOAD PUSH1 0x1 PUSH1 0x1 PUSH1 0xA0 SHL SUB AND CALLER EQ JUMPDEST PUSH2 0x139C JUMPI PUSH1 0x40 DUP1 MLOAD PUSH3 0x461BCD PUSH1 0xE5 SHL DUP2 MSTORE PUSH1 0x20 PUSH1 0x4 DUP3 ADD MSTORE PUSH1 0x18 PUSH1 0x24 DUP3 ADD MSTORE PUSH32 0x6D757374206265206D696E744B6579206F72206F776E65720000000000000000 PUSH1 0x44 DUP3 ADD MSTORE SWAP1 MLOAD SWAP1 DUP2 SWAP1 SUB PUSH1 0x64 ADD SWAP1 REVERT JUMPDEST PUSH2 0x13A4 PUSH2 0x3ADA JUMP JUMPDEST POP PUSH1 0x40 DUP1 MLOAD PUSH1 0xA0 DUP2 ADD DUP3 MSTORE PUSH1 0x1 PUSH1 0x1 PUSH1 0xA0 SHL SUB DUP5 AND DUP1 DUP3 MSTORE PUSH1 0x20 DUP1 DUP4 ADD DUP6 SWAP1 MSTORE NUMBER DUP4 DUP6 ADD MSTORE PUSH1 0x0 PUSH1 0x60 DUP5 ADD DUP2 SWAP1 MSTORE PUSH1 0x80 DUP5 ADD MSTORE PUSH1 0x10 SLOAD DUP5 MLOAD SWAP1 DUP2 MSTORE CALLER SWAP2 DUP2 ADD SWAP2 SWAP1 SWAP2 MSTORE DUP4 MLOAD SWAP3 SWAP4 DUP6 SWAP4 PUSH32 0x883EAB2A74C029007E37F3F118FA7713D39B756C0B7C932A0269FCB995A4724C SWAP3 DUP2 SWAP1 SUB SWAP1 SWAP2 ADD SWAP1 LOG3 PUSH1 0x10 DUP1 SLOAD PUSH1 0x1 DUP2 ADD DUP3 SSTORE PUSH1 0x0 SWAP2 SWAP1 SWAP2 MSTORE DUP2 MLOAD PUSH32 0x1B6847DC741A1B0CD08D278845F9D819D87B734759AFB55FE2DE5CB82A9AE672 PUSH1 0x6 SWAP1 SWAP3 MUL SWAP2 DUP3 ADD DUP1 SLOAD PUSH32 0xFFFFFFFFFFFFFFFFFFFFFFFF0000000000000000000000000000000000000000 AND PUSH1 0x1 PUSH1 0x1 PUSH1 0xA0 SHL SUB SWAP1 SWAP3 AND SWAP2 SWAP1 SWAP2 OR SWAP1 SSTORE PUSH1 0x20 DUP3 ADD MLOAD PUSH32 0x1B6847DC741A1B0CD08D278845F9D819D87B734759AFB55FE2DE5CB82A9AE673 DUP3 ADD SSTORE PUSH1 0x40 DUP3 ADD MLOAD PUSH32 0x1B6847DC741A1B0CD08D278845F9D819D87B734759AFB55FE2DE5CB82A9AE674 DUP3 ADD SSTORE PUSH1 0x60 DUP3 ADD MLOAD PUSH32 0x1B6847DC741A1B0CD08D278845F9D819D87B734759AFB55FE2DE5CB82A9AE675 DUP3 ADD SSTORE PUSH1 0x80 SWAP1 SWAP2 ADD MLOAD PUSH32 0x1B6847DC741A1B0CD08D278845F9D819D87B734759AFB55FE2DE5CB82A9AE676 SWAP1 SWAP2 ADD DUP1 SLOAD PUSH32 0xFFFFFFFFFFFFFFFFFFFFFFFFFFFFFFFFFFFFFFFFFFFFFFFFFFFFFFFFFFFFFF00 AND SWAP2 ISZERO ISZERO SWAP2 SWAP1 SWAP2 OR SWAP1 SSTORE POP POP JUMP JUMPDEST PUSH1 0x0 SLOAD PUSH1 0x1 PUSH1 0x1 PUSH1 0xA0 SHL SUB AND CALLER EQ PUSH2 0x15BC JUMPI PUSH1 0x40 DUP1 MLOAD PUSH3 0x461BCD PUSH1 0xE5 SHL DUP2 MSTORE PUSH1 0x20 PUSH1 0x4 DUP3 ADD MSTORE PUSH1 0xA PUSH1 0x24 DUP3 ADD MSTORE PUSH32 0x6F6E6C79204F776E657200000000000000000000000000000000000000000000 PUSH1 0x44 DUP3 ADD MSTORE SWAP1 MLOAD SWAP1 DUP2 SWAP1 SUB PUSH1 0x64 ADD SWAP1 REVERT JUMPDEST PUSH1 0x0 PUSH1 0x10 DUP3 DUP2 SLOAD DUP2 LT PUSH2 0x15CB JUMPI INVALID JUMPDEST PUSH1 0x0 SWAP2 DUP3 MSTORE PUSH1 0x20 DUP1 DUP4 KECCAK256 PUSH1 0x6 SWAP3 SWAP1 SWAP3 MUL SWAP1 SWAP2 ADD PUSH1 0x4 ADD DUP1 SLOAD PUSH32 0xFFFFFFFFFFFFFFFFFFFFFFFFFFFFFFFFFFFFFFFFFFFFFFFFFFFFFFFFFFFFFF00 AND SWAP4 ISZERO ISZERO SWAP4 SWAP1 SWAP4 OR SWAP1 SWAP3 SSTORE PUSH1 0x40 DUP1 MLOAD DUP5 DUP2 MSTORE SWAP3 DUP4 ADD SWAP2 SWAP1 SWAP2 MSTORE DUP1 MLOAD PUSH32 0xBE7295EF37CA984EC35808D259AA03F272C2D747C6CE6A47B6E90862AFCCC576 SWAP3 DUP2 SWAP1 SUB SWAP1 SWAP2 ADD SWAP1 LOG1 POP JUMP JUMPDEST PUSH1 0x7 SLOAD DUP2 JUMP JUMPDEST PUSH1 0x0 SLOAD PUSH1 0x1 PUSH1 0x1 PUSH1 0xA0 SHL SUB AND CALLER EQ PUSH2 0x16B1 JUMPI PUSH1 0x40 DUP1 MLOAD PUSH3 0x461BCD PUSH1 0xE5 SHL DUP2 MSTORE PUSH1 0x20 PUSH1 0x4 DUP3 ADD MSTORE PUSH1 0xA PUSH1 0x24 DUP3 ADD MSTORE PUSH32 0x6F6E6C79204F776E657200000000000000000000000000000000000000000000 PUSH1 0x44 DUP3 ADD MSTORE SWAP1 MLOAD SWAP1 DUP2 SWAP1 SUB PUSH1 0x64 ADD SWAP1 REVERT JUMPDEST PUSH1 0x13 DUP1 SLOAD PUSH32 0xFFFFFFFFFFFFFFFFFFFFFFFF0000000000000000000000000000000000000000 AND PUSH1 0x1 PUSH1 0x1 PUSH1 0xA0 SHL SUB SWAP3 SWAP1 SWAP3 AND SWAP2 SWAP1 SWAP2 OR SWAP1 SSTORE JUMP JUMPDEST PUSH1 0x0 SLOAD PUSH1 0x1 PUSH1 0x1 PUSH1 0xA0 SHL SUB AND CALLER EQ PUSH2 0x174A JUMPI PUSH1 0x40 DUP1 MLOAD PUSH3 0x461BCD PUSH1 0xE5 SHL DUP2 MSTORE PUSH1 0x20 PUSH1 0x4 DUP3 ADD MSTORE PUSH1 0xA PUSH1 0x24 DUP3 ADD MSTORE PUSH32 0x6F6E6C79204F776E657200000000000000000000000000000000000000000000 PUSH1 0x44 DUP3 ADD MSTORE SWAP1 MLOAD SWAP1 DUP2 SWAP1 SUB PUSH1 0x64 ADD SWAP1 REVERT JUMPDEST DUP2 DUP4 GT ISZERO DUP1 ISZERO PUSH2 0x175A JUMPI POP DUP1 DUP3 GT ISZERO JUMPDEST PUSH2 0x1763 JUMPI PUSH1 0x0 DUP1 REVERT JUMPDEST PUSH1 0x5 DUP4 SWAP1 SSTORE PUSH1 0x8 SLOAD DUP4 LT ISZERO PUSH2 0x1779 JUMPI PUSH1 0x5 SLOAD PUSH1 0x8 SSTORE JUMPDEST PUSH1 0x6 DUP3 SWAP1 SSTORE PUSH1 0x9 SLOAD DUP3 LT ISZERO PUSH2 0x178F JUMPI PUSH1 0x6 SLOAD PUSH1 0x9 SSTORE JUMPDEST PUSH1 0x7 DUP2 SWAP1 SSTORE PUSH1 0xA SLOAD DUP2 LT ISZERO PUSH2 0x17A5 JUMPI PUSH1 0x7 SLOAD PUSH1 0xA SSTORE JUMPDEST PUSH1 0x40 DUP1 MLOAD DUP5 DUP2 MSTORE PUSH1 0x20 DUP2 ADD DUP5 SWAP1 MSTORE DUP1 DUP3 ADD DUP4 SWAP1 MSTORE SWAP1 MLOAD PUSH32 0xA88EC94782BAC5C3E5F7D8E8F27B39F3F9D53DA3FC2824DB137086185CF2117D SWAP2 DUP2 SWAP1 SUB PUSH1 0x60 ADD SWAP1 LOG1 POP POP POP JUMP JUMPDEST PUSH1 0x1 SLOAD PUSH1 0x1 PUSH1 0x1 PUSH1 0xA0 SHL SUB AND CALLER EQ PUSH2 0x1801 JUMPI PUSH1 0x0 DUP1 REVERT JUMPDEST PUSH1 0x1 SLOAD PUSH1 0x0 DUP1 SLOAD PUSH1 0x40 MLOAD PUSH1 0x1 PUSH1 0x1 PUSH1 0xA0 SHL SUB SWAP4 DUP5 AND SWAP4 SWAP1 SWAP2 AND SWAP2 PUSH32 0x8BE0079C531659141344CD1FD0A4F28419497F9722A3DAAFE3B4186F6B6457E0 SWAP2 LOG3 PUSH1 0x1 DUP1 SLOAD PUSH1 0x0 DUP1 SLOAD PUSH32 0xFFFFFFFFFFFFFFFFFFFFFFFF0000000000000000000000000000000000000000 SWAP1 DUP2 AND PUSH1 0x1 PUSH1 0x1 PUSH1 0xA0 SHL SUB DUP5 AND OR SWAP1 SWAP2 SSTORE AND SWAP1 SSTORE JUMP JUMPDEST PUSH1 0x0 SLOAD PUSH1 0x1 PUSH1 0x1 PUSH1 0xA0 SHL SUB AND CALLER EQ PUSH2 0x18DC JUMPI PUSH1 0x40 DUP1 MLOAD PUSH3 0x461BCD PUSH1 0xE5 SHL DUP2 MSTORE PUSH1 0x20 PUSH1 0x4 DUP3 ADD MSTORE PUSH1 0xA PUSH1 0x24 DUP3 ADD MSTORE PUSH32 0x6F6E6C79204F776E657200000000000000000000000000000000000000000000 PUSH1 0x44 DUP3 ADD MSTORE SWAP1 MLOAD SWAP1 DUP2 SWAP1 SUB PUSH1 0x64 ADD SWAP1 REVERT JUMPDEST PUSH1 0x11 SLOAD PUSH1 0x40 DUP1 MLOAD PUSH32 0x3659CFE600000000000000000000000000000000000000000000000000000000 DUP2 MSTORE PUSH1 0x1 PUSH1 0x1 PUSH1 0xA0 SHL SUB DUP5 DUP2 AND PUSH1 0x4 DUP4 ADD MSTORE SWAP2 MLOAD SWAP2 SWAP1 SWAP3 AND SWAP2 PUSH4 0x3659CFE6 SWAP2 PUSH1 0x24 DUP1 DUP4 ADD SWAP3 PUSH1 0x0 SWAP3 SWAP2 SWAP1 DUP3 SWAP1 SUB ADD DUP2 DUP4 DUP8 DUP1 EXTCODESIZE ISZERO DUP1 ISZERO PUSH2 0x1126 JUMPI PUSH1 0x0 DUP1 REVERT JUMPDEST PUSH1 0x0 SLOAD PUSH1 0x1 PUSH1 0x1 PUSH1 0xA0 SHL SUB AND CALLER EQ PUSH2 0x19A2 JUMPI PUSH1 0x40 DUP1 MLOAD PUSH3 0x461BCD PUSH1 0xE5 SHL DUP2 MSTORE PUSH1 0x20 PUSH1 0x4 DUP3 ADD MSTORE PUSH1 0xA PUSH1 0x24 DUP3 ADD MSTORE PUSH32 0x6F6E6C79204F776E657200000000000000000000000000000000000000000000 PUSH1 0x44 DUP3 ADD MSTORE SWAP1 MLOAD SWAP1 DUP2 SWAP1 SUB PUSH1 0x64 ADD SWAP1 REVERT JUMPDEST PUSH1 0x11 SLOAD PUSH1 0x40 DUP1 MLOAD PUSH32 0x5200605000000000000000000000000000000000000000000000000000000000 DUP2 MSTORE PUSH1 0x4 DUP2 ADD DUP6 SWAP1 MSTORE PUSH1 0x24 DUP2 ADD DUP5 SWAP1 MSTORE SWAP1 MLOAD PUSH1 0x1 PUSH1 0x1 PUSH1 0xA0 SHL SUB SWAP1 SWAP3 AND SWAP2 PUSH4 0x52006050 SWAP2 PUSH1 0x44 DUP1 DUP3 ADD SWAP3 PUSH1 0x0 SWAP3 SWAP1 SWAP2 SWAP1 DUP3 SWAP1 SUB ADD DUP2 DUP4 DUP8 DUP1 EXTCODESIZE ISZERO DUP1 ISZERO PUSH2 0xAC8 JUMPI PUSH1 0x0 DUP1 REVERT JUMPDEST PUSH1 0x0 SLOAD PUSH1 0x1 PUSH1 0x1 PUSH1 0xA0 SHL SUB AND CALLER EQ PUSH2 0x1A6E JUMPI PUSH1 0x40 DUP1 MLOAD PUSH3 0x461BCD PUSH1 0xE5 SHL DUP2 MSTORE PUSH1 0x20 PUSH1 0x4 DUP3 ADD MSTORE PUSH1 0xA PUSH1 0x24 DUP3 ADD MSTORE PUSH32 0x6F6E6C79204F776E657200000000000000000000000000000000000000000000 PUSH1 0x44 DUP3 ADD MSTORE SWAP1 MLOAD SWAP1 DUP2 SWAP1 SUB PUSH1 0x64 ADD SWAP1 REVERT JUMPDEST NUMBER PUSH1 0xE SSTORE JUMP JUMPDEST PUSH1 0xF SLOAD PUSH1 0x1 PUSH1 0x1 PUSH1 0xA0 SHL SUB AND DUP2 JUMP JUMPDEST PUSH1 0x12 SLOAD PUSH1 0x40 DUP1 MLOAD PUSH32 0x7338C25C00000000000000000000000000000000000000000000000000000000 DUP2 MSTORE CALLER PUSH1 0x4 DUP3 ADD MSTORE PUSH32 0x6973545553444D696E7450617573657273000000000000000000000000000000 PUSH1 0x24 DUP3 ADD MSTORE SWAP1 MLOAD PUSH1 0x1 PUSH1 0x1 PUSH1 0xA0 SHL SUB SWAP1 SWAP3 AND SWAP2 PUSH4 0x7338C25C SWAP2 PUSH1 0x44 DUP1 DUP3 ADD SWAP3 PUSH1 0x20 SWAP3 SWAP1 SWAP2 SWAP1 DUP3 SWAP1 SUB ADD DUP2 DUP7 DUP1 EXTCODESIZE ISZERO DUP1 ISZERO PUSH2 0x1B0D JUMPI PUSH1 0x0 DUP1 REVERT JUMPDEST POP GAS STATICCALL ISZERO DUP1 ISZERO PUSH2 0x1B21 JUMPI RETURNDATASIZE PUSH1 0x0 DUP1 RETURNDATACOPY RETURNDATASIZE PUSH1 0x0 REVERT JUMPDEST POP POP POP POP PUSH1 0x40 MLOAD RETURNDATASIZE PUSH1 0x20 DUP2 LT ISZERO PUSH2 0x1B37 JUMPI PUSH1 0x0 DUP1 REVERT JUMPDEST POP MLOAD DUP1 PUSH2 0x1B4E JUMPI POP PUSH1 0x0 SLOAD PUSH1 0x1 PUSH1 0x1 PUSH1 0xA0 SHL SUB AND CALLER EQ JUMPDEST PUSH2 0x1B9F JUMPI PUSH1 0x40 DUP1 MLOAD PUSH3 0x461BCD PUSH1 0xE5 SHL DUP2 MSTORE PUSH1 0x20 PUSH1 0x4 DUP3 ADD MSTORE PUSH1 0x17 PUSH1 0x24 DUP3 ADD MSTORE PUSH32 0x6D75737420626520706175736572206F72206F776E6572000000000000000000 PUSH1 0x44 DUP3 ADD MSTORE SWAP1 MLOAD SWAP1 DUP2 SWAP1 SUB PUSH1 0x64 ADD SWAP1 REVERT JUMPDEST PUSH1 0x1 PUSH1 0x10 DUP3 DUP2 SLOAD DUP2 LT PUSH2 0x1BAE JUMPI INVALID JUMPDEST PUSH1 0x0 SWAP2 DUP3 MSTORE PUSH1 0x20 SWAP2 DUP3 SWAP1 KECCAK256 PUSH1 0x6 SWAP2 SWAP1 SWAP2 MUL ADD PUSH1 0x4 ADD DUP1 SLOAD PUSH32 0xFFFFFFFFFFFFFFFFFFFFFFFFFFFFFFFFFFFFFFFFFFFFFFFFFFFFFFFFFFFFFF00 AND SWAP3 ISZERO ISZERO SWAP3 SWAP1 SWAP3 OR SWAP1 SWAP2 SSTORE PUSH1 0x40 DUP1 MLOAD DUP4 DUP2 MSTORE PUSH1 0x1 SWAP3 DUP2 ADD SWAP3 SWAP1 SWAP3 MSTORE DUP1 MLOAD PUSH32 0xBE7295EF37CA984EC35808D259AA03F272C2D747C6CE6A47B6E90862AFCCC576 SWAP3 DUP2 SWAP1 SUB SWAP1 SWAP2 ADD SWAP1 LOG1 POP JUMP JUMPDEST PUSH1 0x0 SLOAD PUSH1 0x1 PUSH1 0x1 PUSH1 0xA0 SHL SUB AND CALLER EQ PUSH2 0x1C8F JUMPI PUSH1 0x40 DUP1 MLOAD PUSH3 0x461BCD PUSH1 0xE5 SHL DUP2 MSTORE PUSH1 0x20 PUSH1 0x4 DUP3 ADD MSTORE PUSH1 0xA PUSH1 0x24 DUP3 ADD MSTORE PUSH32 0x6F6E6C79204F776E657200000000000000000000000000000000000000000000 PUSH1 0x44 DUP3 ADD MSTORE SWAP1 MLOAD SWAP1 DUP2 SWAP1 SUB PUSH1 0x64 ADD SWAP1 REVERT JUMPDEST DUP2 DUP4 GT ISZERO DUP1 ISZERO PUSH2 0x1C9F JUMPI POP DUP1 DUP3 GT ISZERO JUMPDEST PUSH2 0x1CA8 JUMPI PUSH1 0x0 DUP1 REVERT JUMPDEST PUSH1 0x2 DUP4 SWAP1 SSTORE PUSH1 0x3 DUP3 SWAP1 SSTORE PUSH1 0x4 DUP2 SWAP1 SSTORE PUSH1 0x40 DUP1 MLOAD DUP5 DUP2 MSTORE PUSH1 0x20 DUP2 ADD DUP5 SWAP1 MSTORE DUP1 DUP3 ADD DUP4 SWAP1 MSTORE SWAP1 MLOAD PUSH32 0xBA6A9F8D54021AF0FAB65E388AD81CC3DFB17207BED50A5E9A30F7ADABB534D1 SWAP2 DUP2 SWAP1 SUB PUSH1 0x60 ADD SWAP1 LOG1 POP POP POP JUMP JUMPDEST PUSH1 0x13 SLOAD PUSH1 0x1 PUSH1 0x1 PUSH1 0xA0 SHL SUB AND DUP2 JUMP JUMPDEST PUSH1 0x0 SLOAD PUSH1 0x1 PUSH1 0x1 PUSH1 0xA0 SHL SUB AND CALLER EQ PUSH2 0x1D75 JUMPI PUSH1 0xD SLOAD PUSH1 0xFF AND ISZERO PUSH2 0x1D75 JUMPI PUSH1 0x40 DUP1 MLOAD PUSH3 0x461BCD PUSH1 0xE5 SHL DUP2 MSTORE PUSH1 0x20 PUSH1 0x4 DUP3 ADD MSTORE PUSH1 0x11 PUSH1 0x24 DUP3 ADD MSTORE PUSH32 0x6D696E74696E6720697320706175736564000000000000000000000000000000 PUSH1 0x44 DUP3 ADD MSTORE SWAP1 MLOAD SWAP1 DUP2 SWAP1 SUB PUSH1 0x64 ADD SWAP1 REVERT JUMPDEST PUSH1 0xF SLOAD PUSH1 0x1 PUSH1 0x1 PUSH1 0xA0 SHL SUB AND CALLER EQ DUP1 PUSH2 0x1D98 JUMPI POP PUSH1 0x0 SLOAD PUSH1 0x1 PUSH1 0x1 PUSH1 0xA0 SHL SUB AND CALLER EQ JUMPDEST PUSH2 0x1DE9 JUMPI PUSH1 0x40 DUP1 MLOAD PUSH3 0x461BCD PUSH1 0xE5 SHL DUP2 MSTORE PUSH1 0x20 PUSH1 0x4 DUP3 ADD MSTORE PUSH1 0x18 PUSH1 0x24 DUP3 ADD MSTORE PUSH32 0x6D757374206265206D696E744B6579206F72206F776E65720000000000000000 PUSH1 0x44 DUP3 ADD MSTORE SWAP1 MLOAD SWAP1 DUP2 SWAP1 SUB PUSH1 0x64 ADD SWAP1 REVERT JUMPDEST PUSH1 0x2 SLOAD DUP2 GT ISZERO PUSH2 0x1E40 JUMPI PUSH1 0x40 DUP1 MLOAD PUSH3 0x461BCD PUSH1 0xE5 SHL DUP2 MSTORE PUSH1 0x20 PUSH1 0x4 DUP3 ADD MSTORE PUSH1 0x1F PUSH1 0x24 DUP3 ADD MSTORE PUSH32 0x6F7665722074686520696E7374616E74206D696E74207468726573686F6C6400 PUSH1 0x44 DUP3 ADD MSTORE SWAP1 MLOAD SWAP1 DUP2 SWAP1 SUB PUSH1 0x64 ADD SWAP1 REVERT JUMPDEST PUSH1 0x8 SLOAD DUP2 GT ISZERO PUSH2 0x1E97 JUMPI PUSH1 0x40 DUP1 MLOAD PUSH3 0x461BCD PUSH1 0xE5 SHL DUP2 MSTORE PUSH1 0x20 PUSH1 0x4 DUP3 ADD MSTORE PUSH1 0x18 PUSH1 0x24 DUP3 ADD MSTORE PUSH32 0x696E7374616E74206D696E7420706F6F6C206973206472790000000000000000 PUSH1 0x44 DUP3 ADD MSTORE SWAP1 MLOAD SWAP1 DUP2 SWAP1 SUB PUSH1 0x64 ADD SWAP1 REVERT JUMPDEST PUSH1 0x8 SLOAD PUSH2 0x1EAA SWAP1 DUP3 PUSH4 0xFFFFFFFF PUSH2 0x390C AND JUMP JUMPDEST PUSH1 0x8 SSTORE PUSH1 0x40 MLOAD CALLER SWAP1 DUP3 SWAP1 PUSH1 0x1 PUSH1 0x1 PUSH1 0xA0 SHL SUB DUP6 AND SWAP1 PUSH32 0xEC755A4FEB8086D62E216CA919461349221DF54BF9CA83300B7A2BF8E5807DFC SWAP1 PUSH1 0x0 SWAP1 LOG4 PUSH1 0x11 SLOAD PUSH1 0x40 DUP1 MLOAD PUSH32 0x40C10F1900000000000000000000000000000000000000000000000000000000 DUP2 MSTORE PUSH1 0x1 PUSH1 0x1 PUSH1 0xA0 SHL SUB DUP6 DUP2 AND PUSH1 0x4 DUP4 ADD MSTORE PUSH1 0x24 DUP3 ADD DUP6 SWAP1 MSTORE SWAP2 MLOAD SWAP2 SWAP1 SWAP3 AND SWAP2 PUSH4 0x40C10F19 SWAP2 PUSH1 0x44 DUP1 DUP4 ADD SWAP3 PUSH1 0x0 SWAP3 SWAP2 SWAP1 DUP3 SWAP1 SUB ADD DUP2 DUP4 DUP8 DUP1 EXTCODESIZE ISZERO DUP1 ISZERO PUSH2 0xAC8 JUMPI PUSH1 0x0 DUP1 REVERT JUMPDEST PUSH1 0x2 SLOAD DUP2 JUMP JUMPDEST PUSH1 0x0 SLOAD PUSH1 0x1 PUSH1 0x1 PUSH1 0xA0 SHL SUB AND CALLER EQ PUSH2 0x1FB8 JUMPI PUSH1 0x40 DUP1 MLOAD PUSH3 0x461BCD PUSH1 0xE5 SHL DUP2 MSTORE PUSH1 0x20 PUSH1 0x4 DUP3 ADD MSTORE PUSH1 0xA PUSH1 0x24 DUP3 ADD MSTORE PUSH32 0x6F6E6C79204F776E657200000000000000000000000000000000000000000000 PUSH1 0x44 DUP3 ADD MSTORE SWAP1 MLOAD SWAP1 DUP2 SWAP1 SUB PUSH1 0x64 ADD SWAP1 REVERT JUMPDEST PUSH1 0x11 SLOAD PUSH1 0x0 DUP1 SLOAD PUSH1 0x40 DUP1 MLOAD PUSH32 0x88EE39CC00000000000000000000000000000000000000000000000000000000 DUP2 MSTORE PUSH1 0x1 PUSH1 0x1 PUSH1 0xA0 SHL SUB DUP7 DUP2 AND PUSH1 0x4 DUP4 ADD MSTORE SWAP3 DUP4 AND PUSH1 0x24 DUP3 ADD MSTORE SWAP1 MLOAD SWAP2 SWAP1 SWAP4 AND SWAP3 PUSH4 0x88EE39CC SWAP3 PUSH1 0x44 DUP1 DUP4 ADD SWAP4 SWAP2 SWAP3 DUP3 SWAP1 SUB ADD DUP2 DUP4 DUP8 DUP1 EXTCODESIZE ISZERO DUP1 ISZERO PUSH2 0x1126 JUMPI PUSH1 0x0 DUP1 REVERT JUMPDEST PUSH1 0x12 SLOAD PUSH1 0x1 PUSH1 0x1 PUSH1 0xA0 SHL SUB AND DUP2 JUMP JUMPDEST PUSH1 0xD SLOAD PUSH1 0xFF AND DUP2 JUMP JUMPDEST PUSH1 0xF SLOAD PUSH1 0x1 PUSH1 0x1 PUSH1 0xA0 SHL SUB AND CALLER EQ DUP1 PUSH2 0x2063 JUMPI POP PUSH1 0x0 SLOAD PUSH1 0x1 PUSH1 0x1 PUSH1 0xA0 SHL SUB AND CALLER EQ JUMPDEST PUSH2 0x20B4 JUMPI PUSH1 0x40 DUP1 MLOAD PUSH3 0x461BCD PUSH1 0xE5 SHL DUP2 MSTORE PUSH1 0x20 PUSH1 0x4 DUP3 ADD MSTORE PUSH1 0x18 PUSH1 0x24 DUP3 ADD MSTORE PUSH32 0x6D757374206265206D696E744B6579206F72206F776E65720000000000000000 PUSH1 0x44 DUP3 ADD MSTORE SWAP1 MLOAD SWAP1 DUP2 SWAP1 SUB PUSH1 0x64 ADD SWAP1 REVERT JUMPDEST PUSH1 0x10 DUP2 DUP2 SLOAD DUP2 LT PUSH2 0x20C1 JUMPI INVALID JUMPDEST PUSH1 0x0 SWAP2 DUP3 MSTORE PUSH1 0x20 DUP1 DUP4 KECCAK256 PUSH1 0x6 SWAP1 SWAP3 MUL SWAP1 SWAP2 ADD DUP1 SLOAD PUSH32 0xFFFFFFFFFFFFFFFFFFFFFFFF0000000000000000000000000000000000000000 AND DUP2 SSTORE PUSH1 0x1 DUP2 ADD DUP4 SWAP1 SSTORE PUSH1 0x2 DUP2 ADD DUP4 SWAP1 SSTORE PUSH1 0x3 DUP2 ADD SWAP3 SWAP1 SWAP3 SSTORE PUSH1 0x4 SWAP1 SWAP2 ADD DUP1 SLOAD PUSH32 0xFFFFFFFFFFFFFFFFFFFFFFFFFFFFFFFFFFFFFFFFFFFFFFFFFFFFFFFFFFFFFF00 AND SWAP1 SSTORE PUSH1 0x40 DUP1 MLOAD DUP4 DUP2 MSTORE SWAP1 MLOAD PUSH32 0xCCEC691F17B1A3D2B56AC2C39074C2930BA803FC46191A49259706621EAC3F8F SWAP3 SWAP2 DUP2 SWAP1 SUB SWAP1 SWAP2 ADD SWAP1 LOG1 POP JUMP JUMPDEST PUSH1 0x13 SLOAD PUSH1 0x1 PUSH1 0x1 PUSH1 0xA0 SHL SUB AND CALLER EQ DUP1 PUSH2 0x2194 JUMPI POP PUSH1 0x0 SLOAD PUSH1 0x1 PUSH1 0x1 PUSH1 0xA0 SHL SUB AND CALLER EQ JUMPDEST PUSH2 0x21E5 JUMPI PUSH1 0x40 DUP1 MLOAD PUSH3 0x461BCD PUSH1 0xE5 SHL DUP2 MSTORE PUSH1 0x20 PUSH1 0x4 DUP3 ADD MSTORE PUSH1 0x1F PUSH1 0x24 DUP3 ADD MSTORE PUSH32 0x6D7573742062652072656769737472792061646D696E206F72206F776E657200 PUSH1 0x44 DUP3 ADD MSTORE SWAP1 MLOAD SWAP1 DUP2 SWAP1 SUB PUSH1 0x64 ADD SWAP1 REVERT JUMPDEST PUSH1 0x11 SLOAD PUSH1 0x40 DUP1 MLOAD PUSH32 0x8074965600000000000000000000000000000000000000000000000000000000 DUP2 MSTORE PUSH1 0x1 PUSH1 0x1 PUSH1 0xA0 SHL SUB DUP6 DUP2 AND PUSH1 0x4 DUP4 ADD MSTORE DUP5 ISZERO ISZERO PUSH1 0x24 DUP4 ADD MSTORE SWAP2 MLOAD SWAP2 SWAP1 SWAP3 AND SWAP2 PUSH4 0x80749656 SWAP2 PUSH1 0x44 DUP1 DUP4 ADD SWAP3 PUSH1 0x0 SWAP3 SWAP2 SWAP1 DUP3 SWAP1 SUB ADD DUP2 DUP4 DUP8 DUP1 EXTCODESIZE ISZERO DUP1 ISZERO PUSH2 0x2254 JUMPI PUSH1 0x0 DUP1 REVERT JUMPDEST POP GAS CALL ISZERO DUP1 ISZERO PUSH2 0x2268 JUMPI RETURNDATASIZE PUSH1 0x0 DUP1 RETURNDATACOPY RETURNDATASIZE PUSH1 0x0 REVERT JUMPDEST POP POP PUSH1 0x40 DUP1 MLOAD PUSH1 0x1 PUSH1 0x1 PUSH1 0xA0 SHL SUB DUP7 AND DUP2 MSTORE DUP5 ISZERO ISZERO PUSH1 0x20 DUP3 ADD MSTORE DUP2 MLOAD PUSH32 0xF038153E9BF050A90FA20EAC4C02E084876A20E74C6A5139601F5B68937C54BC SWAP5 POP SWAP1 DUP2 SWAP1 SUB SWAP1 SWAP2 ADD SWAP2 POP LOG1 POP POP JUMP JUMPDEST PUSH1 0x0 SLOAD PUSH1 0x1 PUSH1 0x1 PUSH1 0xA0 SHL SUB AND CALLER EQ PUSH2 0x2314 JUMPI PUSH1 0x40 DUP1 MLOAD PUSH3 0x461BCD PUSH1 0xE5 SHL DUP2 MSTORE PUSH1 0x20 PUSH1 0x4 DUP3 ADD MSTORE PUSH1 0xA PUSH1 0x24 DUP3 ADD MSTORE PUSH32 0x6F6E6C79204F776E657200000000000000000000000000000000000000000000 PUSH1 0x44 DUP3 ADD MSTORE SWAP1 MLOAD SWAP1 DUP2 SWAP1 SUB PUSH1 0x64 ADD SWAP1 REVERT JUMPDEST PUSH1 0x14 DUP1 SLOAD PUSH32 0xFFFFFFFFFFFFFFFFFFFFFFFF0000000000000000000000000000000000000000 AND PUSH1 0x1 PUSH1 0x1 PUSH1 0xA0 SHL SUB SWAP3 SWAP1 SWAP3 AND SWAP2 SWAP1 SWAP2 OR SWAP1 SSTORE JUMP JUMPDEST PUSH1 0x8 SLOAD DUP2 JUMP JUMPDEST PUSH1 0x0 SLOAD PUSH1 0x1 PUSH1 0x1 PUSH1 0xA0 SHL SUB AND CALLER EQ PUSH2 0x23B3 JUMPI PUSH1 0x40 DUP1 MLOAD PUSH3 0x461BCD PUSH1 0xE5 SHL DUP2 MSTORE PUSH1 0x20 PUSH1 0x4 DUP3 ADD MSTORE PUSH1 0xA PUSH1 0x24 DUP3 ADD MSTORE PUSH32 0x6F6E6C79204F776E657200000000000000000000000000000000000000000000 PUSH1 0x44 DUP3 ADD MSTORE SWAP1 MLOAD SWAP1 DUP2 SWAP1 SUB PUSH1 0x64 ADD SWAP1 REVERT JUMPDEST PUSH1 0x40 DUP1 MLOAD PUSH32 0x70A0823100000000000000000000000000000000000000000000000000000000 DUP2 MSTORE ADDRESS PUSH1 0x4 DUP3 ADD MSTORE SWAP1 MLOAD PUSH1 0x0 SWAP2 PUSH1 0x1 PUSH1 0x1 PUSH1 0xA0 SHL SUB DUP6 AND SWAP2 PUSH4 0x70A08231 SWAP2 PUSH1 0x24 DUP1 DUP3 ADD SWAP3 PUSH1 0x20 SWAP3 SWAP1 SWAP2 SWAP1 DUP3 SWAP1 SUB ADD DUP2 DUP7 DUP1 EXTCODESIZE ISZERO DUP1 ISZERO PUSH2 0x2416 JUMPI PUSH1 0x0 DUP1 REVERT JUMPDEST POP GAS STATICCALL ISZERO DUP1 ISZERO PUSH2 0x242A JUMPI RETURNDATASIZE PUSH1 0x0 DUP1 RETURNDATACOPY RETURNDATASIZE PUSH1 0x0 REVERT JUMPDEST POP POP POP POP PUSH1 0x40 MLOAD RETURNDATASIZE PUSH1 0x20 DUP2 LT ISZERO PUSH2 0x2440 JUMPI PUSH1 0x0 DUP1 REVERT JUMPDEST POP MLOAD PUSH1 0x40 DUP1 MLOAD PUSH32 0xA9059CBB00000000000000000000000000000000000000000000000000000000 DUP2 MSTORE PUSH1 0x1 PUSH1 0x1 PUSH1 0xA0 SHL SUB DUP6 DUP2 AND PUSH1 0x4 DUP4 ADD MSTORE PUSH1 0x24 DUP3 ADD DUP5 SWAP1 MSTORE SWAP2 MLOAD SWAP3 SWAP4 POP SWAP1 DUP6 AND SWAP2 PUSH4 0xA9059CBB SWAP2 PUSH1 0x44 DUP1 DUP3 ADD SWAP3 PUSH1 0x20 SWAP3 SWAP1 SWAP2 SWAP1 DUP3 SWAP1 SUB ADD DUP2 PUSH1 0x0 DUP8 DUP1 EXTCODESIZE ISZERO DUP1 ISZERO PUSH2 0x24B1 JUMPI PUSH1 0x0 DUP1 REVERT JUMPDEST POP GAS CALL ISZERO DUP1 ISZERO PUSH2 0x24C5 JUMPI RETURNDATASIZE PUSH1 0x0 DUP1 RETURNDATACOPY RETURNDATASIZE PUSH1 0x0 REVERT JUMPDEST POP POP POP POP PUSH1 0x40 MLOAD RETURNDATASIZE PUSH1 0x20 DUP2 LT ISZERO PUSH2 0x113A JUMPI PUSH1 0x0 DUP1 REVERT JUMPDEST PUSH1 0x12 SLOAD PUSH1 0x40 DUP1 MLOAD PUSH32 0x7338C25C00000000000000000000000000000000000000000000000000000000 DUP2 MSTORE CALLER PUSH1 0x4 DUP3 ADD MSTORE PUSH32 0x6973545553444D696E7452617469666965720000000000000000000000000000 PUSH1 0x24 DUP3 ADD MSTORE SWAP1 MLOAD PUSH1 0x1 PUSH1 0x1 PUSH1 0xA0 SHL SUB SWAP1 SWAP3 AND SWAP2 PUSH4 0x7338C25C SWAP2 PUSH1 0x44 DUP1 DUP3 ADD SWAP3 PUSH1 0x20 SWAP3 SWAP1 SWAP2 SWAP1 DUP3 SWAP1 SUB ADD DUP2 DUP7 DUP1 EXTCODESIZE ISZERO DUP1 ISZERO PUSH2 0x2565 JUMPI PUSH1 0x0 DUP1 REVERT JUMPDEST POP GAS STATICCALL ISZERO DUP1 ISZERO PUSH2 0x2579 JUMPI RETURNDATASIZE PUSH1 0x0 DUP1 RETURNDATACOPY RETURNDATASIZE PUSH1 0x0 REVERT JUMPDEST POP POP POP POP PUSH1 0x40 MLOAD RETURNDATASIZE PUSH1 0x20 DUP2 LT ISZERO PUSH2 0x258F JUMPI PUSH1 0x0 DUP1 REVERT JUMPDEST POP MLOAD DUP1 PUSH2 0x25A6 JUMPI POP PUSH1 0x0 SLOAD PUSH1 0x1 PUSH1 0x1 PUSH1 0xA0 SHL SUB AND CALLER EQ JUMPDEST PUSH2 0x25F7 JUMPI PUSH1 0x40 DUP1 MLOAD PUSH3 0x461BCD PUSH1 0xE5 SHL DUP2 MSTORE PUSH1 0x20 PUSH1 0x4 DUP3 ADD MSTORE PUSH1 0x19 PUSH1 0x24 DUP3 ADD MSTORE PUSH32 0x6D757374206265207261746966696572206F72206F776E657200000000000000 PUSH1 0x44 DUP3 ADD MSTORE SWAP1 MLOAD SWAP1 DUP2 SWAP1 SUB PUSH1 0x64 ADD SWAP1 REVERT JUMPDEST PUSH1 0x0 SLOAD PUSH1 0x1 PUSH1 0x1 PUSH1 0xA0 SHL SUB AND CALLER EQ PUSH2 0x2703 JUMPI PUSH2 0x2611 PUSH2 0x3B14 JUMP JUMPDEST PUSH1 0x40 DUP1 MLOAD DUP1 DUP3 ADD SWAP2 DUP3 SWAP1 MSTORE SWAP1 PUSH1 0xB SWAP1 PUSH1 0x2 SWAP1 DUP3 DUP5 JUMPDEST DUP2 SLOAD PUSH1 0x1 PUSH1 0x1 PUSH1 0xA0 SHL SUB AND DUP2 MSTORE PUSH1 0x1 SWAP1 SWAP2 ADD SWAP1 PUSH1 0x20 ADD DUP1 DUP4 GT PUSH2 0x2626 JUMPI POP POP POP POP POP SWAP1 POP DUP1 PUSH1 0x0 PUSH1 0x2 DUP2 LT PUSH2 0x2657 JUMPI INVALID JUMPDEST PUSH1 0x20 MUL ADD MLOAD PUSH1 0x1 PUSH1 0x1 PUSH1 0xA0 SHL SUB AND CALLER PUSH1 0x1 PUSH1 0x1 PUSH1 0xA0 SHL SUB AND EQ ISZERO DUP1 ISZERO PUSH2 0x268A JUMPI POP PUSH1 0x20 DUP2 ADD MLOAD PUSH1 0x1 PUSH1 0x1 PUSH1 0xA0 SHL SUB AND CALLER EQ ISZERO JUMPDEST PUSH2 0x2693 JUMPI PUSH1 0x0 DUP1 REVERT JUMPDEST DUP1 MLOAD PUSH1 0x1 PUSH1 0x1 PUSH1 0xA0 SHL SUB AND PUSH2 0x26E5 JUMPI CALLER PUSH1 0xB PUSH1 0x0 JUMPDEST ADD DUP1 SLOAD PUSH32 0xFFFFFFFFFFFFFFFFFFFFFFFF0000000000000000000000000000000000000000 AND PUSH1 0x1 PUSH1 0x1 PUSH1 0xA0 SHL SUB SWAP3 SWAP1 SWAP3 AND SWAP2 SWAP1 SWAP2 OR SWAP1 SSTORE POP PUSH2 0x276B JUMP JUMPDEST PUSH1 0x20 DUP2 ADD MLOAD PUSH1 0x1 PUSH1 0x1 PUSH1 0xA0 SHL SUB AND PUSH2 0x2701 JUMPI CALLER PUSH1 0xB PUSH1 0x1 PUSH2 0x26A8 JUMP JUMPDEST POP JUMPDEST PUSH2 0x270F PUSH1 0xB PUSH1 0x0 PUSH2 0x3B32 JUMP JUMPDEST PUSH2 0x2738 PUSH2 0x2729 PUSH1 0x9 SLOAD PUSH1 0x6 SLOAD PUSH2 0x390C SWAP1 SWAP2 SWAP1 PUSH4 0xFFFFFFFF AND JUMP JUMPDEST PUSH1 0xA SLOAD SWAP1 PUSH4 0xFFFFFFFF PUSH2 0x390C AND JUMP JUMPDEST PUSH1 0xA SSTORE PUSH1 0x6 SLOAD PUSH1 0x9 SSTORE PUSH1 0x40 MLOAD PUSH32 0x102A997AC4D17915071D5422BC77B9E807C57305CEFEF394DAF2468ABACB26C2 SWAP1 PUSH1 0x0 SWAP1 LOG1 JUMPDEST JUMP JUMPDEST PUSH1 0x0 SLOAD PUSH1 0x1 PUSH1 0x1 PUSH1 0xA0 SHL SUB AND DUP2 JUMP JUMPDEST PUSH1 0x0 SLOAD PUSH1 0x1 PUSH1 0x1 PUSH1 0xA0 SHL SUB AND CALLER EQ PUSH2 0x27E6 JUMPI PUSH1 0xD SLOAD PUSH1 0xFF AND ISZERO PUSH2 0x27E6 JUMPI PUSH1 0x40 DUP1 MLOAD PUSH3 0x461BCD PUSH1 0xE5 SHL DUP2 MSTORE PUSH1 0x20 PUSH1 0x4 DUP3 ADD MSTORE PUSH1 0x11 PUSH1 0x24 DUP3 ADD MSTORE PUSH32 0x6D696E74696E6720697320706175736564000000000000000000000000000000 PUSH1 0x44 DUP3 ADD MSTORE SWAP1 MLOAD SWAP1 DUP2 SWAP1 SUB PUSH1 0x64 ADD SWAP1 REVERT JUMPDEST PUSH2 0x27EE PUSH2 0x3ADA JUMP JUMPDEST PUSH1 0x10 DUP3 DUP2 SLOAD DUP2 LT PUSH2 0x27FB JUMPI INVALID JUMPDEST PUSH1 0x0 SWAP2 DUP3 MSTORE PUSH1 0x20 DUP1 DUP4 KECCAK256 PUSH1 0x40 DUP1 MLOAD PUSH1 0xA0 DUP2 ADD DUP3 MSTORE PUSH1 0x6 SWAP1 SWAP5 MUL SWAP1 SWAP2 ADD DUP1 SLOAD PUSH1 0x1 PUSH1 0x1 PUSH1 0xA0 SHL SUB SWAP1 DUP2 AND DUP1 DUP7 MSTORE PUSH1 0x1 DUP4 ADD SLOAD SWAP5 DUP7 ADD DUP6 SWAP1 MSTORE PUSH1 0x2 DUP4 ADD SLOAD SWAP4 DUP7 ADD SWAP4 SWAP1 SWAP4 MSTORE PUSH1 0x3 DUP3 ADD SLOAD PUSH1 0x60 DUP7 ADD MSTORE PUSH1 0x4 SWAP1 SWAP2 ADD SLOAD PUSH1 0xFF AND ISZERO ISZERO PUSH1 0x80 DUP6 ADD MSTORE SWAP4 SLOAD SWAP3 SWAP5 POP SWAP3 SWAP1 SWAP2 CALLER SWAP2 AND EQ PUSH2 0x2883 JUMPI PUSH2 0x2871 DUP5 PUSH2 0x3426 JUMP JUMPDEST PUSH2 0x287A JUMPI PUSH1 0x0 DUP1 REVERT JUMPDEST PUSH2 0x2883 DUP2 PUSH2 0x394E JUMP JUMPDEST PUSH1 0x10 DUP5 DUP2 SLOAD DUP2 LT PUSH2 0x2890 JUMPI INVALID JUMPDEST PUSH1 0x0 SWAP2 DUP3 MSTORE PUSH1 0x20 DUP3 KECCAK256 PUSH1 0x6 SWAP1 SWAP2 MUL ADD DUP1 SLOAD PUSH32 0xFFFFFFFFFFFFFFFFFFFFFFFF0000000000000000000000000000000000000000 AND DUP2 SSTORE PUSH1 0x1 DUP2 ADD DUP3 SWAP1 SSTORE PUSH1 0x2 DUP2 ADD DUP3 SWAP1 SSTORE PUSH1 0x3 DUP2 ADD DUP3 SWAP1 SSTORE PUSH1 0x4 SWAP1 DUP2 ADD DUP1 SLOAD PUSH32 0xFFFFFFFFFFFFFFFFFFFFFFFFFFFFFFFFFFFFFFFFFFFFFFFFFFFFFFFFFFFFFF00 AND SWAP1 SSTORE PUSH1 0x11 SLOAD PUSH1 0x40 DUP1 MLOAD PUSH32 0x40C10F1900000000000000000000000000000000000000000000000000000000 DUP2 MSTORE PUSH1 0x1 PUSH1 0x1 PUSH1 0xA0 SHL SUB DUP8 DUP2 AND SWAP5 DUP3 ADD SWAP5 SWAP1 SWAP5 MSTORE PUSH1 0x24 DUP2 ADD DUP7 SWAP1 MSTORE SWAP1 MLOAD SWAP2 SWAP1 SWAP3 AND SWAP3 PUSH4 0x40C10F19 SWAP3 PUSH1 0x44 DUP1 DUP3 ADD SWAP4 SWAP2 DUP3 SWAP1 SUB ADD DUP2 DUP4 DUP8 DUP1 EXTCODESIZE ISZERO DUP1 ISZERO PUSH2 0x2971 JUMPI PUSH1 0x0 DUP1 REVERT JUMPDEST POP GAS CALL ISZERO DUP1 ISZERO PUSH2 0x2985 JUMPI RETURNDATASIZE PUSH1 0x0 DUP1 RETURNDATACOPY RETURNDATASIZE PUSH1 0x0 REVERT JUMPDEST POP POP PUSH1 0x40 DUP1 MLOAD DUP8 DUP2 MSTORE CALLER PUSH1 0x20 DUP3 ADD MSTORE DUP2 MLOAD DUP6 SWAP5 POP PUSH1 0x1 PUSH1 0x1 PUSH1 0xA0 SHL SUB DUP8 AND SWAP4 POP PUSH32 0x9A0DCEE498442C144388E9D1DD09ACDF74FFC3BCE9CB52841186C1D8AC032154 SWAP3 SWAP2 DUP2 SWAP1 SUB SWAP1 SWAP2 ADD SWAP1 LOG3 POP POP POP POP JUMP JUMPDEST PUSH1 0x0 SLOAD PUSH1 0x1 PUSH1 0x1 PUSH1 0xA0 SHL SUB AND CALLER EQ PUSH2 0x2A35 JUMPI PUSH1 0x40 DUP1 MLOAD PUSH3 0x461BCD PUSH1 0xE5 SHL DUP2 MSTORE PUSH1 0x20 PUSH1 0x4 DUP3 ADD MSTORE PUSH1 0xA PUSH1 0x24 DUP3 ADD MSTORE PUSH32 0x6F6E6C79204F776E657200000000000000000000000000000000000000000000 PUSH1 0x44 DUP3 ADD MSTORE SWAP1 MLOAD SWAP1 DUP2 SWAP1 SUB PUSH1 0x64 ADD SWAP1 REVERT JUMPDEST PUSH1 0x40 MLOAD PUSH1 0x1 PUSH1 0x1 PUSH1 0xA0 SHL SUB DUP3 AND SWAP1 SELFBALANCE DUP1 ISZERO PUSH2 0x8FC MUL SWAP2 PUSH1 0x0 DUP2 DUP2 DUP2 DUP6 DUP9 DUP9 CALL SWAP4 POP POP POP POP ISZERO DUP1 ISZERO PUSH2 0x2A6A JUMPI RETURNDATASIZE PUSH1 0x0 DUP1 RETURNDATACOPY RETURNDATASIZE PUSH1 0x0 REVERT JUMPDEST POP POP JUMP JUMPDEST PUSH1 0xB DUP2 PUSH1 0x2 DUP2 LT PUSH2 0x2A7B JUMPI INVALID JUMPDEST ADD SLOAD PUSH1 0x1 PUSH1 0x1 PUSH1 0xA0 SHL SUB AND SWAP1 POP DUP2 JUMP JUMPDEST PUSH1 0x0 SLOAD PUSH1 0x1 PUSH1 0x1 PUSH1 0xA0 SHL SUB AND CALLER EQ PUSH2 0x2AEA JUMPI PUSH1 0x40 DUP1 MLOAD PUSH3 0x461BCD PUSH1 0xE5 SHL DUP2 MSTORE PUSH1 0x20 PUSH1 0x4 DUP3 ADD MSTORE PUSH1 0xA PUSH1 0x24 DUP3 ADD MSTORE PUSH32 0x6F6E6C79204F776E657200000000000000000000000000000000000000000000 PUSH1 0x44 DUP3 ADD MSTORE SWAP1 MLOAD SWAP1 DUP2 SWAP1 SUB PUSH1 0x64 ADD SWAP1 REVERT JUMPDEST PUSH1 0x7 SLOAD PUSH1 0xA SSTORE PUSH1 0x40 MLOAD PUSH32 0xF887EFB579B3283F395871614F44A2FD3021DDF59E72A91195F5DA936EBAA06D SWAP1 PUSH1 0x0 SWAP1 LOG1 JUMP JUMPDEST PUSH1 0x14 SLOAD PUSH1 0x1 PUSH1 0x1 PUSH1 0xA0 SHL SUB AND CALLER EQ DUP1 PUSH2 0x2B3E JUMPI POP PUSH1 0x0 SLOAD PUSH1 0x1 PUSH1 0x1 PUSH1 0xA0 SHL SUB AND CALLER EQ JUMPDEST PUSH2 0x2B8F JUMPI PUSH1 0x40 DUP1 MLOAD PUSH3 0x461BCD PUSH1 0xE5 SHL DUP2 MSTORE PUSH1 0x20 PUSH1 0x4 DUP3 ADD MSTORE PUSH1 0x1D PUSH1 0x24 DUP3 ADD MSTORE PUSH32 0x6D7573742062652067617320726566756E646572206F72206F776E6572000000 PUSH1 0x44 DUP3 ADD MSTORE SWAP1 MLOAD SWAP1 DUP2 SWAP1 SUB PUSH1 0x64 ADD SWAP1 REVERT JUMPDEST PUSH1 0x0 GAS SWAP1 POP DUP2 PUSH1 0x1 PUSH1 0x1 PUSH1 0xA0 SHL SUB AND PUSH4 0x7F5A7C7B PUSH1 0x40 MLOAD DUP2 PUSH4 0xFFFFFFFF AND PUSH1 0xE0 SHL DUP2 MSTORE PUSH1 0x4 ADD PUSH1 0x0 PUSH1 0x40 MLOAD DUP1 DUP4 SUB DUP2 PUSH1 0x0 DUP8 DUP1 EXTCODESIZE ISZERO DUP1 ISZERO PUSH2 0x2BCF JUMPI PUSH1 0x0 DUP1 REVERT JUMPDEST POP GAS CALL ISZERO DUP1 ISZERO PUSH2 0x2BE3 JUMPI RETURNDATASIZE PUSH1 0x0 DUP1 RETURNDATACOPY RETURNDATASIZE PUSH1 0x0 REVERT JUMPDEST POP POP POP POP PUSH1 0x0 PUSH2 0x2BFA GAS DUP4 SWAP1 PUSH4 0xFFFFFFFF PUSH2 0x390C AND JUMP JUMPDEST PUSH1 0x11 SLOAD SWAP1 SWAP2 POP PUSH1 0x1 PUSH1 0x1 PUSH1 0xA0 SHL SUB AND PUSH4 0x17C931BD PUSH2 0x2C20 DUP4 PUSH2 0x61A8 PUSH4 0xFFFFFFFF PUSH2 0x399C AND JUMP JUMPDEST PUSH1 0x40 MLOAD DUP3 PUSH4 0xFFFFFFFF AND PUSH1 0xE0 SHL DUP2 MSTORE PUSH1 0x4 ADD DUP1 DUP3 DUP2 MSTORE PUSH1 0x20 ADD SWAP2 POP POP PUSH1 0x0 PUSH1 0x40 MLOAD DUP1 DUP4 SUB DUP2 PUSH1 0x0 DUP8 DUP1 EXTCODESIZE ISZERO DUP1 ISZERO PUSH2 0x2C56 JUMPI PUSH1 0x0 DUP1 REVERT JUMPDEST POP GAS CALL ISZERO DUP1 ISZERO PUSH2 0x2C6A JUMPI RETURNDATASIZE PUSH1 0x0 DUP1 RETURNDATACOPY RETURNDATASIZE PUSH1 0x0 REVERT JUMPDEST POP POP POP POP POP POP POP JUMP JUMPDEST PUSH1 0x0 SLOAD PUSH1 0x1 PUSH1 0x1 PUSH1 0xA0 SHL SUB AND CALLER EQ PUSH2 0x2CD2 JUMPI PUSH1 0x40 DUP1 MLOAD PUSH3 0x461BCD PUSH1 0xE5 SHL DUP2 MSTORE PUSH1 0x20 PUSH1 0x4 DUP3 ADD MSTORE PUSH1 0xA PUSH1 0x24 DUP3 ADD MSTORE PUSH32 0x6F6E6C79204F776E657200000000000000000000000000000000000000000000 PUSH1 0x44 DUP3 ADD MSTORE SWAP1 MLOAD SWAP1 DUP2 SWAP1 SUB PUSH1 0x64 ADD SWAP1 REVERT JUMPDEST PUSH1 0x12 DUP1 SLOAD PUSH32 0xFFFFFFFFFFFFFFFFFFFFFFFF0000000000000000000000000000000000000000 AND PUSH1 0x1 PUSH1 0x1 PUSH1 0xA0 SHL SUB DUP4 DUP2 AND SWAP2 SWAP1 SWAP2 OR SWAP2 DUP3 SWAP1 SSTORE PUSH1 0x40 MLOAD SWAP2 AND SWAP1 PUSH32 0x278C70CED5F3E0E5EEB385B5FF9CB735748BA00A625147E66065ED48FC1562CD SWAP1 PUSH1 0x0 SWAP1 LOG2 POP JUMP JUMPDEST PUSH1 0x12 SLOAD PUSH1 0x40 DUP1 MLOAD PUSH32 0x7338C25C00000000000000000000000000000000000000000000000000000000 DUP2 MSTORE CALLER PUSH1 0x4 DUP3 ADD MSTORE PUSH32 0x6973545553444D696E7450617573657273000000000000000000000000000000 PUSH1 0x24 DUP3 ADD MSTORE SWAP1 MLOAD PUSH1 0x1 PUSH1 0x1 PUSH1 0xA0 SHL SUB SWAP1 SWAP3 AND SWAP2 PUSH4 0x7338C25C SWAP2 PUSH1 0x44 DUP1 DUP3 ADD SWAP3 PUSH1 0x20 SWAP3 SWAP1 SWAP2 SWAP1 DUP3 SWAP1 SUB ADD DUP2 DUP7 DUP1 EXTCODESIZE ISZERO DUP1 ISZERO PUSH2 0x2DC4 JUMPI PUSH1 0x0 DUP1 REVERT JUMPDEST POP GAS STATICCALL ISZERO DUP1 ISZERO PUSH2 0x2DD8 JUMPI RETURNDATASIZE PUSH1 0x0 DUP1 RETURNDATACOPY RETURNDATASIZE PUSH1 0x0 REVERT JUMPDEST POP POP POP POP PUSH1 0x40 MLOAD RETURNDATASIZE PUSH1 0x20 DUP2 LT ISZERO PUSH2 0x2DEE JUMPI PUSH1 0x0 DUP1 REVERT JUMPDEST POP MLOAD DUP1 PUSH2 0x2E05 JUMPI POP PUSH1 0x0 SLOAD PUSH1 0x1 PUSH1 0x1 PUSH1 0xA0 SHL SUB AND CALLER EQ JUMPDEST PUSH2 0x2E56 JUMPI PUSH1 0x40 DUP1 MLOAD PUSH3 0x461BCD PUSH1 0xE5 SHL DUP2 MSTORE PUSH1 0x20 PUSH1 0x4 DUP3 ADD MSTORE PUSH1 0x17 PUSH1 0x24 DUP3 ADD MSTORE PUSH32 0x6D75737420626520706175736572206F72206F776E6572000000000000000000 PUSH1 0x44 DUP3 ADD MSTORE SWAP1 MLOAD SWAP1 DUP2 SWAP1 SUB PUSH1 0x64 ADD SWAP1 REVERT JUMPDEST PUSH1 0xD DUP1 SLOAD PUSH32 0xFFFFFFFFFFFFFFFFFFFFFFFFFFFFFFFFFFFFFFFFFFFFFFFFFFFFFFFFFFFFFF00 AND PUSH1 0x1 SWAP1 DUP2 OR SWAP1 SWAP2 SSTORE PUSH1 0x40 DUP1 MLOAD SWAP2 DUP3 MSTORE MLOAD PUSH32 0x6CB4A816BE468261438A85ABAE2D59DE6BC19B06D3A76E2F3ACFD656D85A2EE9 SWAP2 DUP2 SWAP1 SUB PUSH1 0x20 ADD SWAP1 LOG1 JUMP JUMPDEST PUSH1 0x0 SLOAD PUSH1 0x1 PUSH1 0x1 PUSH1 0xA0 SHL SUB AND CALLER EQ PUSH2 0x2F17 JUMPI PUSH1 0x40 DUP1 MLOAD PUSH3 0x461BCD PUSH1 0xE5 SHL DUP2 MSTORE PUSH1 0x20 PUSH1 0x4 DUP3 ADD MSTORE PUSH1 0xA PUSH1 0x24 DUP3 ADD MSTORE PUSH32 0x6F6E6C79204F776E657200000000000000000000000000000000000000000000 PUSH1 0x44 DUP3 ADD MSTORE SWAP1 MLOAD SWAP1 DUP2 SWAP1 SUB PUSH1 0x64 ADD SWAP1 REVERT JUMPDEST DUP2 PUSH1 0x1 PUSH1 0x1 PUSH1 0xA0 SHL SUB AND PUSH4 0xF2FDE38B DUP3 PUSH1 0x40 MLOAD DUP3 PUSH4 0xFFFFFFFF AND PUSH1 0xE0 SHL DUP2 MSTORE PUSH1 0x4 ADD DUP1 DUP3 PUSH1 0x1 PUSH1 0x1 PUSH1 0xA0 SHL SUB AND PUSH1 0x1 PUSH1 0x1 PUSH1 0xA0 SHL SUB AND DUP2 MSTORE PUSH1 0x20 ADD SWAP2 POP POP PUSH1 0x0 PUSH1 0x40 MLOAD DUP1 DUP4 SUB DUP2 PUSH1 0x0 DUP8 DUP1 EXTCODESIZE ISZERO DUP1 ISZERO PUSH2 0x2F6F JUMPI PUSH1 0x0 DUP1 REVERT JUMPDEST POP GAS CALL ISZERO DUP1 ISZERO PUSH2 0x2F83 JUMPI RETURNDATASIZE PUSH1 0x0 DUP1 RETURNDATACOPY RETURNDATASIZE PUSH1 0x0 REVERT JUMPDEST POP POP PUSH1 0x40 MLOAD PUSH1 0x1 PUSH1 0x1 PUSH1 0xA0 SHL SUB DUP1 DUP6 AND SWAP4 POP DUP6 AND SWAP2 POP PUSH32 0x425A9EF6E4130595DE2345FA70AEBBDF0431120D720B65C46F16C69EC2BFBF69 SWAP1 PUSH1 0x0 SWAP1 LOG3 POP POP JUMP JUMPDEST PUSH1 0xA SLOAD DUP2 JUMP JUMPDEST PUSH1 0x12 SLOAD PUSH1 0x40 DUP1 MLOAD PUSH32 0x7338C25C00000000000000000000000000000000000000000000000000000000 DUP2 MSTORE CALLER PUSH1 0x4 DUP3 ADD MSTORE PUSH32 0x6973545553444D696E7452617469666965720000000000000000000000000000 PUSH1 0x24 DUP3 ADD MSTORE SWAP1 MLOAD PUSH1 0x1 PUSH1 0x1 PUSH1 0xA0 SHL SUB SWAP1 SWAP3 AND SWAP2 PUSH4 0x7338C25C SWAP2 PUSH1 0x44 DUP1 DUP3 ADD SWAP3 PUSH1 0x20 SWAP3 SWAP1 SWAP2 SWAP1 DUP3 SWAP1 SUB ADD DUP2 DUP7 DUP1 EXTCODESIZE ISZERO DUP1 ISZERO PUSH2 0x3053 JUMPI PUSH1 0x0 DUP1 REVERT JUMPDEST POP GAS STATICCALL ISZERO DUP1 ISZERO PUSH2 0x3067 JUMPI RETURNDATASIZE PUSH1 0x0 DUP1 RETURNDATACOPY RETURNDATASIZE PUSH1 0x0 REVERT JUMPDEST POP POP POP POP PUSH1 0x40 MLOAD RETURNDATASIZE PUSH1 0x20 DUP2 LT ISZERO PUSH2 0x307D JUMPI PUSH1 0x0 DUP1 REVERT JUMPDEST POP MLOAD DUP1 PUSH2 0x3094 JUMPI POP PUSH1 0x0 SLOAD PUSH1 0x1 PUSH1 0x1 PUSH1 0xA0 SHL SUB AND CALLER EQ JUMPDEST PUSH2 0x30E5 JUMPI PUSH1 0x40 DUP1 MLOAD PUSH3 0x461BCD PUSH1 0xE5 SHL DUP2 MSTORE PUSH1 0x20 PUSH1 0x4 DUP3 ADD MSTORE PUSH1 0x19 PUSH1 0x24 DUP3 ADD MSTORE PUSH32 0x6D757374206265207261746966696572206F72206F776E657200000000000000 PUSH1 0x44 DUP3 ADD MSTORE SWAP1 MLOAD SWAP1 DUP2 SWAP1 SUB PUSH1 0x64 ADD SWAP1 REVERT JUMPDEST PUSH2 0x310E PUSH2 0x30FF PUSH1 0x8 SLOAD PUSH1 0x5 SLOAD PUSH2 0x390C SWAP1 SWAP2 SWAP1 PUSH4 0xFFFFFFFF AND JUMP JUMPDEST PUSH1 0x9 SLOAD SWAP1 PUSH4 0xFFFFFFFF PUSH2 0x390C AND JUMP JUMPDEST PUSH1 0x9 SSTORE PUSH1 0x5 SLOAD PUSH1 0x8 SSTORE PUSH1 0x40 MLOAD PUSH32 0xFEBCE9A3DBC55FE4E42CABD1229670F5E1ED4CBF008685F75392A050AB9561FD SWAP1 PUSH1 0x0 SWAP1 LOG1 JUMP JUMPDEST PUSH1 0x0 SLOAD PUSH1 0x1 PUSH1 0x1 PUSH1 0xA0 SHL SUB AND CALLER EQ PUSH2 0x31A1 JUMPI PUSH1 0x40 DUP1 MLOAD PUSH3 0x461BCD PUSH1 0xE5 SHL DUP2 MSTORE PUSH1 0x20 PUSH1 0x4 DUP3 ADD MSTORE PUSH1 0xA PUSH1 0x24 DUP3 ADD MSTORE PUSH32 0x6F6E6C79204F776E657200000000000000000000000000000000000000000000 PUSH1 0x44 DUP3 ADD MSTORE SWAP1 MLOAD SWAP1 DUP2 SWAP1 SUB PUSH1 0x64 ADD SWAP1 REVERT JUMPDEST PUSH1 0x1 PUSH1 0x1 PUSH1 0xA0 SHL SUB DUP2 AND PUSH2 0x31FC JUMPI PUSH1 0x40 DUP1 MLOAD PUSH3 0x461BCD PUSH1 0xE5 SHL DUP2 MSTORE PUSH1 0x20 PUSH1 0x4 DUP3 ADD MSTORE PUSH1 0x1A PUSH1 0x24 DUP3 ADD MSTORE PUSH32 0x6E6577206D696E74206B65792063616E6E6F7420626520307830000000000000 PUSH1 0x44 DUP3 ADD MSTORE SWAP1 MLOAD SWAP1 DUP2 SWAP1 SUB PUSH1 0x64 ADD SWAP1 REVERT JUMPDEST PUSH1 0xF SLOAD PUSH1 0x40 MLOAD PUSH1 0x1 PUSH1 0x1 PUSH1 0xA0 SHL SUB DUP1 DUP5 AND SWAP3 AND SWAP1 PUSH32 0xFBD0B5E594E818883D41B4DE49805781C984D030597177B02C741CAFE04BF21B SWAP1 PUSH1 0x0 SWAP1 LOG3 PUSH1 0xF DUP1 SLOAD PUSH32 0xFFFFFFFFFFFFFFFFFFFFFFFF0000000000000000000000000000000000000000 AND PUSH1 0x1 PUSH1 0x1 PUSH1 0xA0 SHL SUB SWAP3 SWAP1 SWAP3 AND SWAP2 SWAP1 SWAP2 OR SWAP1 SSTORE JUMP JUMPDEST PUSH1 0x13 SLOAD PUSH1 0x1 PUSH1 0x1 PUSH1 0xA0 SHL SUB AND CALLER EQ DUP1 PUSH2 0x3293 JUMPI POP PUSH1 0x0 SLOAD PUSH1 0x1 PUSH1 0x1 PUSH1 0xA0 SHL SUB AND CALLER EQ JUMPDEST PUSH2 0x32E4 JUMPI PUSH1 0x40 DUP1 MLOAD PUSH3 0x461BCD PUSH1 0xE5 SHL DUP2 MSTORE PUSH1 0x20 PUSH1 0x4 DUP3 ADD MSTORE PUSH1 0x1F PUSH1 0x24 DUP3 ADD MSTORE PUSH32 0x6D7573742062652072656769737472792061646D696E206F72206F776E657200 PUSH1 0x44 DUP3 ADD MSTORE SWAP1 MLOAD SWAP1 DUP2 SWAP1 SUB PUSH1 0x64 ADD SWAP1 REVERT JUMPDEST PUSH1 0x11 SLOAD PUSH1 0x40 DUP1 MLOAD PUSH32 0xD01DD6D200000000000000000000000000000000000000000000000000000000 DUP2 MSTORE PUSH1 0x1 PUSH1 0x1 PUSH1 0xA0 SHL SUB DUP6 DUP2 AND PUSH1 0x4 DUP4 ADD MSTORE DUP5 ISZERO ISZERO PUSH1 0x24 DUP4 ADD MSTORE SWAP2 MLOAD SWAP2 SWAP1 SWAP3 AND SWAP2 PUSH4 0xD01DD6D2 SWAP2 PUSH1 0x44 DUP1 DUP4 ADD SWAP3 PUSH1 0x0 SWAP3 SWAP2 SWAP1 DUP3 SWAP1 SUB ADD DUP2 DUP4 DUP8 DUP1 EXTCODESIZE ISZERO DUP1 ISZERO PUSH2 0xAC8 JUMPI PUSH1 0x0 DUP1 REVERT JUMPDEST PUSH1 0xE SLOAD DUP2 JUMP JUMPDEST PUSH1 0x14 SLOAD PUSH1 0x1 PUSH1 0x1 PUSH1 0xA0 SHL SUB AND DUP2 JUMP JUMPDEST PUSH1 0x0 SLOAD PUSH1 0x1 PUSH1 0x1 PUSH1 0xA0 SHL SUB AND CALLER EQ PUSH2 0x33C7 JUMPI PUSH1 0x40 DUP1 MLOAD PUSH3 0x461BCD PUSH1 0xE5 SHL DUP2 MSTORE PUSH1 0x20 PUSH1 0x4 DUP3 ADD MSTORE PUSH1 0xA PUSH1 0x24 DUP3 ADD MSTORE PUSH32 0x6F6E6C79204F776E657200000000000000000000000000000000000000000000 PUSH1 0x44 DUP3 ADD MSTORE SWAP1 MLOAD SWAP1 DUP2 SWAP1 SUB PUSH1 0x64 ADD SWAP1 REVERT JUMPDEST PUSH1 0x11 PUSH1 0x0 SWAP1 SLOAD SWAP1 PUSH2 0x100 EXP SWAP1 DIV PUSH1 0x1 PUSH1 0x1 PUSH1 0xA0 SHL SUB AND PUSH1 0x1 PUSH1 0x1 PUSH1 0xA0 SHL SUB AND PUSH4 0x9965B3D6 PUSH1 0x40 MLOAD DUP2 PUSH4 0xFFFFFFFF AND PUSH1 0xE0 SHL DUP2 MSTORE PUSH1 0x4 ADD PUSH1 0x0 PUSH1 0x40 MLOAD DUP1 DUP4 SUB DUP2 PUSH1 0x0 DUP8 DUP1 EXTCODESIZE ISZERO DUP1 ISZERO PUSH2 0x1298 JUMPI PUSH1 0x0 DUP1 REVERT JUMPDEST PUSH1 0x1 SLOAD PUSH1 0x1 PUSH1 0x1 PUSH1 0xA0 SHL SUB AND DUP2 JUMP JUMPDEST PUSH1 0x0 PUSH2 0x3430 PUSH2 0x3ADA JUMP JUMPDEST PUSH1 0x10 DUP4 DUP2 SLOAD DUP2 LT PUSH2 0x343D JUMPI INVALID JUMPDEST PUSH1 0x0 SWAP2 DUP3 MSTORE PUSH1 0x20 SWAP2 DUP3 SWAP1 KECCAK256 PUSH1 0x40 DUP1 MLOAD PUSH1 0xA0 DUP2 ADD DUP3 MSTORE PUSH1 0x6 SWAP1 SWAP4 MUL SWAP1 SWAP2 ADD DUP1 SLOAD PUSH1 0x1 PUSH1 0x1 PUSH1 0xA0 SHL SUB AND DUP4 MSTORE PUSH1 0x1 DUP2 ADD SLOAD SWAP4 DUP4 ADD SWAP4 SWAP1 SWAP4 MSTORE PUSH1 0x2 DUP4 ADD SLOAD SWAP1 DUP3 ADD DUP2 SWAP1 MSTORE PUSH1 0x3 DUP4 ADD SLOAD PUSH1 0x60 DUP4 ADD MSTORE PUSH1 0x4 SWAP1 SWAP3 ADD SLOAD PUSH1 0xFF AND ISZERO ISZERO PUSH1 0x80 DUP3 ADD MSTORE PUSH1 0xE SLOAD SWAP1 SWAP3 POP LT PUSH2 0x34F0 JUMPI PUSH1 0x40 DUP1 MLOAD PUSH3 0x461BCD PUSH1 0xE5 SHL DUP2 MSTORE PUSH1 0x20 PUSH1 0x4 DUP3 ADD MSTORE PUSH1 0x14 PUSH1 0x24 DUP3 ADD MSTORE PUSH32 0x74686973206D696E7420697320696E76616C6964000000000000000000000000 PUSH1 0x44 DUP3 ADD MSTORE SWAP1 MLOAD SWAP1 DUP2 SWAP1 SUB PUSH1 0x64 ADD SWAP1 REVERT JUMPDEST DUP1 PUSH1 0x80 ADD MLOAD ISZERO PUSH2 0x3547 JUMPI PUSH1 0x40 DUP1 MLOAD PUSH3 0x461BCD PUSH1 0xE5 SHL DUP2 MSTORE PUSH1 0x20 PUSH1 0x4 DUP3 ADD MSTORE PUSH1 0x13 PUSH1 0x24 DUP3 ADD MSTORE PUSH32 0x74686973206D696E742069732070617573656400000000000000000000000000 PUSH1 0x44 DUP3 ADD MSTORE SWAP1 MLOAD SWAP1 DUP2 SWAP1 SUB PUSH1 0x64 ADD SWAP1 REVERT JUMPDEST PUSH2 0x3559 DUP2 PUSH1 0x60 ADD MLOAD DUP3 PUSH1 0x20 ADD MLOAD PUSH2 0x1147 JUMP JUMPDEST PUSH2 0x35AA JUMPI PUSH1 0x40 DUP1 MLOAD PUSH3 0x461BCD PUSH1 0xE5 SHL DUP2 MSTORE PUSH1 0x20 PUSH1 0x4 DUP3 ADD MSTORE PUSH1 0x14 PUSH1 0x24 DUP3 ADD MSTORE PUSH32 0x6E6F7420656E6F75676820617070726F76616C73000000000000000000000000 PUSH1 0x44 DUP3 ADD MSTORE SWAP1 MLOAD SWAP1 DUP2 SWAP1 SUB PUSH1 0x64 ADD SWAP1 REVERT JUMPDEST POP PUSH1 0x1 SWAP3 SWAP2 POP POP JUMP JUMPDEST PUSH1 0x6 SLOAD DUP2 JUMP JUMPDEST PUSH1 0x10 DUP2 DUP2 SLOAD DUP2 LT PUSH2 0x35C6 JUMPI INVALID JUMPDEST PUSH1 0x0 SWAP2 DUP3 MSTORE PUSH1 0x20 SWAP1 SWAP2 KECCAK256 PUSH1 0x6 SWAP1 SWAP2 MUL ADD DUP1 SLOAD PUSH1 0x1 DUP3 ADD SLOAD PUSH1 0x2 DUP4 ADD SLOAD PUSH1 0x3 DUP5 ADD SLOAD PUSH1 0x4 SWAP1 SWAP5 ADD SLOAD PUSH1 0x1 PUSH1 0x1 PUSH1 0xA0 SHL SUB SWAP1 SWAP4 AND SWAP5 POP SWAP1 SWAP3 SWAP1 SWAP2 PUSH1 0xFF AND DUP6 JUMP JUMPDEST PUSH1 0x3 DUP2 JUMP JUMPDEST PUSH20 0x3C8984DCE8F68FCDEEEAFD9E0ECA3598562ED291 DUP2 JUMP JUMPDEST PUSH1 0x0 SLOAD PUSH1 0x1 PUSH1 0x1 PUSH1 0xA0 SHL SUB AND CALLER EQ PUSH2 0x3680 JUMPI PUSH1 0x40 DUP1 MLOAD PUSH3 0x461BCD PUSH1 0xE5 SHL DUP2 MSTORE PUSH1 0x20 PUSH1 0x4 DUP3 ADD MSTORE PUSH1 0xA PUSH1 0x24 DUP3 ADD MSTORE PUSH32 0x6F6E6C79204F776E657200000000000000000000000000000000000000000000 PUSH1 0x44 DUP3 ADD MSTORE SWAP1 MLOAD SWAP1 DUP2 SWAP1 SUB PUSH1 0x64 ADD SWAP1 REVERT JUMPDEST PUSH1 0x1 DUP1 SLOAD PUSH32 0xFFFFFFFFFFFFFFFFFFFFFFFF0000000000000000000000000000000000000000 AND PUSH1 0x1 PUSH1 0x1 PUSH1 0xA0 SHL SUB DUP4 DUP2 AND SWAP2 SWAP1 SWAP2 OR SWAP2 DUP3 SWAP1 SSTORE PUSH1 0x0 DUP1 SLOAD PUSH1 0x40 MLOAD SWAP4 DUP4 AND SWAP4 SWAP3 AND SWAP2 PUSH32 0xEC070B46448FEDE8B4A9A9F8D7919141B5E1C729397ECCB0C59AF2D6D9FC2D6C SWAP2 SWAP1 LOG3 POP JUMP JUMPDEST PUSH1 0x0 SLOAD PUSH1 0x1 PUSH1 0x1 PUSH1 0xA0 SHL SUB AND CALLER EQ PUSH2 0x374D JUMPI PUSH1 0x40 DUP1 MLOAD PUSH3 0x461BCD PUSH1 0xE5 SHL DUP2 MSTORE PUSH1 0x20 PUSH1 0x4 DUP3 ADD MSTORE PUSH1 0xA PUSH1 0x24 DUP3 ADD MSTORE PUSH32 0x6F6E6C79204F776E657200000000000000000000000000000000000000000000 PUSH1 0x44 DUP3 ADD MSTORE SWAP1 MLOAD SWAP1 DUP2 SWAP1 SUB PUSH1 0x64 ADD SWAP1 REVERT JUMPDEST PUSH1 0xD DUP1 SLOAD PUSH32 0xFFFFFFFFFFFFFFFFFFFFFFFFFFFFFFFFFFFFFFFFFFFFFFFFFFFFFFFFFFFFFF00 AND SWAP1 SSTORE PUSH1 0x40 DUP1 MLOAD PUSH1 0x0 DUP2 MSTORE SWAP1 MLOAD PUSH32 0x6CB4A816BE468261438A85ABAE2D59DE6BC19B06D3A76E2F3ACFD656D85A2EE9 SWAP2 DUP2 SWAP1 SUB PUSH1 0x20 ADD SWAP1 LOG1 JUMP JUMPDEST PUSH1 0x0 SLOAD PUSH1 0x1 PUSH1 0x1 PUSH1 0xA0 SHL SUB AND CALLER EQ PUSH2 0x380A JUMPI PUSH1 0x40 DUP1 MLOAD PUSH3 0x461BCD PUSH1 0xE5 SHL DUP2 MSTORE PUSH1 0x20 PUSH1 0x4 DUP3 ADD MSTORE PUSH1 0xA PUSH1 0x24 DUP3 ADD MSTORE PUSH32 0x6F6E6C79204F776E657200000000000000000000000000000000000000000000 PUSH1 0x44 DUP3 ADD MSTORE SWAP1 MLOAD SWAP1 DUP2 SWAP1 SUB PUSH1 0x64 ADD SWAP1 REVERT JUMPDEST PUSH1 0x11 SLOAD PUSH1 0x0 DUP1 SLOAD PUSH1 0x40 DUP1 MLOAD PUSH32 0x9A6A30A400000000000000000000000000000000000000000000000000000000 DUP2 MSTORE PUSH1 0x1 PUSH1 0x1 PUSH1 0xA0 SHL SUB SWAP3 DUP4 AND PUSH1 0x4 DUP3 ADD MSTORE SWAP1 MLOAD SWAP2 SWAP1 SWAP4 AND SWAP3 PUSH4 0x9A6A30A4 SWAP3 PUSH1 0x24 DUP1 DUP4 ADD SWAP4 SWAP2 SWAP3 DUP3 SWAP1 SUB ADD DUP2 DUP4 DUP8 DUP1 EXTCODESIZE ISZERO DUP1 ISZERO PUSH2 0x1298 JUMPI PUSH1 0x0 DUP1 REVERT JUMPDEST PUSH32 0x697354555344526564656D7074696F6E41646D696E0000000000000000000000 DUP2 JUMP JUMPDEST PUSH1 0x11 SLOAD PUSH1 0x1 PUSH1 0x1 PUSH1 0xA0 SHL SUB AND DUP2 JUMP JUMPDEST PUSH1 0x5 SLOAD DUP2 JUMP JUMPDEST PUSH1 0x0 DUP3 DUP3 ADD DUP4 DUP2 LT ISZERO PUSH2 0x3905 JUMPI PUSH1 0x40 DUP1 MLOAD PUSH3 0x461BCD PUSH1 0xE5 SHL DUP2 MSTORE PUSH1 0x20 PUSH1 0x4 DUP3 ADD MSTORE PUSH1 0x1B PUSH1 0x24 DUP3 ADD MSTORE PUSH32 0x536166654D6174683A206164646974696F6E206F766572666C6F770000000000 PUSH1 0x44 DUP3 ADD MSTORE SWAP1 MLOAD SWAP1 DUP2 SWAP1 SUB PUSH1 0x64 ADD SWAP1 REVERT JUMPDEST SWAP4 SWAP3 POP POP POP JUMP JUMPDEST PUSH1 0x0 PUSH2 0x3905 DUP4 DUP4 PUSH1 0x40 MLOAD DUP1 PUSH1 0x40 ADD PUSH1 0x40 MSTORE DUP1 PUSH1 0x1E DUP2 MSTORE PUSH1 0x20 ADD PUSH32 0x536166654D6174683A207375627472616374696F6E206F766572666C6F770000 DUP2 MSTORE POP PUSH2 0x39DE JUMP JUMPDEST PUSH1 0x9 SLOAD DUP2 GT ISZERO DUP1 ISZERO PUSH2 0x3962 JUMPI POP PUSH1 0x3 SLOAD DUP2 GT ISZERO JUMPDEST ISZERO PUSH2 0x3982 JUMPI PUSH1 0x9 SLOAD PUSH2 0x397A SWAP1 DUP3 PUSH4 0xFFFFFFFF PUSH2 0x390C AND JUMP JUMPDEST PUSH1 0x9 SSTORE PUSH2 0x3999 JUMP JUMPDEST PUSH1 0xA SLOAD PUSH2 0x3995 SWAP1 DUP3 PUSH4 0xFFFFFFFF PUSH2 0x390C AND JUMP JUMPDEST PUSH1 0xA SSTORE JUMPDEST POP JUMP JUMPDEST PUSH1 0x0 PUSH2 0x3905 DUP4 DUP4 PUSH1 0x40 MLOAD DUP1 PUSH1 0x40 ADD PUSH1 0x40 MSTORE DUP1 PUSH1 0x1A DUP2 MSTORE PUSH1 0x20 ADD PUSH32 0x536166654D6174683A206469766973696F6E206279207A65726F000000000000 DUP2 MSTORE POP PUSH2 0x3A75 JUMP JUMPDEST PUSH1 0x0 DUP2 DUP5 DUP5 GT ISZERO PUSH2 0x3A6D JUMPI PUSH1 0x40 MLOAD PUSH3 0x461BCD PUSH1 0xE5 SHL DUP2 MSTORE PUSH1 0x4 ADD DUP1 DUP1 PUSH1 0x20 ADD DUP3 DUP2 SUB DUP3 MSTORE DUP4 DUP2 DUP2 MLOAD DUP2 MSTORE PUSH1 0x20 ADD SWAP2 POP DUP1 MLOAD SWAP1 PUSH1 0x20 ADD SWAP1 DUP1 DUP4 DUP4 PUSH1 0x0 JUMPDEST DUP4 DUP2 LT ISZERO PUSH2 0x3A32 JUMPI DUP2 DUP2 ADD MLOAD DUP4 DUP3 ADD MSTORE PUSH1 0x20 ADD PUSH2 0x3A1A JUMP JUMPDEST POP POP POP POP SWAP1 POP SWAP1 DUP2 ADD SWAP1 PUSH1 0x1F AND DUP1 ISZERO PUSH2 0x3A5F JUMPI DUP1 DUP3 SUB DUP1 MLOAD PUSH1 0x1 DUP4 PUSH1 0x20 SUB PUSH2 0x100 EXP SUB NOT AND DUP2 MSTORE PUSH1 0x20 ADD SWAP2 POP JUMPDEST POP SWAP3 POP POP POP PUSH1 0x40 MLOAD DUP1 SWAP2 SUB SWAP1 REVERT JUMPDEST POP POP POP SWAP1 SUB SWAP1 JUMP JUMPDEST PUSH1 0x0 DUP2 DUP4 PUSH2 0x3AC4 JUMPI PUSH1 0x40 MLOAD PUSH3 0x461BCD PUSH1 0xE5 SHL DUP2 MSTORE PUSH1 0x20 PUSH1 0x4 DUP3 ADD DUP2 DUP2 MSTORE DUP4 MLOAD PUSH1 0x24 DUP5 ADD MSTORE DUP4 MLOAD SWAP1 SWAP3 DUP4 SWAP3 PUSH1 0x44 SWAP1 SWAP2 ADD SWAP2 SWAP1 DUP6 ADD SWAP1 DUP1 DUP4 DUP4 PUSH1 0x0 DUP4 ISZERO PUSH2 0x3A32 JUMPI DUP2 DUP2 ADD MLOAD DUP4 DUP3 ADD MSTORE PUSH1 0x20 ADD PUSH2 0x3A1A JUMP JUMPDEST POP PUSH1 0x0 DUP4 DUP6 DUP2 PUSH2 0x3AD0 JUMPI INVALID JUMPDEST DIV SWAP6 SWAP5 POP POP POP POP POP JUMP JUMPDEST PUSH1 0x40 MLOAD DUP1 PUSH1 0xA0 ADD PUSH1 0x40 MSTORE DUP1 PUSH1 0x0 PUSH1 0x1 PUSH1 0x1 PUSH1 0xA0 SHL SUB AND DUP2 MSTORE PUSH1 0x20 ADD PUSH1 0x0 DUP2 MSTORE PUSH1 0x20 ADD PUSH1 0x0 DUP2 MSTORE PUSH1 0x20 ADD PUSH1 0x0 DUP2 MSTORE PUSH1 0x20 ADD PUSH1 0x0 ISZERO ISZERO DUP2 MSTORE POP SWAP1 JUMP JUMPDEST PUSH1 0x40 MLOAD DUP1 PUSH1 0x40 ADD PUSH1 0x40 MSTORE DUP1 PUSH1 0x2 SWAP1 PUSH1 0x20 DUP3 MUL DUP1 CALLDATASIZE DUP4 CALLDATACOPY POP SWAP2 SWAP3 SWAP2 POP POP JUMP JUMPDEST POP PUSH1 0x0 DUP2 SSTORE PUSH1 0x1 ADD PUSH1 0x0 SWAP1 SSTORE JUMP INVALID LOG2 PUSH5 0x6970667358 0x22 SLT KECCAK256 SWAP7 SWAP13 0x2E 0xC ADDMOD PUSH14 0x9CB96F27BB51CC8D46315F5A9A32 0xE3 0xD5 PUSH31 0xC0A731B7328E50C32D64736F6C634300060A00330000000000000000000000 "
    }
  }
}